:0400000039EF33F0B1
:1000080000C01FF001C01EF002C01DF003C01CF0AC
:1000180004C01BF005C01AF006C019F008C018F09B
:1000280009C017F00AC016F00BC015F0E1CF28F090
:10003800E2CF29F0E9CF26F0EACF27F0F3CF24F07A
:10004800F4CF25F0F5CF23F0F8CF20F0F7CF21F04B
:10005800F6CF22F07DEC31F023C0F5FF20C0F8FF89
:1000680021C0F7FF22C0F6FF24C0F3FF25C0F4FF2C
:100078001FC000F01EC001F01DC002F01CC003F03C
:100088001BC004F01AC005F019C006F018C008F02B
:1000980017C009F016C00AF015C00BF026C0E9FF1A
:0E00A80027C0EAFF28C0E1FF29C0E2FF1100D7
:1000B60035C6C9FFC7B002D00000FCD7C9CF00F0D3
:0200C600120026
:1000C800F250026EF29E0500FF6A0150FE6E00506B
:0800D800FD6E02BEF28E120063
:0400E000899A1200E7
:1000E400F7C3E1FFF8C3E2FFFF0EE66EF5C300F0CD
:1000F400F6C301F0E7DF0050FE0A01E0F1D7120079
:10010400898AF7C3E1FFF8C3E2FFFF0EE66EF5C389
:0A01140000F0F6C301F0D6DF120080
:10011E00400E06012C25006EF7C3E1FFF8C3E2FF87
:10012E0000C0E6FFF5C300F0F6C301F0C6DFF7C36B
:10013E00E1FFF8C3E2FF30C6E6FFF5C300F0F6C3F9
:10014E0001F0BBDFF7C3E1FFF8C3E2FF2FC6E6FF06
:10015E00F5C300F0F6C301F0B0DFF7C3E1FFF8C35B
:10016E00E2FF2EC6E6FFF5C300F0F6C301F0A5DFF1
:10017E00F7C3E1FFF8C3E2FF2DC6E6FFF5C300F0BB
:10018E00F6C301F09ADFF7C3E1FFF8C3E2FF31C611
:10019E00E6FFF5C300F0F6C301F08FDF0601336B07
:1001AE00346BF7C3E1FFF8C3E2FFFF0EE66EF5C353
:1001BE0000F0F6C301F081DF00C032F60601334BCA
:1001CE00342B800E0014016E0150000A07E0000E61
:1001DE00345D02E1640E335D01E2E3D732C600F016
:0201EE001200FD
:1001F00044C6C0F445C6C1F446C6C4F447C6C5F4F7
:10020000800E06014811006E008000C0C3F4120089
:1002100044C6C0F445C6C1F446C6C2F447C6C4F4D9
:1002200048C6C5F4800E06014911006E00C0C3F433
:020230001200BA
:0E023200800E06014411006E00C0C3F41200DD
:10024000000E056E040E066E44C603F0000E046E2A
:1002500003360436039003360436039045C600F097
:10026000000E016E0036013600900050032601504A
:10027000042203C001F004C002F0013601900236EE
:1002800001360190023601C003F002C004F00432CE
:100290000332049E04BC048E04320332049E04BC68
:1002A000048E03C000F004C001F000360090013657
:1002B000003600900136055000260650012200C08D
:1002C00005F001C006F000C0E1FF01C0E2FFE69EBC
:1002D00006014551000A12E144C600F0000E016E0D
:1002E000003600900136A00E0024E16E010E0120C0
:1002F000E26E05C0E6FF06C0E6FF11D044C600F07E
:10030000000E016E003600900136A40E0024E16E4E
:10031000010E0120E26E05C0E6FF06C0E6FF05C043
:10032000E1FF06C0E2FFE69C040E0524E16E000E2C
:080330000620E26EE68C1200CB
:100338001EC602F01FC603F021C600F022C601F057
:10034800010E0601215F000E225B0050011009E03A
:1003580002C0E1FF03C0E2FF20C6E6FF024A032A0B
:0C036800EBD71EC600F01FC601F012000B
:100374000B6A0A6A096A00500402F4CF09F0F3CF49
:1003840008F001500502F4CF0BF0F3CF0AF000504F
:100394000502F3500926F4500A22E86A0B220150A0
:1003A4000402F3500926F4500A22E86A0B2208C01A
:1003B40000F009C001F00AC002F00BC003F0120003
:0E03C400C70E0D6E0D2EFED7000000001200B9
:0E03D200030E0D6E0D2EFED70000000012006F
:1003E0007FDE000E000A03E1040E0001B81909E1E6
:1003F0001EC626F61FC627F620C628F621C629F6F1
:1004000014D0090E006E1EC626F61FC627F620C69B
:1004100028F621C629F6005008E006012637269165
:10042000273728372937FF0FF7D70601180E2C6F0B
:1004300026C62DF627C62EF628C62FF629C630F674
:10044000FF0E316F6CDE005204E05CDE010E006EC8
:100450008BD0F7C3E1FFF8C3E2FFFF0EE66EF5C3F2
:1004600000F0F6C301F030DEF7C3E1FFF8C3E2FFAE
:10047000FF0EE66EF5C300F0F6C301F025DEF7C30C
:10048000E1FFF8C3E2FFFE0EE66EF5C300F0F6C32F
:1004900001F01ADE0601246B256B2551010802E1EB
:1004A0002451FF0815E324512225E96E255123210B
:1004B000EA6EF7C3E1FFF8C3E2FFEECFE6FFF5C354
:1004C00000F0F6C301F000DE0601244B252BE5D732
:1004D000F7C3E1FFF8C3E2FFFF0EE66EF5C300F0DD
:1004E000F6C301F0F1DDF7C3E1FFF8C3E2FFFF0E51
:1004F000E66EF5C300F0F6C301F0E6DDF7C3E1FFF9
:10050000F8C3E2FFFF0EE66EF5C300F0F6C301F09C
:10051000DBDD00C024F6000E0601256F1F0E24153A
:10052000016E25C602F0000E021601C024F602C0BC
:1005300025F6000E021802E1050E011804E0E2DDC6
:10054000020E006E11D0F7C3E1FFF8C3E2FFFF0E09
:10055000E66EF5C300F0F6C301F0B6DD0050FF0A09
:0A05600001E0F1D7CFDD006A1200C0
:10056A00030E06011E25E96E000E1F21EA6EEECF6C
:10057A0009F0000E0A6E0B6E0C6E000E0A6E0B6E00
:10058A000C6E0BC003F00AC002F009C001F0006A49
:10059A0000C009F001C00AF002C00BF003C00CF061
:1005AA00020E1E25D96E000E1F21DA6EDE500024BF
:1005BA00056E000E0120066E000E0220076E000E68
:1005CA000320086E05C009F006C00AF007C00BF048
:1005DA0008C00CF007C003F006C002F005C001F025
:1005EA00006A00C009F001C00AF002C00BF003C0A3
:1005FA000CF0010E1E25D96E000E1F21DA6EDE5098
:10060A000024056E000E0120066E000E0220076E01
:10061A00000E0320086E05C009F006C00AF007C0E4
:10062A000BF008C00CF007C003F006C002F005C0CA
:10063A0001F0006A00C009F001C00AF002C00BF024
:10064A0003C00CF01EC6D9FF1FC6DAFFDE50002613
:10065A00000E01220222032200C009F001C00AF0A2
:10066A0002C00BF003C00CF000C009F001C00AF090
:0A067A0002C00BF003C00CF01200E8
:100684002DDD000E000A03E1040E0001B81909E192
:100694001EC626F61FC627F620C628F621C629F64A
:1006A40014D0090E006E1EC626F61FC627F620C6F5
:1006B40028F621C629F6005008E0060126372691BF
:1006C400273728372937FF0FF7D70601110E2C6F6C
:1006D40026C62DF627C62EF628C62FF629C630F6CE
:1006E400FF0E316F1ADD005204E00ADD010E006EC8
:1006F4004BD0F7C3E1FFF8C3E2FFFF0EE66EF5C38C
:1007040000F0F6C301F0DEDC0050FE0A01E0F1D790
:100714000601246B256B020E255D02E1000E245DAB
:100724001BE2245122252A6F255123212B6FF7C365
:10073400E1FFF8C3E2FFFF0EE66EF5C300F0F6C377
:1007440001F0C0DC2AC6E1FF2BC6E2FF00C0E6FFD1
:100754000601244B252BDFD7F7C3E1FFF8C3E2FFE3
:10076400FF0EE66EF5C300F0F6C301F0ABDCF7C391
:10077400E1FFF8C3E2FFFF0EE66EF5C300F0F6C337
:0A07840001F0A0DCBDDC006A1200E9
:10078E00F7C3E1FFF8C3E2FF4C0EE66EF5C300F0CF
:10079E00F6C301F092DCF7C3E1FFF8C3E2FFE66AAD
:1007AE00F5C300F0F6C301F088DCF7C3E1FFF8C330
:1007BE00E2FFE66AF5C300F0F6C301F07EDCF7C394
:1007CE00E1FFF8C3E2FFE66AF5C300F0F6C301F0FD
:1007DE0074DCF7C3E1FFF8C3E2FFE66AF5C300F08D
:1007EE00F6C301F06ADCF7C3E1FFF8C3E2FFFF0EC8
:1007FE00E66EF5C300F0F6C301F05FDC06011F6B79
:10080E00206BF7C3E1FFF8C3E2FFFF0EE66EF5C300
:10081E0000F0F6C301F051DC00C01EF606011F4BBE
:10082E00202B800E0014016E0150000A07E0000E0E
:10083E00205D02E1640E1F5D01E2E3D71EAF04D01E
:10084E005ADC1EC600F012D0F7C3E1FFF8C3E2FF78
:10085E00FF0EE66EF5C300F0F6C301F02EDC00C00D
:0E086E001EF60050000AF0E046DC006A1200A0
:10087C0033DC0601206B216B020E215D02E1000EC0
:10088C00205D1BE220511E25226F21511F21236F59
:10089C00F7C3E1FFF8C3E2FFFF0EE66EF5C300F00D
:1008AC00F6C301F00BDC22C6E1FF23C6E2FF00C059
:1008BC00E6FF0601204B212BDFD7F7C3E1FFF8C37E
:1008CC00E2FFFF0EE66EF5C300F0F6C301F064EC38
:1008DC0000F0F7C3E1FFF8C3E2FFFF0EE66EF5C3CD
:0C08EC0000F0F6C301F064EC00F0120014
:1008F80006011E51200A09E01E510D0804E3090EE5
:100908001E5D01E302D0006A02D0010E006E1200E3
:1009180020C604F021C605F01EC602F01FC603F06B
:1009280022C600F023C601F0010E0601225F000E68
:10093800235B005001100FE004C0E9FF05C0EAFF87
:1009480002C0E1FF03C0E2FFEECFE6FF024A032A3E
:10095800044A052AE5D71EC600F01FC601F012009A
:1009680070EC00F0000E000A03E1040E0001B81953
:1009780009E11EC622F61FC623F620C624F621C6A4
:1009880025F614D0090E006E1EC622F61FC623F6E1
:1009980020C624F621C625F6005008E006012237B5
:1009A8002291233724372537FF0FF7D70601120E78
:1009B8002C6F22C62DF623C62EF624C62FF625C682
:1009C80030F6FF0E316F8FEC00F0005205E082EC3C
:0C09D80000F0010E006E01D0006A120059
:1009E400010E06011E25E96E000E1F21EA6EEECFF0
:1009F40003F0000E046E000E046E03C001F0006AE2
:100A040000C003F001C004F01EC6D9FF1FC6DAFF00
:100A1400DE500026000E012200C003F001C004F0E5
:0A0A240000C003F001C004F012004E
:100A2E00086A096A100E0C6E013408360936045035
:100A3E00085E0550D8A0053C095ED8B007D004501A
:100A4E0008260550D8B0053C0926D8900036013648
:060A5E000C2EEAD7120085
:100A640006014051000A12E03FC600F0000E016E7C
:100A7400003600900136A40E0024E96E010E012018
:100A8400EA6EEECF04F0EECF05F011D03FC600F0D1
:100A9400000E016E003600900136A00E0024E96EAF
:100AA400010E0120EA6EEECF04F0EECF05F0020E47
:100AB4000424E16E000E0520E26E41C6E6FF42C644
:100AC400E6FF010E0424E16E000E0520E26E43C62B
:100AD400E6FF04C0E9FF05C0EAFFEECF00F004C062
:100AE400E1FF05C0E2FF400E0014E66E04C0E9FF1A
:100AF40005C0EAFFEECF00F004C0E1FF05C0E2FF4D
:100B0400880E0010E66E4051000A1BE03FC600F05C
:100B1400000E016E003600900136A40E0024026E11
:100B2400010E0120036E02C0E9FF03C0EAFF040EB8
:100B3400EE18006E02C0E1FF03C0E2FF00C0E6FF52
:100B44001AD03FC600F0000E016E00360090013648
:100B5400A00E0024026E010E0120036E02C0E9FF04
:100B640003C0EAFF040EEE18006E02C0E1FF03C0EA
:100B7400E2FF00C0E6FF04C000F005C001F012006F
:100B840020C401F01F0E01160150010A01E093D0A8
:100B940004012451000A01E08ED02151060A3CE1EF
:100BA40031D0B451010A14E17D0E0601446F6B0E7D
:100BB400456F000E466F120E4427000E4523462350
:100BC400090E476F000E486F400E496F08EC01F0A4
:100BD40023D00401B451010A0FE1A60E0601446FAB
:100BE4006B0E456F000E466F210E476F000E486F67
:100BF400400E496F08EC01F00FD00601446B19EC6C
:100C040001F00AD004012351210ACBE02351220A26
:100C1400E0E02351230AF1E020C401F0600E011644
:100C2400050E006E005004E00132019EFF0FFBD759
:100C34000150010A01E03FD02BD03DD03CD0BF0E83
:100C44000601446F040E456F010E466F000E476F98
:100C5400400E486FF8EC00F02ED00601446B19ECFE
:100C640001F023C4BFF427D00601BE0E446F040E66
:100C7400456F010E466F000E476F486BF8EC00F0AD
:100C84001AD00601446B19EC01F022C4BEF413D04F
:100C940004012151010AD1E02151090ACFE0215177
:100CA400020ACDE021510A0AD8E02151030ADCE00E
:080CB40021510B0AE6E01200D9
:100CBC00700EE16E0F0EE26E06013F51E126D8B0C8
:100CCC00E22A40C6E6FF40A505D03FC644F6456B78
:100CDC0020EC01F040A306D03FC644F6010E456F50
:060CEC0020EC01F01200F3
:100CF2001EC6E9FF1FC6EAFFEE5213E01EC6E9FF59
:100D02001FC6EAFFEECF01F020C6D9FF21C6DAFFE7
:100D12000150DE1806E106011E4B1F2B204B212B32
:100D2200E7D71EC6E9FF1FC6EAFFEECF00F020C6D6
:100D3200D9FF21C6DAFFDE50005E016A000E015AB9
:020D420012009D
:100D4400560E0C6EB50E0D6E0D2EFED70C2EFCD766
:060D540000000000120087
:100D5A0011C601F012C602F0010E0601115F000E63
:100D6A00125B000E021802E1000E011822E00DC605
:100D7A00E9FF0EC6EAFFEECF01F00FC6D9FF10C693
:100D8A00DAFF0150DE1810E00DC6E9FF0EC6EAFFD1
:100D9A00EECF00F00FC6D9FF10C6DAFFDE50005EB4
:100DAA00016A000E015A07D00D4B0E2B0F4B102B68
:080DBA00CFD7006A016A1200A4
:100DC2000F0E06011A6F060E1B6F0DC61CF60EC61D
:100DD2001DF60F0E1E6F060E1F6F200E206F0B0EDC
:100DE200216F000E226F9CEC01F00DC6E9FF0EC6CA
:100DF200EAFFEE520CE00DC6E9FF0EC6EAFFEECFA7
:100E02001EF679DD005203E00D4B0E2BEED70DC618
:100E12001EF60EC61FF6B30E206F000E216F68DF9E
:100E2200000E011802E1000E001806E12E0E060166
:100E32000F6F2E0E106F5ED006010DC61EF60EC687
:100E42001FF6B60E206F000E216F52DF000E011842
:100E520002E1000E001804E12E0E06010F6F4AD0C7
:100E62000DC6E9FF0EC6EAFFEE521FE00DC6E9FF0E
:100E72000EC6EAFFEECF1EF63EDD005216E10DC6AB
:100E8200E9FF0EC6EAFFEE502E0A0FE00DC6E9FF9B
:100E92000EC6EAFF1AC6E1FF1BC6E2FFEECFE6FF6F
:100EA2001A4B1B2B0D4B0E2BDBD70DC6E9FF0EC6C3
:100EB200EAFFEE502E0A03E106010D4B0E2B06014E
:100EC200170E1A6F060E1B6F0DC6E9FF0EC6EAFF5C
:100ED200EE5020080FE20DC6E9FF0EC6EAFF1AC661
:100EE200E1FF1BC6E2FFEECFE6FF1A4B1B2B0D4BB9
:100EF2000E2BEAD71CC61EF61DC61FF60F0E206F5C
:100F0200060E216F0B0E226F000E236F04DD1200FE
:100F120055C400F056C401F0ABC404F0ACC405F0F3
:100F2200BAEC01F000C00DF601C00EF6020E060189
:100F32000F6F000E106FABC404F0ACC405F0020ECC
:100F4200006E000E016E72DD00C011F601C012F6D5
:100F5200000E136F146F040157510601112704018B
:100F620058510601122304015951060113230401A9
:100F72005A5106011423ABC404F0ACC405F0020EAE
:100F8200006E000E016E52DD08C000F009C001F0D3
:100F920000C002F001C003F0023602900336F10EE7
:100FA2000224156F010E0320166F11C61EF612C61B
:100FB2001FF613C620F614C621F6D5DC010E030176
:100FC200F16FF10E06011E6F010E1F6F56DC060156
:100FD2000E51105D02E10D510F5D2DE215C6E9FFC4
:100FE20016C6EAFFEECF01F0EECF02F0000E0218B5
:100FF20002E1000E011801E11ED0020E1525016E5C
:10100200000E1621026E01C015F602C016F60F4B35
:10101200102B02500101E81902E1E75101180AE11F
:10102200F10E0601156F010E166FF10E1E6F010E05
:101032001F6F23DCCCD7C7EC03F0005208E0100E80
:101042000301F26FFF0E006EFF0E016E10D006015B
:1010520010510E1902E10D510F1905E1FF0E006E3C
:10106200FF0E016E04D00FC600F010C601F0120090
:1010720006010D517A0804E3610E0D5DD8B00D9B97
:061082000DC600F0120093
:1010880006010DBF02D0819E01D0818E0DBD02D018
:10109800819C01D0818C0DBB02D0819A01D0818ABC
:1010A8000DB902D0819801D081880301FFB102D027
:1010B800818601D081968184E9EC01F08194060152
:1010C8000DB702D0819E01D0818E0DB502D0819CD2
:1010D80001D0818C0DB302D0819A01D0818A0DB1E3
:1010E80002D0819801D081880301FFB102D08186A6
:1010F80001D081968184E9EC01F08194FFA102D0AE
:0A1108001DDE02D0E2EC01F012003F
:101112000DC602F00EC603F002C000F003C001F0DB
:10112200024A032A00C0E9FF01C0EAFFEE5201E0D1
:10113200F3D706010D51025C006E0E510358016E89
:0A114200010E005E000E015A1200BB
:10114C000DC611F60EC612F60FC613F610C614F61F
:10115C000601156B166B000E165D02E1080E155D8F
:10116C0019E211C6E9FF12C6EAFFEE50200A01E1AE
:10117C0011D011C6E9FF12C6EAFF13C6E1FF14C66F
:10118C00E2FFEECFE6FF134B142B114B122B154B3A
:10119C00162BE1D7080E0D25016E000E0E21026EE6
:1011AC0001C011F602C012F601C0E9FF02C0EAFF4D
:1011BC00EE50200A29E013C6E1FF14C6E2FF2E0E02
:1011CC00E66E134B142B156B166B000E165D02E1BD
:1011DC00030E155D19E211C6E9FF12C6EAFFEE50C7
:1011EC00200A01E111D011C6E9FF12C6EAFF13C6AD
:1011FC00E1FF14C6E2FFEECFE6FF134B142B114BAD
:10120C00122B154B162BE1D713C6E1FF14C6E2FFC8
:10121C00E66A0D0E0F25E16E000E1021E26E0B0E2C
:10122C000D25E96E000E0E21EA6EEECFE6FF1A0ECA
:10123C000F25176F000E1021186F1C0E0D251E6F39
:10124C00000E0E211F6FB5EC02F017C6E1FF18C699
:10125C00E2FF00C0E6FF01C0E6FF02C0E6FF03C0EC
:10126C00E6FF1E0E0F25176F000E1021186F1A0EB9
:10127C000D251E6F000E0E211F6FF2EC04F017C629
:10128C00E1FF18C6E2FF00C0E6FF01C0E6FF0E0E4C
:10129C000D25006E000E0E21016E00C0E9FF01C08D
:1012AC00EAFFEECF04F0010E0024E96E000E0120DF
:1012BC00EA6EEECF03F003C001F0006A0450002484
:1012CC00036E000E0120046E03C015F604C016F662
:1012DC000E0E0F25006E000E1021016E030E002461
:1012EC00E16E000E0120E26E0B0E026E03C000F0E8
:1012FC0004C001F0025005E001320032019EFF0FE4
:10130C00FAD700C0E6FF0E0E0F25006E000E10215E
:10131C00016E040E0024E16E000E0120E26E050E3B
:10132C00026E15C600F016C601F0025005E001323F
:10133C000032019EFF0FFAD73F0E0014006E00C062
:10134C00E6FF0E0E0F25006E000E1021016E050E2D
:10135C000024E16E000E0120E26E1F0E1515026EC8
:10136C0002C000F00036009000C0E6FF100E0D2504
:10137C00006E000E0E21016E00C0E9FF01C0EAFFF5
:10138C00EECF04F0010E0024E96E000E0120EA6E8F
:10139C00EECF03F003C001F0006A04500024026E8B
:1013AC00000E0120036E02C015F603C016F60E0ED9
:1013BC000F25006E000E1021016E020E0024E16E4E
:1013CC00000E0120E26E1F0E0214006E00C0E6FF3C
:1013DC000E0E0F25006E000E1021016E010E002462
:1013EC00E16E000E0120E26E050E026E15C600F0D5
:1013FC0016C601F0025005E001320032019EFF0FCB
:10140C00FAD70F0E0014006E00C0E6FF0E0E0F256B
:10141C00E16E000E1021E26E090E026E15C600F090
:10142C0016C601F0025005E001320032019EFF0F9A
:10143C00FAD700C0E6FF160E0D25006E000E0E2129
:10144C00016E00C0E9FF01C0EAFFEECF04F0010E0F
:10145C000024E96E000E0120EA6EEECF03F003C00B
:10146C0001F0006A04500024036E000E0120046E8B
:10147C0003C015F604C016F6140E0F25006E000EF0
:10148C001021016E030E0024E16E000E0120E26EAD
:10149C000B0E026E03C000F004C001F0025005E018
:1014AC0001320032019EFF0FFAD700C0E6FF140E86
:1014BC000F25006E000E1021016E040E0024E16E4B
:1014CC00000E0120E26E050E026E15C600F016C667
:1014DC0001F0025005E001320032019EFF0FFAD7F5
:1014EC003F0E0014006E00C0E6FF140E0F25006EB8
:1014FC00000E1021016E050E0024E16E000E01207D
:10150C00E26E1F0E1515026E02C000F00036009040
:10151C0000C0E6FF180E0D25006E000E0E21016EA8
:10152C0000C0E9FF01C0EAFFEECF04F0010E002479
:10153C00E96E000E0120EA6EEECF03F003C001F05D
:10154C00006A04500024026E000E0120036E02C0DB
:10155C0015F603C016F6140E0F25006E000E1021A2
:10156C00016E020E0024E16E000E0120E26E1F0ED1
:10157C000214006E00C0E6FF140E0F25006E000E64
:10158C001021016E010E0024E16E000E0120E26EAE
:10159C00050E026E15C600F016C601F0025005E0ED
:1015AC0001320032019EFF0FFAD70F0E0014006EAD
:1015BC0000C0E6FF140E0F25E16E000E1021E26E46
:1015CC00090E026E15C600F016C601F0025005E0B9
:1015DC0001320032019EFF0FFAD700C0E6FF120065
:1015EC00ABC404F0ACC405F00DC600F00EC601F09F
:1015FC0017EC05F000C015F601C016F6000E06013A
:10160C00176F186F0401575106011525006E040160
:10161C00585106011621016E04015951060117217A
:10162C00026E04015A5106011821036E00C015F612
:10163C0001C016F602C017F603C018F6010E03011E
:10164C00F16F00C01EF601C01FF602C020F603C0E9
:10165C0021F6F10E0601226F010E236F42EC03F00E
:10166C00005208E0100E0301F26FFF0E006EFF0E29
:10167C00016E8FD0ABC404F0ACC405F00DC600F005
:10168C000EC601F017EC05F008C000F009C001F01F
:10169C0000C013F601C014F600C002F001C003F044
:1016AC0002360290033602C013F603C014F6F10E94
:1016BC000224E16E010E0320E26E0FC6E6FF010E5E
:1016CC0006011325006E000E1421016EF10E00248C
:1016DC00E16E010E0120E26E10C6E6FF15C61EF685
:1016EC0016C61FF617C620F618C621F6F10E226F85
:1016FC00010E236FF0EC01F0005208E0050E03011F
:10170C00F26FFF0E006EFF0E016E43D0010E06014C
:10171C00116F000E126F000E125D04E104015251A4
:10172C000601115D34E20401555106011525006EC8
:10173C000401565106011621016E000E1721026E8E
:10174C00000E1821036E00C015F601C016F602C07B
:10175C0017F603C018F600C01EF601C01FF602C033
:10176C0020F603C021F6F10E226F010E236FF0EC70
:10177C0001F0005208E0050E0301F26FFF0E006E3F
:10178C00FF0E016E06D00601114B122BC4D7006A56
:04179C00016A1200CC
:1017A000220E0C6E086A096A0A6A0B6A0C06D8B423
:1017B0001FD0D8900B320A3209320832033202327B
:1017C00001320032D8A0F2D70C06D8B409D00450A8
:1017D00008260550092206500A2207500B22EAD794
:1017E000045008260550092206500A2207500B22F1
:0217F0001200E5
:1017F2000101AD5317E0010E06013F6F1E0E406F4F
:101802005EEC06F0010E3F6F406BAEC141F6AFC118
:1018120042F6400E436F32EC05F000C0A8F101C061
:10182200A9F116D00601010E3F6F1E0E406F5EEC4D
:1018320006F0010E3F6F406BAEC141F6AFC142F6FA
:10184200400E436F32EC05F000C0A8F101C0A9F1CF
:02185200120082
:0C1854000101AD5302E0C2EC05F01200EF
:101860000B6A0A6A096A086A0E6A03340836045069
:10187000085E0550D8A0053C095E0650D8A0063C7D
:101880000A5E0750D8A0073C0B5EE86AD8A0010E9C
:101890000E5E0336070E0C6E0334083609360A3620
:1018A0000B360E36045003A012D0085E0550D8A0A7
:1018B000053C095E0650D8A0063C0A5E0750D8A039
:1018C000073C0B5EE86AD8A0010E0E5E11D0082618
:1018D0000550D8B0053C09260650D8B0063C0A266B
:1018E0000750D8B0073C0B26E86AD8B0010E0E2688
:1018F00003360C2ED1D70234083609360A360B3699
:101900000E36045003A012D0085E0550D8A0053C46
:10191000095E0650D8A0063C0A5E0750D8A0073CD6
:101920000B5EE86AD8A0010E0E5E11D008260550A5
:10193000D8B0053C09260650D8B0063C0A26075008
:10194000D8B0073C0B26E86AD8B0010E0E26023646
:10195000070E0C6E0234083609360A360B360E3680
:10196000045002A012D0085E0550D8A0053C095EC4
:101970000650D8A0063C0A5E0750D8A0073C0B5E74
:10198000E86AD8A0010E0E5E11D008260550D8B026
:10199000053C09260650D8B0063C0A260750D8B0A8
:1019A000073C0B26E86AD8B0010E0E2602360C2E34
:1019B000D1D70134083609360A360B360E360450B4
:1019C00002A012D0085E0550D8A0053C095E065062
:1019D000D8A0063C0A5E0750D8A0073C0B5EE86A18
:1019E000D8A0010E0E5E11D008260550D8B0053CD7
:1019F00009260650D8B0063C0A260750D8B0073C46
:101A00000B26E86AD8B0010E0E260136070E0C6EC2
:101A10000134083609360A360B360E36045001A05A
:101A200012D0085E0550D8A0053C095E0650D8A02B
:101A3000063C0A5E0750D8A0073C0B5EE86AD8A0B7
:101A4000010E0E5E11D008260550D8B0053C0926BF
:101A50000650D8B0063C0A260750D8B0073C0B26E3
:101A6000E86AD8B0010E0E2601360C2ED1D700340C
:101A7000083609360A360B360E36045001A012D04D
:101A8000085E0550D8A0053C095E0650D8A0063C6B
:101A90000A5E0750D8A0073C0B5EE86AD8A0010E8A
:101AA0000E5E11D008260550D8B0053C0926065018
:101AB000D8B0063C0A260750D8B0073C0B26E86A87
:101AC000D8B0010E0E260036070E0C6E0034083614
:101AD00009360A360B360E36045000A012D0085EC6
:101AE0000550D8A0053C095E0650D8A0063C0A5E09
:101AF0000750D8A0073C0B5EE86AD8A0010E0E5E26
:101B000011D008260550D8B0053C09260650D8B09B
:101B1000063C0A260750D8B0073C0B26E86AD8B026
:101B2000010E0E2600360C2ED1D700B00ED0045078
:101B300008260550D8B0053C09260650D8B0063C0A
:0C1B40000A260750D8B0073C0B26120004
:101B4C00010E0301F16F060E006E000E016EFEC356
:101B5C0004F0000E056EBAEC01F0C20E0026010E68
:101B6C000122020E0024E96E000E0120EA6EEECF77
:101B7C001EF6EECF1FF6EECF20F6EECF21F6F10ECD
:101B8C000601226F010E236F42EC03F0005206E0B7
:101B9C00100E0301F26FFF0E006EBCD0FC0E06019E
:101BAC001E6F010E1F6FF2EC04F000C04CF401C06C
:101BBC004DF4FEC14EF4000E04014F6FFF0E0601F2
:101BCC001E6F010E1F6FF2EC04F000C050F401C048
:101BDC0051F401C252F4020E1E6F020E1F6FF2EC92
:101BEC0004F000C053F401C054F4070E1E6F020E33
:101BFC001F6FF2EC04F000C055F401C056F4060E51
:101C0C00006E000E016EFEC304F0000E056EBAEC01
:101C1C0001F0C20E0026010E0122020E0024E96E14
:101C2C00000E0120EA6E04015051EE24006E515159
:101C3C00EE20016E000EEE20026E000EEE20036E02
:101C4C0000C057F401C058F402C059F403C05AF450
:101C5C0052C400F0000E016E55C404F056C405F0D9
:101C6C00BAEC01F0000E026E036E5751002658516B
:101C7C000122595102225A51032200C05BF401C0C7
:101C8C005CF402C05DF403C05EF4050E026E53C436
:101C9C0000F054C401F0025005E00036009001360B
:101CAC00FF0FFAD704014CC404F04DC405F017EC37
:101CBC0005F0000E026E036E5B5100265C51012292
:101CCC005D5102225E51032200C05FF401C060F43A
:101CDC0002C061F403C062F44CC4ABF44DC4ACF468
:101CEC00AC33AB33AC9F050E006E4CC4E9F14DC464
:101CFC00EAF1005006E00101EA33E933EA9FFF0FF5
:101D0C00F9D75BC4EBF15CC4ECF15DC4EDF15EC4DE
:061D1C00EEF1006A120066
:101D22000501FC6BFD6B270EFD5D02E1100EFC5DF3
:101D3200D8B0B3D0000E000A02E1000EFB191AE17E
:101D420070EC00F0010E06012C6F2D6B2E6B2F6BC9
:101D5200306BFF0E316F8FEC00F000C0FEF582ECAD
:101D620000F00501FE51000A04E10001B86B006AAF
:101D720096D08FD070EC00F0370E06012C6F2D6BD1
:101D82002E6B2F6B306BFF0E316F8FEC00F000C0AB
:101D9200FEF582EC00F00501FE51010AD8A478D0CC
:101DA20070EC00F0290E06012C6F000E2D6F000E54
:101DB2002E6F000E2F6F400E306FFF0E316F8FECC3
:101DC20000F000C0FEF582EC00F00501FE51000AB1
:101DD2005EE1000E000A02E1020EFB1953E170EC13
:101DE20000F03A0E06012C6F2D6B2E6B2F6B306BB1
:101DF200FF0E316F8FEC00F000C0FEF5F7C3E1FF7C
:101E0200F8C3E2FFFF0EE66EF5C300F0F6C301F081
:101E120064EC00F000C0FFF5F7C3E1FFF8C3E2FF96
:101E2200FF0EE66EF5C300F0F6C301F064EC00F0BD
:101E3200F7C3E1FFF8C3E2FFFF0EE66EF5C300F061
:101E4200F6C301F064EC00F0F7C3E1FFF8C3E2FF70
:101E5200FF0EE66EF5C300F0F6C301F064EC00F08D
:101E620082EC00F00501FE51000A0BE1FFAD04D047
:101E7200040E0001B86F03D00001030EB86F006AB0
:101E82000ED005D00001010EB86F006A08D001D053
:101E920004D00501FC4BFD2B46D7010E006E12004B
:101EA200ABC404F0ACC405F0FBC500F0FCC501F006
:101EB20017EC05F000C001F601C002F6000E0601A3
:101EC200036F046F0401575106010125006E0401DE
:101ED200585106010221016E0401595106010321E4
:101EE200026E04015A5106010421036E00C001F67C
:101EF20001C002F602C003F603C004F6010E03019C
:101F0200F16F00C01EF601C01FF602C020F603C02A
:101F120021F6F10E0601226F010E236F42EC03F04F
:101F2200005208E0100E0301F26FFF0E006EFF0E6A
:101F3200016E22D0ABC404F0ACC405F0FBC500F0C6
:101F4200FCC501F017EC05F008C000F009C001F073
:101F520000C002F001C003F0023602900336F10E17
:101F6200022406011E6F010E03201F6FF2EC04F023
:0A1F720000C0FBF501C0FCF51200F1
:101F7C00FBC50DF6FCC50EF689EC08F000C0FDF5AE
:101F8C000050000A03E1FF0E006E62D00501FD5106
:101F9C000C0803E2FE0E006E5BD0FBC5D9FFFCC53E
:101FAC00DAFF2E0EDE1803E1FD0E006E51D0FF6B32
:101FBC00FBC501F6FCC502F6FDC5FEF5FE51000899
:101FCC0024E2FE51FB25D96E000EFC21DA6E2E0E9A
:101FDC00DE1818E1010EFF6FFE51080803E2FC0E3B
:101FEC00006E36D0FE51010F006E016A000E012208
:101FFC000050FB250601016F01500501FC21060173
:10200C00026F03D00501FE07D9D70501010EFF1998
:10201C0006E0FD51080803E2FB0E006E19D0010E1C
:10202C00FF1915E101C60DF602C60EF689EC08F093
:10203C0000C0FDF50050000A03E1F50E006E08D05B
:10204C000501FD51030803E2F40E006E01D0006A95
:02205C00120070
:10205E001A0E060101251E6F000E02211F6FF2ECF3
:10206E0004F005C6E1FF06C6E2FF00C0E6FF01C0B0
:10207E00E6FF05C6E9FF06C6EAFFEECF00F0EECF9B
:10208E0001F0005001102DE189EC07F005C6E1FFCB
:10209E0006C6E2FF00C0E6FF01C0E6FF05C6E9FF87
:1020AE0006C6EAFFEECF01F0EECF02F00250FF0AB5
:1020BE0002E1FF0E011806E1040E0301F26FFF0E9E
:1020CE00006E86D105C6E9FF06C6EAFFEECF0DF615
:1020DE00EECF0EF6FF0E06010F6FFF0E106FF6EC31
:1020EE000AF005C6E9FF06C6EAFFEECF00F0EECF16
:1020FE0001F0000E026E036E020E005E000E015A1B
:10210E00025A035A4EC404F04FC405F0000E066E78
:10211E00076ED0EC0BF003C6E1FF04C6E2FF0050E1
:10212E0004015F25E66E01506021E66E02506121CA
:10213E00E66E03506221E66E0101EE5104015E1956
:10214E000EE10101ED5104015D1909E10101EC51AE
:10215E0004015C1904E10101EB5104015B1905E175
:10216E0053C4FDF554C4FEF50ED04EC400F04FC45A
:10217E0001F0E9C104F0EAC105F0BAEC01F000C0CB
:10218E00FDF501C0FEF5EBC109F6ECC10AF6EDC195
:10219E000BF6EEC10CF6F10E0601076F010E086F7D
:1021AE00EBC11EF6ECC11FF6EDC120F6EEC121F615
:1021BE00B4EC04F0010E0301F16FF10E06011E6F77
:1021CE00010E1F6F3EEC04F00501FB6BFC6BFE5124
:1021DE00FC5D02E1FD51FB5DD8B0EBD007C6E9FF17
:1021EE0008C6EAFFEECF01F00150E50A0AE007C685
:1021FE00E9FF08C6EAFFEECF01F0200E015C01E315
:10220E00B1D0C7EC03F0005206E0100E0301F26FDE
:10221E00FF0E006EDDD007C61EF608C61FF601C6FD
:10222E0020F602C621F6200E0601226F000E236F45
:10223E008CEC04F01A0E0725E16E000E0821E26EFA
:10224E0005C6E9FF06C6EAFFFF0EEE14006E00C0DB
:10225E00E6FF1A0E0725006E000E0821016E010E14
:10226E000024E16E000E0120E26E05C6E9FF06C6EF
:10227E00EAFFEECF03F0EECF04F004C000F0016AE7
:10228E0000C0E6FF0E0E0725E16E000E0821E26E7D
:10229E00F3C3E6FF0E0E0725006E000E0821016E39
:1022AE00010E0024E16E000E0120E26EF4C3E6FF83
:1022BE00100E0725E16E000E0821E26EEFC1E6FF5B
:1022CE00100E0725006E000E0821016E010E00246F
:1022DE00E16E000E0120E26EF0C1E6FF160E07253C
:1022EE00E16E000E0821E26EF3C3E6FF160E07251F
:1022FE00006E000E0821016E010E0024E16E000E2C
:10230E000120E26EF4C3E6FF180E0725E16E000E03
:10231E000821E26EEFC1E6FF180E0725006E000ED3
:10232E000821016E010E0024E16E000E0120E26E06
:10233E00F0C1E6FF09C61EF60AC61FF60BC620F64A
:10234E000CC621F6F10E226F010E236FF0EC01F098
:10235E00005206E0050E0301F26FFF0E006E38D03C
:10236E00006A36D0200E06010725016E000E0821E8
:10237E00026E01C007F602C008F602500101E8190C
:10238E0002E1E751011811E1010E06010927000EC5
:10239E000A230B230C23F10E076F010E086FF10EAB
:1023AE001E6F010E1F6F3EEC04F00501FB4BFC2B64
:1023BE000ED7C7EC03F0005206E0100E0301F26FC9
:1023CE00FF0E006E05D00301060EF26FFF0E006EBB
:0223DE001200EB
:1023E0000501FF6B0D0EFF5D1DE2FF51FB25060190
:1023F000006F000E0501FC210601016F0501FF5170
:10240000FD25E96E000EFE21EA6EEECF0DF639ECE9
:1024100008F000C6E1FF01C6E2FF00C0E6FF0501CB
:06242000FF2BE0D71200C3
:102426000601076B086B096B0A6B0501FB51FC1172
:1024360003E1FF0E006EEAD0FBC50DF6FCC50EF6F5
:10244600E1EC06F00101EE5104015E190EE1010115
:10245600ED5104015D1909E10101EC5104015C191A
:1024660004E10101EB5104015B1905E153C403F6D4
:1024760054C404F60ED04EC400F04FC401F0E9C1B6
:1024860004F0EAC105F0BAEC01F000C003F601C0A1
:1024960004F6EBC107F6ECC108F6EDC109F6EEC18C
:1024A6000AF6F10E0601056F010E066FEBC11EF668
:1024B600ECC11FF6EDC120F6EEC121F6B4EC04F036
:1024C600010E0301F16FF10E06011E6F010E1F6F63
:1024D6003EEC04F00601016B026B0451025D02E161
:1024E6000351015DD8B086D005C60DF606C60EF6B8
:1024F600FBC50FF6FCC510F60B0E116F000E126F22
:10250600ADEC06F0000E011802E1000E00184BE1DA
:10251600C7EC03F0005206E0100E0301F26FFF0E47
:10252600006E74D00501FD51FE113BE005C60DF6A7
:1025360006C60EF6FDC50FF6FEC510F6A6EC08F0AB
:10254600200E0501FD25E16E000EFE21E26E07C696
:10255600E6FF08C6E6FF09C6E6FF0AC6E6FF240E42
:10256600FD25E16E000EFE21E26EF10E006E010EFB
:10257600016E00500601055D036E01500659046E9A
:10258600050E026E03C000F004C001F0025005E023
:1025960001320032019EFF0FFAD700C0E6FF01C0EC
:1025A600E6FF006A33D00601200E0525016E000EF7
:1025B6000621026E01C005F602C006F602500101B0
:1025C600E81902E1E751011811E1010E060107279A
:1025D600000E082309230A23F10E056F010E066F6C
:1025E600F10E1E6F010E1F6F3EEC04F00601014B4B
:1025F600022B73D7C7EC03F0005206E0100E03015E
:0E260600F26FFF0E006E02D0FF0E006E12008B
:1026140039C602F03AC603F03CC600F03DC601F0EC
:10262400010E06013C5F000E3D5B0050011009E005
:1026340002C0E1FF03C0E2FF3BC6E6FF024A032AF1
:04264400EBD71200BE
:102648000ED0F9EC0BF03DD03CD02AEC0CF039D090
:1026580038D037D036D035D0000033D032D0000E45
:1026680006013A1902E1010E3919EBE0000E3A1998
:1026780002E1020E3919E8E0000E3A1902E1030EF0
:102688003919E3E03A51000A02E1730E3919E0E022
:102698003A51000A02E1750E3919DBE03A51000A95
:1026A80002E1740E3919D6E03A513F0A02E1FF0EF1
:1026B8003919D1E03A51000A02E1720E3919CCE019
:0826C800CDD7010E006E1200D7
:1026D0000301FF91FBC50DF644EC08F0FF811200E9
:1026E00010D0800E0501986F1AD0C00E986F17D0C9
:1026F000940E986F14D0D40E986F11D0800E986FEE
:102700000ED005019851010AECE09851020AEDE063
:102710009851030AEDE09851040AEDE0EFD79905CE
:10272000006E9851002600C098F500C00DF644ECEC
:1027300008F0FF9105019C6B9C519A25E96E000EF3
:102740009B21EA6EEE520CE09C519A25E96E000E38
:102750009B21EA6EEECFFBF5BBDF05019C2BECD78E
:062760000301FF811200DD
:1027660098C5FBF599C5FCF506DC005206E0120E8D
:102776000301F26FFF0E006E06D2DA0E0501FB6F43
:10278600010EFC6F98C5FDF599C5FEF526DE040120
:102796004A514B1120E01C0E006E000E016EADC4B6
:1027A60004F0000EADBFFF0E056EBAEC01F0730E1D
:1027B6000024E16E040E0120E26E1C0E006E300E47
:1027C600E96E040EEA6EEECFE6FF0006FCE14A6B08
:1027D6004B6BFF0EAD6FE60E06011E6F050E1F6FEB
:1027E600DA0E206F010E216F0D0E226F000E236F81
:1027F6008CEC04F0DA0E0501FB6F010EFC6FC00EC7
:10280600FD6F050EFE6F0CDE800E0018016E800E49
:10281600000A015C67E205019BAF5ED0F36BF46BC7
:10282600F56BF66BF76BF86B580E9B15006E06E0B2
:10283600080E0301F26FFF0E006EA5D19C0E060175
:102846001E6F050E1F6F206B200E216F000E226F6C
:102856009CEC01F07F0E05019B15006E00C0A7F5EC
:102866009C0E06011E6F050E1F6FDA0E206F010EFD
:10287600216F0B0E226F000E236F8CEC04F09C0E62
:10288600016F050E026FF50E036F050E046FF30E52
:10289600056F050E066F2FEC10F0800E0018016E06
:1028A600800E000A015C03E2FF0E006E6CD1E60E9C
:1028B6000501FB6F050EFC6FC00EFD6F050EFE6F6A
:1028C600AFDD800E0018016E800E000A015C03E287
:1028D600FF0E006E58D106D00D0E0301F26FFF0EEB
:1028E600006E51D1580E0501CD15006E06E0080E9A
:1028F6000301F26FFF0E006E46D10501BC6BBD6B86
:10290600000EBD5D02E1020EBC5D4BE21C0E006EC8
:10291600000E016EBCC504F0BDC505F0BAEC01F0B1
:10292600730E0026040E012200C0BEF501C0BFF5DD
:102936001A0E0024E96E000E0120EA6EEE50EE102B
:102946002DE0060EBE25D96E000EBF21DA6EDECF53
:1029560001F0DECF02F0DF51021802E10150DE196C
:102966001DE11A0EBE25E16E000EBF21E26E9AC56C
:10297600E6FF000EE66E1C0E006E300EE16E040ED3
:10298600E26EBEC5E9FFBFC5EAFFEECFE6FF000671
:10299600FCE1BCC5ADF4BCC500F0F5D0BC4BBD2B0D
:1029A600AFD7BC6BBD6B000EBD5D02E1020EBC5D18
:1029B600D8B0E4D01C0E006E000E016EBCC504F04B
:1029C600BDC505F0BAEC01F0730E0026040E012217
:1029D6001A0E0024E96E000E0120EA6EEECF00F01A
:1029E600EECF01F000500110D8A4C4D01C0E006E2A
:1029F600000E016EBCC504F0BDC505F0BAEC01F0D1
:102A0600730E0026040E012200C0BEF501C0BFF5FC
:102A160000C01EF601C01FF60601206B1C0E216FBA
:102A2600000E226F9CEC01F0060E0501BE25026E1B
:102A3600000EBF21036E0C0EBE25006E000EBF21D8
:102A4600016E00C0E1FF01C0E2FFDEC5E6FFDFC5A3
:102A5600E6FF00C0E9FF01C0EAFF02C0E1FF03C0D4
:102A6600E2FFEECFE6FFEECFE6FF1A0EBE25E16EE1
:102A7600000EBF21E26E9AC5E6FF000EE66EBEC5E9
:102A8600E1FFBFC5E2FFE0C5E6FFE1C5E6FFE2C53F
:102A9600E6FFE3C5E6FF040EBE25E16E000EBF218C
:102AA600E26E050E026EE4C500F0E5C501F00250C7
:102AB60005E0003600900136FF0FFAD700C0E6FFAA
:102AC60001C0E6FF160EBE25E16E000EBF21E26EC6
:102AD600DAC5E6FFDBC5E6FFDCC5E6FFDDC5E6FFDA
:102AE6000E0EBE25F96F000EBF21FA6F0C0EBE2525
:102AF600E96E000EBF21EA6EEECF00F0EECF01F0D8
:102B0600000E026E036E020E005E000E015A025A9D
:102B1600035A4EC404F04FC405F0000E066E076E4D
:102B2600D0EC0BF004015F51002660510122615187
:102B3600022262510322F9C5E1FFFAC5E2FF00C095
:102B4600E6FF01C0E6FF02C0E6FF03C0E6FF1C0E7B
:102B5600006E300EE16E040EE26EBEC5E9FFBFC523
:102B6600EAFFEECFE6FF0006FCE1BCC5ADF4BCC54E
:102B760000F009D00501BC4BBD2B15D7090E03018A
:082B8600F26FFE0E006E12005A
:102B8E00010E0301F16FF10E06011E6F010E1F6F94
:102B9E00206B000E216F020E226F9CEC01F00501DE
:102BAE00986B020E985D1BE21C0E006E000E016EFD
:102BBE0098C504F0000E056EBAEC01F0730E0024F9
:102BCE0006011E6F040E01201F6F206B1C0E216F5D
:102BDE00000E226F9CEC01F00501982BE2D7300E0F
:102BEE0006011E6F040E1F6F206B1C0E216F000E50
:102BFE00226F9CEC01F00501986B040E985D1BE2B0
:102C0E00060E006E000E016E98C504F0000E056EE5
:102C1E00BAEC01F0C20E002406011E6F010E012057
:102C2E001F6F206B060E216F000E226F9CEC01F0C1
:102C3E000501982BE2D74C0E06011E6F040E1F6F76
:102C4E00206B170E216F000E226F9CEC01F0F10E1F
:102C5E000101E76F030EE86F0301FE6B0101EB6BE1
:102C6E00EC6BED6BEE6B0301F26B0401B26BB36BAD
:102C7E00AE6BAF6BB06BB16BFF0EAD6FDA0E0601C4
:102C8E001E6F010E1F6F206B0D0E216F000E226F37
:102C9E009CEC01F00301F36BF46B0101EF6BF06B35
:022CAE00120012
:102CB000050E0001B86F929A82EC00F00501986B46
:102CC000996B000E995D02E10A0E985D10E2F7C360
:102CD000E1FFF8C3E2FFFF0EE66EF5C300F0F6C3B6
:102CE00001F064EC00F00501984B992BEAD770ECE9
:102CF00000F006012C6B2D6B2E6B2F6B306B950E3D
:102D0000316F8FEC00F000C09AF582EC00F0050105
:102D10009A51010A03E0010E006E85D070EC00F0BC
:102D2000080E06012C6FAA0E2D6F010E2E6F000EDD
:102D30002F6F306F870E316F8FEC00F000C09AF567
:102D4000F7C3E1FFF8C3E2FFFF0EE66EF5C300F044
:102D5000F6C301F064EC00F0F7C3E1FFF8C3E2FF53
:102D6000FF0EE66EF5C300F0F6C301F064EC00F070
:102D7000F7C3E1FFF8C3E2FFFF0EE66EF5C300F014
:102D8000F6C301F064EC00F0F7C3E1FFF8C3E2FF23
:102D9000FF0EE66EF5C300F0F6C301F064EC00F040
:102DA00082EC00F005019A51010A0BE0010EFB6F65
:102DB00091EC0EF0005204E00501FB6B91EC0EF07B
:102DC00005D0020E0501FB6F91EC0EF0000E000A1B
:102DD00003E1050E0001B81903E1020E006E23D0D5
:102DE000000E000A03E10001040EB8191BE070ECAC
:102DF00000F0100E06012C6F000E2D6F020E2E6FCC
:102E0000000E2F6F306FFF0E316F8FEC00F000C09F
:102E10009AF582EC00F005019A51000A03E0030ED6
:082E2000006E01D0006A1200EF
:102E28000501A26B010E0301F16F06011E6B1F6BFA
:102E3800206B216BF10E226F010E236F42EC03F021
:102E4800005206E0100E0301F26FFF0E006E9CD1D7
:102E5800F10E05019A6F010E9B6FFE0E9A25E96E21
:102E6800010E9B21EA6EEE50550A03E0010E006E3A
:102E78008BD1FF0E9A25E96E010E9B21EA6EEE506A
:102E8800AA0A03E0010E006E7FD1A26B9AC5E9FF82
:102E98009BC5EAFFEE50E90A02E1010EA26F9AC54E
:102EA800E9FF9BC5EAFFEE50EB0A0BE1020E9A25FB
:102EB800E96E000E9B21EA6EEE50900A02E1010EC7
:102EC800A26FA253D8B4BED09E6B9F6BA06BA16BB0
:102ED800C20E986F010E996F98C5E1FF99C5E2FF80
:102EE800800EE66E020E9825E16E000E9921E26EC4
:102EF800E66AE66AE66AE66AA6EC0DF0800E001855
:102F0800016E800E000A015C03E2010E006E3CD1E6
:102F1800040155515611D8B488D002010551041145
:102F2800006E1FE005C29EF5000E05019F6FA06FA1
:102F3800A16FA0C5A1F59FC5A0F59EC59FF59E6B85
:102F48000201045105019E27000E9F23A023A123FF
:102F5800010E9825E16E000E9921E26E040EE66ED0
:102F680011D0050111C29EF512C29FF513C2A0F53A
:102F780014C2A1F5010E9825E16E000E9921E26EAA
:102F8800060EE66E9EC500F09FC501F0A0C502F0D2
:102F9800A1C503F004015F51005E6051015A6151FF
:102FA800025A6251035A4EC404F04FC405F0000E91
:102FB800066E076E30EC0CF000C09EF501C09FF560
:102FC80002C0A0F503C0A1F5000E035C08E1000EE5
:102FD800025C05E10F0E015C02E1F50E005C0CE2FB
:102FE800010E05019825E16E000E9921E26E010E91
:102FF800E66E010E006EC8D00501A151000808E177
:10300800A051000805E19F51FF0802E19E51F50813
:103018000BE2010E9825E16E000E9921E26E0B0E6F
:10302800E66E010E006EB0D00CD00501010E982599
:10303800E16E000E9921E26E0B0EE66E010E006E37
:10304800A3D0A1D0AF0E9A6F030E9B6F9C6B9D6BA4
:10305800000E9D5D02E1040E9C5D58E2060E006EB6
:10306800000E016E9CC504F09DC505F0BAEC01F098
:10307800C20E0026010E012200C098F501C099F584
:103088009AC5E9FF9BC5EAFF00C0E1FF01C0E2FF66
:10309800EECFE6FF040E9A25006E000E9B21016E0E
:1030A80000C09AF501C09BF5010E9825E16E000E4F
:1030B8009921E26E00C0E9FF01C0EAFFEECFE6FF0A
:1030C800040E9A25006E000E9B21016E00C09AF531
:1030D80001C09BF5020E9825A36F000E9921A46FDD
:1030E80000C01EF601C01FF6B5EC02F0A3C5E1FF53
:1030F800A4C5E2FF00C0E6FF01C0E6FF02C0E6FF8C
:1031080003C0E6FF05019C4B9D2BA2D7060E006E5F
:10311800000E016EFEC304F0000E056EBAEC01F05D
:10312800C20E0026010E0122010E0024E96E000ED7
:103138000120EA6EEE50040A1AE0060E006E000E38
:10314800016EFEC304F0000E056EBAEC01F0C20E6B
:103158000026010E0122010E0024E96E000E012056
:10316800EA6EEE50060A03E0010E006E0DD0A6ECE2
:103178000DF0800E0018016E800E000A015C03E25B
:0A318800010E006E01D0006A120073
:1031920004014A514B110AE1070E0301F26FFF0EBF
:1031A200006EFF0E016E026E036EF2D00301010E7D
:1031B200F16F05019B510401495D0EE105019A5130
:1031C2000401485D09E1050199510401475D04E1EB
:1031D200050198510401465D09E246C438F447C42A
:1031E20039F448C43AF449C43BF408D098C538F4D9
:1031F20099C539F49AC53AF49BC53BF44CC404F022
:103202004DC405F0000E066E076E38C400F039C4D6
:1032120001F03AC402F03BC403F030EC0CF04EC4AF
:1032220004F04FC405F0000E066E076E30EC0CF091
:1032320000C09CF501C09DF536C43CF437C43DF492
:10324200000E006E05019D51005C02E19C510008D8
:1032520026E23CC4FBF53DC4FCF551EC0FF000C086
:103262003CF401C03DF40150FF0A02E1FF0E0018D8
:1032720010E146C438F447C439F448C43AF449C4A6
:103282003BF40A0E0301F26F006A016A026A036AE2
:103292007FD0010E05019C5F000E9D5BD1D74CC40F
:1032A20004F04DC405F0000E066E076E38C400F03F
:1032B20039C401F03AC402F03BC403F030EC0CF024
:1032C2004EC404F04FC405F0000E066E076E30ECDB
:1032D2000CF008C000F009C001F00AC002F00BC0F7
:1032E20003F000C042F401C043F43CC400F03DC40A
:1032F20001F0000E026E036E020E005E000E015A15
:10330200025A035A4EC404F04FC405F0000E066E72
:10331200076ED0EC0BF004015F51002660510122D0
:10332200615102226251032242510026435101227D
:10333200000E0222032200C03EF401C03FF402C08C
:1033420040F403C041F44CC404F04DC405F0000E37
:10335200066E076E38C400F039C401F03AC402F0B8
:103362003BC403F030EC0CF008C000F009C001F0DF
:103372000AC002F00BC003F000C044F401C045F4DF
:1033820038C400F039C401F03AC402F03BC403F07F
:02339200120027
:1033940004012251010A0FE120C401F01F0E01169D
:1033A4000150000A08E1C38F2151030A03E1010E11
:1033B400C86F01D0C86B2251000AD8A48BD020C496
:1033C40001F01F0E01160150020AD8A483D024C4B0
:1033D40001F00F0E01160150000AD8B47BD0C38F40
:1033E40024BF16D024C403F00F0E031603C000F04C
:1033F400000E016E003600900136A00E0024E96E26
:10340400010E0120EA6EEECF04F0EECF05F015D0E8
:1034140024C403F00F0E031603C000F0000E016E67
:10342400003600900136A40E0024E96E010E01203E
:10343400EA6EEECF04F0EECF05F02151030A07E166
:1034440004C0E1FF05C0E2FF840EE66E43D024C44D
:1034540000F00F0E0016700E026E0F0E036E005079
:103464000226D8B0032A02C0E9FF03C0EAFFFE0E19
:10347400EE14006EEECF01F0FF0E011602C0E1FF64
:1034840003C0E2FF00C0E6FF01C0E6FF24AF11D095
:1034940004C0E1FF05C0E2FFE66A040E0418006EF2
:1034A40000C004F004C0E1FF05C0E2FF400EE66E78
:1034B40011D004C0E1FF05C0E2FF880EE66E040EE1
:1034C4000418006E00C004F004C0E1FF05C0E2FF70
:0634D400C80EE66E1200B6
:1034DA000401C38F710E0601396F0F0E3A6F3B6BF1
:1034EA00010E3C6F000E3D6F0AEC13F0C90E396FE6
:1034FA00040E3A6F3B6B010E3C6F000E3D6F0AECF7
:10350A0013F022C4B4F40401B451000A04E1100E09
:10351A000301FD6F12D00301200EFD6F010E06019B
:10352A00396F000E3A6FB40E3B6F040E3C6F010EFA
:0C353A003D6F000E3E6F24EC13F01200F9
:103546000401286B296B42D0C38F2881C851010A18
:10355600D8B4288350D0C38F4ED0C38F24BF16D083
:1035660024C403F00F0E031603C000F0000E016E14
:10357600003600900136A00E0024E96E010E0120EF
:10358600EA6EEECF04F0EECF05F015D024C403F0BA
:103596000F0E031603C000F0000E016E00360090F9
:1035A6000136A40E0024E96E010E0120EA6EEECF6C
:1035B60004F0EECF05F004C0E9FF05C0EAFFEECF48
:1035C60001F001A402D0010E286F15D020C401F02D
:1035D6001F0E01160150000AB7E020C401F01F0EAD
:1035E60001160150010AB7E020C401F01F0E0116B2
:1035F6000150020AB2E0C3AF07D0280EC06F040E16
:0A360600C16FC381020EC46F1200F1
:10361000000E0401C55D02E1080EC45D10E2C4C4E1
:1036200003F0C5C404F0CB51000A03E1010ECB6FD7
:1036300005D0CB51010A02E1020ECB6F04D0080E77
:10364000036E000E046EA4C1E1FFA5C1E2FFE69285
:10365000A4C1E1FFA5C1E2FFE690A4C1E9FFA5C1B5
:10366000EAFFEECF00F0A4C1E1FFA5C1E2FF0450E4
:103670000010E66E010E0101A425E16E000EA521E9
:10368000E26E03C0E6FF03500401C45D006E045007
:10369000C559016E00C0C4F401C0C5F4280EC66F40
:1036A000040EC76FC3B12FD0035004102BE0C0C469
:1036B000F6FFC1C4F7FFC2C4F8FF0900F5CF00F060
:1036C000C6C4E1FFC7C4E2FF00C0E6FFC64BC72B7C
:1036D000010EC025006E000EC121016E000EC22138
:1036E000026E00C0C0F401C0C1F402C0C2F4010EF9
:1036F000035C006E000E0458016E00C003F001C0B0
:1037000004F0D2D724D00350041021E0C0C4E9FF54
:10371000C1C4EAFFC6C4E1FFC7C4E2FFEECFE6FFC3
:10372000C64BC72B010EC025006E000EC121016ED5
:1037300000C0C0F401C0C1F4010E035C006E000EB5
:103740000458016E00C003F001C004F0DCD7120081
:1037500004012051800AD8A473D0C00EC36F66D074
:10376000C70E006E6B0E016E000E026E00C0C0F43C
:1037700001C0C1F402C0C2F4120EC46F000EC56FC6
:103780005FD0030E006E000E016E22C404F0000E26
:10379000056EBAEC01F0B60E0024E96E010E0120B0
:1037A000EA6EEECFC0F4EECFC1F4EECFC2F4020E5B
:1037B000C025F66E000EC121F76E000EC221F86E14
:1037C0000900F5CF00F00900F5CF01F000C0C4F406
:1037D00001C0C5F435D0030E225D24E2030E006E55
:1037E000000E016E22C404F0000E056EBAEC01F06A
:1037F000B90E0024E96E010E0120EA6EEECFC0F48E
:10380000EECFC1F4EECFC2F4C0C4F6FFC1C4F7FFDF
:10381000C2C4F8FF0900F5CF00F000C0C4F4000EE8
:10382000C56F01D0C36B0CD0C36B0AD02351010A02
:1038300097E02351020AA5E02351030ACCE0F4D714
:02384000120074
:10384200070E05018F5D02E1BC0E8E5D04E3BC0E26
:103852008E5F070E8F5B7F0E8E17000E8F170F0E77
:103862009015016E01C090F501500C0802E20C0E99
:10387200906F010E905D02E2010E906F91511F0850
:1038820002E21F0E916F010E915D02E2010E916F35
:1038920092511708D8A0926B93513B08D8A0936B12
:1038A20094513B08D8A0946B090E006E8EC5EFF1BF
:1038B2008FC5F0F1005006E00101EF37EF91F037CC
:1038C200FF0FF9D790C503F0000E046E050E026ECD
:1038D20003C000F004C001F0025005E00036009081
:1038E2000136FF0FFAD701010050EF130150F01318
:1038F200050191510101EF13000EF01392C5F3F38C
:10390200000E0301F46F0B0E006E005005E0F3375A
:10391200F391F437FF0FFAD793C503F0000E046E4C
:10392200050E026E03C000F004C001F0025005E073
:10393200003600900136FF0FFAD703010050F3134F
:103942000150F41394C500F00032009E0050F313AE
:06395200000EF413120048
:10395800ADC491F5F2C393F58EC598F58FC599F569
:10396800070E05019A6F90C59BF5B3EC13F000C0E4
:1039780092F5800E0018016E800E000A015C38E294
:1039880005019251FE0A32E193C5F2F31C0E006E56
:10399800000E016E91C504F0000E91BFFF0E056E7A
:1039A800BAEC01F0730E0026040E01221A0E002450
:1039B800E16E000E0120E26EE66AE66A8EC598F5B1
:1039C8008FC599F5070E9A6F90C59BF5B3EC13F068
:1039D80000C092F5800E0018016E800E000A015C8E
:1039E80002E2006A07D0020E006E04D0006A02D01C
:0639F800010E006E12003A
:0A39FE00D08EA28AA08AF28E120079
:103A0800060E04014A15006E4BC401F0000E0116A3
:103A18000050011004E1070E0301F26F3AD20501CC
:103A28009051911101E135D2010E0301F16F0401AA
:103A38004551020A02E1000E441925E0000E45191D
:103A480002E1000E44190AE14D510501915D04E1BE
:103A580004014C510501905D01E315D03EC41EF6EA
:103A68003FC41FF640C420F641C421F6F10E0601FA
:103A7800226F010E236F42EC03F0005204E0100E97
:103A88000301F26F06D20501926B936B9151935D1E
:103A980002E19051925DD8B023D104014551020A48
:103AA80002E1000E4419D8A4FCD0050192519311EB
:103AB8002DE03EC41EF63FC41FF640C420F641C4A4
:103AC80021F6F10E0601226F010E236FF0EC01F0D2
:103AD80000521CE00501925104013825006E0501D1
:103AE800935104013921016E000E3A21026E000E35
:103AF8003B21036E00C038F401C039F402C03AF427
:103B080003C03BF4050E0301F26FC3D10401446BFB
:103B1800456B010E3E25006E000E3F21016E000E22
:103B28004021026E000E4121036E00C03EF401C028
:103B38003FF402C040F403C041F4010E4225006E78
:103B4800000E4321016E00C042F401C043F443510A
:103B58004F1902E14E5142196AE13CC4FBF53DC4DC
:103B6800FCF551EC0FF000C094F501C095F501503B
:103B7800FF0A02E1FF0E00182DE189EC07F000C0F2
:103B880094F501C095F50150FF0A02E1FF0E0018F7
:103B98000CE146C438F447C439F448C43AF449C47B
:103BA8003BF40A0E0301F26F74D13CC40DF63DC418
:103BB8000EF694C50FF695C510F6F6EC0AF094C506
:103BC8000DF695C50EF6FF0E06010F6FFF0E106F6E
:103BD800F6EC0AF094C53CF495C53DF40401426B3B
:103BE800436B3CC400F03DC401F0000E026E036E4E
:103BF800020E005E000E015A025A035A4EC404F027
:103C08004FC405F0000E066E076ED0EC0BF05F5146
:103C1800002660510122615102226251032200C034
:103C28003EF401C03FF402C040F403C041F4050172
:103C38009251905D016E93519159026E020E025C91
:103C480002E1000E015C2DE23EC41EF63FC41FF6E1
:103C580040C420F641C421F6F10E0601226F010E80
:103C6800236F42EC03F000521CE00501925104015D
:103C78003825006E0501935104013921016E000EAB
:103C88003A21026E000E3B21036E00C038F401C0D9
:103C980039F402C03AF403C03BF4100E0301F26F8A
:103CA800F8D0F10E04014425E16E010E4521E26EC3
:103CB800050192518E25E96E93518F21EA6EEECF60
:103CC800E6FF010E04014425006E000E4521016E39
:103CD80000C044F401C045F40501924B932BD6D69D
:103CE80004014451451115E03EC41EF63FC41FF6B9
:103CF80040C420F641C421F6F10E0601226F010EE0
:103D0800236FF0EC01F0005204E0050E0301F26F9E
:103D1800C0D00501905104013825016E050191516B
:103D280004013921026E000E3A21036E000E3B2178
:103D3800046E01C038F402C039F403C03AF404C078
:103D48003BF40450495D08E10350485D05E1025029
:103D5800475D02E10150465D08E238C446F439C4C3
:103D680047F43AC448F43BC449F430C41EF631C49D
:103D78001FF632C420F633C421F6F10E0601226F75
:103D8800010E236F42EC03F0005204E0100E030111
:103D9800F26F7FD0F10E04013425006E010E35213B
:103DA800016E00C096F501C097F51C0E0024E16E67
:103DB800000E0120E26E46C4E6FF1C0E05019625A2
:103DC800006E000E9721016E010E0024E16E000EB8
:103DD8000120E26E47C4E6FF1C0E9625006E000E19
:103DE8009721016E020E0024E16E000E0120E26EA2
:103DF80048C4E6FF1C0E9625006E000E9721016E42
:103E0800030E0024E16E000E0120E26E49C4E6FFB5
:103E1800160E9625E16E000E9721E26EF3C3E6FFBB
:103E2800160E9625006E000E9721016E010E0024D5
:103E3800E16E000E0120E26EF4C3E6FF180E96252F
:103E4800E16E000E9721E26EEFC1E6FF180E96258F
:103E5800006E000E9721016E010E0024E16E000E27
:103E68000120E26EF0C1E6FF30C41EF631C41FF631
:103E780032C420F633C421F6F10E0601226F010E7A
:103E8800236FF0EC01F0005204E0050E0301F26F1D
:043E980000D0120044
:103E9C0005018E6B58EC16F005018E2B005204E0D8
:103EAC00320E8E5D01E2F6D7320E8E5D03E3FF0E0D
:0E3EBC00006E04D0C7EC15F014EC17F01200E5
:103ECA00010E0401CE25E96E000ECF21EA6EEECF77
:103EDA0000F000C002F0000EB95D02E10250B85DC8
:103EEA0003E2B8C402F00AD00250B85D006E000EB8
:103EFA00B959016E00C0B8F401C0B9F4036A02509E
:103F0A00035C1CE2280EE96E040EEA6E0350E926F1
:103F1A00D8B0EA2AEECF00F0B5C4E1FFB6C4E2FF9A
:103F2A0000C0E6FF010EB525006E000EB621016E37
:103F3A0000C0B5F401C0B6F4032AE1D7000E006E42
:103F4A00B951005C02E1B851000828E2010ECC2503
:103F5A00E16E000ECD21E26E080EE66E020ECC2551
:103F6A00E16E000ECD21E26E280EE66E040EE66EBC
:103F7A00CEC4E9FFCFC4EAFFEECF00F000BC07D001
:103F8A00CCC4E1FFCDC4E2FFC80EE66E06D0CCC4B5
:103F9A00E1FFCDC4E2FF880EE66E19D0010ECC25F2
:103FAA00E16E000ECD21E26E080EE66E020ECC2501
:103FBA00E16E000ECD21E26E200EE66E040EE66E74
:103FCA00CCC4E1FFCDC4E2FF840EE66EB79F1200B7
:103FDA006D980401C3BF4BD0B7AF2AD0020ED16F80
:103FEA00010E0101A425E16E000EA521E26EE66A2A
:103FFA00A4C1E1FFA5C1E2FFC80EE66E010E0401ED
:10400A00CC25E16E000ECD21E26E080EE66E020EA0
:10401A00CC25E16E000ECD21E26E280EE66E040E6E
:10402A00E66ECCC4E1FFCDC4E2FFC80EE66E1ED038
:10403A00010ECC25E16E000ECD21E26E080EE66E71
:10404A00020ECC25E16E000ECD21E26E200EE66E48
:10405A00040EE66ECCC4E1FFCDC4E2FF8C0EE66E20
:10406A00A4C1E1FFA5C1E2FF840EE66E81D0B7BF0D
:10407A007FD020AF53D0C551275D02E1C451265DE0
:10408A0004E226C4C4F427C4C5F408EC1BF0010EEC
:10409A00D16F010ECC25E16E000ECD21E26E080E25
:1040AA00E66E020ECC25E16E000ECD21E26E200EE8
:1040BA00E66E040EE66ECCC4E1FFCDC4E2FF800ECC
:1040CA00E66ED06B010ECE25E16E000ECF21E26EB8
:1040DA00080EE66E020ECE25E16E000ECF21E26ECC
:1040EA00200EE66E040EE66ECEC4E1FFCFC4E2FFF8
:1040FA00840EE66E010ED06F020E0101A425E16E58
:10410A00000EA521E26E280EE66E040EE66EA4C12C
:10411A00E1FFA5C1E2FFC80EE66E2AD0020E040135
:10412A00D16F010E0101A425E16E000EA521E26EF8
:10413A00E66AA4C1E1FFA5C1E2FFC80EE66E010E60
:10414A000401CC25E16E000ECD21E26E080EE66E6A
:10415A00020ECC25E16E000ECD21E26E280EE66E2F
:10416A00040EE66ECCC4E1FFCDC4E2FFC80EE66ED3
:02417A00120031
:10417C0020C401F0600E0116050E006E005004E024
:10418C000132019EFF0FFBD70150000A01E06AD0FB
:10419C0046D00401C38F080E0301FD6F63D0A8EC59
:1041AC001BF060D06DEC1AF05DD0B40E0401C06F42
:1041BC00040EC16FC381010EC46FC38F53D0A3EC27
:1041CC001AF050D0CAEC19F04DD0C90E006E040E86
:1041DC00016E24510026D8B0012A00C0C0F401C0E1
:1041EC00C1F4C381010EC46FC38F3CD0C38FC90E01
:1041FC00E16E040EE26E2451E126D8B0E22A22C40C
:10420C00E6FF30D0020E0601396F000E3A6F3B6BA1
:10421C003C6B3D6B3E6B24EC13F024D023D004019B
:10422C002151050AB6E02151060AB9E02151090ACB
:10423C00B9E02151080AB9E02151000AC0E021512E
:10424C00010AC0E02151030ABDE021510A0ABDE078
:10425C0021510B0ACBE02151070AD4E021510C0A61
:06426C00DDE0DCD71200CA
:10427200010E06010D6F44EC08F00F0E06010D6FE2
:1042820044EC08F0010E0501986F010E996F8EC57E
:0C4292009AF58FC59BF570EC13F012003C
:10429E000401D16BA4C1E1FFA5C1E2FFE66A040EE1
:1042AE000101A419E16EA5C1E2FF000EE21AE66A51
:0A42BE000401B7AF01D0B79F120052
:1042C800086A080E0C6E003408360450085ED8B030
:0E42D80002D00826D89000360C2EF5D7120022
:1042E60005018F51000A12E08EC500F0000E016E26
:1042F600003600900136A40E0024E96E010E01205E
:10430600EA6EEECF04F0EECF05F011D08EC500F0C8
:10431600000E016E003600900136A00E0024E96EF4
:10432600010E0120EA6EEECF04F0EECF05F0020E8C
:104336000424E16E000E0520E26E90C5E6FF91C5ED
:10434600E6FF010E0424E16E000E0520E26E92C522
:10435600E6FF04C0E9FF05C0EAFFEECF00F004C0A7
:10436600E1FF05C0E2FF400E0014E66E04C0E9FF5F
:1043760005C0EAFFEECF00F004C0E1FF05C0E2FF92
:10438600880E0010E66E8F51000A1BE08EC500F005
:10439600000E016E003600900136A40E0024026E57
:1043A600010E0120036E02C0E9FF03C0EAFF040EFE
:1043B600EE18006E02C0E1FF03C0E2FF00C0E6FF98
:1043C6001AD08EC500F0000E016E00360090013640
:1043D600A00E0024026E010E0120036E02C0E9FF4A
:1043E60003C0EAFF040EEE18006E02C0E1FF03C030
:1043F600E2FF00C0E6FF04C000F005C001F01200B5
:0E440600160E6F6E9F0E6B6E7B0E696E1200AF
:0E441400270E0D6E0D2EFED7000000001200C8
:104422008EC502F08FC503F091C500F092C501F070
:10443200010E0501915F000E925B0050011009E030
:1044420002C0E1FF03C0E2FF90C5E6FF024A032A71
:04445200EBD7120092
:104456000501906B90518E25E96E000E8F21EA6E54
:10446600EE520DE090518E25E96E000E8F21EA6E18
:10447600EECFFBF568EC13F00501902BEBD712009D
:1044860005018E6B906B916B100E926F040E915D11
:104496001FE2F00E836E921D956EE9EC01F0E9ECD9
:1044A60001F00F0E8314006E00C08FF500520AE073
:1044B60090C58EF58F5304E08F338F9F8E2BFAD7DE
:1044C600040E916F92379291040E9027912BDED7AE
:0644D6008EC500F012008B
:1044DC00000E05018F1902E1000E8E1902E1016A2E
:1044EC0009D08EC5E9FF8FC5EAFFEECF00F0016A57
:0A44FC0000BE012A01C000F012000A
:10450600C7B409D01F0EC514016E0150000A03E19D
:0A451600010E006E01D0006A1200D1
:10452000060E04014A15006E4BC401F0000E011680
:104530000050011004E1070E0301F26F07D00501DE
:0E454000986B996B9A6B9B6BC9EC18F012008C
:10454E007D0E0101B66F6B0EB76F000EB86FED0EDC
:10455E00B96F6B0EBA6F000EBB6FDD0EBC6F6A0EBD
:10456E00BD6F000EBE6F530EBF6F6B0EC06F000E91
:04457E00C16F1200F7
:104582000301FD51000A0BE16D6A696A3BDFFFEC32
:104592001CF06DB602D06D86FCD7010EFD6F1200C5
:1045A200010E06010D6F44EC08F00F0E06010D6FAF
:1045B20044EC08F0800E06010D6F44EC08F089C54A
:0A45C2008EF58AC58FF546DF120062
:1045CC00B60E0301F56F000EF66F350EF76F060E83
:1045DC00F86FFF0E04016F6FFF0E706FFF0E716F9F
:1045EC00FF0E726F949E05018951040A02E19382B9
:1045FC0001D093929380C66A8951C6128B51C61210
:10460C008A51C7128B5305E08C51000AD8B4C78C61
:0C461C0003D08C53D8A4C78CC68A1200AF
:1046280092DFA86BA96B9E6B9F6B6A6A686AE7DE6C
:104638006D8C6E6A710E05018E6F0F0E8F6F906B09
:10464800010E916F000E926FE8DE6D9C896B080E6B
:10465800895D16E289C500F0000E016E00360090F3
:104668000136003600900136000E0024E16E040E7B
:104678000120E26EE66AE66AE66AE66A892BE7D70F
:10468800160E706E68A603D0F70E6816FBD70401E5
:10469800C36BB76BB86BB96B6D98080E0101A46F4B
:0E46A800040EA56F0401B46B0301FD6B12003C
:1046B6004EEC1FF00050000A03E1006A016A0AD0BE
:1046C600D30E05018E6F000E8F6FD0DDFF0E006ECC
:0646D600FF0E016E120050
:1046DC00A4C1E9FFA5C1EAFFEECF00F0000E00BCBB
:1046EC00010E0601386F040E0101A419006E00C002
:1046FC00A4F10301FD51080A0AE122C46EFF6E50B9
:10470C00000803E2100EFD6F02D0040EFD6F0401D1
:10471C00D151010A2DE1020E0101A425E16E000E1A
:10472C00A521E26E280E006E040E016E00C0E6FF9D
:10473C0001C0E6FF08EC1BF0CB51020A07E1A4C153
:10474C00E1FFA5C1E2FF840EE66E11D006013851DF
:10475C00000A07E1A4C1E1FFA5C1E2FFC80EE66EA5
:10476C0006D0A4C1E1FFA5C1E2FF880EE66E01D020
:04477C0090DD1200BA
:104780000401D151020A03E165EC1FF01ED087DD60
:10479000D051000A19E1010ECC25E16E000ECD21A9
:1047A000E26E080EE66E020ECC25E16E000ECD2103
:1047B000E26E200EE66E040EE66ECCC4E1FFCDC4C0
:0C47C000E2FF8C0EE66E01D0D06B120000
:1047CC00A4C1E9FFA5C1EAFFEECF00F000AE05D011
:1047DC00A4C1E1FFA5C1E2FFE66A0401CB6BD16B7A
:1047EC00C46BC56BC36BC4DC030E0601396F000EC2
:1047FC003A6F3B6B3C6B3D6B3E6B24EC13F0EDEC7A
:04480C001FF0120087
:1048100070D089C5E1FF8AC5E2FF310EE66ED9D0BE
:1048200089C5E1FF8AC5E2FF320EE66ED2D089C5A6
:10483000E1FF8AC5E2FF330EE66ECBD089C5E1FF0A
:104840008AC5E2FF2F0EE66EC4D089C5E1FF8AC596
:10485000E2FF340EE66EBDD089C5E1FF8AC5E2FFF6
:10486000350EE66EB6D089C5E1FF8AC5E2FF360E89
:10487000E66EAFD089C5E1FF8AC5E2FF2A0EE66E7B
:10488000A8D089C5E1FF8AC5E2FF370EE66EA1D048
:1048900089C5E1FF8AC5E2FF380EE66E9AD089C568
:1048A000E1FF8AC5E2FF390EE66E93D089C5E1FFCC
:1048B0008AC5E2FF410EE66E8CD089C5E1FF8AC54C
:1048C000E2FF200EE66E85D089C5E1FF8AC5E2FFD2
:1048D000300EE66E7ED089C5E1FF8AC5E2FF2D0E5F
:1048E000E66E77D089C5E1FF8AC5E2FF420EE66E2B
:1048F00070D089C5E9FF8AC5EAFFEE50010A89E058
:1049000089C5E9FF8AC5EAFFEE50020A89E089C538
:10491000E9FF8AC5EAFFEE50030A89E089C5E9FF8D
:104920008AC5EAFFEE50040A89E089C5E9FF8AC515
:10493000EAFFEE50050A89E089C5E9FF8AC5EAFF6A
:10494000EE50060A89E089C5E9FF8AC5EAFFEE5004
:10495000070A89E089C5E9FF8AC5EAFFEE50080A1F
:1049600089E089C5E9FF8AC5EAFFEE50090A89E0B6
:1049700089C5E9FF8AC5EAFFEE500A0A89E089C5C0
:10498000E9FF8AC5EAFFEE500B0A89E089C5E9FF15
:104990008AC5EAFFEE500C0A89E089C5E9FF8AC59D
:1049A000EAFFEE500D0A89E089C5E9FF8AC5EAFFF2
:1049B000EE500E0A89E089C5E9FF8AC5EAFFEE508C
:1049C0000F0A89E089C5E9FF8AC5EAFFEE50100A9F
:0449D00089E0120068
:1049D4008BC5F6FF8CC5F7FF8DC5F8FF0900F5CF31
:1049E40000F089C5E1FF8AC5E2FF00C0E6FF8BC580
:1049F400F6FF8CC5F7FF8DC5F8FF0900F5CF01F070
:104A04000150000A01E109D0010E05018B27000EB7
:104A14008C238D23894B8A2BDBD789C500F08AC56B
:044A240001F012008B
:104A2800410E0101296FDA0E05018E6F070E8F6F97
:104A3800040E906F130E916F090E926F936B946B27
:104A480021EC1CF0220E05018E6F010E8F6FA00E57
:104A5800906FACEC1CF060DD010E0401D26FD251F6
:104A6800630821E30A0E046ED2C400F029DC300E7C
:104A780000240101726F0A0E046ED2C400F020DC1B
:104A880008C000F0300E0024736F720E05018E6F9F
:104A9800010E8F6F2A0E906F000E916F04EC1DF0BF
:084AA8000401D22BDCD712003F
:104AB0000501896B8A6B8A51120802E189518E08BF
:104AC00008E321DD005201E004D00501894B8A2B67
:104AD000F2D70501120E8A5D02E18F0E895D03E3B4
:104AE0007B0E006E05D0C580C5A001D0FDD7006A41
:024AF0001200B2
:104AF20070EC00F0090E06012C6F2D6B2E6B2F6BE4
:104B0200306BFF0E316F8FEC00F0005205E082EC4B
:104B120000F0010E006E4BD0F7C3E1FFF8C3E2FFD5
:104B2200FF0EE66EF5C300F0F6C301F064EC00F090
:104B32000050FE0A01E0F0D705018B6B100E8B5D71
:104B42001BE28B5189258C6F000E8A218D6FF7C372
:104B5200E1FFF8C3E2FFFF0EE66EF5C300F0F6C315
:104B620001F064EC00F08CC5E1FF8DC5E2FF00C0EE
:104B7200E6FF05018B2BE2D7F7C3E1FFF8C3E2FFA3
:104B8200FF0EE66EF5C300F0F6C301F064EC00F030
:104B9200F7C3E1FFF8C3E2FFFF0EE66EF5C300F0D4
:104BA200F6C301F064EC00F082EC00F0006A12003F
:104BB2009E9689C5C9FFC7A401D0FDD79EB601D074
:104BC200FDD7C5BC02D0006A03D0C584020E006EB8
:024BD2001200CF
:104BD400200E0301FD5D03E36DB201D002D0006A33
:104BE40037D09EC18EF59FC18FF576DC00522FE140
:104BF4008CC58EF5010E8F6F89C590F58AC591F528
:104C04008BC592F573EC21F000C09EF101C09FF1B9
:104C14000101B06BB16BB26BB36B9EC18EF59FC1DA
:104C24008FF55ADC005209E00101B051B111B21103
:104C3400B31102E0006A0CD0F0D70101010E9E25E9
:104C4400E96E000E9F21EA6EEECF00F001D0006AFB
:024C540012004C
:0A4C5600C582C5A201D0FDD71200EF
:104C6000200E0301FD5D03E36DB201D002D0006AA6
:104C700026D0A8C18EF5A9C18FF530DC00521EE107
:104C8000010E0101A825E96E000EA921EA6EEECF02
:104C900000F000C08DF58CC58EF505018F6B89C5C0
:104CA00090F58AC591F58BC592F573EC21F000C0A3
:104CB000A8F101C0A9F18DC500F001D0006A120071
:104CC00089C5E9FF8AC5EAFFEE5005018B1905E1A8
:104CD00089C500F08AC501F010D089C500F08AC5E9
:104CE00001F0894B8A2B00C0E9FF01C0EAFFEECF3B
:0C4CF00000F00052E5E1006A016A1200C9
:104CFC0043EC22F000C089F50F0E8314006E03E024
:0C4D0C000AEC22F0F9D789C500F0120073
:064D1800FF0E956E120073
:104D1E00939493969398939A939C939E8194819651
:104D2E00819E819C819A8198A2EC06F0A2EC06F0FD
:104D3E00A2EC06F0818A81888184E9EC01F08194ED
:104D4E00A2EC06F08184E9EC01F08194A2EC06F06D
:104D5E008184E9EC01F08194A2EC06F081988184C3
:104D6E00E9EC01F08194A2EC06F08184E9EC01F00B
:104D7E008194819A818E8184E9EC01F08194A2EC78
:104D8E0006F0819E81888184E9EC01F081948198FE
:104D9E008184E9EC01F08194A2EC06F08184E9ECC7
:104DAE0001F0819481888184E9EC01F08194A2EC78
:104DBE0006F081988184E9EC01F08194818E818CDA
:104DCE00818A81888184E9EC01F08194A2EC06F05D
:064DDE000301FF81120039
:104DE40010D0800E0501896F1AD0C00E896F17D0BC
:104DF400940E896F14D0D40E896F11D0800E896FF0
:104E04000ED005018951010AECE08951020AEDE056
:104E14008951030AEDE08951040AEDE0EFD78A05D0
:104E2400006E8951002600C089F50301FF8100C08E
:104E34000DF644EC08F0FF918BC50DF644EC08F038
:044E4400FF811200D8
:104E48009E96C5869EB601D0FDD7C9CF01F0050153
:104E58008951000A02E1C58A01D0C59A9E96C58883
:0C4E68009EB601D0FDD701C000F0120082
:104E74008DC500F005018D0700522BE089C5E9FFBF
:104E84008AC5EAFFEE50000A0EE08BC5E9FF8CC527
:104E9400EAFFEECF01F089C5E9FF8AC5EAFFEE50CB
:104EA400011801E110D089C5E9FF8AC5EAFFEECFF8
:104EB40000F08BC5D9FF8CC5DAFFDE50005E016AB5
:104EC400000E015A08D00501894B8A2B8B4B8C2B81
:084ED400CFD7006A016A120049
:044EDC00C584120077
:104EE00070A019D0CEC4E9FFCFC4EAFFEECF01F025
:104EF0000150800A0FE1A4C1E9FFA5C1EAFFEECF8E
:104F000001F00150840A06E1CEC4E1FFCFC4E2FF04
:0C4F10008C0EE66E7090DF0E681612002A
:104F1C00FD0E0401CA15016E026AFF0E0216000E88
:104F2C00021802E1000E01186EE17E0ECA15016E28
:104F3C0001C003F00332039E03C000F0000E016EAB
:104F4C00003600900136003600900136000E002429
:104F5C00026E040E0120036E02C0CEF403C0CFF427
:104F6C0002C0CCF403C0CDF4040ECC19006E00C00A
:104F7C00CCF402C0E9FF03C0EAFFEECF00F000C0A2
:104F8C0001F03C0E01160132019E0132019E0150CE
:104F9C000D0A36E1020ECE25E96E000ECF21EA6E27
:104FAC00EECF01F0EECF02F00250040A02E1280E1F
:104FBC00011823E1020ECE25E16E000ECF21E26E28
:104FCC00200EE66E040EE66E0601376B080E375D9A
:104FDC0014E2200EE16E040EE26E3751E126D8B0D9
:104FEC00E22A280EE96E040EEA6E3751E926D8B093
:104FFC00EA2AEECFE6FF372BE9D7E6EC23F002D016
:10500C00C0EC23F00FD00401FD0ECA15016E026A2C
:10501C00FF0E0216000E021802E1040E011802E146
:06502C006EEC23F01200FF
:105032005BEC23F0000E011802E1000E001816E1ED
:105042000501896B8A6B8B6B010E8C6FE6EC22F08B
:10505200300E8E6F010E8F6F39EC21F0E4DC180EEA
:0E50620005018E6F010E8F6F39EC21F01200E8
:105070000401DC6B51DE42DE00C0DCF40052FBE0D8
:10508000DC0E896F040E8A6F08EC24F0DCC400F09B
:0250900012000C
:10509200DCC489F5DDC48AF5D1EC22F0C00E06012C
:1050A2000D6F44EC08F0DEC48EF5DFC48FF52BECF7
:0450B20022F01200D6
:1050B6000401E06B050EE05D0AE2E051DE25E16EDB
:1050C600000EDF21E26E200EE66EE02BF3D7E051F4
:1050D600DE25E16E000EDF21E26EE66AE007E051B2
:1050E600DE25E16F000EDF21E26F0A0E046E000E70
:1050F600056EDCC400F0DDC401F017EC05F008C055
:1051060000F009C001F0300E0026E1C4E1FFE2C460
:10511600E2FF00C0E6FF0A0E046E000E056EDCC458
:1051260000F0DDC401F017EC05F000C0DCF401C0AE
:10513600DDF4000E011802E1000E001801E102D0B4
:06514600E007CDD71200C6
:10514C000F0EC16E070EB46E800EF16E896A8B6AFB
:10515C008C6A8D6A926A946A956A966A806A826A87
:06516C00836A846A120050
:10517200000E0401DD1902E1000EDC1938E0DCC486
:10518200E9FFDDC4EAFFEE5232E0DEC40DF6DFC411
:105192000EF689EC08F000C08DF5DCC489F5DDC49B
:1051A2008AF5DEC48BF5DFC48CF563DE000E0118D0
:1051B20002E1000E001805E1DCC400F0DDC401F0DC
:1051C20018D0010E0401DC250501896F000E0401CF
:1051D200DD2105018A6FDEC4E9FFDFC4EAFFEECFFD
:1051E2008BF56DDD00C0DCF401C0DDF4C1D7006ACF
:0451F200016A12003C
:1051F6006984EF0E68166D82750E0601396F000E12
:105206003A6F3B6B3C6B3D6B3E6B24EC13F012002C
:10521600DCC489F5DDC48AF5DEC48BF5010E050113
:065226008C6FD5DC1200C4
:0A522C00801E821E831E841E1200E5
:10523600DCC4E9FFDDC4EAFFEECF03F0700E031411
:10524600026E02C000F00032009E0032009E003264
:10525600009E0032009E0A0E0002F3CF01F00F0EF0
:105266000314006EDCC4E1FFDDC4E2FF005001243C
:10527600E66EDEC4E9FFDFC4EAFFEECF03F0F00E10
:105286000314026E02C000F00032009E0032009E3F
:105296000032009E0032009E0A0E0002F3CF01F09B
:1052A6000F0E0314006EDEC4E1FFDFC4E2FF005000
:1052B6000124E66EE0C4E9FFE1C4EAFFEECF03F0A5
:1052C600300E0314026E02C000F00032009E00325F
:1052D600009E0032009E0032009E0A0E0002F3CFAE
:1052E60001F00F0E0314006EE0C4E1FFE1C4E2FF1B
:1052F60000500124E66EE2C4E9FFE3C4EAFFE2C41B
:10530600E1FFE3C4E2FF070EEE16E4C4E9FFE5C4DD
:10531600EAFFEECF03F0F00E0314026E02C000F0B7
:105326000032009E0032009E0032009E0032009E37
:105336000A0E0002F3CF01F00F0E0314006EE4C450
:10534600E1FFE5C4E2FF00500124E66EE6C4E9FF92
:10535600E7C4EAFFEECF03F0100E0314026E02C09C
:1053660000F00032009E0032009E0032009E0032A5
:10537600009E0A0E0002F3CF01F00F0E0314006E1A
:10538600E6C4E1FFE7C4E2FF00500124E66EE8C48C
:10539600E9FFE9C4EAFFEECF03F0F00E0314026E54
:1053A60002C000F00032009E0032009E0032009ED5
:1053B6000032009E0A0E0002F3CF01F00F0E031416
:1053C600006EE8C4E1FFE9C4E2FF00500124E66E86
:0253D6001200C3
:1053D800010E0101AD6FDCC4AEF1DDC4AFF1DEC476
:1053E800B4F1DFC4B5F114EC23F0010E016E0150E5
:0A53F800010A02E1C1EC22F01200EC
:1054020024D0930E0401E36F000EE46F34D0970EA4
:10541200E36F000EE46F2FD08B0EE36F000EE46F8C
:105422002AD07F0EE36F000EE46F25D0830EE36F68
:10543200000EE46F20D0870EE36F000EE46F1BD0E6
:105442009B0EE36F000EE46F16D00401DF51010AD8
:10545200D8E0DF51020ADBE0DF51030ADDE0DF5171
:10546200040ADFE0DF51050AE1E0DF51060AE3E06A
:10547200DF51070AE5E052DC010E06010D6F44EC34
:1054820008F00C0E06010D6F44EC08F0010E050148
:10549200986F010E996FE3C49AF5E4C49BF570EC22
:1054A20013F0010E0501896F060E8A6F0A0E046E53
:1054B200E0C400F064EC21F0300E00248B6F91DC2C
:1054C200010E0501896F070E8A6F0A0E046EE0C491
:1054D20000F064EC21F008C000F0300E00248B6F65
:1054E20080DC010E0501896F090E8A6F0A0E046EB7
:1054F200E1C400F064EC21F0300E00248B6F71DC0B
:10550200010E0501896F0A0E8A6F0A0E046EE1C44C
:1055120000F064EC21F008C000F0300E00248B6F24
:1055220060DC010E0501896F0C0E8A6F0A0E046E93
:10553200E2C400F064EC21F0300E00248B6F51DCE9
:10554200010E0501896F0D0E8A6F0A0E046EE2C408
:1055520000F064EC21F008C000F0300E00248B6FE4
:1055620040DC020E0501896F060E8A6F0A0E046E78
:10557200DEC400F064EC21F0300E00248B6F31DCCD
:10558200020E0501896F070E8A6F0A0E046EDEC4D1
:1055920000F064EC21F008C000F0300E00248B6FA4
:1055A20020DC020E0501896F090E8A6F0A0E046E55
:1055B200DDC400F064EC21F0300E00248B6F11DCAE
:1055C200020E0501896F0A0E8A6F0A0E046EDDC48F
:1055D20000F064EC21F008C000F0300E00248B6F64
:1055E20000DC020E0501896F0C0E8A6F0A0E046E32
:1055F200DCC400F064EC21F0300E00248B6FF2EC7E
:1056020026F0020E0501896F0D0E8A6F0A0E046ED6
:10561200DCC400F064EC21F008C000F0300E00247D
:085622008B6FF2EC26F0120080
:10562A004EEC1FF000C0FFF4010E0301F16F0050B1
:10563A00010AD8A436D20401DE6BDF6B020EDF5DED
:10564A0002E1000EDE5D1DE2F10EDE25E16E010EC5
:10565A00DF21E26E6A0E006E670E016E000E026EA8
:10566A00DE510024F66EDF510120F76E000E022093
:10567A00F86E0900F5CF00F000C0E6FFDE4BDF2B25
:10568A00DDD7E00E0501896F040E8A6F79EC25F0EB
:10569A00C00E0401E015026E060E006E02C001F093
:1056AA00005004E00132019EFF0FFBD70150010AAE
:1056BA000EE1F76B3F0EE715F66FE8C4F5F4E9C49F
:1056CA00F4F4F733F633F533F433F79FC7D0C00E4B
:1056DA00E815016E060E006E01C005F0005004E0E8
:1056EA000532059EFF0FFBD7E7C403F0000E046ED8
:1056FA0003C000F004C001F0003600900136003605
:10570A000090013605500024056E000E0120066E39
:10571A00E6C400F0000E016E030E0014036E01C011
:10572A0004F0000E04160A0E026E03C000F004C054
:10573A0001F0025005E0003600900136FF0FFAD75B
:10574A0000500524076E01500620086E800EEA15E7
:10575A00056EE9C400F0000E016E030E0014036E1C
:10576A0001C004F0000E041603C001F0006A0550DF
:10577A000024036E000E0120046E070E026E03C0A1
:10578A0000F004C001F0025005E001320032019E2F
:10579A00FF0FFAD70F0EE515FA6FFB6B000EFB171A
:1057AA00000EFB6F010EF86F000EF96F020E002655
:1057BA00000E012200C002F0F8C400F0F9C401F0A2
:1057CA00025005E0003600900136FF0FFAD700C0FC
:1057DA00F8F401C0F9F4010E0724046E000E082043
:1057EA00056E000E026E036E000E066E076ED0EC9A
:1057FA000BF0010EFC6F000EFD6FFAC406F0FCC43C
:10580A0004F0FDC405F0065005E0043604900536A0
:10581A00FF0FFAD704C0FCF405C0FDF4000E066EB3
:10582A00076ED0EC0BF000C0F4F401C0F5F402C02E
:10583A00F6F403C0F7F4140E046E00C0F4F401C0C9
:10584A00F5F402C0F6F403C0F7F4045007E0F733A6
:10585A00F633F533F433F79FFF0FF8D7000EF75DF1
:10586A0008E1000EF65D05E1000EF55D02E1040EA9
:10587A00F45D03E20101FE6B69D0000E0401F75DDD
:10588A0008E1000EF65D05E1000EF55D02E1100E7D
:10589A00F45D04E2020E0101FE6F58D0000E04010D
:1058AA00F75D08E1000EF65D05E1000EF55D02E127
:1058BA00800EF45D04E2040E0101FE6F47D0000E73
:1058CA000401F75D08E1000EF65D05E1010EF55DE4
:1058DA0002E1000EF45D04E2080E0101FE6F36D00B
:1058EA00000E0401F75D08E1000EF65D05E1020E07
:1058FA00F55D02E1000EF45D04E2100E0101FE6F97
:10590A0025D0000E0401F75D08E1000EF65D05E101
:10591A00040EF55D02E1000EF45D04E2200E0101C1
:10592A00FE6F14D0000E0401F75D08E1000EF65D6B
:10593A0005E1080EF55D02E1000EF45D04E2400E99
:10594A000101FE6F03D00101400EFE6F010EFF6FD1
:10595A000201006B026B020E036F0B0E006EF4C4A1
:10596A0001F0F5C402F0F6C403F0F7C404F00050E5
:10597A0007E001360190023603360436FF0FF8D7E6
:10598A0001C0F4F402C0F5F403C0F6F404C0F7F45D
:10599A00000E045C08E1010E035C05E1000E025CE6
:1059AA0002E1000E015C0AE20201F4C404F2F5C449
:1059BA0005F2116B126B136B146B0BD00201046BA3
:1059CA00056BF4C411F2F5C412F2F6C413F2F7C46B
:1059DA0014F2F4C40AF0F5C40BF0F6C40CF0F7C4E0
:1059EA000DF0210E0A5E000E0B5A0C5A0D5A0AC00F
