:040000000CEF17F0FA
:1000080000C01EF001C01DF002C01CF003C01BF0B0
:1000180004C01AF005C019F008C018F009C017F09C
:100028000AC016F00BC015F0E1CF27F0E2CF28F098
:10003800E9CF25F0EACF26F0F3CF23F0F4CF24F070
:10004800F5CF22F0F8CF1FF0F7CF20F0F6CF21F050
:1000580092EC13F022C0F5FF1FC0F8FF20C0F7FF95
:1000680021C0F6FF23C0F3FF24C0F4FF1EC000F038
:100078001DC001F01CC002F01BC003F01AC004F040
:1000880019C005F018C008F017C009F016C00AF02A
:1000980015C00BF025C0E9FF26C0EAFF27C0E1FF25
:0600A80028C0E2FF110078
:1000AE0075C2A3F176C2A4F177C2A7F178C2A8F106
:1000BE00800E02017911006E008000C0A6F11200C0
:1000CE00000E056E040E066E75C203F0000E046E71
:1000DE0003360436039003360436039076C200F0DE
:1000EE00000E016E003601360090005003260150BE
:1000FE00042203C001F004C002F001360190023662
:10010E0001360190023601C003F002C004F0043241
:10011E000332049E04BC048E04320332049E04BCDB
:10012E00048E03C000F004C001F0003600900136CA
:10013E00003600900136055000260650012200C000
:10014E0005F001C006F000C0E1FF01C0E2FFE69E2F
:10015E0002017651000A12E175C200F0000E016E26
:10016E00003600900136820E0024E16E010E012051
:10017E00E26E05C0E6FF06C0E6FF11D075C200F0C4
:10018E00000E016E0036009001369B0E0024E16ECB
:10019E00010E0120E26E05C0E6FF06C0E6FF05C0B7
:1001AE00E1FF06C0E2FFE69C040E0524E16E000EA0
:0801BE000620E26EE68C12003F
:0E01C600800E02017511006E00C0A6F112003D
:1001D40075C2A3F176C2A4F177C2A5F178C2A7F1E2
:1001E40079C2A8F1800E02017A11006E00C0A6F156
:0201F4001200F7
:1001F60020C401F01F0E01160150010A01E08DD046
:1002060004012451000A01E088D02151060A3AE18E
:100216002FD001019F51010A13E1020E0201756FF1
:10022600310E766F000E776F120E7527000E76234D
:100236007723090E786F000E796F400E7A6FC7DF4D
:1002460021D001019F51010A0EE14E0E0201756F88
:10025600310E766F000E776F210E786F000E796F74
:10026600400E7A6FB4DF0ED00201756BA9DF0AD09B
:1002760004012351210ACDE02351220AE2E0235151
:10028600230AF2E020C401F0600E0116050E006E8E
:10029600005004E00132019EFF0FFBD70150010A16
:1002A60001E03BD027D039D038D0860E0201756FD9
:1002B600010E766F010E776F000E786F400E796F24
:1002C600F3DE2BD00201756B7BDF23C486F125D0CC
:1002D6000201870E756F010E766F010E776F000EA5
:1002E600786F796BE1DE19D00201756B69DF22C484
:1002F60087F113D004012151010AD5E02151090AE1
:10030600D3E02151020AD1E021510A0ADBE0215152
:0C031600030ADEE021510B0AE7E01200B0
:1003220002017151000A12E070C200F0000E016E6B
:100332000036009001369B0E0024E96E010E01206A
:10034200EA6EEECF04F0EECF05F011D070C200F0ED
:10035200000E016E003600900136820E0024E96E16
:10036200010E0120EA6EEECF04F0EECF05F0020E90
:100372000424E16E000E0520E26E72C2E6FF73C233
:10038200E6FF010E0424E16E000E0520E26E74C247
:10039200E6FF04C0E9FF05C0EAFFEECF00F004C0AB
:1003A200E1FF05C0E2FF400E0014E66E04C0E9FF63
:1003B20005C0EAFFEECF00F004C0E1FF05C0E2FF96
:1003C200880E0010E66E7151000A1BE070C200F048
:1003D200000E016E0036009001369B0E0024026E64
:1003E200010E0120036E02C0E9FF03C0EAFF040E02
:1003F200EE18006E02C0E1FF03C0E2FF00C0E6FF9C
:100402001AD070C200F0000E016E00360090013664
:10041200820E0024026E010E0120036E02C0E9FF6B
:1004220003C0EAFF040EEE18006E02C0E1FF03C033
:10043200E2FF00C0E6FF04C000F005C001F01200B8
:10044200700EE16E0F0EE26E02017051E126D8B01D
:10045200E22A71C2E6FF71A504D070C275F2766B12
:1004620035DE71A305D070C275F2010E766F2EDEF5
:02047200120076
:0E047400C70E0D6E0D2EFED700000000120008
:10048200560E0C6EB50E0D6E0D2EFED70C2EFCD731
:0604920000000000120052
:0E049800030E0D6E0D2EFED7000000001200A8
:0A04A60001019A5301E0A4DE1200E8
:1004B00001019A5315E0010E0201706F1E0E716F5B
:1004C000C0DF010E706F716B93C172F294C173F251
:1004D000400E746F26DF00C097F101C098F114D070
:1004E0000201010E706F1E0E716FABDF010E706F97
:1004F000716B93C172F294C173F2400E746F11DF8D
:0A05000000C097F101C098F112004D
:10050A000B6A0A6A096A00500402F4CF09F0F3CFB1
:10051A0008F001500502F4CF0BF0F3CF0AF00050B7
:10052A000502F3500926F4500A22E86A0B22015008
:10053A000402F3500926F4500A22E86A0B2208C082
:10054A0000F009C001F00AC002F00BC003F012006B
:10055A00086A080E0C6E003408360450085ED8B0DB
:0E056A0002D00826D89000360C2EF5D71200CD
:10057800020166BF02D0819E01D0818E66BD02D085
:10058800819C01D0818C66BB02D0819A01D0818A7E
:1005980066B902D0819801D08188010199B102D051
:1005A800818601D08196818473DF8194020166B7C8
:1005B80002D0819E01D0818E66B502D0819C01D087
:1005C800818C66B302D0819A01D0818A66B102D04B
:1005D800819801D08188010199B102D0818601D02A
:1005E8008196818455DF819499A102D046DF01D09C
:0405F8003DDF1200D1
:1005FC006AC202F06BC203F06DC200F06EC201F071
:10060C00010E02016D5F000E6E5B0050011009E0DF
:10061C0002C0E1FF03C0E2FF6CC2E6FF024A032AFC
:04062C00EBD71200F6
:100630000CD03EDF3CD03BD036DF39D038D037D07D
:1006400036D035D0000033D032D0000E02016B1905
:1006500002E1010E6A19EDE0000E6B1902E1020ED3
:100660006A19E9E0000E6B1902E1030E6A19E4E071
:100670006B51000A02E1730E6A19E0E06B51000A47
:1006800002E1750E6A19DBE06B51000A02E1740E9B
:100690006A19D6E06B513F0A02E1FF0E6A19D1E0F8
:1006A0006B51000A02E1720E6A19CCE0CDD7010E3F
:0406B000006E1200C6
:1006B400C7B409D01F0EC514016E0150000A03E12E
:0A06C400010E006E01D0006A120062
:1006CE009E9660C2C9FFC7A401D0FDD79EB601D0C9
:1006DE00FDD7C5BC02D0006A03D0C584020E006EE1
:0206EE001200F8
:0A06F000C582C5A201D0FDD712009B
:0E06FA000101999160C266F23ADF9981120007
:100708009E96C5869EB601D0FDD7C9CF01F00201DD
:100718006051000A02E1C58A01D0C59A9E96C58833
:0C0728009EB601D0FDD701C000F0120009
:1007340060C204F061C205F004C002F005C003F019
:10074400044A052A62C200F063C201F00201624B4E
:10075400632B00C0E9FF01C0EAFF02C0E1FF03C050
:10076400E2FFEECFE6FF02C0E9FF03C0EAFFEE526C
:0E07740001E0E2D760C200F061C201F01200A5
:100782000201606B616B6151120802E160518E08D7
:1007920008E38FDF005201E004D00201604B612BBD
:1007A200F2D70201120E615D02E18F0E605D03E37A
:1007B2007B0E006E05D0C580C5A001D0FDD7006AB2
:0207C200120023
:0407C400C5841200D6
:1007C8000101A68F710E02016A6F0F0E6B6F6C6BC1
:1007D800010E6D6F000E6E6F0DDF8B0E6A6F010ECE
:1007E8006B6F6C6B010E6D6F000E6E6F03DF22C4B2
:1007F8009FF101019F51000A03E1100EA06F10D074
:10080800200EA06F010E02016A6F000E6B6F9F0E23
:100818006C6F010E6D6F010E6E6F000E6F6F04DF4F
:020828001200BC
:10082A0004012251010A13E120C401F01F0E01162E
:10083A000150000A0CE10101A68F04012151030AAB
:10084A0004E1010E01018E6F02D001018E6B0401D9
:10085A002251000AD8A48DD020C401F01F0E01161F
:10086A000150020AD8A485D024C401F00F0E011643
:10087A000150000AD8B47DD00101A68F040124BF1B
:10088A0016D024C403F00F0E031603C000F0000EA6
:10089A00016E003600900136820E0024E96E010EC8
:1008AA000120EA6EEECF04F0EECF05F015D024C495
:1008BA0003F00F0E031603C000F0000E016E00369F
:1008CA00009001369B0E0024E96E010E0120EA6EAB
:1008DA00EECF04F0EECF05F02151030A07E104C080
:1008EA00E1FF05C0E2FF840EE66E43D024C400F0A7
:1008FA000F0E0016700E026E0F0E036E00500226C7
:10090A00D8B0032A02C0E9FF03C0EAFFFE0EEE14C4
:10091A00006EEECF01F0FF0E011602C0E1FF03C028
:10092A00E2FF00C0E6FF01C0E6FF24AF11D004C019
:10093A00E1FF05C0E2FFE66A040E0418006E00C07B
:10094A0004F004C0E1FF05C0E2FF400EE66E11D0DC
:10095A0004C0E1FF05C0E2FF880EE66E040E04182B
:10096A00006E00C004F004C0E1FF05C0E2FFC80E3B
:04097A00E66E120013
:10097E000401286B296B4AD00101A68F040128813E
:10098E0001018E51010A02E10401288354D00101B4
:10099E00A68F51D00101A68F040124BF16D024C406
:1009AE0003F00F0E031603C000F0000E016E0036AA
:1009BE0000900136820E0024E96E010E0120EA6ECF
:1009CE00EECF04F0EECF05F015D024C403F00F0ED9
:1009DE00031603C000F0000E016E003600900136C3
:1009EE009B0E0024E96E010E0120EA6EEECF04F09C
:1009FE00EECF05F004C0E9FF05C0EAFFEECF01F02F
:100A0E0001A403D00401010E286F15D020C401F0FB
:100A1E001F0E01160150000AAFE020C401F01F0E98
:100A2E0001160150010AB3E020C401F01F0E011699
:100A3E000150020AAFE00101A6AF07D0280EA36F46
:0C0A4E00040EA46FA681020EA76F120018
:100A5A00000E0101A85D02E1080EA75D10E2A7C120
:100A6A0003F0A8C104F08D51000A03E1010E8D6F55
:100A7A0005D08D51010A02E1020E8D6F04D0080ED5
:100A8A00036E000E046E9BC1E1FF9CC1E2FFE69279
:100A9A009BC1E1FF9CC1E2FFE6909BC1E9FF9CC1BB
:100AAA00EAFFEECF00F09BC1E1FF9CC1E2FF0450D8
:100ABA000010E66E010E9B25E16E000E9C21E26E8F
:100ACA0003C0E6FF0350A75D006E0450A859016EEB
:100ADA0000C0A7F101C0A8F1280E886F040E896F23
:100AEA00A6B12FD0035004102BE0A3C1F6FFA4C176
:100AFA00F7FFA5C1F8FF0900F5CF00F088C1E1FFB3
:100B0A0089C1E2FF00C0E6FF884B892B010EA325AD
:100B1A00006E000EA421016E000EA521026E00C017
:100B2A00A3F101C0A4F102C0A5F1010E035C006E9D
:100B3A00000E0458016E00C003F001C004F0D2D7C1
:100B4A0024D00350041021E0A3C1E9FFA4C1EAFFA5
:100B5A0088C1E1FF89C1E2FFEECFE6FF884B892B0E
:100B6A00010EA325006E000EA421016E00C0A3F1A0
:100B7A0001C0A4F1010E035C006E000E0458016E60
:0C0B8A0000C003F001C004F0DCD7120032
:100B960002016051390806E3300E605D03E3010E81
:080BA600006E01D0006A12008C
:100BAE000201636B030E635D0AE263516125E16E20
:100BBE00000E6221E26E200EE66E632BF3D76351B8
:100BCE006125E16E000E6221E26EE66A63076351F3
:100BDE006125646F000E6221656F0A0E046E60C29D
:100BEE0000F0B4DC08C000F0300E002664C2E1FF55
:100BFE0065C2E2FF00C0E6FF0A0E046E60C200F09E
:100C0E00A5DC00C060F20050000A01E102D06307CB
:040C1E00DED712000B
:100C220004012051800AD8A479D0C00E0101A66F18
:100C32006AD001016F0E006E310E016E000E026E5F
:100C420000C0A3F101C0A4F102C0A5F1120EA76F6A
:100C5200000EA86F63D00101030E006E000E016E3C
:100C620022C404F0000E056E4FDCBB0E0024E96EB8
:100C7200010E0120EA6EEECFA3F1EECFA4F1EECF8A
:100C8200A5F1020EA325F66E000EA421F76E000E4A
:100C9200A521F86E0900F5CF00F00900F5CF01F0AB
:100CA20000C0A7F101C0A8F139D0030E0401225DF2
:100CB20024E2030E006E000E016E22C404F0000E48
:100CC200056E22DCB20E0024E96E010E0120EA6EEE
:100CD200EECFA3F1EECFA4F1EECFA5F1A3C1F6FFC3
:100CE200A4C1F7FFA5C1F8FF0900F5CF00F000C0CD
:100CF200A7F1000E0101A86F02D00101A66B0ED070
:100D02000101A66B0BD004012351010A92E0235189
:0E0D1200020AA1E02351030AC8E0F2D7120042
:100D20000201576B586B52C259F2000E52BFFF0EB0
:100D30005A6F800E5219006E800E000A005C0AE2A3
:100D4000574B582B52510008596F5A6B000E52BF27
:100D5000FF0E5A5B59C260F253C261F254C262F292
:100D600026DF040E556F000E566F000E006E5651B2
:100D7000005C02E15551000819E255515325E16E1E
:100D800056515421E26E010E555D006E000E56590B
:100D9000016E00505325E96E01505421EA6EEECFEA
:100DA000E6FF010E555F000E565BDFD753C2E1FF31
:100DB00054C2E2FF200EE66E575158111AE0556BEF
:100DC000566B55515325E96E56515421EA6EEE503B
:100DD000200A03E1554B562BF4D7010E555F000E48
:100DE000565B55515325E16E56515421E26E2D0E3E
:040DF000E66E120099
:100DF40052C202F053C203F055C200F056C201F0D1
:100E0400010E0201555F000E565B0050011009E00F
:100E140002C0E1FF03C0E2FF54C2E6FF024A032A14
:040E2400EBD71200F6
:100E28000201546B54515225E96E000E5321EA6EAB
:100E3800EE520CE054515225E96E000E5321EA6E31
:0E0E4800EECF60F256DC0201542BECD7120004
:100E560052C204F053C205F004C0E9FF05C0EAFF20
:100E6600EE5203E0044A052AF7D704C002F005C093
:100E760003F0044A052A54C200F055C201F00201EB
:100E8600544B552B00C0E9FF01C0EAFF02C0E1FF49
:100E960003C0E2FFEECFE6FF02C0E9FF03C0EAFFB0
:100EA600EE5201E0E2D752C200F053C201F0120046
:100EB600000E0201531902E1000E521902E1016A05
:100EC60009D052C2E9FF53C2EAFFEECF00F0016A31
:0A0ED60000BE012A01C000F0120066
:100EE0000101816B9BC1E1FF9CC1E2FFE66A040E38
:100EF0009B19E16E9CC1E2FF000EE21AE66AABAFFD
:060F000001D0AB9F1200BE
:100F06006D980101A6BF49D0ABAF28D0020E816F04
:100F1600010E9B25E16E000E9C21E26EE66A9BC1E6
:100F2600E1FF9CC1E2FFC80EE66E010E7F25E16E71
:100F3600000E8021E26E080EE66E020E7F25E16E3F
:100F4600000E8021E26E280EE66E040EE66E7FC16C
:100F5600E1FF80C1E2FFC80EE66E1ED0010E7F25BE
:100F6600E16E000E8021E26E080EE66E020E7F250F
:100F7600E16E000E8021E26E200EE66E040EE66E35
:100F86007FC1E1FF80C1E2FF8C0EE66E9BC1E1FFEF
:100F96009CC1E2FF840EE66E82D0ABBF80D0040116
:100FA60020AF55D00101A8510401275D04E10101DC
:100FB600A7510401265D04E226C4A7F127C4A8F1BF
:100FC60049DD010E816F010E7F25E16E000E802145
:100FD600E26E080EE66E020E7F25E16E000E80219F
:100FE600E26E200EE66E040EE66E7FC1E1FF80C162
:100FF600E2FF800EE66E8C6B010E7D25E16E000E23
:101006007E21E26E080EE66E020E7D25E16E000E72
:101016007E21E26E200EE66E040EE66E7DC1E1FFD5
:101026007EC1E2FF840EE66E010E8C6F020E9B25DA
:10103600E16E000E9C21E26E280EE66E040EE66E50
:101046009BC1E1FF9CC1E2FFC80EE66E28D00101FC
:10105600020E816F010E9B25E16E000E9C21E26E51
:10106600E66A9BC1E1FF9CC1E2FFC80EE66E010E77
:101076007F25E16E000E8021E26E080EE66E020EFE
:101086007F25E16E000E8021E26E280EE66E040ECC
:10109600E66E7FC1E1FF80C1E2FFC80EE66E120078
:1010A600010E01017D25E96E000E7E21EA6EEECF6E
:1010B60000F000C002F0000EAD5D02E10250AC5D32
:1010C60003E2ACC102F00AD00250AC5D006E000E25
:1010D600AD59016E00C0ACF101C0ADF1036A02501A
:1010E600035C1CE2280EE96E040EEA6E0350E92644
:1010F600D8B0EA2AEECF00F0A9C1E1FFAAC1E2FF0B
:1011060000C0E6FF010EA925006E000EAA21016EA1
:1011160000C0A9F101C0AAF1032AE1D7000E006EB2
:10112600AD51005C02E1AC51000828E2010E7F25BA
:10113600E16E000E8021E26E080EE66E020E7F253D
:10114600E16E000E8021E26E280EE66E040EE66E5B
:101156007DC1E9FF7EC1EAFFEECF00F000BC07D0FB
:101166007FC1E1FF80C1E2FFC80EE66E06D07FC1F7
:10117600E1FF80C1E2FF880EE66E19D0010E7F25E1
:10118600E16E000E8021E26E080EE66E020E7F25ED
:10119600E16E000E8021E26E200EE66E040EE66E13
:1011A6007FC1E1FF80C1E2FF840EE66EAB9F1200B5
:1011B60020C401F0600E0116050E006E005004E01A
:1011C6000132019EFF0FFBD70150000A01E06CD0EF
:1011D60048D00101A68F080EA06F66D01FDD64D02F
:1011E600E4EC03F061D09F0E0101A36F010EA46F22
:1011F600A681010EA76FA68F57D0BFEC04F054D07E
:1012060015EC04F051D08B0E006E010E016E040138
:1012160024510026D8B0012A00C0A3F101C0A4F1D0
:101226000101A681010EA76FA68F3ED00101A68FF0
:101236008B0EE16E010EE26E04012451E126D8B058
:10124600E22A22C4E6FF30D0020E02016A6F000EC7
:101256006B6F6C6B6D6B6E6B6F6B18EC03F024D061
:1012660023D004012151050AB4E02151060AB6E053
:101276002151090AB5E02151080AB5E02151000AB9
:10128600BCE02151010ABCE02151030AB9E0215119
:101296000A0AB9E021510B0AC9E02151070AD4E034
:0A12A60021510C0ADDE0DCD7120034
:1012B00010D0800E0201526F1AD0C00E526F17D09C
:1012C000940E526F14D0D40E526F11D0800E526F04
:1012D0000ED002015251010AECE05251020AEDE037
:1012E0005251030AEDE05251040AEDE0EFD75305E5
:1012F000006E5251002600C052F200C066F2BCECF3
:1013000002F099910201566B56515425E96E000E78
:101310005521EA6EEE520DE056515425E96E000E4D
:101320005521EA6EEECF60F27DEC03F00201562B00
:08133000EBD7010199811200C5
:1013380052C2E9FF53C2EAFFEECF54F2000E020197
:10134800556F000E556F000E551902E1200E541905
:1013580007E0000E551902E1090E541901E003D007
:10136800524B532BE5D7566B576B586B596B000E86
:10137800551902E12D0E541905E1584B592B524BC2
:10138800532B08D0000E551902E12B0E541902E117
:10139800524B532B52C2E9FF53C2EAFFEECF54F22D
:1013A800000E556F000E556F54C260F2CBEC05F07D
:1013B800005219E056C200F057C201F00A0E046E3E
:1013C800000E056E85EC02F0300E545D026E000EC4
:1013D8005559036E02500024566F03500120576F71
:1013E800524B532BD7D75851591108E05651000882
:1013F800006E57C201F0000E015604D056C200F02C
:0614080057C201F01200C2
:10140E00540E0201606F020E616F52C262F253C23D
:10141E0063F29AEC03F056C254F257C255F2566B71
:10142E0052C260F253C261F2540E626F020E636FCB
:06143E009AEC03F012001D
:10144400C1EC03F0D00E0201606F67EC03F00201FF
:10145400606B67EC03F078EC03F0D10E0201606F6F
:1014640067EC03F0010E0201606F84EC03F052C2DA
:10147400E1FF53C2E2FF00C0E6FF010E0201606F0C
:1014840084EC03F054C2E1FF55C2E2FF00C0E6FF62
:10149400010E0201606F84EC03F056C2E1FF57C2F3
:1014A400E2FF00C0E6FF010E0201606F84EC03F06E
:1014B40058C2E1FF59C2E2FF00C0E6FF010E02017B
:1014C400606F84EC03F05AC2E1FF5BC2E2FF00C02C
:1014D400E6FF010E0201606F84EC03F05CC2E1FFE1
:1014E4005DC2E2FF00C0E6FF0201606B84EC03F022
:1014F4005EC2E1FF5FC2E2FF00C0E6FFE2EC03F080
:021504001200D3
:1015060002015351000A12E052C200F0000E016EB1
:101516000036009001369B0E0024E96E010E012074
:10152600EA6EEECF04F0EECF05F011D052C200F015
:10153600000E016E003600900136820E0024E96E20
:10154600010E0120EA6EEECF04F0EECF05F0020E9A
:101556000424E16E000E0520E26E54C2E6FF55C279
:10156600E6FF010E0424E16E000E0520E26E56C26F
:10157600E6FF04C0E9FF05C0EAFFEECF00F004C0B5
:10158600E1FF05C0E2FF400E0014E66E04C0E9FF6D
:1015960005C0EAFFEECF00F004C0E1FF05C0E2FFA0
:1015A600880E0010E66E5351000A1BE052C200F08E
:1015B600000E016E0036009001369B0E0024026E6E
:1015C600010E0120036E02C0E9FF03C0EAFF040E0C
:1015D600EE18006E02C0E1FF03C0E2FF00C0E6FFA6
:1015E6001AD052C200F0000E016E0036009001368D
:1015F600820E0024026E010E0120036E02C0E9FF76
:1016060003C0EAFF040EEE18006E02C0E1FF03C03D
:10161600E2FF00C0E6FF04C000F005C001F01200C2
:1016260053C200F00032009E0032009E0032009E3F
:101636000032009E810E0024F66E310EF76E000E0B
:10164600F722000EF86E000EF8220900F5CF00F022
:1016560054C2E1FF55C2E2FF00C0E6FF010E0201DF
:101666005425E16E000E5521E26E0F0E5315006EE5
:10167600810E0024F66E310EF76E000EF722000E74
:10168600F86E000EF8220900F5CF00F000C0E6FF64
:10169600020E5425E16E000E5521E26E52C200F094
:1016A6000032009E0032009E0032009E0032009EF4
:1016B600810E0024F66E310EF76E000EF722000E34
:1016C600F86E000EF8220900F5CF00F000C0E6FF24
:1016D600030E5425E16E000E5521E26E0F0E5215D3
:1016E600006E810E0024F66E310EF76E000EF722A4
:1016F600000EF86E000EF8220900F5CF00F000C0CB
:10170600E6FF040E5425E16E000E5521E26EE66AF0
:021716001200BF
:10171800020E0101BB6F310EBC6F000EBD6F910E42
:10172800B26F310EB36F000EB46F240EB56F300E6A
:10173800B66F000EB76FD80EB86F300EB96F000EC7
:04174800BA6F120062
:0E174C00160E6F6E9F0E6B6E7B0E696E120096
:0A175A00D08EA28AA08AF28E12003F
:101764000900F5CFE6FF0006FBE10106F9E11200EE
:10177400D1DF976B986BA16BA26B6A6A686AE4DF2E
:101784006D8C6E6A710E0201526F0F0E536F546BA3
:10179400010E556F000E566FFAEC06F06D9C086B47
:1017A400080E085D16E208C200F0000E016E003655
:1017B40000900136003600900136000E0024E16EE0
:1017C400040E0120E26EE66AE66AE66AE66A082B1F
:1017D400E7D7160E706E68A603D0F70E6816FBD70F
:1017E4000101A66BAB6BAC6BAD6B6D98080E9B6F78
:0A17F400040E9C6F9F6BA06B1200A7
:1017FE009BC1E9FF9CC1EAFFEECF00F000AE05D021
:10180E009BC1E1FF9CC1E2FFE66A01018D6B816B1A
:10181E00A76BA86BA66BC8DC030E02016A6F000EE5
:10182E006B6F6C6B6D6B6E6B6F6B18EC03F083EC08
:04183E0007F012009D
:1018420001018151020A02E12DDC1FD070EC07F088
:101852008C51000A19E1010E7F25E16E000E8021F4
:10186200E26E080EE66E020E7F25E16E000E80210A
:10187200E26E200EE66E040EE66E7FC1E1FF80C1CD
:0C188200E2FF8C0EE66E01D08C6B1200B1
:10188E009BC1E9FF9CC1EAFFEECF00F0000E00BC49
:10189E00010E0201696F040E01019B19006E00C05A
:1018AE009BF1A051080A0AE122C46EFF6E50000897
:1018BE0003E2100EA06F02D0040EA06F8151010A38
:1018CE002CE1020E9B25E16E000E9C21E26E280E8D
:1018DE00006E040E016E00C0E6FF01C0E6FF2DECA7
:1018EE0005F08D51020A07E19BC1E1FF9CC1E2FFA9
:1018FE00840EE66E11D002016951000A07E19BC108
:10190E00E1FF9CC1E2FFC80EE66E06D09BC1E1FF6F
:10191E009CC1E2FF880EE66E02D070EC07F012005A
:10192E000101A051000A0AE16D6A696A08DF0EDF43
:0E193E006DB602D06D86FCD7010EA06F1200B0
:10194C00200E0101A05D03E36DB201D002D0006A4C
:10195C0038D0A1C152F2A2C153F25BEC07F0005295
:10196C002FE10BC252F2010E536F08C254F209C29E
:10197C0055F20AC256F2C1DD00C0A1F101C0A2F1BC
:10198C0001018F6B906B916B926BA1C152F2A2C152
:10199C0053F25BEC07F0005209E001018F519011FA
:1019AC009111921102E0006A0CD0EFD70101010EE7
:1019BC00A125E96E000EA221EA6EEECF00F001D057
:0419CC00006A12009B
:1019D0009A0EF66E300EF76E000EF86E140EE16E73
:1019E000020EE26E3E0E006E010E016EBBDE08C2FC
:1019F000E9FF09C2EAFFEECF52F2140E0201536F63
:101A0000020E546F90EC06F00AC2E9FF0BC2EAFF27
:101A1000EECF52F2190E536F020E546F90EC06F097
:101A20000CC2E9FF0DC2EAFFEECF52F21E0E536F59
:101A3000020E546F90EC06F00EC2E9FF0FC2EAFFEF
:101A4000EECF52F2230E536F020E546F90EC06F05D
:101A500010C2E9FF11C2EAFFEECF52F2280E536F17
:101A6000020E546F90EC06F012C2E9FF13C2EAFFB7
:101A7000EECF52F22D0E536F020E546F90EC06F023
:101A8000140E526F020E536FC2DC190E526F020E0B
:101A9000536FBDDC1E0E526F020E536FB8DC230E67
:101AA000526F020E536FB3DC280E526F020E536F4B
:101AB000AEDC2D0E526F020E536FA9DC320E526F48
:101AC000020E536F740E546F010E556F2BEC07F01E
:101AD000320E526F020E536F280E546F020E556F66
:101AE0002BEC07F0320E526F020E536F6D0E546FD7
:101AF000010E556F2BEC07F0320E526F020E536F32
:101B0000230E546F020E556F2BEC07F0320E526FFE
:101B1000020E536F6F0E546F010E556F2BEC07F0D2
:101B2000320E526F020E536F2D0E546F020E556F10
:101B30002BEC07F0420E526F020E536F640E546F7F
:101B4000010E556F2BEC07F0420E526F020E536FD1
:101B50001E0E546F020E556F2BEC07F0420E526FA3
:101B6000020E536F6B0E546F010E556F2BEC07F086
:101B7000420E526F020E536F190E546F020E556FC4
:101B80002BEC07F0420E526F020E536F720E546F21
:101B9000010E556F2BEC07F0420E526F020E536F81
:101BA000140E546F020E556F2BEC07F0010E666F8A
:101BB000BCEC02F0010E0201526F010E536F320EA7
:101BC000546F020E556F58EC09F0020E0201526F6D
:101BD000010E536F420E546F020E556F58EC09F010
:021BE0001200F1
:101BE20002010A6B0B6B0C6B0D6B0E6B0F6B106BA8
:101BF200116B126B136B146B156B166B176B186BE7
:101C0200196B1A6B1B6B1C6B1D6B1E6B1F6B206B96
:101C1200216B226B236B246B256B266B276B286B46
:101C2200296B2A6B2B6B2C6B2D0E526F020E536F8E
:101C32002E0E546F020E556F2F0E566F020E576FF7
:101C4200300E586F020E596F310E5A6F020E5B6FD3
:101C5200320E5C6F020E5D6F330E5E6F020E5F6FAF
:101C620022EC0AF02DC252F2000E0201536F0A0E4C
:101C7200546F020E556FD6DC2EC252F2000E536F15
:101C82000F0E546F020E556FCDDC2FC252F2000EB2
:101C9200536F140E546F020E556FC4DC31C252F2F0
:101CA200000E536F190E546F020E556FBBDC32C219
:101CB20052F2000E536F1E0E546F020E556FB2DCBD
:101CC20033C252F2000E536F230E546F020E556F41
:101CD200A9DC30C252F2000E536F280E546F020E6E
:101CE200556FA0DC0A0E526F020E536F07EC0AF01A
:101CF2000F0E526F020E536F07EC0AF0140E526F62
:101D0200020E536F07EC0AF0190E526F020E536F58
:101D120007EC0AF01E0E526F020E536F07EC0AF028
:101D2200230E526F020E536F07EC0AF0280E526F09
:101D3200020E536F07EC0AF00A0E526F020E536F37
:101D42009CEC09F000C02DF20F0E526F020E536F81
:101D52009CEC09F000C02EF2140E526F020E536F6B
:101D62009CEC09F000C02FF2190E526F020E536F55
:101D72009CEC09F000C031F21E0E526F020E536F3E
:101D82009CEC09F000C032F2230E526F020E536F28
:101D92009CEC09F000C033F2280E526F020E536F12
:101DA2009CEC09F000C030F208C2E1FF09C2E2FF78
:101DB2002DC2E6FF010E0825E16E000E0921E26E3A
:101DC2002EC2E6FF020E0825E16E000E0921E26E28
:101DD2002FC2E6FF030E0825E16E000E0921E26E16
:101DE20031C2E6FF050E0825E16E000E0921E26E02
:101DF20032C2E6FF060E0825E16E000E0921E26EF0
:101E020033C2E6FF000EE66E040E0825E16E000EF8
:0A1E12000921E26E30C2E6FF120063
:101E1C00010E0201666FBCEC02F00F0E0201666F40
:101E2C00BCEC02F0800E0201666FBCEC02F008C242
:0C1E3C0052F209C253F214EC07F012003D
:101E4800200E0101A05D03E36DB201D002D0006A4B
:101E580027D097C152F298C153F25BEC07F00052B9
:101E68001EE1010E01019725E96E000E9821EA6E28
:101E7800EECF00F000C00CF20BC252F20201536B1D
:101E880008C254F209C255F20AC256F283EC0AF0AB
:101E980000C097F101C098F10CC200F001D0006AAF
:021EA800120026
:0A1EAA006D6A696A0101A06B120065
:101EB400939093928A908A9293809382C79EC79CB0
:061EC400380EC66E12008C
:041ECA00EFDF120034
:101ECE00780EC86EF0DFC1EC03F0D6C160F267EC9D
:101EDE0003F0D7C160F267EC03F0D8C160F267EC93
:101EEE0003F0E2EC03F0020E0B6E380E0C6EAD0E2C
:101EFE000D6E0D2EFED70C2EFCD70B2EFAD7120020
:101F0E00070E0B6E170E0C6E6A0E0D6E0D2EFED793
:0C1F1E000C2EFCD70B2EFAD7000012008E
:101F2A0010D0800E0101D66F1AD0C00ED66F17D00E
:101F3A00940ED66F14D0D40ED66F11D0800ED66FF1
:101F4A000ED00101D651010AECE0D651020AEDE0A9
:101F5A00D651030AEDE0D651040AEDE0EFD7D705D2
:101F6A00006ED651002600C0D6F1998100C066F2F3
:101F7A00BCEC02F09991D8C166F2BCEC02F09981EE
:021F8A00120043
:101F8C000F0EC16E070EB46E800EF16E896A8B6AED
:101F9C008C6A8D6A926A946A956A966A806A826A79
:0E1FAC00836A846A030E926E030E896E120021
:101FBA00939493969398939A939C939E81948196E3
:101FCA00819E819C819A819841EC02F041EC02F059
:101FDA0041EC02F0818A818881844CEC02F0819480
:101FEA0041EC02F081844CEC02F0819441EC02F065
:101FFA0081844CEC02F0819441EC02F08198818456
:10200A004CEC02F0819441EC02F081844CEC02F039
:10201A008194819A818E81844CEC02F0819441EC06
:10202A0002F0819E818881844CEC02F0819481982F
:10203A0081844CEC02F0819441EC02F081844CECF6
:10204A0002F08194818881844CEC02F0819441EC05
:10205A0002F0819881844CEC02F08194818E818C0B
:10206A00818A818881844CEC02F0819441EC02F0EF
:06207A0001019981120032
:1020800080A006D080B204D0320E01017B6F0BD04D
:1020900080B006D080A204D00101360E7B6F03D041
:0C20A0000101330E7B6F7BC100F01200C9
:1020AC00010E01019A6FD6C193F1D7C194F1D8C139
:1020BC0095F1D9C196F1BAEC0BF0010E016E0150FD
:0820CC00010A01E12EDC120003
:1020D40000C552F2F80E0201536F010E546F90ECDA
:1020E40006F001C552F2D80E536F010E546F90ECF6
:1020F40006F002C552F2E80E536F010E546F90ECD5
:1021040006F0D6C160F2D7C161F2710E626F010EA2
:10211400636F9AEC03F0D6C152F2D7C153F2F80EB2
:10212400546F010E556F2BEC07F0D6C152F2D7C194
:1021340053F2D80E546F010E556F2BEC07F0D6C135
:1021440052F2D7C153F2E80E546F010E556F2BECC7
:0421540007F012007E
:10215800C1EC03F0D00E0201606F67EC03F00201DE
:10216800606B67EC03F0800E0201606F67EC03F0B0
:10217800060E0201606F67EC03F0040E0201606F47
:1021880067EC03F0050E0201606F67EC03F0180EB0
:102198000201606F67EC03F0100E0201606F67ECDC
:1021A80003F0120E0201606F67EC03F0E2EC03F03B
:1021B800C1EC03F0D00E0201606F67EC03F002017E
:1021C800606B67EC03F00201606B67EC03F0E2EC14
:0421D80003F01200FE
:1021DC00D6C108F2D7C109F2D8C10AF2010E020128
:0821EC000B6FA6EC0CF01200D1
:1021F400D6C108F2D7C109F20FDEC00E666FBCEC7F
:1022040002F0D8C152F2D9C153F214EC07F0120013
:10221400780EC86E4DDEC1EC03F0D6C160F267ECF7
:1022240003F0D8C160F267EC03F078EC03F0D7C197
:1022340060F267EC03F00201606B84EC03F000C011
:10224400D9F19C0E0C6ED70E0D6E0D2EFED70C2EF2
:10225400FCD7E2EC03F0D9C100F006D00D2EFED776
:0A2264000C2EFCD70B2EFAD7120047
:10226E00D6C108F2D7C109F2010E0101D62502012D
:10227E000A6F000E0101D72102010B6F020E010140
:10228E00D62502010C6F000E0101D72102010D6F40
:10229E00030E0101D62502010E6F000E0101D7219A
:1022AE0002010F6F050E0101D6250201106F000EFF
:1022BE000101D7210201116F060E0101D62502017F
:1022CE00126F000E0101D7210201136FE8EC0CF022
:0222DE001200EC
:1022E00093C108F294C109F2400E02010A6F010E77
:0622F0000B6FAADD1200D5
:1022F600D60E0201086F010E096F70DC0501406BF6
:10230600416BD6C142F5D7C143F5D8C144F5D9C111
:1023160045F5DAC146F5DBC147F5DCC148F51200E3
:04232600A19A120066
:10232A006984EF0E68166D82750E02016A6F000EDF
:10233A006B6F6C6B6D6B6E6B6F6B18EC03F012004E
:10234A0070A019D07DC1E9FF7EC1EAFFEECF01F08E
:10235A000150800A0FE19BC1E9FF9CC1EAFFEECF61
:10236A0001F00150840A06E17DC1E1FF7EC1E2FF6E
:0C237A008C0EE66E7090DF0E68161200EC
:10238600FD0E01018A15016E026AFF0E0216000E8D
:10239600021802E1000E01186EE17E0E8A15016E2A
:1023A60001C003F00332039E03C000F0000E016E6D
:1023B600003600900136003600900136000E0024EB
:1023C600026E040E0120036E02C07DF103C07EF191
:1023D60002C07FF103C080F1040E7F19006E00C0B9
:1023E6007FF102C0E9FF03C0EAFFEECF00F000C0B4
:1023F60001F03C0E01160132019E0132019E015090
:102406000D0A36E1020E7D25E96E000E7E21EA6E8A
:10241600EECF01F0EECF02F00250040A02E1280EE0
:10242600011823E1020E7D25E16E000E7E21E26E8B
:10243600200EE66E040EE66E0201686B080E685DFD
:1024460014E2200EE16E040EE26E6851E126D8B069
:10245600E22A280EE96E040EEA6E6851E926D8B023
:10246600EA2AEECFE6FF682BE9D7FFEC0BF002D0A5
:1024760021EC0CF00ED0FD0E8A15016E026AFF0EDD
:102486000216000E021802E1040E011802E147ECE2
:042496000CF0120034
:10249A00740E02016A6F000E6B6F6C6B6D6B6E6B64
:1024AA006F6B18EC03F06D92699468A403D0FB0E6D
:0624BA006816FBD71200BA
:1024C0008CEC0BF0976B986BA16BA26B6A6A686AD5
:1024D000A6EC0BF06D8C6E6A710E02016A6F0F0E26
:1024E0006B6F6C6B010E6D6F000E6E6FFEEC02F089
:1024F0006D9C686B080E685D16E268C200F0000E05
:10250000016E003600900136003600900136000E54
:102510000024E16E040E0120E26EE66AE66AE66AD5
:10252000E66A682BE7D7160E706E68A603D0F70E22
:102530006816FBD70101A66BAB6BAC6BAD6B6D98EE
:0E254000080E9B6F040E9C6F9F6BA06B120029
:10254E001EDD34DD010E0201666FBCEC02F00C0ED6
:10255E000201666FBCEC02F0010E0201526F010E19
:10256E00536F020E546F010E556F58EC09F03D0E6D
:10257E000B6EE10E0C6E3F0E0D6E0D2EFED70C2E59
:0C258E00FCD70B2EFAD700000000120052
:10259A00F8DC780EC86E89DCDADD6DDD000E00BE6F
:1025AA00FF0E016E000E011802E1330E00181BE146
:1025BA001F0E0B6E710E0C6E1E0E0D6E0D2EFED7BB
:1025CA000C2EFCD70B2EFAD70000BE0E0201086FA4
:1025DA00010E096FF1EC0DF0BE0E0101D66F010E6E
:1025EA00D76F40DEDAD7530E0201086F010E096F6A
:1025FA0010DC7A0E0B6EC10E0C6E810E0D6E0D2E56
:10260A00FED70C2EFCD70B2EFAD7000000001200C2
:10261A00B8DC780EC86E49DCC1EC03F0A20E0201E8
:10262A00606F67EC03F0020E0201606F67EC03F063
:10263A00410E0201606F67EC03F0E2EC03F062DC2A
:10264A00D80E0201086F000E096F0EEC0FF0020E91
:10265A000101D66F030ED76F410ED86F61DC52DCD1
:10266A00E70E0201086F000E096F0EEC0FF04ADC4C
:10267A00780EC86E1ADCC1EC03F0A20E0201606F7C
:10268A0067EC03F0020E0201606F67EC03F078EC6E
:10269A0003F0A30E0201606F67EC03F00201606BA6
:1026AA0084EC03F000C0BEF1E2EC03F0130E0B6EF3
:1026BA00440E0C6E440E0D6E0D2EFED70C2EFCD75A
:1026CA000B2EFAD70000F40E0201086F000E096FF4
:1026DA000EEC0FF0020E0101D66F030ED76FBEC1CA
:1026EA00D8F11EDC7A0E0B6EC10E0C6E810E0D6EC9
:1026FA000D2EFED70C2EFCD70B2EFAD700000000A9
:10270A00BADC000E00BEFF0E016E000E011802E1D7
:0A271A00360E001801E1F4D712009A
:102724000101A051010A07E16DBA05D0686A698008
:102734006988020EA06F68A405D069A403D0FB0EBB
:102744006816A9DE6DA202D0ECDD7AD068A018D09C
:1027540069A016D0B3DE040EA06F200E0401026F30
:10276400040E036F080E016F000E0015006E00C00A
:1027740000F48C0E0011006E00C000F4FE0E68160A
:1027840068A805D069A803D0CEDDEF0E681668AC42
:1027940011D069AC0FD0730E02016A6F000E6B6F1B
:1027A4006C6B6D6B010E6E6F000E6F6F18EC03F0A7
:1027B400BF0E681668AA03D069AA01D0C4DD68A256
:1027C40010D069A20ED0FF0E02016A6F3F0E6B6F2C
:1027D4006C6B6D6B010E6E6F000E6F6F18EC03F077
:1027E4006A6A040E0101A05D02E29BDD29D069A69C
:1027F40026D00201676B040E675D21E268A61BD038
:102804006CCF8AF1F70E6816780E01018A15016EF5
:102814000150000A02E1B5DD0DD0720E02016A6FAB
:10282400000E6B6F8A0E6C6F010E6D6F6E6B6F6BAB
:1028340018EC03F001D003D00201672BDCD771DD63
:02284400120080
:102846000101CE6BCF6BD06BD16BD26BD36BC6EC69
:102856000FF0780EC86E5AEC0FF07BDC01017C6B32
:10286600400E7C5D0BE2400EE16E050EE26E7C5181
:10287600E126D8B0E22AE66A7C2BF2D7000ED66FA4
:10288600050ED76F400ED86F050ED96F0CDC40ECE5
:1028960010F0000E00BEFF0E016E000E011802E1E0
:1028A600320E0018D8A49DD2100E0201086F010E38
:1028B600096F0EEC0FF011DD00520DE140EC10F047
:1028C600000E00BEFF0E016E000E011802E1320E70
:1028D600001801E1F0D700C501F0000E026E000EEF
:1028E600021802E1000E011843E1B20E0201086F60
:1028F600000E096F0EEC0FF03D0E0B6EE10E0C6E26
:102906003F0E0D6E0D2EFED70C2EFCD70B2EFAD7D2
:1029160000000000EDDC400E0101D66F050ED76FFA
:10292600400ED86F58DC00520DE140EC10F0000E5E
:1029360000BEFF0E016E000E011802E1320E0018F5
:1029460001E1E9D74C0E0201086F000E096F0EEC8B
:102956000FF03D0E0B6EE10E0C6E3F0E0D6E0D2E42
:10296600FED70C2EFCD70B2EFAD70000000038D26B
:1029760000C501F0000E026E000E021802E1010E03
:102986000118D8A4E1D00101CE6B080ECE5DD8B0F7
:102996008DD0D251010A02E1D26B88D0CF6BD16BB8
:1029A6000D0ED15DD8B07FD00501406B020E416F90
:1029B600CEC142F50101D06B130ED05D2DE2030EA0
:1029C600D025006E016A000E0122400E0024D46F4D
:1029D600050E0120D56F590EE96E000EEA6ECE5136
:1029E600E926D8B0EA2AEECFD6F1610EE96E000EDE
:1029F600EA6ECE51E926D8B0EA2AEECFD7F1CFC19A
:102A0600D8F105DCD4C1E1FFD5C1E2FF00C0E6FF85
:102A16000101CF2BD02BD0D7400ED66F050ED76F26
:102A2600400ED86FEEEC10F000520DE140EC10F0C5
:102A3600000E00BEFF0E016E000E011802E1320EFE
:102A4600001801E1E9D749DC00520DE140EC10F035
:102A5600000E00BEFF0E016E000E011802E1320EDE
:102A6600001801E1F0D705010051020A19E0010E34
:102A76000101D26F290E0201086F000E096F0EECDC
:102A86000FF03D0E0B6EE10E0C6E3F0E0D6E0D2E11
:102A9600FED70C2EFCD70B2EFAD70000000003D071
:102AA6000101D12B7DD70101CE2B6FD70501406BDC
:102AB600030E416F400E0101D66F050ED76F400E13
:102AC600D86FEEEC10F000520DE140EC10F0000E65
:102AD60000BEFF0E016E000E011802E1320E001854
:102AE60001E1E8D70101D251000A16E1340E0201D4
:102AF600086F000E096F0EEC0FF03D0E0B6EE10E27
:102B06000C6E3F0E0D6E0D2EFED70C2EFCD70B2E27
:102B1600FAD70000000017D00201410E086F000E20
:102B2600096F0EEC0FF03D0E0B6EE10E0C6E3F0EB4
:102B36000D6E0D2EFED70C2EFCD70B2EFAD70000ED
:102B460000000101D26B4CD100C501F0000E026EEF
:102B5600000E021802E1070E0118D8A421D1920E28
:102B66000201086F000E096F0EEC0FF03D0E0B6EA2
:102B7600E10E0C6E3F0E0D6E0D2EFED70C2EFCD701
:102B86000B2EFAD7000000000101CE6B080ECE5DB9
:102B9600D8B0B6D0D351010A02E1D36BB1D0CF6B16
:102BA600D16B0D0ED15DD8B0A8D00501406B060ED5
:102BB600416FCEC142F50101D06B130ED05D40E2EC
:102BC600590EE96E000EEA6ECE51E926D8B0EA2A11
:102BD600EECFD6F1CFC1D7F1030ED025D86F67EC73
:102BE6000FF0030E0101D025006E016A000E0122CE
:102BF600400E0024D46F050E0120D56F590EE96EE4
:102C0600000EEA6ECE51E926D8B0EA2AEECFD6F10A
:102C1600610EE96E000EEA6ECE51E926D8B0EA2AB8
:102C2600EECFD7F1CFC1D8F10AEC11F0D4C1E1FF54
:102C3600D5C1E2FF00C0E6FF0101CF2BD02BBDD7E7
:102C4600400ED66F050ED76F400ED86FEEEC10F023
:102C560000520DE140EC10F0000E00BEFF0E016EBA
:102C6600000E011802E1320E001801E1E9D770ECFE
:102C760011F000520DE140EC10F0000E00BEFF0E08
:102C8600016E000E011802E1320E001801E1EFD7C5
:102C960005010051040A19E0010E0101D36F9D0ED2
:102CA6000201086F000E096F0EEC0FF03D0E0B6E61
:102CB600E10E0C6E3F0E0D6E0D2EFED70C2EFCD7C0
:102CC6000B2EFAD70000000018D00201A90E086FDB
:102CD600000E096F0EEC0FF03D0E0B6EE10E0C6E42
:102CE6003F0E0D6E0D2EFED70C2EFCD70B2EFAD7EF
:102CF600000000000101D12B54D70101CE2B46D78D
:102D06000501406B050E416FD3C142F5400E01012E
:102D1600D66F050ED76F400ED86FEEEC10F000524E
:102D26000DE140EC10F0000E00BEFF0E016E000E2D
:102D3600011802E1320E001801E1E8D70101D35172
:102D4600000A16E1690E0201086F000E096F0EEC0B
:102D56000FF03D0E0B6EE10E0C6E3F0E0D6E0D2E3E
:102D6600FED70C2EFCD70B2EFAD70000000017D08A
:102D76000201790E086F000E096F0EEC0FF03D0E82
:102D86000B6EE10E0C6E3F0E0D6E0D2EFED70C2E49
:102D9600FCD70B2EFAD7000000000101D36B20D020
:102DA6000101BE0ED66F010ED76F6AEC10F0850ECC
:102DB6000101D66F000ED76FBE0ED86F010ED96F08
:102DC600FAEC10F0B70E0B6EA10E0C6EC30E0D6E64
:102DD6000D2EFED70C2EFCD70B2EFAD700000000C6
:102DE60056D565EC0FF0430E0201086F010E096F10
:102DF6000EEC0FF07A0E0B6EC10E0C6E810E0D6E80
:102E06000D2EFED70C2EFCD70B2EFAD70000000095
:022E16001200A8
:102E1800CBEC18F0A7EC12F040EC10F049D0BF0E44
:102E28000201086F000E096F0EEC0FF00DEC13F0A5
:102E38004AD0CF0E0201086F000E096F0EEC0FF09A
:102E4800FEDC41D00201200E086F010E096F0EEC66
:102E58000FF00C0E666FBCEC02F00D0E0B6E2D0E13
:102E68000C6ED70E0D6E0D2EFED70C2EFCD70B2E2A
:102E7800FAD700000000CDEC12F025D02D0E01018C
:102E8800D66F010ED76F3B0ED86F010ED96FFAECD3
:102E980010F03D0E0B6EE10E0C6E3F0E0D6E0D2EFA
:102EA800FED70C2EFCD70B2EFAD7000000000BD053
:102EB80001017B51360AB3E07B51320ABAE07B51FB
:0A2EC800330AC0E0DBD7A8D7FFD71C
:1031960010EE29F0520E006E020E016ED20EF66E81
:0E31A6002E0EF76E000EF86EB2EC0BF012005B
:0B2ED20052656164204572726F72004F
:0D2EDD00456E74726965732053656E740054
:0B2EEA0052656164204572726F720037
:0D2EF50054696D652053656E742030300007
:082F0200A0A2A4A6A8AAACAE8F
:082F0A00A1A3A5A7A9ABADAF7F
:102F1200456E7472696573205772697474656E00C8
:0C2F22005772697465204572726F72006E
:0D2F2E004E6F204F7065726174696F6E0008
:0B2F3B0057726974696E672E2E2E001D
:0C2F46005772697465204572726F72004A
:092F52005772697465204F6B0091
:0D2F5B0053656E64696E672054696D6500F2
:102F68004932435F454550524F4D5F5445535400D5
:092F7800555342204D6F646500C1
:0F2F810057524954452046494E4953484544004C
:0D2F900052454144205354415254454400E1
:0E2F9D00524541442046494E495348454400A0
:0E2FAB0048617264776172652043726F6E0038
:102FB90057616974696E6720436F6D6D616E640056
:0D2FC90049324320525443204D6F6465008F
:0E2FD6004F7065726174696F6E204E6F7400EB
:082FE400416C6C6F776564001D
:102FEC00555342204D4F44452045584954454400C3
:102FFC0054494D45204D4F4445204558495445446E
:01300C0000C3
:07300D0054494D453A200033
:023014003A0080
:023016002F0089
:023018002F0087
:01301A0000B5
:02301B003A0079
:07301D00444154453A200034
:1030240076034D0069006E00640061006E0061006B
:103034006F002000530074006100740065002000DC
:1030440055006E0069007600650072007300690027
:103054007400790020002D00200049006C006900F4
:10306400670061006E00200049006E007300740068
:103074006900740075007400650020006F0066002C
:10308400200054006500630068006E006F006C004F
:063094006F0067007900E7
:05309A00000000000031
:05309F0000000000002C
:0530A400000000000027
:0530A900000000000022
:0530AE0000000000001D
:0530B300000000000018
:1030B8000000000000000000000000000000000008
:1030C80000000000000000000000000000000000F8
:1030D8002A034800610072006400770061007200F2
:1030E80065002000430072006F006E00200044005D
:0A30F80065007600690063006500C2
:1031020009022900010100803209040000020300C3
:10311200000009210101000122210007058103406D
:0931220000010705010340000152
:05312B0000000000009F
:0531300000000000009A
:05313500000000000095
:05313A00000000000090
:05313F0000000000008B
:05314400000000000086
:05314900000000000081
:10314E000600FF0901A10119012940150026FF0003
:10315E007508954081021901294075089540910224
:01316E00C0A0
:10316F00120100020000000801000100010001022D
:02317F0000014D
:10318100303132333435363738394142434445469C
:043191000403090426
:020000040030CA
:0E000000210E3F1EFF8381FF0FC00FE00F4057
:00000001FF
