:04000000D9EF1CF028
:1000080000C01EF001C01DF002C01CF003C01BF0B0
:1000180004C01AF005C019F008C018F009C017F09C
:100028000AC016F00BC015F0E1CF27F0E2CF28F098
:10003800E9CF25F0EACF26F0F3CF23F0F4CF24F070
:10004800F5CF22F0F8CF1FF0F7CF20F0F6CF21F050
:1000580073EC1BF022C0F5FF1FC0F8FF20C0F7FFAC
:1000680021C0F6FF23C0F3FF24C0F4FF1EC000F038
:100078001DC001F01CC002F01BC003F01AC004F040
:1000880019C005F018C008F017C009F016C00AF02A
:1000980015C00BF025C0E9FF26C0EAFF27C0E1FF25
:0600A80028C0E2FF110078
:1000AE009EC2A2F19FC2A3F1A0C2A6F1A1C2A7F166
:1000BE00800E0201A211006E008000C0A5F1120098
:1000CE00000E056E040E066E9EC203F0000E046E48
:1000DE000336043603900336043603909FC200F0B5
:1000EE00000E016E003601360090005003260150BE
:1000FE00042203C001F004C002F001360190023662
:10010E0001360190023601C003F002C004F0043241
:10011E000332049E04BC048E04320332049E04BCDB
:10012E00048E03C000F004C001F0003600900136CA
:10013E00003600900136055000260650012200C000
:10014E0005F001C006F000C0E1FF01C0E2FFE69E2F
:10015E0002019F51000A12E19EC200F0000E016ED4
:10016E00003600900136810E0024E16E010E012052
:10017E00E26E05C0E6FF06C0E6FF11D09EC200F09B
:10018E00000E016E0036009001369A0E0024E16ECC
:10019E00010E0120E26E05C0E6FF06C0E6FF05C0B7
:1001AE00E1FF06C0E2FFE69C040E0524E16E000EA0
:0801BE000620E26EE68C12003F
:0E01C600800E02019E11006E00C0A5F1120015
:1001D4009EC2A2F19FC2A3F1A0C2A4F1A1C2A6F142
:1001E400A2C2A7F1800E0201A311006E00C0A5F106
:0201F4001200F7
:1001F60020C401F01F0E01160150010A01E08DD046
:1002060004012451000A01E088D02151060A3AE18E
:100216002FD001019E51010A13E1850E02019E6F46
:100226003C0E9F6F000EA06F120E9E27000E9F239E
:10023600A023090EA16F000EA26F400EA36FC7DFA9
:1002460021D001019E51010A0EE1D10E02019E6FDD
:100256003C0E9F6F000EA06F210EA16F000EA26FC5
:10026600400EA36FB4DF0ED002019E6BA9DF0AD049
:1002760004012351210ACDE02351220AE2E0235151
:10028600230AF2E020C401F0600E0116050E006E8E
:10029600005004E00132019EFF0FFBD70150010A16
:1002A60001E03BD027D039D038D0850E02019E6FB1
:1002B600010E9F6F010EA06F000EA16F400EA26F80
:1002C600F3DE2BD002019E6B7BDF23C485F125D0A4
:1002D6000201860E9E6F010E9F6F010EA06F000E2B
:1002E600A16FA26BE1DE19D002019E6B69DF22C409
:1002F60086F113D004012151010AD5E02151090AE2
:10030600D3E02151020AD1E021510A0ADBE0215152
:0C031600030ADEE021510B0AE7E01200B0
:1003220002019A51000A12E099C200F0000E016E19
:100332000036009001369A0E0024E96E010E01206B
:10034200EA6EEECF04F0EECF05F011D099C200F0C4
:10035200000E016E003600900136810E0024E96E17
:10036200010E0120EA6EEECF04F0EECF05F0020E90
:100372000424E16E000E0520E26E9BC2E6FF9CC2E1
:10038200E6FF010E0424E16E000E0520E26E9DC21E
:10039200E6FF04C0E9FF05C0EAFFEECF00F004C0AB
:1003A200E1FF05C0E2FF400E0014E66E04C0E9FF63
:1003B20005C0EAFFEECF00F004C0E1FF05C0E2FF96
:1003C200880E0010E66E9A51000A1BE099C200F0F6
:1003D200000E016E0036009001369A0E0024026E65
:1003E200010E0120036E02C0E9FF03C0EAFF040E02
:1003F200EE18006E02C0E1FF03C0E2FF00C0E6FF9C
:100402001AD099C200F0000E016E0036009001363B
:10041200810E0024026E010E0120036E02C0E9FF6C
:1004220003C0EAFF040EEE18006E02C0E1FF03C033
:10043200E2FF00C0E6FF04C000F005C001F01200B8
:10044200700EE16E0F0EE26E02019951E126D8B0F4
:10045200E22A9AC2E6FF9AA504D099C29EF29F6B45
:1004620035DE9AA305D099C29EF2010E9F6F2EDE51
:02047200120076
:0E047400C70E0D6E0D2EFED700000000120008
:0E048200030E0D6E0D2EFED7000000001200BE
:10049000560E0C6EB50E0D6E0D2EFED70C2EFCD723
:0604A00000000000120044
:0A04A6000101995301E0A4DE1200E9
:1004B0000101995315E0010E0201996F1E0E9A6F0A
:1004C000C0DF010E996F9A6B92C19BF293C19CF2AF
:1004D000400E9D6F26DF00C096F101C097F114D049
:1004E0000201010E996F1E0E9A6FABDF010E996F1C
:1004F0009A6B92C19BF293C19CF2400E9D6F11DFEB
:0A05000000C096F101C097F112004F
:10050A000CD0D1DF3CD03BD0C9DF39D038D037D07E
:10051A0036D035D0000033D032D0000E0201941903
:10052A0002E1010E9319EDE0000E941902E1020EA8
:10053A009319E9E0000E941902E1030E9319E4E01D
:10054A009451000A02E1730E9319E0E09451000AF3
:10055A0002E1750E9319DBE09451000A02E1740E70
:10056A009319D6E094513F0A02E1FF0E9319D1E0A4
:10057A009451000A02E1720E9319CCE0CDD7010E14
:04058A00006E1200ED
:10058E00086A080E0C6E003408360450085ED8B0A7
:0E059E0002D00826D89000360C2EF5D7120099
:1005AC00C7B409D01F0EC514016E0150000A03E137
:0A05BC00010E006E01D0006A12006B
:1005C60002018FBF02D0819E01D0818E8FBD02D0E5
:1005D600819C01D0818C8FBB02D0819A01D0818A07
:1005E6008FB902D0819801D08188010198B102D0DB
:1005F600818601D08196818441DF819402018FB783
:1006060002D0819E01D0818E8FB502D0819C01D00F
:10061600818C8FB302D0819A01D0818A8FB102D0AA
:10062600819801D08188010198B102D0818601D0DC
:100636008196818423DF819498A102D026DF01D0A0
:0406460016DF1200A9
:10064A000B6A0A6A096A00500402F4CF09F0F3CF70
:10065A0008F001500502F4CF0BF0F3CF0AF0005076
:10066A000502F3500926F4500A22E86A0B220150C7
:10067A000402F3500926F4500A22E86A0B2208C041
:10068A0000F009C001F00AC002F00BC003F012002A
:10069A0093C202F094C203F096C200F097C201F02E
:1006AA00010E0201965F000E975B0050011009E0EF
:1006BA0002C0E1FF03C0E2FF95C2E6FF024A032A35
:0406CA00EBD7120058
:0A06CE00C582C5A201D0FDD71200BD
:1006D8009E96C5869EB601D0FDD7C9CF01F002010E
:1006E8008951000A02E1C58A01D0C59A9E96C5883B
:0C06F8009EB601D0FDD701C000F012003A
:100704009E9689C2C9FFC7A401D0FDD79EB601D069
:10071400FDD7C5BC02D0006A03D0C584020E006EAA
:020724001200C1
:100726000201896B8A6B8A51120802E189518E088F
:1007360008E339DF005201E004D00201894B8A2B1D
:10074600F2D70201120E8A5D02E18F0E895D03E384
:100756007B0E006E05D0C580C5A001D0FDD7006A0E
:0207660012007F
:04076800C584120032
:10076C0089C204F08AC205F004C002F005C003F08F
:10077C00044A052A8BC200F08CC201F002018B4B9B
:10078C008C2B00C0E9FF01C0EAFF02C0E1FF03C0EF
:10079C00E2FFEECFE6FF02C0E9FF03C0EAFFEE5234
:0E07AC0001E0E2D789C200F08AC201F012001B
:1007BA0002018951390806E3300E895D03E3010E0F
:0807CA00006E01D0006A12006C
:1007D20002018C6B030E8C5D0AE28C518A25E16E5C
:1007E200000E8B21E26E200EE66E8C2BF3D78C511D
:1007F2008A25E16E000E8B21E26EE66A8C078C512F
:100802008A258D6F000E8B218E6F0A0E046E89C2AF
:1008120000F0BCDE08C000F0300E00268DC2E1FF01
:100822008EC2E2FF00C0E6FF0A0E046E89C200F02B
:10083200ADDE00C089F20050000A01E102D08C074F
:04084200DED71200EB
:0E0846000101989189C28FF2BBDE98811200E9
:10085400000E0101A75D02E1080EA65D10E2A6C12B
:1008640003F0A7C104F08C51000A03E1010E8C6F60
:1008740005D08C51010A02E1020E8C6F04D0080EDF
:10088400036E000E046E9AC1E1FF9BC1E2FFE69283
:100894009AC1E1FF9BC1E2FFE6909AC1E9FF9BC1C7
:1008A400EAFFEECF00F09AC1E1FF9BC1E2FF0450E2
:1008B4000010E66E010E9A25E16E000E9B21E26E99
:1008C40003C0E6FF0350A65D006E0450A759016EF5
:1008D40000C0A6F101C0A7F1280E876F040E886F2F
:1008E400A5B12FD0035004102BE0A2C1F6FFA3C181
:1008F400F7FFA4C1F8FF0900F5CF00F087C1E1FFBD
:1009040088C1E2FF00C0E6FF874B882B010EA225B9
:10091400006E000EA321016E000EA421026E00C021
:10092400A2F101C0A3F102C0A4F1010E035C006EA8
:10093400000E0458016E00C003F001C004F0D2D7C9
:1009440024D00350041021E0A2C1E9FFA3C1EAFFAF
:1009540087C1E1FF88C1E2FFEECFE6FF874B882B1A
:10096400010EA225006E000EA321016E00C0A2F1AB
:1009740001C0A3F1010E035C006E000E0458016E69
:0C09840000C003F001C004F0DCD712003A
:1009900004012051800AD8A479D0C00E0101A56FAE
:1009A0006AD00101F20E006E3C0E016E000E026E66
:1009B00000C0A2F101C0A3F102C0A4F1120EA66F03
:1009C000000EA76F63D00101030E006E000E016ED2
:1009D00022C404F0000E056E38DEBA0E0024E96E63
:1009E000010E0120EA6EEECFA2F1EECFA3F1EECF21
:1009F000A4F1020EA225F66E000EA321F76E000EE2
:100A0000A421F86E0900F5CF00F00900F5CF01F040
:100A100000C0A6F101C0A7F139D0030E0401225D88
:100A200024E2030E006E000E016E22C404F0000EDC
:100A3000056E0BDEB10E0024E96E010E0120EA6E98
:100A4000EECFA2F1EECFA3F1EECFA4F1A2C1F6FF5B
:100A5000A3C1F7FFA4C1F8FF0900F5CF00F000C063
:100A6000A6F1000E0101A76F02D00101A56B0ED007
:100A70000101A56B0BD004012351010A92E023511F
:0E0A8000020AA1E02351030AC8E0F2D71200D7
:100A8E000101A58F710E0201936F0F0E946F956B7E
:100A9E00010E966F000E976FF9DD8A0E936F010EA1
:100AAE00946F956B010E966F000E976FEFDD22C45B
:100ABE009EF101019E51000A03E1100E9F6F10D0AE
:100ACE00200E9F6F010E0201936F000E946F9E0E0B
:100ADE00956F010E966F010E976F000E986F0EDDDB
:020AEE001200F4
:100AF0000401286B296B4AD00101A58F04012881CC
:100B000001018D51010A02E10401288354D0010141
:100B1000A58F51D00101A58F040124BF16D024C494
:100B200003F00F0E031603C000F0000E016E003636
:100B300000900136810E0024E96E010E0120EA6E5C
:100B4000EECF04F0EECF05F015D024C403F00F0E65
:100B5000031603C000F0000E016E0036009001364F
:100B60009A0E0024E96E010E0120EA6EEECF04F029
:100B7000EECF05F004C0E9FF05C0EAFFEECF01F0BB
:100B800001A403D00401010E286F15D020C401F088
:100B90001F0E01160150000AAFE020C401F01F0E25
:100BA00001160150010AB3E020C401F01F0E011626
:100BB0000150020AAFE00101A5AF07D0280EA26FD5
:0C0BC000040EA36FA581020EA66F1200A8
:100BCC0004012251010A13E120C401F01F0E011689
:100BDC000150000A0CE10101A58F04012151030A07
:100BEC0004E1010E01018D6F02D001018D6B040136
:100BFC002251000AD8A48DD020C401F01F0E01167A
:100C0C000150020AD8A485D024C401F00F0E01169D
:100C1C000150000AD8B47DD00101A58F040124BF76
:100C2C0016D024C403F00F0E031603C000F0000E00
:100C3C00016E003600900136810E0024E96E010E23
:100C4C000120EA6EEECF04F0EECF05F015D024C4EF
:100C5C0003F00F0E031603C000F0000E016E0036F9
:100C6C00009001369A0E0024E96E010E0120EA6E06
:100C7C00EECF04F0EECF05F02151030A07E104C0DA
:100C8C00E1FF05C0E2FF840EE66E43D024C400F001
:100C9C000F0E0016700E026E0F0E036E0050022621
:100CAC00D8B0032A02C0E9FF03C0EAFFFE0EEE141F
:100CBC00006EEECF01F0FF0E011602C0E1FF03C083
:100CCC00E2FF00C0E6FF01C0E6FF24AF11D004C074
:100CDC00E1FF05C0E2FFE66A040E0418006E00C0D6
:100CEC0004F004C0E1FF05C0E2FF400EE66E11D037
:100CFC0004C0E1FF05C0E2FF880EE66E040E041886
:100D0C00006E00C004F004C0E1FF05C0E2FFC80E95
:040D1C00E66E12006D
:100D20007BC204F07CC205F004C0E9FF05C0EAFF05
:100D3000EE5203E0044A052AF7D704C002F005C0CA
:100D400003F0044A052A7DC200F07EC201F00201D0
:100D50007D4B7E2B00C0E9FF01C0EAFF02C0E1FF2E
:100D600003C0E2FFEECFE6FF02C0E9FF03C0EAFFE7
:100D7000EE5201E0E2D77BC200F07CC201F012002B
:100D80000900F5CFE6FF0006FBE10106F9E11200DC
:0E0D9000160E6F6E9F0E6B6E7B0E696E12005C
:100D9E0002017D6B7D517B25E96E000E7C21EA6E92
:100DAE00EE520CE07D517B25E96E000E7C21EA6E41
:0E0DBE00EECF89F241DD02017D2BECD7120051
:100DCC00850E0101BA6F3C0EBB6F000EBC6F140E8A
:100DDC00B16F3D0EB26F000EB36FA20EB46F3B0E2F
:100DEC00B56F000EB66F5B0EB76F3C0EB86F000E92
:040DFC00B96F1200B9
:100E000010D0800E02017B6F1AD0C00E7B6F17D0FE
:100E1000940E7B6F14D0D40E7B6F11D0800E7B6F3D
:100E20000ED002017B51010AECE07B51020AEDE099
:100E30007B51030AEDE07B51040AEDE0EFD77C051E
:100E4000006E7B51002600C07BF200C08FF2E3EC05
:100E500002F0989102017F6B7F517D25E96E000EB3
:100E60007E21EA6EEE520CE07F517D25E96E000E88
:100E70007E21EA6EEECF89F2E6DC02017F2BECD711
:060E80000101988112003F
:100E86000101806B9AC1E1FF9BC1E2FFE66A040E95
:100E96009A19E16E9BC1E2FF000EE21AE66AAAAF5A
:060EA60001D0AA9F12001A
:100EAC006D980101A5BF49D0AAAF28D0020E806F62
:100EBC00010E9A25E16E000E9B21E26EE66A9AC144
:100ECC00E1FF9BC1E2FFC80EE66E010E7E25E16ECE
:100EDC00000E7F21E26E080EE66E020E7E25E16E9C
:100EEC00000E7F21E26E280EE66E040EE66E7EC1C9
:100EFC00E1FF7FC1E2FFC80EE66E1ED0010E7E251B
:100F0C00E16E000E7F21E26E080EE66E020E7E256B
:100F1C00E16E000E7F21E26E200EE66E040EE66E90
:100F2C007EC1E1FF7FC1E2FF8C0EE66E9AC1E1FF4C
:100F3C009BC1E2FF840EE66E82D0AABF80D0040172
:100F4C0020AF55D00101A7510401275D04E1010137
:100F5C00A6510401265D04E226C4A6F127C4A7F11C
:100F6C0073DC010E806F010E7E25E16E000E7F2179
:100F7C00E26E080EE66E020E7E25E16E000E7F21FB
:100F8C00E26E200EE66E040EE66E7EC1E1FF7FC1BE
:100F9C00E2FF800EE66E8B6B010E7C25E16E000E7F
:100FAC007D21E26E080EE66E020E7C25E16E000ECF
:100FBC007D21E26E200EE66E040EE66E7CC1E1FF32
:100FCC007DC1E2FF840EE66E010E8B6F020E9A2538
:100FDC00E16E000E9B21E26E280EE66E040EE66EAC
:100FEC009AC1E1FF9BC1E2FFC80EE66E28D0010159
:100FFC00020E806F010E9A25E16E000E9B21E26EAF
:10100C00E66A9AC1E1FF9BC1E2FFC80EE66E010ED3
:10101C007E25E16E000E7F21E26E080EE66E020E5A
:10102C007E25E16E000E7F21E26E280EE66E040E28
:10103C00E66E7EC1E1FF7FC1E2FFC80EE66E1200D4
:10104C0020C401F0600E0116050E006E005004E085
:10105C000132019EFF0FFBD70150000A01E069D05D
:10106C0045D00101A58F080E9F6F63D08BDC61D03A
:10107C0008DD5FD09E0E0101A26F010EA36FA5814A
:10108C00010EA66FA58F55D02DDD53D099DD51D013
:10109C008A0E006E010E016E040124510026D8B098
:1010AC00012A00C0A2F101C0A3F10101A581010E2A
:1010BC00A66FA58F3ED00101A58F8A0EE16E010EA1
:1010CC00E26E04012451E126D8B0E22A22C4E6FFE4
:1010DC0030D0020E0201936F000E946F956B966BDD
:1010EC00976B986B85EC02F024D023D0040121512E
:1010FC00050AB7E02151060AB9E02151090AB8E006
:10110C002151080AB7E02151000ABEE02151010A21
:10111C00BDE02151030ABAE021510A0AB9E021517C
:10112C000B0AC9E02151070AD4E021510C0ADDE079
:04113C00DCD71200EA
:10114000086A096A100E0C6E01340836093604501C
:10115000085E0550D8A0053C095ED8B007D0045001
:1011600008260550D8B0053C0926D890003601362F
:061170000C2EEAD712006C
:10117600010E01017C25E96E000E7D21EA6EEECF9F
:1011860000F000C002F0000EAC5D02E10250AB5D63
:1011960003E2ABC102F00AD00250AB5D006E000E56
:1011A600AC59016E00C0ABF101C0ACF1036A02504C
:1011B600035C1CE2280EE96E040EEA6E0350E92673
:1011C600D8B0EA2AEECF00F0A8C1E1FFA9C1E2FF3C
:1011D60000C0E6FF010EA825006E000EA921016ED3
:1011E60000C0A8F101C0A9F1032AE1D7000E006EE4
:1011F600AC51005C02E1AB51000828E2010E7E25ED
:10120600E16E000E7F21E26E080EE66E020E7E256E
:10121600E16E000E7F21E26E280EE66E040EE66E8B
:101226007CC1E9FF7DC1EAFFEECF00F000BC07D02C
:101236007EC1E1FF7FC1E2FFC80EE66E06D07EC129
:10124600E1FF7FC1E2FF880EE66E19D0010E7E2512
:10125600E16E000E7F21E26E080EE66E020E7E251E
:10126600E16E000E7F21E26E200EE66E040EE66E43
:101276007EC1E1FF7FC1E2FF840EE66EAA9F1200E7
:101286007BC202F07CC203F07EC200F07FC201F096
:10129600010E02017E5F000E7F5B0050011009E027
:1012A60002C0E1FF03C0E2FF7DC2E6FF024A032A55
:0412B600EBD7120060
:1012BA000201806B816B7BC282F2000E7BBFFF0E44
:1012CA00836F800E7B19006E800E000A005C0AE2B2
:1012DA00804B812B7B510008826F836B000E7BBF92
:1012EA00FF0E835B82C289F27CC28AF27DC28BF2D4
:1012FA00E9EC03F0040E7E6F000E7F6F000E006EA5
:10130A007F51005C02E17E51000819E27E517C2582
:10131A00E16E7F517D21E26E010E7E5D006E000E50
:10132A007F59016E00507C25E96E01507D21EA6EDD
:10133A00EECFE6FF010E7E5F000E7F5BDFD77CC239
:10134A00E1FF7DC2E2FF200EE66E805181111AE0B4
:10135A007E6B7F6B7E517C25E96E7F517D21EA6E23
:10136A00EE50200A03E17E4B7F2BF4D7010E7E5FFD
:10137A00000E7F5B7E517C25E16E7F517D21E26EFE
:06138A002D0EE66E1200BC
:101390007BC2E9FF7CC2EAFFEECF7DF2000E0201C4
:1013A0007E6F000E7E6F000E7E1902E1200E7D1909
:1013B00007E0000E7E1902E1090E7D1901E003D05D
:1013C0007B4B7C2BE5D77F6B806B816B826B000E38
:1013D0007E1902E12D0E7D1905E1814B822B7B4B9D
:1013E0007C2B08D0000E7E1902E12B0E7D1902E144
:1013F0007B4B7C2B7BC2E9FF7CC2EAFFEECF7DF208
:10140000000E7E6F000E7E6F7DC289F2DDEC03F070
:10141000005219E07FC200F080C201F00A0E046E93
:10142000000E056E25EC03F0300E7D5D026E000EA1
:101430007E59036E025000247F6F03500120806F9D
:101440007B4B7C2BD7D78151821108E07F5100085C
:10145000006E80C201F0000E015604D07FC200F081
:0614600080C201F0120041
:101466007D0E0201896F020E8A6F7BC28BF27CC2EF
:101476008CF2B6EC03F07FC27DF280C27EF27F6B07
:101486007D51200A02E1300E7D6F7BC289F27CC25B
:101496008AF27D0E8B6F020E8C6FB6EC03F0120093
:1014A6007CC200F00032009E0032009E0032009E98
:1014B6000032009E040E0024F66E3D0EF76E000EFE
:1014C600F722000EF86E000EF8220900F5CF00F0A4
:1014D6007DC2E1FF7EC2E2FF00C0E6FF010E02010F
:1014E6007D25E16E000E7E21E26E0F0E7C15006EEC
:1014F600040E0024F66E3D0EF76E000EF722000E67
:10150600F86E000EF8220900F5CF00F000C0E6FFE5
:10151600020E7D25E16E000E7E21E26E7BC200F09A
:101526000032009E0032009E0032009E0032009E75
:10153600040E0024F66E3D0EF76E000EF722000E26
:10154600F86E000EF8220900F5CF00F000C0E6FFA5
:10155600030E7D25E16E000E7E21E26E0F0E7B15D9
:10156600006E040E0024F66E3D0EF76E000EF72296
:10157600000EF86E000EF8220900F5CF00F000C04C
:10158600E6FF040E7D25E16E000E7E21E26EE66A20
:02159600120041
:1015980093EC03F0D00E0201896F82EC03F0020194
:1015A800896B82EC03F067EC03F0D10E0201896FBE
:1015B80082EC03F0010E0201896F6CEC03F07BC230
:1015C800E1FF7CC2E2FF00C0E6FF010E0201896F65
:1015D8006CEC03F07DC2E1FF7EC2E2FF00C0E6FFD3
:1015E800010E0201896F6CEC03F07FC2E1FF80C23B
:1015F800E2FF00C0E6FF010E0201896F6CEC03F008
:1016080081C2E1FF82C2E2FF00C0E6FF010E0201D3
:10161800896F6CEC03F083C2E1FF84C2E2FF00C073
:10162800E6FF010E0201896F6CEC03F085C2E1FF51
:1016380086C2E2FF00C0E6FF0201896B6CEC03F092
:1016480087C2E1FF88C2E2FF00C0E6FFB4EC03F006
:0216580012007E
:10165A0002017C51000A12E07BC200F0000E016E0A
:10166A000036009001369A0E0024E96E010E012020
:10167A00EA6EEECF04F0EECF05F011D07BC200F097
:10168A00000E016E003600900136810E0024E96ECC
:10169A00010E0120EA6EEECF04F0EECF05F0020E45
:1016AA000424E16E000E0520E26E7DC2E6FF7EC2D2
:1016BA00E6FF010E0424E16E000E0520E26E7FC2F1
:1016CA00E6FF04C0E9FF05C0EAFFEECF00F004C060
:1016DA00E1FF05C0E2FF400E0014E66E04C0E9FF18
:1016EA0005C0EAFFEECF00F004C0E1FF05C0E2FF4B
:1016FA00880E0010E66E7C51000A1BE07BC200F0E7
:10170A00000E016E0036009001369A0E0024026E19
:10171A00010E0120036E02C0E9FF03C0EAFF040EB6
:10172A00EE18006E02C0E1FF03C0E2FF00C0E6FF50
:10173A001AD07BC200F0000E016E0036009001360E
:10174A00810E0024026E010E0120036E02C0E9FF21
:10175A0003C0EAFF040EEE18006E02C0E1FF03C0E8
:10176A00E2FF00C0E6FF04C000F005C001F012006D
:0A177A00D08EA28AA08AF28E12001F
:10178400000E02017C1902E1000E7B1902E1016ADC
:1017940009D07BC2E9FF7CC2EAFFEECF00F0016A08
:0A17A40000BE012A01C000F012008F
:1017AE00010E02018F6FE3EC02F00F0E02018F6F3C
:1017BE00E3EC02F0800E02018F6FE3EC02F02AC21E
:0C17CE007BF22BC27CF2CFEC06F0120084
:1017DA00E6EC06F0966B976BA06BA16B6A6A686A77
:1017EA00C8EC06F06D8C6E6A710E02017B6F0F0EEB
:1017FA007C6F7D6B010E7E6F000E7F6F3FDD6D9CEF
:10180A002A6B080E2A5D16E22AC200F0000E016E4B
:10181A00003600900136003600900136000E002492
:10182A00E16E040E0120E26EE66AE66AE66AE66A9C
:10183A002A2BE7D7160E706E68A603D0F70E681625
:10184A00FBD70101A56BAA6BAB6BAC6B6D98080E4D
:0C185A009A6F040E9B6F9E6B9F6B120038
:10186600A69C2AC2A9FFA69EA680A8CF00F01200B9
:10187600200E01019F5D03E36DB201D002D0006A24
:1018860025D096C17BF297C17CF279DF00521DE12B
:10189600010E01019625E96E000E9721EA6EEECF44
:1018A60000F000C02EF22DC27BF202017C6B2AC230
:1018B6007DF22BC27EF22CC27FF2CCDE00C096F106
:0E18C60001C097F12EC200F001D0006A12009E
:1018D4009AC1E9FF9BC1EAFFEECF00F0000E00BC05
:1018E400010E0201926F040E01019A19006E00C0EC
:1018F4009AF19F51080A0AE122C46EFF6E50000853
:1019040003E2100E9F6F02D0040E9F6F8051010AF4
:101914002CE1020E9A25E16E000E9B21E26E280E48
:10192400006E040E016E00C0E6FF01C0E6FF2AEC63
:1019340004F08C51020A07E19AC1E1FF9BC1E2FF66
:10194400840EE66E11D002019251000A07E19AC199
:10195400E1FF9BC1E2FFC80EE66E06D09AC1E1FF2B
:101964009BC1E2FF880EE66E02D043EC07F0120042
:1019740001018051020A03E1BBEC08F01FD043ECE3
:1019840007F08B51000A19E1010E7E25E16E000E6D
:101994007F21E26E080EE66E020E7E25E16E000ED9
:1019A4007F21E26E200EE66E040EE66E7EC1E1FF3C
:0E19B4007FC1E2FF8C0EE66E01D08B6B12003D
:1019C20001019F51000A0BE16D6A696AC8EC06F0D9
:1019D200D3DE6DB602D06D86FCD7010E9F6F12006A
:1019E2009AC1E9FF9BC1EAFFEECF00F000AE05D03D
:1019F2009AC1E1FF9BC1E2FFE66A01018C6B806B39
:101A0200A66BA76BA56B26EC08F0030E0201936F81
:101A1200000E946F956B966B976B986B85EC02F04A
:061A220056EC07F0120073
:101A280002012A51FC0A03E1010E006E01D0006A8E
:021A380012009A
:101A3A0093EC03F0D00E0201896F82EC03F00201ED
:101A4A00896B82EC03F002012A51800F896F82ECC4
:101A5A0003F02BC289F282EC03F02CC289F282ECE9
:101A6A0003F02EC289F282EC03F02DC289F282ECD5
:101A7A0003F02FC289F282EC03F030C289F282ECC1
:101A8A0003F0B4EC03F093EC03F0D00E0201896F7B
:101A9A0082EC03F00201896B82EC03F00201896B8C
:0A1AAA0082EC03F0B4EC03F012002C
:101AB400939093928A908A9293809382C79EC79CB4
:061AC400380EC66E120090
:101ACA0002012C6B2D6B2E6B2F6B306B316B326BD3
:101ADA00336B346B356B366B376B386B396B3A6BF0
:101AEA003B6B3C6B3D6B3E6B3F6B406B416B426BA0
:101AFA00436B446B456B466B476B486B496B4A6B50
:101B0A004B6B4C6B4D6B4E6B4F0E7B6F020E7C6FAB
:101B1A00500E7D6F020E7E6F510E7F6F020E806F28
:101B2A00520E816F020E826F530E836F020E846F04
:101B3A00540E856F020E866F550E876F020E886FE0
:101B4A0026DD4FC27BF2000E02017C6F2C0E7D6FE8
:101B5A00020E7E6FA3DC50C27BF2000E7C6F310E48
:101B6A007D6F020E7E6F9ADC51C27BF2000E7C6F93
:101B7A00360E7D6F020E7E6F91DC53C27BF2000E31
:101B8A007C6F3B0E7D6F020E7E6F88DC54C27BF247
:101B9A00000E7C6F400E7D6F020E7E6F7FDC55C299
:101BAA007BF2000E7C6F450E7D6F020E7E6F76DC37
:101BBA0052C27BF2000E7C6F4A0E7D6F020E7E6F60
:101BCA006DDC2C0E7B6F020E7C6F48DC310E7B6F56
:101BDA00020E7C6F43DC360E7B6F020E7C6F3EDC9E
:101BEA003B0E7B6F020E7C6F39DC400E7B6F020E60
:101BFA007C6F34DC450E7B6F020E7C6F2FDC4A0E45
:101C0A007B6F020E7C6F2ADC2C0E7B6F020E7C6FC0
:101C1A00C8EC09F000C04FF2310E7B6F020E7C6FE8
:101C2A00C8EC09F000C050F2360E7B6F020E7C6FD2
:101C3A00C8EC09F000C051F23B0E7B6F020E7C6FBC
:101C4A00C8EC09F000C053F2400E7B6F020E7C6FA5
:101C5A00C8EC09F000C054F2450E7B6F020E7C6F8F
:101C6A00C8EC09F000C055F24A0E7B6F020E7C6F79
:101C7A00C8EC09F000C052F22AC2E1FF2BC2E2FF0F
:101C8A004FC2E6FF010E2A25E16E000E2B21E26EFD
:101C9A0050C2E6FF020E2A25E16E000E2B21E26EEB
:101CAA0051C2E6FF030E2A25E16E000E2B21E26ED9
:101CBA0053C2E6FF050E2A25E16E000E2B21E26EC5
:101CCA0054C2E6FF060E2A25E16E000E2B21E26EB3
:101CDA0055C2E6FF000EE66E040E2A25E16E000EDE
:0A1CEA002B21E26E52C2E6FF120049
:101CF400200E01019F5D03E36DB201D002D0006AA2
:101D040036D0A0C17BF2A1C17CF23ADD00522EE1B3
:101D14002DC27BF2010E7C6F2AC27DF22BC27EF2B1
:101D24002CC27FF298DC00C0A0F101C0A1F1010136
:101D34008E6B8F6B906B916BA0C17BF2A1C17CF217
:101D44001FDD005209E001018E518F119011911194
:101D540002E0006A0CD0F0D70101010EA025E96E63
:101D6400000EA121EA6EEECF00F001D0006A12004D
:101D740002012E6B050E2E5D0AE22E512C25E16E1A
:101D8400000E2D21E26E200EE66E2E2BF3D72E517F
:101D94002C25E16E000E2D21E26EE66A2E072E51EF
:101DA4002C252F6F000E2D21306F0A0E046E000EAD
:101DB400056E2AC200F02BC201F0A0EC08F008C0A6
:101DC40000F009C001F0300E00262FC2E1FF30C23E
:101DD400E2FF00C0E6FF0A0E046E000E056E2AC282
:101DE40000F02BC201F0A0EC08F000C02AF201C000
:101DF4002BF2000E011802E1000E001801E102D0DE
:061E04002E07CDD71200ED
:101E0A00180EF66E3C0EF76E000EF86E380EE16E86
:101E1A00020EE26E430E006E010E016EC0EC06F079
:101E2A002AC2E9FF2BC2EAFFEECF7BF2380E02018B
:101E3A007C6F020E7D6F5DEC09F02CC2E9FF2DC2AA
:101E4A00EAFFEECF7BF23D0E7C6F020E7D6F5DECFA
:101E5A0009F02EC2E9FF2FC2EAFFEECF7BF2420E53
:101E6A007C6F020E7D6F5DEC09F030C2E9FF31C272
:101E7A00EAFFEECF7BF2470E7C6F020E7D6F5DECC0
:101E8A0009F032C2E9FF33C2EAFFEECF7BF24C0E11
:101E9A007C6F020E7D6F5DEC09F034C2E9FF35C23A
:101EAA00EAFFEECF7BF2510E7C6F020E7D6F5DEC86
:101EBA0009F036C2E9FF37C2EAFFEECF7BF2560ECF
:101ECA007C6F020E7D6F5DEC09F0380E7B6F020E9F
:101EDA007C6F33EC0AF03D0E7B6F020E7C6F33ECA5
:101EEA000AF0420E7B6F020E7C6F33EC0AF0470E4B
:101EFA007B6F020E7C6F33EC0AF04C0E7B6F020E86
:101F0A007C6F33EC0AF0510E7B6F020E7C6F33EC60
:101F1A000AF0560E7B6F020E7C6F33EC0AF05B0EF2
:101F2A007B6F020E7C6F6D0E7D6F010E7E6F90ECE3
:101F3A0006F05B0E7B6F020E7C6F510E7D6F020EF8
:101F4A007E6F90EC06F05B0E7B6F020E7C6F630E69
:101F5A007D6F010E7E6F90EC06F05B0E7B6F020EBA
:101F6A007C6F4C0E7D6F020E7E6F90EC06F05B0E5E
:101F7A007B6F020E7C6F610E7D6F010E7E6F90EC9F
:101F8A0006F05B0E7B6F020E7C6F560E7D6F020EA3
:101F9A007E6F90EC06F05B0E7B6F020E7C6F6B0E11
:101FAA007D6F010E7E6F90EC06F05B0E7B6F020E6A
:101FBA007C6F470E7D6F020E7E6F90EC06F06B0E03
:101FCA007B6F020E7C6F650E7D6F010E7E6F90EC4B
:101FDA0006F06B0E7B6F020E7C6F420E7D6F020E57
:101FEA007E6F90EC06F06B0E7B6F020E7C6F5F0EBD
:101FFA007D6F010E7E6F90EC06F06B0E7B6F020E0A
:10200A007C6F3D0E7D6F020E7E6F90EC06F06B0EBC
:10201A007B6F020E7C6F5D0E7D6F010E7E6F90EC02
:10202A0006F06B0E7B6F020E7C6F380E7D6F020E10
:10203A007E6F90EC06F0010E8F6FE3EC02F0010E5A
:10204A0002017B6F010E7C6F5B0E7D6F020E7E6F4D
:10205A0000EC07F0020E02017B6F010E7C6F6B0E23
:0C206A007D6F020E7E6F00EC07F012008C
:0A2076006D6A696A01019F6B120098
:04208000FADF120071
:10208400010E0101996FF8C192F1F9C193F1FAC1FE
:1020940094F1FBC195F1EDEC0BF0010E016E0150D2
:0820A400010A01E18CDC1200CD
:1020AC00780EC86E01DD93EC03F0F8C189F282EC76
:1020BC0003F0F9C189F282EC03F0FAC189F282ECE7
:1020CC0003F0B4EC03F0020E0B6E380E0C6EAD0E7A
:1020DC000D6E0D2EFED70C2EFCD70B2EFAD7120040
:1020EC0000C57BF21A0E02017C6F020E7D6F5DEC57
:1020FC0009F001C57BF2FA0E7C6F010E7D6F5DEC71
:10210C0009F002C57BF20A0E7C6F020E7D6F5DEC4E
:10211C0009F0F8C189F2F9C18AF2F70E8B6F000E43
:10212C008C6FB6EC03F0F8C17BF2F9C17CF21A0E9D
:10213C007D6F020E7E6F90EC06F0F8C17BF2F9C158
:10214C007CF2FA0E7D6F010E7E6F90EC06F0F8C1FA
:10215C007BF2F9C17CF20A0E7D6F020E7E6F90EC61
:04216C0006F0120067
:102170000F0EC16E070EB46E800EF16E896A8B6A07
:102180008C6A8D6A030E926E946A956A966A806A6A
:0C219000826A836A846A030E896E120062
:10219C0080A006D080B204D0320E01017B6F07D034
:1021AC0080B005D080A203D00101330E7B6F7BC1C0
:0421BC0000F012001D
:1021C000F8C1E9FFF9C1EAFFEECF01F00150010AC1
:1021D000D8A4B1D2040E0101F825E96E000EF92150
:1021E000EA6EEE50FE0A24E1010EFA25E96E000EB9
:1021F000FB21EA6E050EF825D96E000EF921DA6E84
:10220000EE50DE5C15E2010EFA25016E000EFB2198
:10221000026E030EF825D96E000EF921DA6E01C0A8
:10222000E9FF02C0EAFFDE50EE5C02E2006A84D2FF
:10223000030EF825E96E000EF921EA6E010EFA256B
:10224000D96E000EFB21DA6EEE50DE180BE0030EA5
:10225000F825E96E000EF921EA6EEE50FF0A02E061
:10226000006A6AD2070EF825E96E000EF921EA6EBF
:10227000EE50FE0A24E1020EFA25E96E000EFB2163
:10228000EA6E080EF825D96E000EF921DA6EEE50CE
:10229000DE5C15E2020EFA25016E000EFB21026ED5
:1022A000060EF825D96E000EF921DA6E01C0E9FF9D
:1022B00002C0EAFFDE50EE5C02E2006A3DD2060E8A
:1022C000F825E96E000EF921EA6E020EFA25D96EA4
:1022D000000EFB21DA6EEE50DE180BE0060EF8253C
:1022E000E96E000EF921EA6EEE50FF0A02E0006A84
:1022F00023D20A0EF825E96E000EF921EA6EEE509F
:10230000FE0A24E1030EFA25E96E000EFB21EA6EB7
:102310000B0EF825D96E000EF921DA6EEE50DE5C58
:1023200015E2030EFA25016E000EFB21026E090E66
:10233000F825D96E000EF921DA6E01C0E9FF02C05E
:10234000EAFFDE50EE5C02E2006AF6D1090EF825E3
:10235000E96E000EF921EA6E030EFA25D96E000E21
:10236000FB21DA6EEE50DE180BE0090EF825E96E5F
:10237000000EF921EA6EEE50FF0A02E0006ADCD19D
:102380000D0EF825E96E000EF921EA6EEE50FE0AF8
:1023900024E1040EFA25E96E000EFB21EA6E0E0E12
:1023A000F825D96E000EF921DA6EEE50DE5C15E2EA
:1023B000040EFA25016E000EFB21026E0C0EF825AC
:1023C000D96E000EF921DA6E01C0E9FF02C0EAFF02
:1023D000DE50EE5C02E2006AAFD10C0EF825E96E29
:1023E000000EF921EA6E040EFA25D96E000EFB21CB
:1023F000DA6EEE50DE180BE00C0EF825E96E000EDA
:10240000F921EA6EEE50FF0A02E0006A95D1100E43
:10241000F825E96E000EF921EA6EEE50FE0A24E17D
:10242000050EFA25E96E000EFB21EA6E110EF82565
:10243000D96E000EF921DA6EEE50DE5C15E2050E63
:10244000FA25016E000EFB21026E0F0EF825D96EE3
:10245000000EF921DA6E01C0E9FF02C0EAFFDE508A
:10246000EE5C02E2006A68D10F0EF825E96E000EFC
:10247000F921EA6E050EFA25D96E000EFB21DA6EFF
:10248000EE50DE180BE00F0EF825E96E000EF92174
:10249000EA6EEE50FF0A02E0006A4ED1130EF825F4
:1024A000E96E000EF921EA6EEE50FE0A38E1060EE2
:1024B000FA25E96E000EFB21EA6EEECF02F0EECFB8
:1024C00003F0140EF825D96E000EF921DA6EDECF76
:1024D00001F0000E006E0350005C02E10250015C4E
:1024E0001EE2060EFA25006E000EFB21016E120E92
:1024F000F825D96E000EF921DA6EDECF04F000C0A7
:10250000E9FF01C0EAFFEECF02F0EECF03F0000ECC
:10251000035C02E10450025C02E2006A0DD1120E7B
:10252000F825E96E000EF921EA6EEECF03F0060EF3
:10253000FA25D96E000EFB21DA6EDECF01F0DECF78
:1025400002F0000E021802E1015003180BE0120E17
:10255000F825E96E000EF921EA6EEE50FF0A02E05E
:10256000006AEAD0010EF825FC6F000EF921FD6F1C
:102570009BD00101020EF825E96E000EF921EA6EEA
:10258000EECF2AF214EC0DF0005203E0FF0E8C6E39
:1025900001D08C6ACDD0020E0101F825E96E000E43
:1025A000F921EA6EEECF2AF214EC0DF000B002D061
:1025B0008C9001D08C80BCD0020E0101F825E96E10
:1025C000000EF921EA6EEECF2AF214EC0DF000B005
:1025D00002D08C9201D08C82ABD0020E0101F82582
:1025E000E96E000EF921EA6EEECF2AF214EC0DF03E
:1025F00000B002D08C9401D08C849AD0020E0101DC
:10260000F825E96E000EF921EA6EEECF2AF214ECFD
:102610000DF000B002D08C9601D08C8689D0020ECD
:102620000101F825E96E000EF921EA6EEECF2AF2DB
:1026300014EC0DF000B002D08C9801D08C8878D0CA
:10264000020E0101F825E96E000EF921EA6EEECFC7
:102650002AF214EC0DF000B002D08C9A01D08C8AD2
:1026600067D0020E0101F825E96E000EF921EA6E2D
:10267000EECF2AF214EC0DF000B002D08C9C01D009
:102680008C8C56D0020E0101F825E96E000EF9215E
:10269000EA6EEECF2AF214EC0DF000B002D08C9E60
:1026A00001D08C8E45D044D0FCC1E9FFFDC1EAFFCA
:1026B000EE50FF0AD8B45DD7FCC1E9FFFDC1EAFFC7
:1026C000EE50000AD8B467D7FCC1E9FFFDC1EAFFAC
:1026D000EE50010AD8B470D7FCC1E9FFFDC1EAFF92
:1026E000EE50020AD8B479D7FCC1E9FFFDC1EAFF78
:1026F000EE50030A83E0FCC1E9FFFDC1EAFFEE50A2
:10270000040A8DE0FCC1E9FFFDC1EAFFEE50050AB5
:1027100097E0FCC1E9FFFDC1EAFFEE50060AA1E027
:10272000FCC1E9FFFDC1EAFFEE50070AABE0BBD7F1
:0A273000010E006E01D0006A1200D5
:10273A00F8C12AF2F9C12BF2D7EC0BF0C00E8F6F59
:10274A00E3EC02F0FAC17BF2FBC17CF2CFEC06F0BB
:02275A0012006B
:10275C0002012A6B33EC0CF000C0FEF1000E0101FB
:10276C00FF6FF8C189F2F9C18AF24B0E02018B6F2F
:10277C00010E8C6FB6EC03F0FEC12AF2FFC12BF2F6
:10278C00FA0E2C6F010E2D6FBAEC0EF0F8C17BF225
:10279C00F9C17CF2FA0E7D6F010E7E6F90EC06F0A3
:0227AC00120019
:1027AE00F8C12AF2F9C12BF2010E0101F82502013E
:1027BE002C6F000E0101F92102012D6F020E010195
:1027CE00F82502012E6F000E0101F92102012F6F73
:1027DE00040E0101F8250201306F000E0101F921EE
:1027EE000201316F030E0101F8250201326F000E56
:1027FE000101F9210201336F050E0101F8250201D5
:10280E00346F000E0101F9210201356F060E010130
:10281E00F8250201366F000E0101F9210201376F12
:06282E0005EC0FF01200A2
:10283400939493969398939A939C939E8194819660
:10284400819E819C819A819848EC02F048EC02F0C8
:1028540048EC02F0818A8188818441EC02F0819401
:1028640048EC02F0818441EC02F0819448EC02F0DF
:10287400818441EC02F0819448EC02F081988184D7
:1028840041EC02F0819448EC02F0818441EC02F0C6
:102894008194819A818E818441EC02F0819448EC88
:1028A40002F0819E8188818441EC02F081948198B8
:1028B400818441EC02F0819448EC02F0818441EC83
:1028C40002F081948188818441EC02F0819448EC87
:1028D40002F08198818441EC02F08194818E818C94
:1028E400818A8188818441EC02F0819448EC02F071
:0628F400010198811200B1
:1028FA00F8C1E9FFF9C1EAFFFAC1E1FFFBC1E2FF52
:10290A00EECFE6FF010E0101FA25E16E000EFB2172
:10291A00E26E010EF825E96E000EF921EA6EEECF9D
:10292A00E6FF020EFA25E16E000EFB21E26E020EB0
:10293A00F825E96E000EF921EA6EEECFE6FF030EE6
:10294A00FA25E16E000EFB21E26E030EF825E96E10
:10295A00000EF921EA6EEECFE6FF040EFA25E16ECB
:10296A00000EFB21E26E040EF825E96E000EF92135
:10297A00EA6EEECFE6FF050EFA25E16E000EFB21A8
:10298A00E26E050EF825E96E000EF921EA6EEECF29
:10299A00E6FF060EFA25E16E000EFB21E26E060E38
:1029AA00F825E96E000EF921EA6EEECFE6FF070E72
:1029BA00FA25E16E000EFB21E26E070EF825E96E9C
:1029CA00000EF921EA6EEECFE6FF080EFA25E16E57
:1029DA00000EFB21E26E080EF825E96E000EF921C1
:1029EA00EA6EEECFE6FF090EFA25E16E000EFB2134
:1029FA00E26E090EF825E96E000EF921EA6EEECFB5
:102A0A00E6FF0A0EFA25E16E000EFB21E26E0A0EBF
:102A1A00F825E96E000EF921EA6EEECFE6FF0B0EFD
:102A2A00FA25E16E000EFB21E26E0B0EF825E96E27
:102A3A00000EF921EA6EEECFE6FF0C0EFA25E16EE2
:102A4A00000EFB21E26E0C0EF825E96E000EF9214C
:102A5A00EA6EEECFE6FF0D0EFA25E16E000EFB21BF
:102A6A00E26E0D0EF825E96E000EF921EA6EEECF40
:102A7A00E6FF0E0EFA25E16E000EFB21E26E0E0E47
:102A8A00F825E96E000EF921EA6EEECFE6FF0F0E89
:102A9A00FA25E16E000EFB21E26E0F0EF825E96EB3
:102AAA00000EF921EA6EEECFE6FF100EFA25E16E6E
:102ABA00000EFB21E26E100EF825E96E000EF921D8
:102ACA00EA6EEECFE6FF110EFA25E16E000EFB214B
:102ADA00E26E110EF825E96E000EF921EA6EEECFCC
:102AEA00E6FF120EFA25E16E000EFB21E26E120ECF
:102AFA00F825E96E000EF921EA6EEECFE6FF130E15
:102B0A00FA25E16E000EFB21E26E130EF825E96E3E
:102B1A00000EF921EA6EEECFE6FF140EFA25E16EF9
:102B2A00000EFB21E26E140EF825E96E000EF92163
:082B3A00EA6EEECFE6FF120087
:102B42000101F86BF96BF86BF96B800EF919006EE5
:102B5200800E005C02E1400EF85D0AE2400EF825AC
:102B6200E16E050EF921E26EE66AF84BF92BEDD71C
:022B720012004F
:102B7400740E0201936F000E946F956B966B976BB6
:102B8400986B85EC02F06D92699468A403D0FB0EF7
:062B94006816FBD71200D9
:102B9A00E6EC06F0966B976BA06BA16B6A6A686AA3
:102BAA00C8EC06F06D8C6E6A710E0201936F0F0EFF
:102BBA00946F956B010E966F000E976F4DEC03F0B4
:102BCA006D9C916B080E915D16E291C200F0000EA9
:102BDA00016E003600900136003600900136000E74
:102BEA000024E16E040E0120E26EE66AE66AE66AF5
:102BFA00E66A912BE7D7160E706E68A603D0F70E19
:102C0A006816FBD70101A56BAA6BAB6BAC6B6D9811
:0E2C1A00080E9A6F040E9B6F9E6B9F6B12004C
:042C2800A19A12005B
:102C2C00A6A202D00000FCD7A69CF8C1A9FFF9C14E
:102C3C00A8FFA69EA684F2CF00F0F29E550EA76EBA
:102C4C00AA0EA76EA68200BE02D0F29E01D0F28E12
:042C5C00A694120028
:102C600007C52AF201C52BF202C52CF203C52DF2CD
:102C700004C52EF205C52FF206C530F21DEC0DF08D
:102C8000F80E02012A6F010E2B6F65EC0DF00501A5
:102C9000406B416BF8C142F5F9C143F5FAC144F507
:102CA000FBC145F5FCC146F5FDC147F5FEC148F540
:022CB000120010
:102CB2006984EF0E68166D82750E0201936F000E25
:102CC200946F956B966B976B986B85EC02F0120084
:102CD200780EC86E5AEC0DF093EC03F0F8C189F24D
:102CE20082EC03F0FAC189F282EC03F067EC03F0A4
:102CF200F9C189F282EC03F00201896B6CEC03F0FA
:102D020000C0FBF1B4EC03F0FBC100F006D00D2EC5
:0C2D1200FED70C2EFCD70B2EFAD71200B7
:102D1E0092C12AF293C12BF2400E02012C6F010ECA
:082D2E002D6F3BEC0CF01200CC
:102D3600F8C12AF2F9C12BF2FAC12CF2010E0201F6
:082D46002D6F7AEC0EF0120073
:102D4E0070A019D07CC1E9FF7DC1EAFFEECF01F082
:102D5E000150800A0FE19AC1E9FF9BC1EAFFEECF55
:102D6E0001F00150840A06E17CC1E1FF7DC1E2FF62
:0C2D7E008C0EE66E7090DF0E68161200DE
:102D8A00FD0E01018915016E026AFF0E0216000E80
:102D9A00021802E1000E01186EE17E0E8915016E1D
:102DAA0001C003F00332039E03C000F0000E016E5F
:102DBA00003600900136003600900136000E0024DD
:102DCA00026E040E0120036E02C07CF103C07DF185
:102DDA0002C07EF103C07FF1040E7E19006E00C0AE
:102DEA007EF102C0E9FF03C0EAFFEECF00F000C0A7
:102DFA0001F03C0E01160132019E0132019E015082
:102E0A000D0A36E1020E7C25E96E000E7D21EA6E7E
:102E1A00EECF01F0EECF02F00250040A02E1280ED2
:102E2A00011823E1020E7C25E16E000E7D21E26E7F
:102E3A00200EE66E040EE66E0201916B080E915D9D
:102E4A0014E2200EE16E040EE26E9151E126D8B032
:102E5A00E22A280EE96E040EEA6E9151E926D8B0EC
:102E6A00EA2AEECFE6FF912BE9D7F1EC0CF002D07B
:102E7A00BAEC0CF00ED0FD0E8915016E026AFF0E37
:102E8A000216000E021802E1040E011802E16AECB1
:042E9A000CF0120026
:102E9E000101CE6BCF6BD06BD16BD26BD36BD46B7E
:102EAE00B8EC10F0780EC86E5AEC0DF043DE000E42
:102EBE00F86F050EF96F400EFA6F050EFB6F42ECC0
:102ECE0010F0CEEC10F0000E00BEFF0E016E000EE4
:102EDE00011802E1320E0018D8A46DD3570E02016C
:102EEE002A6F000E2B6FD7EC0BF012DF00520DE1A4
:102EFE00CEEC10F0000E00BEFF0E016E000E01189B
:102F0E0002E1320E001801E1F0D700C501F0000E0B
:102F1E00026E000E021802E1000E011846E10101D8
:102F2E00F86BF96B7CDE600E02012A6F000E2B6FC0
:102F3E00D7EC0BF01F0E0B6E710E0C6E1E0E0D6E7F
:102F4E000D2EFED70C2EFCD70B2EFAD7000081DEED
:102F5E00400E0101F86F050EF96F400EFA6FE4DEB8
:102F6E0000520DE1CEEC10F0000E00BEFF0E016E11
:102F7E00000E011802E1320E001801E1E9D7290E08
:102F8E0002012A6F000E2B6FD7EC0BF03D0E0B6E6D
:102F9E00E10E0C6E3F0E0D6E0D2EFED70C2EFCD7D5
:102FAE000B2EFAD70000000005D300C501F0000E6D
:102FBE00026E000E021802E10C0E0118D8A4A9D060
:102FCE00B9DD01C543F54CD00501025305E0FF0EF6
:102FDE008C6EFF0E426F02D08C6A426B5ED002B1D5
:102FEE0002D08C9001D08C8002C542F556D002B131
:102FFE0002D08C9201D08C8202C542F54ED002B125
:10300E0002D08C9401D08C8402C542F546D002B118
:10301E0002D08C9601D08C8602C542F53ED002B10C
:10302E0002D08C9801D08C8802C542F536D002B100
:10303E0002D08C9A01D08C8A02C542F52ED002B1F4
:10304E0002D08C9C01D08C8C02C542F526D002B1E8
:10305E0002D08C9E01D08C8E02C542F51ED01DD0A2
:10306E0005010151FF0AB0E00151000AB8E001511B
:10307E00010ABDE00151020AC2E00151030AC7E094
:10308E000151040ACCE00151050AD1E00151060AB2
:10309E00D6E00151070ADBE0E2D70501406B0D0EC9
:1030AE00416F000E83B0010E446F000E83B2010E0D
:1030BE00456F000E83B4010E466F000E83B6010EEF
:1030CE00476F000E83B8010E486F000E83BA010ED3
:1030DE00496F000E83BC010E4A6F000E83BE010EB7
:1030EE004B6F400E0101F86F050EF96F400EFA6F2F
:1030FE001BDE00520DE1CEEC10F0000E00BEFF0EF6
:10310E00016E000E011802E1320E001801E1E9D73E
:10311E0051D200C501F0000E026E000E021802E13F
:10312E00010E0118D8A4E2D00101CF6B080ECF5DBD
:10313E00D8B08ED0D351010A02E1D36B89D0D06BB7
:10314E00D26B0C0ED25DD8B080D0F4DC0501406B92
:10315E00020E416FCFC142F50101D16B150ED15D4B
:10316E002DE2030ED125006E016A000E0122400EE3
:10317E000024D56F050E0120D66F730EE96E010E79
:10318E00EA6ECF51E926D8B0EA2AEECFF8F1550E05
:10319E00E96E010EEA6ECF51E926D8B0EA2AEECFDB
:1031AE00F9F1D0C1FAF18EDDD5C1E1FFD6C1E2FF52
:1031BE0000C0E6FF0101D02BD12BD0D70101400E6C
:1031CE00F86F050EF96F400EFA6FAEDD00520DE18D
:1031DE00CEEC10F0000E00BEFF0E016E000E0118B8
:1031EE0002E1320E001801E1E9D792DD00520DE145
:1031FE00CEEC10F0000E00BEFF0E016E000E011898
:10320E0002E1320E001801E1F0D705010051020A69
:10321E0019E0010E0101D36F330E02012A6F000E69
:10322E002B6FD7EC0BF03D0E0B6EE10E0C6E3F0EBE
:10323E000D6E0D2EFED70C2EFCD70B2EFAD70000DE
:10324E00000003D00101D22B7CD70101CF2B6ED70A
:10325E0071DC0501406B030E416F400E0101F86FEA
:10326E00050EF96F400EFA6F5FDD00520DE1CEECE8
:10327E0010F0000E00BEFF0E016E000E011802E1EE
:10328E00320E001801E1E9D70101D351000A16E10F
:10329E003E0E02012A6F000E2B6FD7EC0BF03D0E87
:1032AE000B6EE10E0C6E3F0E0D6E0D2EFED70C2E1C
:1032BE00FCD70B2EFAD70000000017D00201940E97
:1032CE002A6F000E2B6FD7EC0BF03D0E0B6EE10E3E
:1032DE000C6E3F0E0D6E0D2EFED70C2EFCD70B2E48
:1032EE00FAD7000000000101D36B64D100C501F0D4
:1032FE00000E026E000E021802E1070E0118D8A48D
:10330E0039D10101CE6BF86B05010151010F01019D
:10331E00F96F85DC0101CF6B080ECF5DD8B0BED042
:10332E00D451010A02E1D46BB9D0CE51010A01E1A8
:10333E00B5D0D06BD26B0C0ED25DD8B0ACD0A1ECA8
:10334E0015F00501406B060E416FCFC142F501012C
:10335E00D16B150ED15D4AE2730EE96E010EEA6E67
:10336E00CF51E926D8B0EA2AEECFF8F1D0C1F9F163
:10337E00020ED125006E016A000E0122000E0024FD
:10338E00E96E050E0120EA6EEECFFAF156EC10F062
:10339E00030E0101D125006E016A000E0122400EBE
:1033AE000024D56F050E0120D66F730EE96E010E47
:1033BE00EA6ECF51E926D8B0EA2AEECFF8F1550ED3
:1033CE00E96E010EEA6ECF51E926D8B0EA2AEECFA9
:1033DE00F9F1D0C1FAF176DCD5C1E1FFD6C1E2FF39
:1033EE0000C0E6FF0101D02BD12BB3D70101400E57
:1033FE00F86F050EF96F400EFA6F96DC00520DE174
:10340E00CEEC10F0000E00BEFF0E016E000E011885
:10341E0002E1320E001801E1E9D77ADC00520DE12B
:10342E00CEEC10F0000E00BEFF0E016E000E011865
:10343E0002E1320E001801E1F0D705010051040A35
:10344E0019E0010E0101D46F9F0E02012A6F000ECA
:10345E002B6FD7EC0BF03D0E0B6EE10E0C6E3F0E8C
:10346E000D6E0D2EFED70C2EFCD70B2EFAD70000AC
:10347E00000011D002C501F0000E026E000E0218FF
:10348E0002E1000E011804E1010E0101CE6F03D01E
:10349E000101D22B50D70101CF2B3ED7A1EC15F055
:1034AE000501406B050E416FD4C142F5400E01017E
:1034BE00F86F050EF96F400EFA6F36DC00520DE113
:1034CE00CEEC10F0000E00BEFF0E016E000E0118C5
:1034DE0002E1320E001801E1E9D70101D451000AD0
:1034EE0016E1AB0E02012A6F000E2B6FD7EC0BF01C
:1034FE003D0E0B6EE10E0C6E3F0E0D6E0D2EFED7B9
:10350E000C2EFCD70B2EFAD70000000017D00201AC
:10351E006D0E2A6F000E2B6FD7EC0BF03D0E0B6E5F
:10352E00E10E0C6E3F0E0D6E0D2EFED70C2EFCD73F
:10353E000B2EFAD7000000000101D46B0101CE5111
:10354E00010A17E1790E02012A6F000E2B6FD7ECDC
:10355E000BF03D0E0B6EE10E0C6E3F0E0D6E0D2E32
:10356E00FED70C2EFCD70B2EFAD70000000001015F
:10357E00D46B20D00101BE0EF86F010EF96F76EC00
:10358E0010F0870E0101F86F000EF96FBE0EFA6F84
:10359E00010EFB6F9DEC13F03D0E0B6EE10E0C6EEB
:1035AE003F0E0D6E0D2EFED70C2EFCD70B2EFAD71E
:1035BE000000000086D440EC10F03B0E02012A6F92
:1035CE00010E2B6FD7EC0BF03D0E0B6EE10E0C6E59
:1035DE003F0E0D6E0D2EFED70C2EFCD70B2EFAD7EE
:0635EE00000000001200C5
:1035F400B8EC10F01AEC14F0010E02018F6FE3EC3A
:1036040002F00C0E02018F6FE3EC02F0BE0EF86FB5
:10361400010EF96FAEEC13F0220E0101F86F010EEA
:10362400F96FBE0EFA6F010EFB6F9DEC13F03D0EA9
:103634000B6EE10E0C6E3F0E0D6E0D2EFED70C2E92
:10364400FCD70B2EFAD700000000320E0101F86FF0
:10365400010EF96FF80EFA6F000EFB6F9DEC13F07C
:103664003D0E0B6EE10E0C6E3F0E0D6E0D2EFED751
:103674000C2EFCD70B2EFAD700000000050E01011A
:10368400F86F010EF96F0C0EFA6F010EFB6F9DECD3
:1036940013F03D0E0B6EE10E0C6E3F0E0D6E0D2EF3
:1036A400FED70C2EFCD70B2EFAD700000000BB0E61
:1036B4000101F86F000EF96F4B0EFA6F000EFB6FED
:1036C4009DEC13F03D0E0B6EE10E0C6E3F0E0D6E75
:1036D4000D2EFED70C2EFCD70B2EFAD700000000BF
:0236E4001200D2
:1036E60001019F51010A07E16DBA05D0686A698038
:1036F6006988020E9F6F68A406D069A404D0FB0EE9
:103706006816BAEC15F06DA203D014EC16F080D052
:1037160068A019D069A017D0CDEC15F0040E9F6FE4
:10372600200E0401026F040E036F080E016F000ED7
:103736000015006E00C000F48C0E0011006E00C073
:1037460000F4FE0E681668A806D069A804D059ECE5
:1037560016F0EF0E681668AC11D069AC0FD0730E78
:103766000201936F000E946F956B966B010E976F27
:10377600000E986F85EC02F0BF0E681668AA04D09A
:1037860069AA02D0A7EC16F068A210D069A20ED0E2
:10379600FF0E0201936F3F0E946F956B966B010EB1
:1037A600976F000E986F85EC02F06A6A040E0101AD
:1037B6009F5D03E214EC16F02BD069A627D0020118
:1037C600906B040E905D22E268A61CD06CCF89F146
:1037D600F70E6816780E01018915016E0150000A70
:1037E60003E1C5EC16F00DD0720E0201936F000EC8
:1037F600946F890E956F010E966F976B986B85EC9B
:1038060002F001D003D00201902BDBD714EC16F0A6
:0238160012009E
:103818000101F46BF56BB8EC10F0780EC86E5AEC39
:103828000DF0CEEC10F0000E00BEFF0E016E000E83
:10383800011802E1330E0018D8A4A1D002012A6BA6
:1038480033EC0CF000C0BDF1020E0B6E380E0C6E9E
:10385800AD0E0D6E0D2EFED70C2EFCD70B2EFAD703
:103868000101BD515F081DE2BE0E02012A6F010E63
:103878002B6F65EC0DF0BE0E0101F86F010EF96FAC
:10388800D7EC13F0100E0B6E390E0C6E0D0E0D6E7C
:103898000D2EFED70C2EFCD70B2EFAD700000000F9
:1038A800DFD7DB6B080EDB5D68E2BD51F45D01E339
:1038B80064D0DE6BDC6B0C0EDC5D5DE2BD51F45D4B
:1038C80001E359D0DD6B150EDD5D2AE2DF0EF66FE0
:1038D800010EF76FDD51F627D8B0F72B730EE96E9E
:1038E800010EEA6EDB51E926D8B0EA2AEECFF8F1EC
:1038F800550EE96E010EEA6EDB51E926D8B0EA2AC8
:10390800EECFF9F1DEC1FAF169EC16F0F6C1E1FF8C
:10391800F7C1E2FF00C0E6FF0101DE2BDD2BD3D7A4
:10392800BE0E02012A6F010E2B6F65EC0DF001012E
:10393800F551030807E2BE0EF86F010EF96FD7ECD8
:1039480013F0F56BF52BDF0EF86F010EF96FC60E4D
:10395800FA6F010EFB6F7DEC14F0C60EF86F010EC6
:10396800F96FBE0EFA6F010EFB6FE0EC10F001016B
:10397800F42BDC2BA0D7DB2B95D7F46B52D7E60EB4
:1039880002012A6F000E2B6FD7EC0BF07A0E0B6E2C
:10399800C10E0C6E810E0D6E0D2EFED70C2EFCD7AF
:0A39A8000B2EFAD7000000001200F9
:1039B2008CEC1EF01EDECEEC10F03FD0C40E0201E5
:1039C2002A6F000E2B6FD7EC0BF04FEC17F03DD0A7
:1039D2000201CD0E2A6F000E2B6FD7EC0BF00C0EEE
:1039E2008F6FE3EC02F00D0E0B6E2D0E0C6ED70EE8
:1039F2000D6E0D2EFED70C2EFCD70B2EFAD7000023
:103A0200000009DF22D0DA0E0101F86F000EF96F13
:103A1200170EFA6F010EFB6F9DEC13F03D0E0B6E4D
:103A2200E10E0C6E3F0E0D6E0D2EFED70C2EFCD746
:103A32000B2EFAD70000000008D001017B51320A98
:0E3A4200BDE07B51330AC4E0DED7B5D7FFD715
:103D180010EE29F0520E006E020E016E500EF66E75
:0E3D28003A0EF76E000EF86EC0EC06F01200B8
:0A3A500054696D652053656E740023
:0B3A5A0052656164204572726F7200BB
:0D3A6500456E74726965732053656E7400C0
:0C3A720047696C204D69636861656C0059
:093A7E00555342204D4F44450010
:0D3A870053656E64696E672054696D6500BB
:0C3A94005772697465204572726F7200F1
:0E3AA000456E64206F66205369676E616C008E
:0D3AAE004E6F204F7065726174696F6E007D
:0B3ABB0052656164204572726F72005A
:0C3AC6005772697465204572726F7200BF
:103AD200456E7472696573205772697474656E00FD
:093AE200526567616C61646F00BC
:093AEB00555342204D6F64650043
:0D3AF40049324320525443204D6F64650059
:0C3B010053656C656374204D6F646500B3
:103B0D0054494D45204D4F44452045584954454451
:013B1D0000A7
:013B1E0000A6
:0D3B1F004A6F68616E6E6168204D6165003F
:073B2C00456E616E6F72002F
:0B3B3300436172796C204B65656E00E9
:0B3B3E00555342206F72205254430088
:103B49004368726F6E205363686564756C657200B3
:093B59004162657374616E6F0036
:103B6200555342204D4F4445204558495445440041
:0A3B7200456E74726965733A200015
:083B7C00A1A3A5A7A9ABADAF01
:023B84003A0005
:023B86003A0003
:023B88002F000C
:023B8A002F000A
:063B8C0054494D453A00CA
:023B92003A00F7
:063B9400444154453A00D3
:083B9A00A0A2A4A6A8AAACAEEB
:103BA20076034D0069006E00640061006E006100E2
:103BB2006F00200053007400610074006500200053
:103BC20055006E006900760065007200730069009E
:103BD2007400790020002D00200049006C0069006B
:103BE200670061006E00200049006E0073007400DF
:103BF2006900740075007400650020006F006600A3
:103C0200200054006500630068006E006F006C00C5
:063C12006F00670079005D
:053C18000000000000A7
:053C1D000000000000A2
:053C220000000000009D
:053C2700000000000098
:053C2C00000000000093
:053C310000000000008E
:053C3600000000000089
:103C3B000000000000000000000000000000000079
:103C4B000000000000000000000000000000000069
:103C5B002A03480061007200640077006100720063
:103C6B0065002000430072006F006E0020004400CE
:0A3C7B006500760069006300650033
:103C85000902290001010080320904000002030035
:103C950000000921010100012221000705810340DF
:093CA500000107050103400001C4
:053CAE00000000000011
:053CB30000000000000C
:053CB800000000000007
:053CBD00000000000002
:053CC2000000000000FD
:053CC7000000000000F8
:053CCC000000000000F3
:103CD1000600FF0901A10119012940150026FF0075
:103CE1007508954081021901294075089540910296
:013CF100C012
:103CF200120100020000000801000100010001029F
:023D02000001BE
:103D0400303132333435363738394142434445460D
:043D14000403090497
:020000040030CA
:0E000000210E3F1EFF8381FF0FC00FE00F4057
:00000001FF
