:040000000BEF1AF0F8
:1000080000C01EF001C01DF002C01CF003C01BF0B0
:1000180004C01AF005C019F008C018F009C017F09C
:100028000AC016F00BC015F0E1CF27F0E2CF28F098
:10003800E9CF25F0EACF26F0F3CF23F0F4CF24F070
:10004800F5CF22F0F8CF1FF0F7CF20F0F6CF21F050
:1000580086EC16F022C0F5FF1FC0F8FF20C0F7FF9E
:1000680021C0F6FF23C0F3FF24C0F4FF1EC000F038
:100078001DC001F01CC002F01BC003F01AC004F040
:1000880019C005F018C008F017C009F016C00AF02A
:1000980015C00BF025C0E9FF26C0EAFF27C0E1FF25
:0600A80028C0E2FF110078
:1000AE004FC255F150C256F151C259F152C25AF1D6
:1000BE00800E02015311006E008000C058F1120034
:1000CE00000E056E040E066E4FC203F0000E046E97
:1000DE0003360436039003360436039050C200F004
:1000EE00000E016E003601360090005003260150BE
:1000FE00042203C001F004C002F001360190023662
:10010E0001360190023601C003F002C004F0043241
:10011E000332049E04BC048E04320332049E04BCDB
:10012E00048E03C000F004C001F0003600900136CA
:10013E00003600900136055000260650012200C000
:10014E0005F001C006F000C0E1FF01C0E2FFE69E2F
:10015E0002015051000A12E14FC200F0000E016E72
:10016E000036009001364C0E0024E16E010E012087
:10017E00E26E05C0E6FF06C0E6FF11D04FC200F0EA
:10018E00000E016E003600900136500E0024E16E16
:10019E00010E0120E26E05C0E6FF06C0E6FF05C0B7
:1001AE00E1FF06C0E2FFE69C040E0524E16E000EA0
:0801BE000620E26EE68C12003F
:0E01C600800E02014F11006E00C058F11200B1
:1001D4004FC255F150C256F151C257F152C259F1B2
:1001E40053C25AF1800E02015411006E00C058F13E
:0201F4001200F7
:1001F60020C401F01F0E01160150010A01E08DD046
:1002060004012451000A01E088D02151060A3AE18E
:100216002FD001014B51010A13E19C0E02014F6FD1
:10022600360E506F000E516F120E4F27000E5023E0
:100236005123090E526F000E536F400E546FC7DFE5
:1002460021D001014B51010A0EE1E80E02014F6F68
:10025600360E506F000E516F210E526F000E536F07
:10026600400E546FB4DF0ED002014F6BA9DF0AD0E7
:1002760004012351210ACDE02351220AE2E0235151
:10028600230AF2E020C401F0600E0116050E006E8E
:10029600005004E00132019EFF0FFBD70150010A16
:1002A60001E03BD027D039D038D0410E02014F6F44
:1002B600010E506F010E516F000E526F400E536FBC
:1002C600F3DE2BD002014F6B7BDF23C441F125D037
:1002D6000201330E4F6F010E506F010E516F000E6B
:1002E600526F536BE1DE19D002014F6B69DF22C4F6
:1002F60033F113D004012151010AD5E02151090A35
:10030600D3E02151020AD1E021510A0ADBE0215152
:0C031600030ADEE021510B0AE7E01200B0
:1003220002014B51000A12E04AC200F0000E016EB7
:10033200003600900136500E0024E96E010E0120B5
:10034200EA6EEECF04F0EECF05F011D04AC200F013
:10035200000E016E0036009001364C0E0024E96E4C
:10036200010E0120EA6EEECF04F0EECF05F0020E90
:100372000424E16E000E0520E26E4CC2E6FF4DC27F
:10038200E6FF010E0424E16E000E0520E26E4EC26D
:10039200E6FF04C0E9FF05C0EAFFEECF00F004C0AB
:1003A200E1FF05C0E2FF400E0014E66E04C0E9FF63
:1003B20005C0EAFFEECF00F004C0E1FF05C0E2FF96
:1003C200880E0010E66E4B51000A1BE04AC200F094
:1003D200000E016E003600900136500E0024026EAF
:1003E200010E0120036E02C0E9FF03C0EAFF040E02
:1003F200EE18006E02C0E1FF03C0E2FF00C0E6FF9C
:100402001AD04AC200F0000E016E0036009001368A
:100412004C0E0024026E010E0120036E02C0E9FFA1
:1004220003C0EAFF040EEE18006E02C0E1FF03C033
:10043200E2FF00C0E6FF04C000F005C001F01200B8
:10044200700EE16E0F0EE26E02014A51E126D8B043
:10045200E22A4BC2E6FF4BA504D04AC24FF2506BD0
:1004620035DE4BA305D04AC24FF2010E506F2EDE8D
:02047200120076
:0E047400C70E0D6E0D2EFED700000000120008
:10048200560E0C6EB50E0D6E0D2EFED70C2EFCD731
:0604920000000000120052
:0E049800030E0D6E0D2EFED7000000001200A8
:0A04A6000101665301E0A4DE12001C
:1004B0000101665315E0010E02014A6F1E0E4B6FDB
:1004C000C0DF010E4A6F4B6B6EC14CF26FC14DF233
:1004D000400E4E6F26DF00C06AF101C06BF114D0F0
:1004E0000201010E4A6F1E0E4B6FABDF010E4A6F09
:1004F0004B6B6EC14CF26FC14DF2400E4E6F11DF6F
:0A05000000C06AF101C06BF11200A7
:10050A000CD0D1DF3CD03BD0C9DF39D038D037D07E
:10051A0036D035D0000033D032D0000E0201451952
:10052A0002E1010E4419EDE0000E451902E1020E46
:10053A004419E9E0000E451902E1030E4419E4E00A
:10054A004551000A02E1730E4419E0E04551000AE0
:10055A0002E1750E4419DBE04551000A02E1740E0E
:10056A004419D6E045513F0A02E1FF0E4419D1E091
:10057A004551000A02E1720E4419CCE0CDD7010EB2
:04058A00006E1200ED
:10058E00020140BF02D0819E01D0818E40BD02D0BB
:10059E00819C01D0818C40BB02D0819A01D0818A8E
:1005AE0040B902D0819801D08188010168B102D092
:1005BE00818601D08196818468DF8194020140B7E3
:1005CE0002D0819E01D0818E40B502D0819C01D097
:1005DE00818C40B302D0819A01D0818A40B102D081
:1005EE00819801D08188010168B102D0818601D045
:1005FE00819681844ADF819468A102D03BDF01D0CD
:04060E0032DF1200C5
:100612000B6A0A6A096A00500402F4CF09F0F3CFA8
:1006220008F001500502F4CF0BF0F3CF0AF00050AE
:100632000502F3500926F4500A22E86A0B220150FF
:100642000402F3500926F4500A22E86A0B2208C079
:1006520000F009C001F00AC002F00BC003F0120062
:10066200086A080E0C6E003408360450085ED8B0D2
:0E06720002D00826D89000360C2EF5D71200C4
:10068000C7B409D01F0EC514016E0150000A03E162
:0A069000010E006E01D0006A120096
:10069A0044C202F045C203F047C200F048C201F06A
:1006AA00010E0201475F000E485B0050011009E08D
:1006BA0002C0E1FF03C0E2FF46C2E6FF024A032A84
:0406CA00EBD7120058
:1006CE0002013A51390806E3300E3A5D03E3010E9A
:0806DE00006E01D0006A120059
:1006E60002013D6B030E3D5D0AE23D513B25E16E85
:1006F600000E3C21E26E200EE66E3D2BF3D73D51F7
:100706003B25E16E000E3C21E26EE66A3D073D5157
:100716003B253E6F000E3C213F6F0A0E046E3AC227
:1007260000F09CDF08C000F0300E00263EC2E1FF5C
:100736003FC2E2FF00C0E6FF0A0E046E3AC200F0B6
:100746008DDF00C03AF20050000A01E102D03D07F9
:04075600DED71200D8
:10075A003AC204F03BC205F004C002F005C003F03F
:10076A00044A052A3CC200F03DC201F002013C4B9A
:10077A003D2B00C0E9FF01C0EAFF02C0E1FF03C050
:10078A00E2FFEECFE6FF02C0E9FF03C0EAFFEE5246
:0E079A0001E0E2D73AC200F03BC201F01200CB
:0E07A800010168913AC240F2EEDE6881120053
:1007B6009E963AC2C9FFC7A401D0FDD79EB601D006
:1007C600FDD7C5BC02D0006A03D0C584020E006EF8
:0207D60012000F
:0A07D800C582C5A201D0FDD71200B2
:0407E200C5841200B8
:1007E60002013A6B3B6B3B51120802E13A518E080B
:1007F60008E343DF005201E004D002013A4B3B2BF1
:10080600F2D70201120E3B5D02E18F0E3A5D03E361
:100816007B0E006E05D0C580C5A001D0FDD7006A4D
:020826001200BE
:100828009E96C5869EB601D0FDD7C9CF01F00201BC
:100838003A51000A02E1C58A01D0C59A9E96C58838
:0C0848009EB601D0FDD701C000F01200E8
:10085400000E01015A5D02E1080E595D10E259C112
:1008640003F05AC104F07551000A03E1010E756FDB
:1008740005D07551010A02E1020E756F04D0080E0D
:10088400036E000E046E50C1E1FF51C1E2FFE69217
:1008940050C1E1FF51C1E2FFE69050C1E9FF51C1EF
:1008A400EAFFEECF00F050C1E1FF51C1E2FF045076
:1008B4000010E66E010E5025E16E000E5121E26E2D
:1008C40003C0E6FF0350595D006E04505A59016E8F
:1008D40000C059F101C05AF1280E706F040E716FF7
:1008E40058B12FD0035004102BE055C1F6FF56C168
:1008F400F7FF57C1F8FF0900F5CF00F070C1E1FF21
:1009040071C1E2FF00C0E6FF704B712B010E55254B
:10091400006E000E5621016E000E5721026E00C0BB
:1009240055F101C056F102C057F1010E035C006E8F
:10093400000E0458016E00C003F001C004F0D2D7C9
:1009440024D00350041021E055C1E9FF56C1EAFF49
:1009540070C1E1FF71C1E2FFEECFE6FF704B712B76
:10096400010E5525006E000E5621016E00C055F192
:1009740001C056F1010E035C006E000E0458016EB6
:0C09840000C003F001C004F0DCD712003A
:1009900004012051800AD8A479D0C00E0101586FFB
:1009A0006AD00101090E006E370E016E000E026E54
:1009B00000C055F101C056F102C057F1120E596F37
:1009C000000E5A6F63D00101030E006E000E016E1F
:1009D00022C404F0000E056E1CDE350E0024E96E04
:1009E000010E0120EA6EEECF55F1EECF56F1EECFBB
:1009F00057F1020E5525F66E000E5621F76E000EC9
:100A00005721F86E0900F5CF00F00900F5CF01F08D
:100A100000C059F101C05AF139D0030E0401225D22
:100A200024E2030E006E000E016E22C404F0000EDC
:100A3000056EEFDD380E0024E96E010E0120EA6E2E
:100A4000EECF55F1EECF56F1EECF57F155C1F6FF8F
:100A500056C1F7FF57C1F8FF0900F5CF00F000C0FD
:100A600059F1000E01015A6F02D00101586B0ED0EE
:100A70000101586B0BD004012351010A92E023516C
:0E0A8000020AA1E02351030AC8E0F2D71200D7
:100A8E000101588F710E0201446F0F0E456F466BB8
:100A9E00010E476F000E486FF9DD670E446F010EB1
:100AAE00456F466B010E476F000E486FEFDD22C497
:100ABE004BF101014B51000A03E1100E4A6F10D0A9
:100ACE00200E4A6F010E0201446F000E456F4B0E51
:100ADE00466F010E476F010E486F000E496F0EDD17
:020AEE001200F4
:100AF0000401286B296B4AD00101588F0401288119
:100B000001017251010A02E10401288354D001015C
:100B1000588F51D00101588F040124BF16D024C42E
:100B200003F00F0E031603C000F0000E016E003636
:100B3000009001364C0E0024E96E010E0120EA6E91
:100B4000EECF04F0EECF05F015D024C403F00F0E65
:100B5000031603C000F0000E016E0036009001364F
:100B6000500E0024E96E010E0120EA6EEECF04F073
:100B7000EECF05F004C0E9FF05C0EAFFEECF01F0BB
:100B800001A403D00401010E286F15D020C401F088
:100B90001F0E01160150000AAFE020C401F01F0E25
:100BA00001160150010AB3E020C401F01F0E011626
:100BB0000150020AAFE0010158AF07D0280E556F6F
:0C0BC000040E566F5881020E596F12008F
:100BCC0004012251010A13E120C401F01F0E011689
:100BDC000150000A0CE10101588F04012151030A54
:100BEC0004E1010E0101726F02D00101726B04016C
:100BFC002251000AD8A48DD020C401F01F0E01167A
:100C0C000150020AD8A485D024C401F00F0E01169D
:100C1C000150000AD8B47DD00101588F040124BFC3
:100C2C0016D024C403F00F0E031603C000F0000E00
:100C3C00016E0036009001364C0E0024E96E010E58
:100C4C000120EA6EEECF04F0EECF05F015D024C4EF
:100C5C0003F00F0E031603C000F0000E016E0036F9
:100C6C0000900136500E0024E96E010E0120EA6E50
:100C7C00EECF04F0EECF05F02151030A07E104C0DA
:100C8C00E1FF05C0E2FF840EE66E43D024C400F001
:100C9C000F0E0016700E026E0F0E036E0050022621
:100CAC00D8B0032A02C0E9FF03C0EAFFFE0EEE141F
:100CBC00006EEECF01F0FF0E011602C0E1FF03C083
:100CCC00E2FF00C0E6FF01C0E6FF24AF11D004C074
:100CDC00E1FF05C0E2FFE66A040E0418006E00C0D6
:100CEC0004F004C0E1FF05C0E2FF400EE66E11D037
:100CFC0004C0E1FF05C0E2FF880EE66E040E041886
:100D0C00006E00C004F004C0E1FF05C0E2FFC80E95
:040D1C00E66E12006D
:100D20002CC204F02DC205F004C0E9FF05C0EAFFA3
:100D3000EE5203E0044A052AF7D704C002F005C0CA
:100D400003F0044A052A2EC200F02FC201F002016E
:100D50002E4B2F2B00C0E9FF01C0EAFF02C0E1FFCC
:100D600003C0E2FFEECFE6FF02C0E9FF03C0EAFFE7
:100D7000EE5201E0E2D72CC200F02DC201F01200C9
:100D8000000E02012D1902E1000E2C1902E1016A88
:100D900009D02CC2E9FF2DC2EAFFEECF00F0016AB4
:0A0DA00000BE012A01C000F012009D
:100DAA009C0E0101356F360E366F000E376F2B0E13
:100DBA00386F370E396F000E3A6FBE0E3B6F350E25
:100DCA003C6F000E3D6F720E3E6F360E3F6F000E87
:040DDA00406F120054
:100DDE000201316B326B2CC233F2000E2CBFFF0EB0
:100DEE00346F800E2C19006E800E000A005C0AE231
:100DFE00314B322B2C510008336F346B000E2CBF4D
:100E0E00FF0E345B33C23AF22DC23BF22EC23CF2DD
:100E1E0063DC040E2F6F000E306F000E006E30512B
:100E2E00005C02E12F51000819E22F512D25E16ED1
:100E3E0030512E21E26E010E2F5D006E000E3059E4
:100E4E00016E00502D25E96E01502E21EA6EEECF77
:100E5E00E6FF010E2F5F000E305BDFD72DC2E1FFE4
:100E6E002EC2E2FF200EE66E315132111AE02F6BC8
:100E7E00306B2F512D25E96E30512E21EA6EEE503A
:100E8E00200A03E12F4B302BF4D7010E2F5F000EFB
:100E9E00305B2F512D25E16E30512E21E26E2D0E3D
:040EAE00E66E1200DA
:0E0EB200160E6F6E9F0E6B6E7B0E696E120039
:100EC0000900F5CFE6FF0006FBE10106F9E112009B
:100ED0000101736B50C1E1FF51C1E2FFE66A040EEC
:100EE0005019E16E51C1E2FF000EE21AE66A5FAFEF
:060EF00001D05F9F12001B
:100EF6006D98010158BF49D05FAF28D0020E736FBD
:100F0600010E5025E16E000E5121E26EE66A50C1D7
:100F1600E1FF51C1E2FFC80EE66E010E4225E16E09
:100F2600000E4321E26E080EE66E020E4225E16EC9
:100F3600000E4321E26E280EE66E040EE66E42C1F6
:100F4600E1FF43C1E2FFC80EE66E1ED0010E422548
:100F5600E16E000E4321E26E080EE66E020E422599
:100F6600E16E000E4321E26E200EE66E040EE66E82
:100F760042C1E1FF43C1E2FF8C0EE66E50C1E1FFC4
:100F860051C1E2FF840EE66E82D05FBF80D00401BD
:100F960020AF55D001015A510401275D04E101013A
:100FA60059510401265D04E226C459F127C45AF1B9
:100FB6004EDC010E736F010E4225E16E000E4321D9
:100FC600E26E080EE66E020E4225E16E000E432129
:100FD600E26E200EE66E040EE66E42C1E1FF43C1EC
:100FE600E2FF800EE66E746B010E4425E16E000E84
:100FF6004521E26E080EE66E020E4425E16E000EF5
:101006004521E26E200EE66E040EE66E44C1E1FF57
:1010160045C1E2FF840EE66E010E746F020E502586
:10102600E16E000E5121E26E280EE66E040EE66EAB
:1010360050C1E1FF51C1E2FFC80EE66E28D00101A2
:10104600020E736F010E5025E16E000E5121E26E05
:10105600E66A50C1E1FF51C1E2FFC80EE66E010E1D
:101066004225E16E000E4321E26E080EE66E020E88
:101076004225E16E000E4321E26E280EE66E040E56
:10108600E66E42C1E1FF43C1E2FFC80EE66E120002
:1010960020C401F0600E0116050E006E005004E03B
:1010A6000132019EFF0FFBD70150000A01E069D013
:1010B60045D00101588F080E4A6F63D066DC61D0B7
:1010C600E3DC5FD04B0E0101556F010E566F588160
:1010D600010E596F588F55D008DD53D074DD51D0AD
:1010E600670E006E010E016E040124510026D8B071
:1010F600012A00C055F101C056F101015881010EC7
:10110600596F588F3ED00101588F670EE16E010E60
:10111600E26E04012451E126D8B0E22A22C4E6FF99
:1011260030D0020E0201446F000E456F466B476BCE
:10113600486B496B85EC02F024D023D00401215181
:10114600050AB7E02151060AB9E02151090AB8E0BB
:101156002151080AB7E02151000ABEE02151010AD7
:10116600BDE02151030ABAE021510A0AB9E0215132
:101176000B0AC9E02151070AD4E021510C0ADDE02F
:04118600DCD71200A0
:10118A0010D0800E02012C6F1AD0C00E2C6F17D00F
:10119A00940E2C6F14D0D40E2C6F11D0800E2C6F9D
:1011AA000ED002012C51010AECE02C51020AEDE0AA
:1011BA002C51030AEDE02C51040AEDE0EFD72D057E
:1011CA00006E2C51002600C02CF200C040F2C7EC81
:1011DA0002F068910201306B30512E25E96E000E43
:1011EA002F21EA6EEE520DE030512E25E96E000EE7
:1011FA002F21EA6EEECF3AF2D4EC03F00201302B43
:08120A00EBD70101688112001D
:10121200010E01014425E96E000E4521EA6EEECF72
:1012220000F000C002F0000E615D02E10250605D5C
:1012320003E260C102F00AD00250605D006E000E4F
:101242006159016E00C060F101C061F1036A025090
:10125200035C1CE2280EE96E040EEA6E0350E926D6
:10126200D8B0EA2AEECF00F05DC1E1FF5EC1E2FF35
:1012720000C0E6FF010E5D25006E000E5E21016ECC
:1012820000C05DF101C05EF1032AE1D7000E006EDD
:101292006151005C02E16051000828E2010E422522
:1012A200E16E000E4321E26E080EE66E020E42254A
:1012B200E16E000E4321E26E280EE66E040EE66E2B
:1012C20044C1E9FF45C1EAFFEECF00F000BC07D000
:1012D20042C1E1FF43C1E2FFC80EE66E06D042C141
:1012E200E1FF43C1E2FF880EE66E19D0010E4225EE
:1012F200E16E000E4321E26E080EE66E020E4225FA
:10130200E16E000E4321E26E200EE66E040EE66EE2
:1013120042C1E1FF43C1E2FF840EE66E5F9F12000D
:101322002CC2E9FF2DC2EAFFEECF2EF2000E02011F
:101332002F6F000E2F6F000E2F1902E1200E2E19B3
:1013420007E0000E2F1902E1090E2E1901E003D069
:101352002C4B2D2BE5D7306B316B326B336B000E80
:101362002F1902E12D0E2E1905E1324B332B2C4B96
:101372002D2B08D0000E2F1902E12B0E2E1902E19F
:101382002C4B2D2B2CC2E9FF2DC2EAFFEECF2EF201
:10139200000E2F6F000E2F6F2EC23AF267EC03F091
:1013A200005219E030C200F031C201F00A0E046EA0
:1013B200000E056E09EC03F0300E2E5D026E000E7B
:1013C2002F59036E02500024306F03500120316FF9
:1013D2002C4B2D2BD7D73251331108E03051000856
:1013E200006E31C201F0000E015604D030C200F08E
:0613F20031C201F01200FF
:1013F80002012D51000A12E02CC200F0000E016E0D
:10140800003600900136500E0024E96E010E0120CE
:10141800EA6EEECF04F0EECF05F011D02CC200F04A
:10142800000E016E0036009001364C0E0024E96E65
:10143800010E0120EA6EEECF04F0EECF05F0020EA9
:101448000424E16E000E0520E26E2EC2E6FF2FC2D4
:10145800E6FF010E0424E16E000E0520E26E30C2A4
:10146800E6FF04C0E9FF05C0EAFFEECF00F004C0C4
:10147800E1FF05C0E2FF400E0014E66E04C0E9FF7C
:1014880005C0EAFFEECF00F004C0E1FF05C0E2FFAF
:10149800880E0010E66E2D51000A1BE02CC200F0E9
:1014A800000E016E003600900136500E0024026EC8
:1014B800010E0120036E02C0E9FF03C0EAFF040E1B
:1014C800EE18006E02C0E1FF03C0E2FF00C0E6FFB5
:1014D8001AD02CC200F0000E016E003600900136C2
:1014E8004C0E0024026E010E0120036E02C0E9FFBB
:1014F80003C0EAFF040EEE18006E02C0E1FF03C04D
:10150800E2FF00C0E6FF04C000F005C001F01200D1
:10151800F3EC03F0D00E02013A6FDBEC03F00201AA
:101528003A6BDBEC03F0ECEC03F0D10E02013A6FFE
:10153800DBEC03F0010E02013A6F14EC04F02CC24C
:10154800E1FF2DC2E2FF00C0E6FF010E02013A6F83
:1015580014EC04F02EC2E1FF2FC2E2FF00C0E6FF48
:10156800010E02013A6F14EC04F030C2E1FF31C2FF
:10157800E2FF00C0E6FF010E02013A6F14EC04F02E
:1015880032C2E1FF33C2E2FF00C0E6FF010E0201F2
:101598003A6F14EC04F034C2E1FF35C2E2FF00C038
:1015A800E6FF010E02013A6F14EC04F036C2E1FFC7
:1015B80037C2E2FF00C0E6FF02013A6B14EC04F008
:1015C80038C2E1FF39C2E2FF00C0E6FFF1EC03F0E8
:0215D8001200FF
:0A15DA00D08EA28AA08AF28E1200C1
:1015E400086A096A100E0C6E013408360936045074
:1015F400085E0550D8A0053C095ED8B007D0045059
:1016040008260550D8B0053C0926D8900036013686
:061614000C2EEAD71200C3
:10161A0002012E6B2E512C25E96E000E2D21EA6E49
:10162A00EE520DE02E512C25E96E000E2D21EA6EA8
:10163A00EECF3AF2D4EC03F002012E2BEBD71200D4
:10164A002CC202F02DC203F02FC200F030C201F00A
:10165A00010E02012F5F000E305B0050011009E0FD
:10166A0002C0E1FF03C0E2FF2EC2E6FF024A032ADC
:04167A00EBD7120098
:10167E002E0E02013A6F020E3B6F2CC23CF22DC2AF
:10168E003DF2ADEC03F030C22EF231C22FF2306BD0
:10169E002E51200A02E1300E2E6F2CC23AF22DC2CC
:1016AE003BF22E0E3C6F020E3D6FADEC03F01200BE
:1016BE002DC200F00032009E0032009E0032009ECD
:1016CE000032009E1B0E0024F66E370EF76E000ED3
:1016DE00F722000EF86E000EF8220900F5CF00F08A
:1016EE002EC2E1FF2FC2E2FF00C0E6FF010E020193
:1016FE002E25E16E000E2F21E26E0F0E2D15006EBF
:10170E001B0E0024F66E370EF76E000EF722000E3B
:10171E00F86E000EF8220900F5CF00F000C0E6FFCB
:10172E00020E2E25E16E000E2F21E26E2CC200F06D
:10173E000032009E0032009E0032009E0032009E5B
:10174E001B0E0024F66E370EF76E000EF722000EFB
:10175E00F86E000EF8220900F5CF00F000C0E6FF8B
:10176E00030E2E25E16E000E2F21E26E0F0E2C15AC
:10177E00006E1B0E0024F66E370EF76E000EF7226B
:10178E00000EF86E000EF8220900F5CF00F000C032
:10179E00E6FF040E2E25E16E000E2F21E26EE66AA4
:0217AE00120027
:1017B000A69CE2C1A9FFA69EA680A8CF00F01200B9
:1017C000010E0201406FC7EC02F00F0E0201406FE4
:1017D000C7EC02F0800E0201406FC7EC02F0E2C1DC
:0A17E0002CF2E3C12DF219DF120014
:1017EA00340EF66E360EF76E000EF86EEE0EE16EE1
:1017FA00010EE26E3E0E006E010E016E60EC07F005
:10180A00E2C1E9FFE3C1EAFFEECF2CF2EE0E0201DC
:10181A002D6F010E2E6FEFEC06F0E4C1E9FFE5C172
:10182A00EAFFEECF2CF2F30E2D6F010E2E6FEFECC6
:10183A0006F0E6C1E9FFE7C1EAFFEECF2CF2F80EA7
:10184A002D6F010E2E6FEFEC06F0E8C1E9FFE9C13A
:10185A00EAFFEECF2CF2FD0E2D6F010E2E6FEFEC8C
:10186A0006F0EAC1E9FFEBC1EAFFEECF2CF2020E65
:10187A002D6F020E2E6FEFEC06F0ECC1E9FFEDC101
:10188A00EAFFEECF2CF2070E2D6F020E2E6FEFEC51
:10189A0006F0EE0E2C6F010E2D6FECDEF30E2C6FA0
:1018AA00010E2D6FE7DEF80E2C6F010E2D6FE2DEB2
:1018BA00FD0E2C6F010E2D6FDDDE020E2C6F020E57
:1018CA002D6FD8DE070E2C6F020E2D6FD3DE0C0E95
:1018DA002C6F020E2D6F4A0E2E6F000E2F6F90EC9A
:1018EA0006F00C0E2C6F020E2D6F020E2E6F020EDA
:1018FA002F6F90EC06F00C0E2C6F020E2D6F510E0E
:10190A002E6F000E2F6F90EC06F00C0E2C6F020E4D
:10191A002D6FFD0E2E6F010E2F6F90EC06F00C0E40
:10192A002C6F020E2D6F570E2E6F000E2F6F90EC3C
:10193A0006F00C0E2C6F020E2D6F070E2E6F020E84
:10194A002F6F90EC06F01C0E2C6F020E2D6F590EA5
:10195A002E6F000E2F6F90EC06F01C0E2C6F020EED
:10196A002D6FF80E2E6F010E2F6F90EC06F01C0EE5
:10197A002C6F020E2D6F530E2E6F000E2F6F90ECF0
:10198A0006F01C0E2C6F020E2D6FF30E2E6F010E39
:10199A002F6F90EC06F01C0E2C6F020E2D6F550E59
:1019AA002E6F000E2F6F90EC06F01C0E2C6F020E9D
:1019BA002D6FEE0E2E6F010E2F6F90EC06F0010EBA
:1019CA00406FC7EC02F0010E02012C6F010E2D6F61
:1019DA000C0E2E6F020E2F6FC5EC08F0020E0201DC
:1019EA002C6F010E2D6F1C0E2E6F020E2F6FC5EC81
:0419FA0008F01200DF
:1019FE0001014A51000A0BE16D6A696A59EC07F060
:101A0E00E5DD6DB602D06D86FCD7010E4A6F120071
:101A1E0050C1E9FF51C1EAFFEECF00F0000E00BC4D
:101A2E00010E0201436F040E01015019006E00C039
:101A3E0050F14A51080A0AE122C46EFF6E500008A6
:101A4E0003E2100E4A6F02D0040E4A6F7351010A60
:101A5E002CE1020E5025E16E000E5121E26E280E91
:101A6E00006E040E016E00C0E6FF01C0E6FF2AEC18
:101A7E0004F07551020A07E150C1E1FF51C1E2FFC6
:101A8E00840EE66E11D002014351000A07E150C1E7
:101A9E00E1FF51C1E2FFC80EE66E06D050C1E1FF74
:101AAE0051C1E2FF880EE66E02D068EC07F012001C
:101ABE0001017351020A03E109EC09F01FD068EC31
:101ACE0007F07451000A19E1010E4225E16E000E75
:101ADE004321E26E080EE66E020E4225E16E000E06
:101AEE004321E26E200EE66E040EE66E42C1E1FF69
:0E1AFE0043C1E2FF8C0EE66E01D0746B120045
:101B0C000101E251FC0A03E1010E006E01D0006AF2
:021B1C001200B5
:101B1E0050C1E9FF51C1EAFFEECF00F000AE05D093
:101B2E0050C1E1FF51C1E2FFE66A0101756B736BB3
:101B3E00596B5A6B586B4BEC08F0030E0201446F55
:101B4E00000E456F466B476B486B496B85EC02F098
:061B5E007BEC07F0120011
:101B6400200E01014A5D03E36DB201D002D0006A88
:101B740026D06AC12CF26BC12DF2C0EC06F00052E3
:101B84001DE1010E01016A25E96E000E6B21EA6E6A
:101B9400EECF00F000C0E6F1E5C12CF202012D6B9E
:101BA400E2C12EF2E3C12FF2E4C130F223DC00C023
:101BB4006AF101C06BF1E6C100F001D0006A1200C5
:0A1BC4006D6A696A01014A6B1200A4
:101BCE00200E01014A5D03E36DB201D002D0006A1E
:101BDE0039D05BC12CF25CC12DF2C0EC06F0005284
:101BEE0030E1E5C12CF2010E2D6FE2C12EF2E3C100
:101BFE002FF2E4C130F2FCEC09F000C05BF101C041
:101C0E005CF10101466B476B486B496B5BC12CF273
:101C1E005CC12DF2C0EC06F0005209E00101465104
:101C2E0047114811491102E0006A0CD0EFD70101AB
:101C3E00010E5B25E96E000E5C21EA6EEECF00F020
:061C4E0001D0006A120043
:101C5400F3EC03F0D00E02013A6FDBEC03F0020167
:101C64003A6BDBEC03F0800E02013A6FDBEC03F01D
:101C7400E2C13AF2DBEC03F0E3C13AF2DBEC03F04D
:101C8400E5C13AF2DBEC03F0E4C13AF2DBEC03F039
:101C9400E6C13AF2DBEC03F0E7C13AF2DBEC03F025
:101CA400F1EC03F0F3EC03F0D00E02013A6FDBEC3D
:101CB40003F002013A6BDBEC03F002013A6BDBEC5C
:081CC40003F0F1EC03F0120043
:101CCC000101E66B050EE65D0AE2E651E425E16EE4
:101CDC00000EE521E26E200EE66EE62BF3D7E65100
:101CEC00E425E16E000EE521E26EE66AE607E651B8
:101CFC00E425E76F000EE521E86F0A0E046E000E76
:101D0C00056EE2C100F0E3C101F066DC08C000F032
:101D1C0009C001F0300E0026E7C1E1FFE8C1E2FF87
:101D2C0000C0E6FF0A0E046E000E056EE2C100F064
:101D3C00E3C101F051DC00C0E2F101C0E3F1000E9F
:101D4C00011802E1000E001801E102D0E607CFD71E
:021D5C00120073
:101D5E00D5EC06F06A6B6B6B5B6B5C6B6A6A686AE0
:101D6E0059EC07F06D8C6E6A710E02012C6F0F0E1E
:101D7E002D6F2E6B010E2F6F000E306F5FDC6D9C82
:101D8E000101E26B080EE25D16E2E2C100F0000E08
:101D9E00016E003600900136003600900136000EBE
:101DAE000024E16E040E0120E26EE66AE66AE66A3F
:101DBE00E66AE22BE7D7160E706E68A603D0F70E12
:101DCE006816FBD7586B5F6B606B616B6D98080E76
:0C1DDE00506F040E516F4B6B4A6B1200EB
:101DEA00939093928A908A9293809382C79EC79C7B
:061DFA00380EC66E120057
:101E00000101E46BE56BE66BE76BE86BE96BEA6B92
:101E1000EB6BEC6BED6BEE6BEF6BF06BF16BF26BF6
:101E2000F36BF46BF56BF66BF76BF86BF96BFA6BA6
:101E3000FB6BFC6BFD6BFE6BFF6B0201006B016BC0
:101E4000026B036B046B056B066B070E2C6F020EA7
:101E50002D6F080E2E6F020E2F6F090E306F020EBF
:101E6000316F0A0E326F020E336F0B0E346F020E9B
:101E7000356F0C0E366F020E376F0D0E386F020E77
:101E8000396F8CEC0AF007C22CF2000E02012D6FA4
:101E9000E40E2E6F010E2F6F12DC08C22CF2000E22
:101EA0002D6FE90E2E6F010E2F6F09DC09C22CF287
:101EB000000E2D6FEE0E2E6F010E2F6F00DC0BC289
:101EC0002CF2000E2D6FF30E2E6F010E2F6F5FECB4
:101ED0000BF00CC22CF2000E2D6FF80E2E6F010EBF
:101EE0002F6F5FEC0BF00DC22CF2000E2D6FFD0E6C
:101EF0002E6F010E2F6F5FEC0BF00AC22CF2000E5A
:101F00002D6F020E2E6F020E2F6F5FEC0BF0E40EA2
:101F10002C6F010E2D6F3FEC0BF0E90E2C6F010EB4
:101F20002D6F3FEC0BF0EE0E2C6F010E2D6F3FEC82
:101F30000BF0F30E2C6F010E2D6F3FEC0BF0F80E33
:101F40002C6F010E2D6F3FEC0BF0FD0E2C6F010E70
:101F50002D6F3FEC0BF0020E2C6F020E2D6F3FEC3D
:101F60000BF0E40E2C6F010E2D6F91EC09F000C008
:101F700007F2E90E2C6F010E2D6F91EC09F000C0F5
:101F800008F2EE0E2C6F010E2D6F91EC09F000C0DF
:101F900009F2F30E2C6F010E2D6F91EC09F000C0C9
:101FA0000BF2F80E2C6F010E2D6F91EC09F000C0B2
:101FB0000CF2FD0E2C6F010E2D6F91EC09F000C09C
:101FC0000DF2020E2C6F020E2D6F91EC09F000C085
:101FD0000AF2E2C1E1FFE3C1E2FF07C2E6FF010E40
:101FE0000101E225E16E000EE321E26E08C2E6FF88
:101FF000020EE225E16E000EE321E26E09C2E6FF69
:10200000030EE225E16E000EE321E26E0BC2E6FF55
:10201000050EE225E16E000EE321E26E0CC2E6FF42
:10202000060EE225E16E000EE321E26E0DC2E6FF30
:10203000000EE66E040EE225E16E000EE321E26E74
:062040000AC2E6FF1200D7
:10204600A6A202D00000FCD7A69CB0C1A9FFB1C1D0
:10205600A8FFA69EA684F2CF00F0F29E550EA76EAC
:10206600AA0EA76EA68200BE02D0F29E01D0F28E04
:04207600A69412001A
:10207A000101B06BB16BB06BB16B800EB119006E20
:10208A00800E005C02E1400EB05D0AE2400EB0250F
:10209A00E16E050EB121E26EE66AB04BB12BEDD7C7
:0220AA00120022
:0420AC008BDD1200B6
:1020B00000C52CF2D20E02012D6F010E2E6FEFEC37
:1020C00006F001C52CF2B20E2D6F010E2E6FEFEC53
:1020D00006F002C52CF2C20E2D6F010E2E6FEFEC32
:1020E00006F0B0C13AF2B1C13BF2600E3C6F000E97
:1020F0003D6FADEC03F0B0C12CF2B1C12DF2D20EA8
:102100002E6F010E2F6F90EC06F0B0C12CF2B1C112
:102110002DF2B20E2E6F010E2F6F90EC06F0B0C1B3
:102120002CF2B1C12DF2C20E2E6F010E2F6F90EC6A
:0421300006F01200A3
:10213400B0C1E9FFB1C1EAFFB2C1E1FFB3C1E2FF3F
:10214400EECFE6FF010E0101B225E16E000EB321D0
:10215400E26E010EB025E96E000EB121EA6EEECFFB
:10216400E6FF020EB225E16E000EB321E26E020E0E
:10217400B025E96E000EB121EA6EEECFE6FF030E44
:10218400B225E16E000EB321E26E030EB025E96EB6
:10219400000EB121EA6EEECFE6FF040EB225E16E29
:1021A400000EB321E26E040EB025E96E000EB121DB
:1021B400EA6EEECFE6FF050EB225E16E000EB32106
:1021C400E26E050EB025E96E000EB121EA6EEECF87
:1021D400E6FF060EB225E16E000EB321E26E060E96
:1021E400B025E96E000EB121EA6EEECFE6FF070ED0
:1021F400B225E16E000EB321E26E070EB025E96E42
:10220400000EB121EA6EEECFE6FF080EB225E16EB4
:10221400000EB321E26E080EB025E96E000EB12166
:10222400EA6EEECFE6FF090EB225E16E000EB32191
:10223400E26E090EB025E96E000EB121EA6EEECF12
:10224400E6FF0A0EB225E16E000EB321E26E0A0E1D
:10225400B025E96E000EB121EA6EEECFE6FF0B0E5B
:10226400B225E16E000EB321E26E0B0EB025E96ECD
:10227400000EB121EA6EEECFE6FF0C0EB225E16E40
:10228400000EB321E26E0C0EB025E96E000EB121F2
:10229400EA6EEECFE6FF0D0EB225E16E000EB3211D
:1022A400E26E0D0EB025E96E000EB121EA6EEECF9E
:1022B400E6FF0E0EB225E16E000EB321E26E0E0EA5
:1022C400B025E96E000EB121EA6EEECFE6FF0F0EE7
:1022D400B225E16E000EB321E26E0F0EB025E96E59
:1022E400000EB121EA6EEECFE6FF100EB225E16ECC
:1022F400000EB321E26E100EB025E96E000EB1217E
:10230400EA6EEECFE6FF110EB225E16E000EB321A8
:10231400E26E110EB025E96E000EB121EA6EEECF29
:10232400E6FF120EB225E16E000EB321E26E120E2C
:10233400B025E96E000EB121EA6EEECFE6FF130E72
:10234400B225E16E000EB321E26E130EB025E96EE4
:10235400000EB121EA6EEECFE6FF140EB225E16E57
:10236400000EB321E26E140EB025E96E000EB12109
:08237400EA6EEECFE6FF120055
:10237C00939493969398939A939C939E819481961D
:10238C00819E819C819A819841EC02F041EC02F093
:10239C0041EC02F0818A818881844CEC02F08194BA
:1023AC0041EC02F081844CEC02F0819441EC02F09F
:1023BC0081844CEC02F0819441EC02F08198818490
:1023CC004CEC02F0819441EC02F081844CEC02F074
:1023DC008194819A818E81844CEC02F0819441EC41
:1023EC0002F0819E818881844CEC02F0819481986A
:1023FC0081844CEC02F0819441EC02F081844CEC31
:10240C0002F08194818881844CEC02F0819441EC3F
:10241C0002F0819881844CEC02F08194818E818C45
:10242C00818A818881844CEC02F0819441EC02F029
:06243C000101688112009D
:102442000101E26BD8EC0BF000C0B6F1000EB76FE1
:10245200B0C13AF2B1C13BF2CB0E02013C6F000EA9
:102462003D6FADEC03F0B6C1E2F1B7C1E3F1B20EDC
:102472000101E46F010EE56F28DCB0C12CF2B1C19D
:102482002DF2B20E02012E6F010E2F6F90EC06F0AC
:02249200120036
:10249400B0C1E2F1B1C1E3F1B2C1E4F1010E010155
:0824A400E56FE7EC0DF01200FA
:1024AC00780EC86E9CDCF3EC03F0B0C13AF2DBECB6
:1024BC0003F0B2C13AF2DBEC03F0ECEC03F0B1C187
:1024CC003AF2DBEC03F002013A6B14EC04F000C0BE
:1024DC00B3F1F1EC03F0B3C100F006D00D2EFED732
:0A24EC000C2EFCD70B2EFAD71200BD
:1024F600B0C1E9FFB1C1EAFFEECF01F00150010A18
:10250600D8A424D1040E0101B025E96E000EB12134
:10251600EA6EEE50FE0A24E1010EB225E96E000EC7
:10252600B321EA6E050EB025D96E000EB121DA6E22
:10253600EE50DE5C15E2010EB225016E000EB321EF
:10254600026E030EB025D96E000EB121DA6E01C0FF
:10255600E9FF02C0EAFFDE50EE5C02E2006AF7D055
:10256600030EB025E96E000EB121EA6E010EB2250A
:10257600D96E000EB321DA6EEE50DE180BE0030EB4
:10258600B025E96E000EB121EA6EEE50FF0A02E0B8
:10259600006ADDD0010EB025B46F000EB121B56F13
:1025A6008ED0020EB025E96E000EB121EA6EEECF96
:1025B600E2F186EC0DF000C08CFFC5D0020EB0250E
:1025C600E96E000EB121EA6EEECFE2F186EC0DF077
:1025D60000B002D08C9001D08C80B5D0020EB02510
:1025E600E96E000EB121EA6EEECFE2F186EC0DF057
:1025F60000B002D08C9201D08C82A5D0020EB025FC
:10260600E96E000EB121EA6EEECFE2F186EC0DF036
:1026160000B002D08C9401D08C8495D0020EB025E7
:10262600E96E000EB121EA6EEECFE2F186EC0DF016
:1026360000B002D08C9601D08C8685D0020EB025D3
:10264600E96E000EB121EA6EEECFE2F186EC0DF0F6
:1026560000B002D08C9801D08C8875D0020EB025BF
:10266600E96E000EB121EA6EEECFE2F186EC0DF0D6
:1026760000B002D08C9A01D08C8A65D0020EB025AB
:10268600E96E000EB121EA6EEECFE2F186EC0DF0B6
:1026960000B002D08C9C01D08C8C55D0020EB02597
:1026A600E96E000EB121EA6EEECFE2F186EC0DF096
:1026B60000B002D08C9E01D08C8E45D044D0B4C1DF
:1026C600E9FFB5C1EAFFEE50FF0AD8B46AD7B4C134
:1026D600E9FFB5C1EAFFEE50000AD8B46FD7B4C11E
:1026E600E9FFB5C1EAFFEE50010AD8B477D7B4C105
:1026F600E9FFB5C1EAFFEE50020AD8B47FD7B4C1EC
:10270600E9FFB5C1EAFFEE50030A88E0B4C1E9FF6C
:10271600B5C1EAFFEE50040A91E0B4C1E9FFB5C1C4
:10272600EAFFEE50050A9AE0B4C1E9FFB5C1EAFF37
:10273600EE50060AA3E0B4C1E9FFB5C1EAFFEE50C8
:10274600070AACE0BBD7010E006E01D0006A12008A
:102756000F0EC16E070EB46E800EF16E896A8B6A1B
:102766008C6A8D6A926A946A956A966A806A826AA7
:0E277600836A846A030E926E030E896E12004F
:10278400B0C1E2F1B1C1E3F1E0EC0BF0C00E406F77
:10279400C7EC02F0B2C12CF2B3C12DF20DEC0BF078
:0227A400120021
:1027A600780EC86EF5EC0EF0F3EC03F0B0C13AF219
:1027B600DBEC03F0B1C13AF2DBEC03F0B2C13AF262
:1027C600DBEC03F0F1EC03F0020E0B6E380E0C6E30
:1027D600AD0E0D6E0D2EFED70C2EFCD70B2EFAD796
:0227E6001200DF
:1027E800740E0201446F000E456F466B476B486BD1
:1027F800496B85EC02F06D92699468A403D0FB0ED6
:062808006816FBD7120068
:10280E00D5EC06F06A6B6B6B5B6B5C6B6A6A686A25
:10281E0059EC07F06D8C6E6A710E0201446F0F0E4B
:10282E00456F466B010E476F000E486F4DEC03F07F
:10283E006D9C426B080E425D16E242C200F0000E25
:10284E00016E003600900136003600900136000E03
:10285E000024E16E040E0120E26EE66AE66AE66A84
:10286E00E66A422BE7D7160E706E68A603D0F70EF7
:10287E006816FBD70101586B5F6B606B616B6D98CF
:0E288E00080E506F040E516F4B6B4A6B120018
:04289C00A19A1200EB
:1028A000B0C1E2F1B1C1E3F1010E0101B025E46F65
:1028B000000EB121E56F020EB025E66F000EB121CA
:1028C000E76F030EB025E86F000EB121E96F050E2A
:1028D000B025EA6F000EB121EB6F060EB025EC6F4C
:0C28E000000EB121ED6FF5EC0BF01200C2
:1028EC006EC1E2F16FC1E3F1400E0101E46F010E24
:0828FC00E56FB2EC0DF01200D3
:102904006984EF0E68166D82750E0201446F000E25
:10291400456F466B476B486B496B85EC02F01200C0
:10292400010E0101666FB0C16EF1B1C16FF1B2C1A8
:102934006CF1B3C16DF1AFEC0EF0010E016E0150FC
:0A294400010A02E1FFEC0CF01200A2
:10294E0080A006D080B204D0320E0101546F07D0A1
:10295E0080B005D080A203D00101330E546F54C154
:04296E0000F0120063
:1029720001C5E2F102C5E3F103C5E4F104C5E5F1E5
:1029820005C5E6F106C5E7F12AEC0EF0B00E01012D
:10299200E26F010EE36F00EC0FF00501406B416B3B
:1029A200B0C142F5B1C143F5B2C144F5B3C145F579
:0E29B200B4C146F5B5C147F5B6C148F51200EF
:1029C00070A019D044C1E9FF45C1EAFFEECF01F084
:1029D0000150800A0FE150C1E9FF51C1EAFFEECF7B
:1029E00001F00150840A06E144C1E1FF45C1E2FF64
:0C29F0008C0EE66E7090DF0E6816120070
:1029FC00FD0E01016915016E026AFF0E0216000E32
:102A0C00021802E1000E01186EE17E0E6915016ECE
:102A1C0001C003F00332039E03C000F0000E016EF0
:102A2C00003600900136003600900136000E00246E
:102A3C00026E040E0120036E02C044F103C045F186
:102A4C0002C042F103C043F1040E4219006E00C0F3
:102A5C0042F102C0E9FF03C0EAFFEECF00F000C074
:102A6C0001F03C0E01160132019E0132019E015013
:102A7C000D0A36E1020E4425E96E000E4521EA6E80
:102A8C00EECF01F0EECF02F00250040A02E1280E64
:102A9C00011823E1020E4425E16E000E4521E26E81
:102AAC00200EE66E040EE66E0201426B080E425DCD
:102ABC0014E2200EE16E040EE26E4251E126D8B013
:102ACC00E22A280EE96E040EEA6E4251E926D8B0CD
:102ADC00EA2AEECFE6FF422BE9D78FEC0DF002D0BD
:102AEC005FEC0DF00ED0FD0E6915016E026AFF0E43
:102AFC000216000E021802E1040E011802E10FEC9E
:042B0C000DF01200B6
:102B10000101AC6BAD6B1FDE780EC86EF5EC0EF0EC
:102B200016DF000E00BEFF0E016E000E011802E15E
:102B3000330E0018D8A47BD00101E26BD8EC0BF067
:102B400000C034F1020E0B6E380E0C6EAD0E0D6E21
:102B50000D2EFED70C2EFCD70B2EFAD7936B080E3A
:102B6000935D63E23451AC5D01E35FD0966B946B8F
:102B70000C0E945D58E23451AC5D01E354D0956B7A
:102B8000150E955D29E2970EAE6F010EAF6F955150
:102B9000AE27D8B0AF2B3A0EE96E000EEA6E935115
:102BA000E926D8B0EA2AEECFB0F1420EE96E000E67
:102BB000EA6E9351E926D8B0EA2AEECFB1F196C178
:102BC000B2F174DCAEC1E1FFAFC1E2FF00C0E6FFCD
:102BD0000101962B952BD4D7760EE26F010EE36F91
:102BE00000EC0FF0AD51030806E2760EB06F010E57
:102BF000B16F56DEAD6BAD2B970EB06F010EB16F9E
:102C00007E0EB26F010EB36F9AEC10F07E0EB06FB5
:102C1000010EB16F760EB26F010EB36F6CDC010165
:102C2000AC2B942BA5D7932B9AD7AC6B79D70101FA
:102C3000290EE26F000EE36FE0EC0BF07A0E0B6EE4
:102C4000C10E0C6E810E0D6E0D2EFED70C2EFCD714
:0A2C50000B2EFAD70000000012005E
:102C5A007DDDBEEC11F0010E0201406FC7EC02F0FF
:102C6A000C0E0201406FC7EC02F0760EB06F010E37
:102C7A00B16F21EC12F0C50E0101B06F000EB16FF9
:102C8A00760EB26F010EB36F78DD5C0E0B6E510ECD
:102C9A000C6E600E0D6E0D2EFED70C2EFCD70B2E71
:102CAA00FAD70000FF0E8C6E0D0E0B6E2D0E0C6EF9
:102CBA00D70E0D6E0D2EFED70C2EFCD70B2EFAD783
:102CCA00000000008C6A070E0B6E170E0C6E6A0E5F
:102CDA000D6E0D2EFED70C2EFCD70B2EFAD7000048
:102CEA00FF0E8C6E070E0B6E170E0C6E6A0E0D6EB3
:102CFA000D2EFED70C2EFCD70B2EFAD700008C6AAD
:022D0A001200B5
:102D0C0001014A51010A07E16DBA05D0686A698070
:102D1C006988020E4A6F68A405D069A403D0FB0E23
:102D2C0068165CDD6DA202D0B3DD7AD068A018D035
:102D3C0069A016D066DD040E4A6F200E0401026FE6
:102D4C00040E036F080E016F000E0015006E00C01C
:102D5C0000F48C0E0011006E00C000F4FE0E68161C
:102D6C0068A805D069A803D0C7DDEF0E681668AC5B
:102D7C0011D069AC0FD0730E0201446F000E456F79
:102D8C00466B476B010E486F000E496F85EC02F0E5
:102D9C00BF0E681668AA03D069AA01D00BDE68A220
:102DAC0010D069A20ED0FF0E0201446F3F0E456F8A
:102DBC00466B476B010E486F000E496F85EC02F0B5
:102DCC006A6A040E01014A5D02E262DD29D069A63D
:102DDC0026D00201416B040E415D21E268A61BD096
:102DEC006CCF69F1F70E6816780E01016915016E4A
:102DFC000150000A02E1FCDD0DD0720E0201446F9D
:102E0C00000E456F690E466F010E476F486B496B9C
:102E1C0085EC02F001D003D00201412BDCD738DD68
:022E2C00120092
:102E2E000101866B876B886B896B8A6B8B6B8C6BE6
:102E3E008BDC780EC86EF5EC0EF03DEC10F0000E4B
:102E4E00B06F050EB16F400EB26F050EB36F63DD3E
:102E5E0077DD000E00BEFF0E016E000E011802E1BE
:102E6E00320E0018D8A4B9D26E0E0101E26F000E18
:102E7E00E36FE0EC0BF033DD00520CE161DD000E90
:102E8E0000BEFF0E016E000E011802E1320E001898
:102E9E0001E1F1D700C501F0000E026E000E02181E
:102EAE0002E1000E011842E1610E0101E26F000E17
:102EBE00E36FE0EC0BF01F0E0B6E710E0C6E1E0E20
:102ECE000D6E0D2EFED70C2EFCD70B2EFAD7000052
:102EDE0049DD400E0101B06F050EB16F400EB26FAD
:102EEE004AEC12F000520CE12BDD000E00BEFF0E7C
:102EFE00016E000E011802E1320E001801E1E9D751
:102F0E00770E0101E26F000EE36FE0EC0BF03D0E69
:102F1E000B6EE10E0C6E3F0E0D6E0D2EFED70C2EAF
:102F2E00FCD70B2EFAD70000000056D200C501F0D8
:102F3E00000E026E000E021802E1010E0118D8A456
:102F4E00E2D00101876B080E875DD8B08ED08B5111
:102F5E00010A02E18B6B89D0886B8A6B0C0E8A5D3D
:102F6E00D8B080D03DEC10F00501406B020E416FE1
:102F7E0087C142F50101896B150E895D2EE2030EA4
:102F8E008925006E016A000E0122400E00248D6F0D
:102F9E00050E01208E6F3A0EE96E000EEA6E875115
:102FAE00E926D8B0EA2AEECFB0F1420EE96E000E55
:102FBE00EA6E8751E926D8B0EA2AEECFB1F188C180
:102FCE00B2F156EC12F08DC1E1FF8EC1E2FF00C0EE
:102FDE00E6FF0101882B892BCFD70101400EB06F80
:102FEE00050EB16F400EB26F4AEC12F000520CE1BA
:102FFE00A7DC000E00BEFF0E016E000E011802E1EE
:10300E00320E001801E1E9D76ADC00520CE198DCBF
:10301E00000E00BEFF0E016E000E011802E1320E10
:10302E00001801E1F1D705010051020A18E0010E66
:10303E0001018B6FB20EE26F000EE36FE0EC0BF04E
:10304E003D0E0B6EE10E0C6E3F0E0D6E0D2EFED76D
:10305E000C2EFCD70B2EFAD70000000003D0010176
:10306E008A2B7CD70101872B6ED73DEC10F0050122
:10307E00406B030E416F400E0101B06F050EB16F34
:10308E00400EB26F4AEC12F000520CE159DC000E09
:10309E0000BEFF0E016E000E011802E1320E001886
:1030AE0001E1E9D701018B51000A15E1A50EE26F8E
:1030BE00000EE36FE0EC0BF03D0E0B6EE10E0C6EAE
:1030CE003F0E0D6E0D2EFED70C2EFCD70B2EFAD703
:1030DE000000000017D0000E0101E26F010EE36F39
:1030EE00E0EC0BF03D0E0B6EE10E0C6E3F0E0D6E16
:1030FE000D2EFED70C2EFCD70B2EFAD7000000009B
:10310E0001018B6B69D100C501F0000E026E000E3D
:10311E00021802E1070E0118D8A43ED10101B06BCE
:10312E0005010151010F0101B16F23EC10F00101F6
:10313E00876B080E875DD8B0C4D08C51010A02E1AE
:10314E008C6BBFD0886B8A6B0C0E8A5DD8B0B2D0F8
:10315E003DEC10F00501406B060E416F87C142F544
:10316E000101896B150E895D4BE23A0EE96E000E78
:10317E00EA6E8751E926D8B0EA2AEECFB0F188C1BF
:10318E00B1F1020E8925006E016A000E0122000EB9
:10319E000024E96E050E0120EA6EEECFB2F1D3ECFB
:1031AE0013F0030E01018925006E016A000E012243
:1031BE00400E00248D6F050E01208E6F3A0EE96EC3
:1031CE00000EEA6E8751E926D8B0EA2AEECFB0F1AA
:1031DE00420EE96E000EEA6E8751E926D8B0EA2A51
:1031EE00EECFB1F188C1B2F156EC12F08DC1E1FF14
:1031FE008EC1E2FF00C0E6FF0101882B892BB2D7FA
:10320E0002C501F0000E026E800E006E800E0218D6
:10321E00005C02E10150000846E20101400EB06F71
:10322E00050EB16F400EB26F4AEC12F000520DE176
:10323E00A7EC14F0000E00BEFF0E016E000E01187A
:10324E0002E1320E001801E1E8D776EC14F00052DC
:10325E000DE1A7EC14F0000E00BEFF0E016E000E85
:10326E00011802E1320E001801E1EFD705010051FD
:10327E00040A18E0010E01018C6F0B0EE26F010EB5
:10328E00E36FE0EC0BF03D0E0B6EE10E0C6E3F0E9D
:10329E000D6E0D2EFED70C2EFCD70B2EFAD700007E
:1032AE00000008D004D0010E0101866F03D0010189
:1032BE008A2B4AD701018651010A01E102D0872BE0
:1032CE0038D73DEC10F00501406B050E416F8CC1F7
:1032DE0042F5400E0101B06F050EB16F400EB26F98
:1032EE004AEC12F000520DE1A7EC14F0000E00BEF5
:1032FE00FF0E016E000E011802E1320E001801E100
:10330E00E8D701018C51000A15E1170EE26F010E8C
:10331E00E36FE0EC0BF03D0E0B6EE10E0C6E3F0E0C
:10332E000D6E0D2EFED70C2EFCD70B2EFAD70000ED
:10333E00000017D0270E0101E26F010EE36FE0ECE3
:10334E000BF03D0E0B6EE10E0C6E3F0E0D6E0D2E44
:10335E00FED70C2EFCD70B2EFAD700000000010171
:10336E008C6B01018651010A16E1D50EE26F000E3B
:10337E00E36FE0EC0BF03D0E0B6EE10E0C6E3F0EAC
:10338E000D6E0D2EFED70C2EFCD70B2EFAD700008D
:10339E00000001018C6B20D00101760EB06F010E82
:1033AE00B16F58EC10F0E30E0101B06F000EB16F6B
:1033BE00760EB26F010EB36FC2EC13F03D0E0B6EB4
:1033CE00E10E0C6E3F0E0D6E0D2EFED70C2EFCD7A1
:1033DE000B2EFAD7000000003BD556EC10F0F00E85
:1033EE00E26F000EE36FE0EC0BF03D0E0B6EE10EA4
:1033FE000C6E3F0E0D6E0D2EFED70C2EFCD70B2E27
:08340E00FAD7000000001200D3
:1034160098EC1BF01FDCA7EC14F03FD09C0E0101CA
:10342600E26F000EE36FE0EC0BF0FEDC3ED0810EA7
:103436000101E26F000EE36FE0EC0BF00C0E406F43
:10344600C7EC02F00D0E0B6E2D0E0C6ED70E0D6E28
:103456000D2EFED70C2EFCD70B2EFAD7000000003F
:1034660088EC15F022D08E0E0101B06F000EB16F00
:10347600BD0EB26F000EB36FC2EC13F03D0E0B6EB5
:10348600E10E0C6E3F0E0D6E0D2EFED70C2EFCD7E8
:103496000B2EFAD70000000008D001015451320A61
:0E34A600BDE05451330AC3E0DED7B5D7FFD7DF
:1037300010EE29F00A0E006E020E016EB40EF66E47
:0E374000340EF76E000EF86E60EC07F012000B
:1034B40054494D45204D4F444520455849544544B1
:0134C4000007
:0834C500A0A2A4A6A8AAACAEC7
:0834CD00A1A3A5A7A9ABADAFB7
:0734D500444154453A200078
:0234DC002F00BF
:0234DE003A00B2
:0234E0003A00B0
:0234E2002F00B9
:0734E40054494D453A200058
:0134EB0000E0
:0D34EC0053656E64696E672054696D65005C
:0934F900555342204D4F4445009B
:0A35020054696D652053656E740076
:0D350C0049324320525443204D6F64650046
:0E3519004F7065726174696F6E204E6F7400A2
:09352700555342204D6F6465000C
:0D353000456E74726965732053656E7400FA
:0B353D0052656164204572726F7200DD
:08354800416C6C6F77656400B3
:063550004348524F4E00FB
:0A355600456E74726965733A200037
:0E356000456E64206F66205369676E616C00D3
:0D356E004E6F204F7065726174696F6E00C2
:10357B00555342204D4F444520455849544544002E
:0B358B0052656164204572726F72008F
:0C3596005772697465204572726F7200F4
:1035A200456E7472696573205772697474656E0032
:0C35B2005772697465204572726F7200D8
:1035BE0076034D0069006E00640061006E006100CC
:1035CE006F0020005300740061007400650020003D
:1035DE0055006E0069007600650072007300690088
:1035EE007400790020002D00200049006C00690055
:1035FE00670061006E00200049006E0073007400C9
:10360E006900740075007400650020006F0066008C
:10361E00200054006500630068006E006F006C00AF
:06362E006F006700790047
:05363400000000000091
:0536390000000000008C
:05363E00000000000087
:05364300000000000082
:0536480000000000007D
:05364D00000000000078
:103652000000000000000000000000000000000068
:103662000000000000000000000000000000000058
:103672002A03480061007200640077006100720052
:1036820065002000430072006F006E0020004400BD
:0A3692006500760069006300650022
:10369C000902290001010080320904000002030024
:1036AC0000000921010100012221000705810340CE
:0936BC00000107050103400001B3
:0536C500000000000000
:0536CA000000000000FB
:0536CF000000000000F6
:0536D4000000000000F1
:0536D9000000000000EC
:0536DE000000000000E7
:0536E3000000000000E2
:1036E8000600FF0901A10119012940150026FF0064
:1036F8007508954081021901294075089540910285
:01370800C000
:10370900120100020000000801000100010001028D
:023719000001AD
:10371B0030313233343536373839414243444546FC
:04372B000403090486
:020000040030CA
:0E000000210E3F1EFF8381FF0FC00FE00F4057
:00000001FF
