:04000000E2EF38F003
:1000080000C01FF001C01EF002C01DF003C01CF0AC
:1000180004C01BF005C01AF006C019F008C018F09B
:1000280009C017F00AC016F00BC015F0E1CF28F090
:10003800E2CF29F0E9CF26F0EACF27F0F3CF24F07A
:10004800F4CF25F0F5CF23F0F8CF20F0F7CF21F04B
:10005800F6CF22F01FEC35F023C0F5FF20C0F8FFE3
:1000680021C0F7FF22C0F6FF24C0F3FF25C0F4FF2C
:100078001FC000F01EC001F01DC002F01CC003F03C
:100088001BC004F01AC005F019C006F018C008F02B
:1000980017C009F016C00AF015C00BF026C0E9FF1A
:0E00A80027C0EAFF28C0E1FF29C0E2FF1100D7
:1000B60098C7C9FFC7B002D00000FCD7C9CF00F06F
:0200C600120026
:1000C800F250026EF29E0500FF6A0150FE6E00506B
:0800D800FD6E02BEF28E120063
:1000E000898A1CC3E1FF1DC3E2FFFF0EE66E1AC33F
:0A00F00000F01BC301F0E8DF12006E
:1000FA00400E07018F25006E1CC3E1FF1DC3E2FFFE
:10010A0000C0E6FF1AC300F01BC301F0D8DF1CC30E
:10011A00E1FF1DC3E2FF93C7E6FF1AC300F01BC34A
:10012A0001F0CDDF1CC3E1FF1DC3E2FF92C7E6FF6A
:10013A001AC300F01BC301F0C2DF1CC3E1FF1DC3D9
:10014A00E2FF91C7E6FF1AC300F01BC301F0B7DF55
:10015A001CC3E1FF1DC3E2FF90C7E6FF1AC300F00C
:10016A001BC301F0ACDF1CC3E1FF1DC3E2FF94C750
:10017A00E6FF1AC300F01BC301F0A1DF0701966B6B
:10018A00976B1CC3E1FF1DC3E2FFFF0EE66E1AC3A5
:10019A0000F01BC301F093DF00C095F70701964BEF
:1001AA00972B800E0014016E0150000A07E0000E22
:1001BA00975D02E1640E965D01E2E3D795C700F010
:0201CA00120021
:0401CC00899A1200FA
:1001D0001CC3E1FF1DC3E2FFFF0EE66E1AC300F071
:1001E0001BC301F071DF0050FE0A01E0F1D71200DD
:1001F000A7C77CF2A8C77DF2A9C780F2AAC781F27F
:10020000800E0701AB11006E008000C07FF212006B
:10021000A7C77CF2A8C77DF2A9C77EF2AAC780F261
:10022000ABC781F2800E0701AC11006E00C07FF2F7
:020230001200BA
:0E023200800E0701A711006E00C07FF21200BF
:10024000000E056E040E066EA7C703F0000E046EC6
:10025000033604360390033604360390A8C700F033
:10026000000E016E0036013600900050032601504A
:10027000042203C001F004C002F0013601900236EE
:1002800001360190023601C003F002C004F00432CE
:100290000332049E04BC048E04320332049E04BC68
:1002A000048E03C000F004C001F000360090013657
:1002B000003600900136055000260650012200C08D
:1002C00005F001C006F000C0E1FF01C0E2FFE69EBC
:1002D0000701A851000A12E1A7C700F0000E016E45
:1002E0000036009001368C0E0024E16E020E0120D3
:1002F000E26E05C0E6FF06C0E6FF11D0A7C700F01A
:10030000000E016E0036009001361E0E0024E16ED4
:10031000030E0120E26E05C0E6FF06C0E6FF05C041
:10032000E1FF06C0E2FFE69C040E0524E16E000E2C
:080330000620E26EE68C1200CB
:1003380083C704F084C705F081C702F082C703F0C1
:1003480085C700F086C701F0010E0701855F000E22
:10035800865B005001100FE004C0E9FF05C0EAFF0A
:1003680002C0E1FF03C0E2FFEECFE6FF024A032A24
:10037800044A052AE5D781C700F082C701F01200B8
:100388000B6A0A6A096A00500402F4CF09F0F3CF35
:1003980008F001500502F4CF0BF0F3CF0AF000503B
:1003A8000502F3500926F4500A22E86A0B2201508C
:1003B8000402F3500926F4500A22E86A0B2208C006
:1003C80000F009C001F00AC002F00BC003F01200EF
:0E03D800030E0D6E0D2EFED700000000120069
:1003E600560E0C6EB50E0D6E0D2EFED70C2EFCD7CE
:0603F600000000001200EF
:1003FC0007018151200A09E081510D0804E3090E1F
:10040C00815D01E302D0006A02D0010E006E120081
:10041C00D7DE000E000A03E1040E0101921909E176
:10042C0081C789F782C78AF783C78BF784C78CF794
:10043C0014D0090E006E81C789F782C78AF783C76B
:10044C008BF784C78CF7005008E007018937899136
:10045C008A378B378C37FF0FF7D70701180E8F6F42
:10046C0089C790F78AC791F78BC792F78CC793F718
:10047C00FF0E946F3CDE005204E02CDE010E006E89
:10048C008BD01CC3E1FF1DC3E2FFFF0EE66E1AC347
:10049C0000F01BC301F012DE1CC3E1FF1DC3E2FF21
:1004AC00FF0EE66E1AC300F01BC301F007DE1CC37F
:1004BC00E1FF1DC3E2FFFE0EE66E1AC300F01BC384
:1004CC0001F0FCDD0701876B886B8851010802E1A4
:1004DC008751FF0815E387518525E96E88518621E0
:1004EC00EA6E1CC3E1FF1DC3E2FFEECFE6FF1AC3A9
:1004FC0000F01BC301F0E2DD0701874B882BE5D729
:10050C001CC3E1FF1DC3E2FFFF0EE66E1AC300F031
:10051C001BC301F0D3DD1CC3E1FF1DC3E2FFFF0EC3
:10052C00E66E1AC300F01BC301F0C8DD1CC3E1FF6B
:10053C001DC3E2FFFF0EE66E1AC300F01BC301F0F1
:10054C00BDDD00C087F7000E0701886F1F0E8715F1
:10055C00016E88C702F0000E021601C087F702C0B8
:10056C0088F7000E021802E1050E011804E0B2DD56
:10057C00020E006E11D01CC3E1FF1DC3E2FFFF0E83
:10058C00E66E1AC300F01BC301F098DD0050FF0AA1
:0A059C0001E0F1D79FDD006A1200B4
:0E05A600C70E0D6E0D2EFED7000000001200D5
:1005B40081C702F082C703F084C700F085C701F049
:1005C400010E0701845F000E855B0050011009E0F5
:1005D40002C0E1FF03C0E2FF83C7E6FF024A032A29
:0C05E400EBD781C700F082C701F01200C5
:1005F000EDDD000E000A03E1040E0101921909E18C
:1006000081C785F782C786F783C787F784C788F7CE
:1006100014D0090E006E81C785F782C786F783C79D
:1006200087F784C788F7005008E007018537859170
:10063000863787378837FF0FF7D70701120E8F6F7E
:1006400085C790F786C791F787C792F788C793F752
:10065000FF0E946F52DD005204E042DD010E006E89
:0606600001D0006A120047
:1006660081C7E9FF82C7EAFFEE5213E081C7E9FFBF
:1006760082C7EAFFEECF01F083C7D9FF84C7DAFF4E
:100686000150DE1806E10701814B822B834B842B38
:10069600E7D781C7E9FF82C7EAFFEECF00F083C73D
:1006A600D9FF84C7DAFFDE50005E016A000E015AE8
:0206B600120030
:1006B800030E07018125E96E000E8221EA6EEECF56
:1006C80009F0000E0A6E0B6E0C6E000E0A6E0B6EB1
:1006D8000C6E0BC003F00AC002F009C001F0006AFA
:1006E80000C009F001C00AF002C00BF003C00CF012
:1006F800020E8125D96E000E8221DA6EDE500024AA
:10070800056E000E0120066E000E0220076E000E18
:100718000320086E05C009F006C00AF007C00BF0F8
:1007280008C00CF007C003F006C002F005C001F0D5
:10073800006A00C009F001C00AF002C00BF003C053
:100748000CF0010E8125D96E000E8221DA6EDE5082
:100758000024056E000E0120066E000E0220076EB2
:10076800000E0320086E05C009F006C00AF007C095
:100778000BF008C00CF007C003F006C002F005C07B
:1007880001F0006A00C009F001C00AF002C00BF0D5
:1007980003C00CF081C7D9FF82C7DAFFDE500026FC
:1007A800000E01220222032200C009F001C00AF053
:1007B80002C00BF003C00CF000C009F001C00AF041
:0A07C80002C00BF003C00CF0120099
:1007D200FEDC0701836B846B020E845D02E1000E76
:1007E200835D1BE283518125856F84518221866F4F
:1007F2001CC3E1FF1DC3E2FFFF0EE66E1AC300F049
:100802001BC301F060DC85C7E1FF86C7E2FF00C0C1
:10081200E6FF0701834B842BDFD71CC3E1FF1DC317
:10082200E2FFFF0EE66E1AC300F01BC301F04BDCC1
:100832001CC3E1FF1DC3E2FFFF0EE66E1AC300F008
:080842001BC301F040DC1200B1
:10084A00C0DC000E000A03E1040E0101921909E15D
:10085A0081C789F782C78AF783C78BF784C78CF762
:10086A0014D0090E006E81C789F782C78AF783C739
:10087A008BF784C78CF7005008E007018937899104
:10088A008A378B378C37FF0FF7D70701110E8F6F17
:10089A0089C790F78AC791F78BC792F78CC793F7E6
:1008AA00FF0E946F25DC005204E015DC010E006E89
:1008BA0050D01CC3E1FF1DC3E2FFFF0EE66E1AC350
:1008CA0000F01BC301F064EC00F00050FE0A01E0E6
:1008DA00F0D70701876B886B020E885D02E1000E74
:1008EA00875D1CE2875185258D6F885186218E6F21
:1008FA001CC3E1FF1DC3E2FFFF0EE66E1AC300F040
:10090A001BC301F064EC00F08DC7E1FF8EC7E2FF64
:10091A0000C0E6FF0701874B882BDED71CC3E1FF27
:10092A001DC3E2FFFF0EE66E1AC300F01BC301F0FF
:10093A0064EC00F01CC3E1FF1DC3E2FFFF0EE66E8C
:10094A001AC300F01BC301F064EC00F070EC00F075
:04095A00006A12001D
:10095E001CC3E1FF1DC3E2FF4C0EE66E1AC300F08E
:10096E001BC301F064EC00F01CC3E1FF1DC3E2FFEA
:10097E00E66A1AC300F01BC301F064EC00F01CC35E
:10098E00E1FF1DC3E2FFE66A1AC300F01BC301F0CC
:10099E0064EC00F01CC3E1FF1DC3E2FFE66A1AC35C
:1009AE0000F01BC301F064EC00F01CC3E1FF1DC39B
:1009BE00E2FFE66A1AC300F01BC301F064EC00F01C
:1009CE001CC3E1FF1DC3E2FFFF0EE66E1AC300F06B
:1009DE001BC301F064EC00F00701826B836B1CC338
:1009EE00E1FF1DC3E2FFFF0EE66E1AC300F01BC34C
:1009FE0001F064EC00F000C081F70701824B832BFD
:100A0E00800E0014016E0150000A07E0000E835D97
:100A1E0002E1640E825D01E2E2D781AF05D070EC97
:100A2E0000F081C700F014D01CC3E1FF1DC3E2FF2C
:100A3E00FF0EE66E1AC300F01BC301F064EC00F06B
:100A4E0000C081F70050000AEFE070EC00F0006A81
:020A5E00120084
:100A60000701A351000A12E0A2C700F0000E016EB8
:100A70000036009001361E0E0024E96E030E0120A0
:100A8000EA6EEECF04F0EECF05F011D0A2C700F071
:100A9000000E016E0036009001368C0E0024E96EC7
:100AA000020E0120EA6EEECF04F0EECF05F0020E4A
:100AB0000424E16E000E0520E26EA4C7E6FFA5C780
:100AC000E6FF010E0424E16E000E0520E26EA6C7CB
:100AD000E6FF04C0E9FF05C0EAFFEECF00F004C066
:100AE000E1FF05C0E2FF400E0014E66E04C0E9FF1E
:100AF00005C0EAFFEECF00F004C0E1FF05C0E2FF51
:100B0000880E0010E66EA351000A1BE0A2C700F099
:100B1000000E016E0036009001361E0E0024026E9B
:100B2000030E0120036E02C0E9FF03C0EAFF040EBA
:100B3000EE18006E02C0E1FF03C0E2FF00C0E6FF56
:100B40001AD0A2C700F0000E016E003600900136E8
:100B50008C0E0024026E020E0120036E02C0E9FF1B
:100B600003C0EAFF040EEE18006E02C0E1FF03C0EE
:100B7000E2FF00C0E6FF04C000F005C001F0120073
:100B800020C401F01F0E01160150010A01E094D0AB
:100B900004012451000A01E08FD02151060A3DE1F1
:100BA00032D003016A51010A14E1120E0701A76F46
:100BB000780EA86F000EA96F120EA727000EA823AB
:100BC000A923090EAA6F000EAB6F400EAC6F08ECA4
:100BD00001F023D003016A51010A0FE15E0E070103
:100BE000A76F780EA86F000EA96F210EAA6F000ED6
:100BF000AB6F400EAC6F08EC01F00FD00701A76B94
:100C000019EC01F00AD004012351210ACAE0235152
:100C1000220AE0E02351230AF1E020C401F0600E33
:100C20000116050E006E005004E00132019EFF0F18
:100C3000FBD70150010A01E03FD02BD03DD03CD082
:100C40006B0E0701A76F030EA86F010EA96F000EB0
:100C5000AA6F400EAB6FF8EC00F02ED00701A76B27
:100C600019EC01F023C46BF327D00701680EA76FBE
:100C7000030EA86F010EA96F000EAA6FAB6BF8EC04
:100C800000F01AD00701A76B19EC01F022C468F339
:100C900013D004012151010AD1E02151090ACFE00A
:100CA0002151020ACDE021510A0AD8E02151030A5C
:0A0CB000DCE021510B0AE6E012001F
:100CBA00700EE16E0F0EE26E0701A251E126D8B066
:100CCA00E22AA3C7E6FFA3A505D0A2C7A7F7A86B88
:100CDA0020EC01F0A3A306D0A2C7A7F7010EA86FC4
:060CEA0020EC01F01200F5
:100CF000086A096A100E0C6E013408360936045071
:100D0000085E0550D8A0053C095ED8B007D0045055
:100D100008260550D8B0053C0926D8900036013683
:060D20000C2EEAD71200C0
:100D2600010E07018125E96E000E8221EA6EEECFE3
:100D360003F0000E046E000E046E03C001F0006A9C
:100D460000C003F001C004F081C7D9FF82C7DAFFF3
:100D5600DE500026000E012200C003F001C004F0A0
:0A0D660000C003F001C004F0120009
:100D7000EFC402F0F0C403F002C000F003C001F0C1
:100D8000024A032A00C0E9FF01C0EAFFEE5201E077
:100D9000F3D70401EF51025C006EF0510358016E6D
:0A0DA000010E005E000E015A120061
:100DAA0060C304F061C305F0EFC400F0F0C401F0C1
:100DBA009ADF00C0F7F401C0F8F4000E0401F96FDD
:100DCA00FA6F030154510401F725006E03015551CE
:100DDA000401F821016E030156510401F921026E42
:100DEA00030157510401FA21036E00C0F7F401C050
:100DFA00F8F402C0F9F403C0FAF4010E0701806F97
:100E0A0000C081F701C082F702C083F703C084F7EC
:100E1A00800E856F050E866F13DD005208E0100EF6
:100E2A000301626FFF0E006EFF0E016E90D060C369
:100E3A0004F061C305F0EFC400F0F0C401F053DF21
:100E4A0008C000F009C001F000C0F5F401C0F6F4D2
:100E5A0000C002F001C003F002360290033602C05D
:100E6A00F5F403C0F6F4800E0224E16E050E0320A9
:100E7A00E26EF1C4E6FF010E0401F525006E000ED4
:100E8A00F621016E800E0024E16E050E0120E26E4D
:100E9A00F2C4E6FFF7C481F7F8C482F7F9C483F70E
:100EAA00FAC484F7800E0701856F050E866F0EEC73
:100EBA0002F0005208E0050E0301626FFF0E006E99
:100ECA00FF0E016E44D0010E0401F36F000EF46FA1
:100EDA00000EF45D04E103014F510401F35D35E2B4
:100EEA00030152510401F725006E03015351040115
:100EFA00F821016E000EF921026E000EFA21036E2E
:100F0A0000C0F7F401C0F8F402C0F9F403C0FAF41F
:100F1A0000C081F701C082F702C083F703C084F7DB
:100F2A00800E0701856F050E866F0EEC02F00052E7
:100F3A0008E0050E0301626FFF0E006EFF0E016EE0
:100F4A0006D00401F34BF42BC3D7006A016A1200DE
:100F5A0052C300F053C301F060C304F061C305F04B
:100F6A00C4EC01F000C0EFF401C0F0F4020E040179
:100F7A00F16F000EF26F60C304F061C305F0020E58
:100F8A00006E000E016EAFDE00C0F3F401C0F4F48F
:100F9A00000EF56FF66F030154510401F3270301A4
:100FAA0055510401F423030156510401F5230301A9
:100FBA0057510401F62360C304F061C305F0020E21
:100FCA00006E000E016E8FDE08C000F009C001F04D
:100FDA0000C002F001C003F0023602900336800E10
:100FEA000224F76F050E0320F86FF3C481F7F4C4E7
:100FFA0082F7F5C483F7F6C484F7F8EC02F0010E21
:10100A000701806F800E816F050E826FE9EC03F095
:10101A000401F051F25D02E1EF51F15D2FE2F7C4F4
:10102A00E9FFF8C4EAFFEECF01F0EECF02F0000EBE
:10103A00021802E1000E011801E120D0020EF72584
:10104A00016E000EF821026E01C0F7F402C0F8F436
:10105A00F14BF22B02500201BB1902E1BA510118FD
:10106A000CE1800E0401F76F050EF86F800E070180
:10107A00816F050E826FE9EC03F0CAD76BDC005270
:10108A0008E0100E0301626FFF0E006EFF0E016E84
:10109A0010D00401F251F01902E1EF51F11905E102
:1010AA00FF0E006EFF0E016E04D0F1C400F0F2C410
:0410BA0001F012002F
:1010BE000401EF517A0804E3610EEF5DD8B0EF9BA7
:0610CE00EFC400F0120067
:1010D400220E0C6E086A096A0A6A0B6A0C06D8B4F6
:1010E4001FD0D8900B320A3209320832033202324E
:1010F40001320032D8A0F2D70C06D8B409D004507B
:1011040008260550092206500A2207500B22EAD766
:10111400045008260550092206500A2207500B22C3
:021124001200B7
:10112600EFC4F3F4F0C4F4F4F1C4F5F4F2C4F6F445
:101136000401F76BF86B000EF85D02E1080EF75D2F
:1011460019E2F3C4E9FFF4C4EAFFEE50200A01E114
:1011560011D0F3C4E9FFF4C4EAFFF5C4E1FFF6C415
:10116600E2FFEECFE6FFF54BF62BF34BF42BF74BF6
:10117600F82BE1D7080EEF25016E000EF021026E66
:1011860001C0F3F402C0F4F401C0E9FF02C0EAFFB3
:10119600EE50200A29E0F5C4E1FFF6C4E2FF2E0E68
:1011A600E66EF54BF62BF76BF86B000EF85D02E179
:1011B600030EF75D19E2F3C4E9FFF4C4EAFFEE504B
:1011C600200A01E111D0F3C4E9FFF4C4EAFFF5C433
:1011D600E1FFF6C4E2FFEECFE6FFF54BF62BF34B4D
:1011E600F42BF74BF82BE1D7F5C4E1FFF6C4E2FF89
:1011F600E66A0D0EF125E16E000EF221E26E0B0E8F
:10120600EF25E96E000EF021EA6EEECFE6FF1A0E2C
:10121600F125F96F000EF221FA6F1C0EEF2507017A
:10122600816F000E0401F0210701826F5CEC03F070
:10123600F9C4E1FFFAC4E2FF00C0E6FF01C0E6FF21
:1012460002C0E6FF03C0E6FF1E0E0401F125F96F9A
:10125600000EF221FA6F1A0EEF250701816F000EBC
:101266000401F0210701826F5BDDF9C4E1FFFAC4D6
:10127600E2FF00C0E6FF01C0E6FF0E0E0401EF2507
:10128600006E000EF021016E00C0E9FF01C0EAFF0A
:10129600EECF04F0010E0024E96E000E0120EA6E86
:1012A600EECF03F003C001F0006A04500024036E81
:1012B600000E0120046E03C0F7F404C0F8F40E0E0D
:1012C600F125006E000EF221016E030E0024E16E80
:1012D600000E0120E26E0B0E026E03C000F004C089
:1012E60001F0025005E001320032019EFF0FFAD7ED
:1012F60000C0E6FF0E0EF125006E000EF221016E13
:10130600040E0024E16E000E0120E26E050E026E50
:10131600F7C400F0F8C401F0025005E001320032D3
:10132600019EFF0FFAD73F0E0014006E00C0E6FFC5
:101336000E0EF125006E000EF221016E050E002440
:10134600E16E000E0120E26E1F0EF715026E02C05E
:1013560000F00036009000C0E6FF100EEF25006E8C
:10136600000EF021016E00C0E9FF01C0EAFFEECFDA
:1013760004F0010E0024E96E000E0120EA6EEECFA5
:1013860003F003C001F0006A04500024026E000E50
:101396000120036E02C0F7F403C0F8F40E0EF12527
:1013A600006E000EF221016E020E0024E16E000EA8
:1013B6000120E26E1F0E0214006E00C0E6FF0E0E44
:1013C600F125006E000EF221016E010E0024E16E81
:1013D600000E0120E26E050E026EF7C400F0F8C49E
:1013E60001F0025005E001320032019EFF0FFAD7EC
:1013F6000F0E0014006E00C0E6FF0E0EF125E16E22
:10140600000EF221E26E090E026EF7C400F0F8C477
:1014160001F0025005E001320032019EFF0FFAD7BB
:1014260000C0E6FF160EEF25006E000EF021016EDD
:1014360000C0E9FF01C0EAFFEECF04F0010E002470
:10144600E96E000E0120EA6EEECF03F003C001F054
:10145600006A04500024036E000E0120046E03C0CF
:10146600F7F404C0F8F4140EF125006E000EF22114
:10147600016E030E0024E16E000E0120E26E0B0EDB
:10148600026E03C000F004C001F0025005E0013214
:101496000032019EFF0FFAD700C0E6FF140EF125B9
:1014A600006E000EF221016E040E0024E16E000EA5
:1014B6000120E26E050E026EF7C400F0F8C401F0DA
:1014C600025005E001320032019EFF0FFAD73F0EAF
:1014D6000014006E00C0E6FF140EF125006E000E2B
:1014E600F221016E050E0024E16E000E0120E26E6F
:1014F6001F0EF715026E02C000F00036009000C005
:10150600E6FF180EEF25006E000EF021016E00C0FA
:10151600E9FF01C0EAFFEECF04F0010E0024E96EF8
:10152600000E0120EA6EEECF03F003C001F0006A60
:1015360004500024026E000E0120036E02C0F7F470
:1015460003C0F8F4140EF125006E000EF221016EB0
:10155600020E0024E16E000E0120E26E1F0E021440
:10156600006E00C0E6FF140EF125006E000EF2219B
:10157600016E010E0024E16E000E0120E26E050EE2
:10158600026EF7C400F0F8C401F0025005E0013223
:101596000032019EFF0FFAD70F0E0014006E00C036
:1015A600E6FF140EF125E16E000EF221E26E090E41
:1015B600026EF7C400F0F8C401F0025005E00132F3
:0E15C6000032019EFF0FFAD700C0E6FF1200B0
:1015D4000401EFBF02D0819E01D0818EEFBD02D005
:1015E400819C01D0818CEFBB02D0819A01D0818A89
:1015F400EFB902D0819801D08188030122B102D0D1
:10160400818601D081968184ECEC01F081940401FF
:10161400EFB702D0819E01D0818EEFB502D0819CBC
:1016240001D0818CEFB302D0819A01D0818AEFB1CD
:1016340002D0819801D08188030122B102D0818631
:1016440001D081968184ECEC01F0819422A103D035
:0C165400F3EC01F002D0D3EC02F0120025
:10166000F10E0401FC6F040EFD6FEFC4FEF4F0C434
:10167000FFF4F10E0701816F040E826F200E836F5D
:101680000B0E846F000E856FDAEC02F0EFC4E9FFF9
:10169000F0C4EAFFEE520EE0EFC4E9FFF0C4EAFF47
:1016A000EECF81F7FEEC01F0005204E00401EF4BB5
:1016B000F02BECD7EFC481F7F0C482F7930E07014B
:1016C000836F010E846F33EC03F0000E011802E10A
:1016D000000E001806E12E0E0401F16F2E0EF26FBF
:1016E00061D0EFC481F7F0C482F7960E0701836FD3
:1016F000010E846F33EC03F0000E011802E1000EBE
:10170000001804E12E0E0401F16F4CD0EFC4E9FF84
:10171000F0C4EAFFEE5221E0EFC4E9FFF0C4EAFFB3
:10172000EECF81F7FEEC01F0005217E1EFC4E9FFC4
:10173000F0C4EAFFEE502E0A10E0EFC4E9FFF0C457
:10174000EAFFFCC4E1FFFDC4E2FFEECFE6FF0401C7
:10175000FC4BFD2BEF4BF02BD9D7EFC4E9FFF0C4C6
:10176000EAFFEE502E0A03E10401EF4BF02B0401D7
:10177000F90EFC6F040EFD6FEFC4E9FFF0C4EAFF41
:10178000EE5020080FE2EFC4E9FFF0C4EAFFFCC40A
:10179000E1FFFDC4E2FFEECFE6FFFC4BFD2BEF4B7C
:1017A000F02BEAD7FEC481F7FFC482F7F10E0701E0
:1017B000836F040E846F0B0E856F000E866F9CEC9A
:0417C00001F0120022
:1017C400F3C401F0F4C402F0010E0401F35F000E4F
:1017D400F45B000E021802E1000E011822E0EFC4CF
:1017E400E9FFF0C4EAFFEECF01F0F1C4D9FFF2C47F
:1017F400DAFF0150DE1810E0EFC4E9FFF0C4EAFF9D
:10180400EECF00F0F1C4D9FFF2C4DAFFDE50005E7F
:10181400016A000E015A07D0EF4BF02BF14BF22B6B
:08182400CFD7006A016A12002F
:10182C000301155317E0010E0701A26F1E0EA36FE3
:10183C005DEC06F0010EA26FA36B11C3A4F712C3EB
:10184C00A5F7400EA66F30EC05F000C018F301C0F0
:10185C0019F316D00701010EA26F1E0EA36F5DECDB
:10186C0006F0010EA26FA36B11C3A4F712C3A5F768
:10187C00400EA66F30EC05F000C018F301C019F350
:02188C00120048
:0C188E000301155302E0C0EC05F012004D
:10189A00086A080E0C6E003408360450085ED8B088
:0E18AA0002D00826D89000360C2EF5D712007A
:1018B8000401E96BEA6BEB6BEC6BDF51E01103E1C0
:1018C800FF0E006EDFD0DFC4EFF4E0C4F0F4C4DE36
:1018D800030148515B1908E147515A1905E146517E
:1018E800591902E14551581905E150C3E5F451C3AE
:1018F800E6F40ED04BC300F04CC301F013C304F060
:1019080014C305F0C4EC01F000C0E5F401C0E6F42E
:1019180045C3E9F446C3EAF447C3EBF448C3ECF41F
:10192800800E0401E76F050EE86F45C381F746C3D3
:1019380082F747C383F748C384F7F8EC02F0010E37
:101948000701806F800E816F050E826FE9EC03F04E
:101958000401E36BE46BE651E45D02E1E551E35D0C
:10196800D8B084D0E7C4EFF4E8C4F0F4DFC4F1F4ED
:10197800E0C4F2F40B0EF36F000EF46F1FDF000EDD
:10198800011802E1000E001849E1AFEC04F0005222
:1019980006E0100E0301626FFF0E006E73D00401A3
:1019A800E151E21139E0E7C4EFF4E8C4F0F4E1C42E
:1019B800F1F4E2C4F2F493EC08F0200EE125E16EB4
:1019C800000EE221E26EE9C4E6FFEAC4E6FFEBC4DA
:1019D800E6FFECC4E6FF240EE125E16E000EE221ED
:1019E800E26E800E006E050E016E0050E75D036E1C
:1019F8000150E859046E050E026E03C000F004C0E1
:101A080001F0025005E001320032019EFF0FFAD7C3
:101A180000C0E6FF01C0E6FF006A34D00401200ED2
:101A2800E725016E000EE821026E01C0E7F402C04E
:101A3800E8F402500201BB1902E1BA51011812E19F
:101A4800010E0401E927000EEA23EB23EC23800EA4
:101A5800E76F050EE86F800E0701816F050E826F34
:101A6800E9EC03F00401E34BE42B75D7AFEC04F089
:101A7800005206E0100E0301626FFF0E006E02D0E6
:061A8800FF0E006E1200CB
:0E1A8E0003012291DFC4EFF49EDD22811200DD
:101A9C00C7B409D01F0EC514016E0150000A03E132
:0A1AAC00010E006E01D0006A120066
:101AB60060C304F061C305F0DFC400F0E0C401F0C8
:101AC60078EC06F000C0E1F401C0E2F4000E040177
:101AD600E36FE46F030154510401E125006E030135
:101AE60055510401E221016E030156510401E3211F
:101AF600026E030157510401E421036E00C0E1F4B4
:101B060001C0E2F402C0E3F403C0E4F4010E0701ED
:101B1600806F00C081F701C082F702C083F703C05F
:101B260084F7800E856F050E866F25EC04F0005253
:101B360008E0100E0301626FFF0E006EFF0E016ECD
:101B460022D060C304F061C305F0DFC400F0E0C436
:101B560001F078EC06F008C000F009C001F000C002
:101B660002F001C003F0023602900336800E022412
:101B76000701816F050E0320826F93EC06F000C00B
:081B8600DFF401C0E0F41200DD
:101B8E001A0E0401DF250701816F000E0401E0210A
:101B9E000701826F93EC06F0E3C4E1FFE4C4E2FFB9
:101BAE0000C0E6FF01C0E6FFE3C4E9FFE4C4EAFFBC
:101BBE00EECF00F0EECF01F0005001102DE1ADECB4
:101BCE0007F0E3C4E1FFE4C4E2FF00C0E6FF01C09A
:101BDE00E6FFE3C4E9FFE4C4EAFFEECF01F0EECF87
:101BEE0002F00250FF0A02E1FF0E011806E1040E98
:101BFE000301626FFF0E006E80D1E3C4E9FFE4C4FF
:101C0E00EAFFEECFEFF4EECFF0F4FF0E0401F16F2A
:101C1E00FF0EF26FD5EC06F0E3C4E9FFE4C4EAFF71
:101C2E00EECF00F0EECF01F0000E026E036E020E4C
:101C3E00005E000E015A025A035A4BC304F04CC305
:101C4E0005F0000E066E076E6AEC08F0E1C4E1FFC7
:101C5E00E2C4E2FF005003015C25E66E01505D21F7
:101C6E00E66E02505E21E66E03505F21E66E48512D
:101C7E005B1908E147515A1905E14651591902E11C
:101C8E004551581905E150C3E7F451C3E8F40ED09D
:101C9E004BC300F04CC301F013C304F014C305F0A2
:101CAE00C4EC01F000C0E7F401C0E8F445C3EBF466
:101CBE0046C3ECF447C3EDF448C3EEF4800E0401C2
:101CCE00E96F050EEA6F45C381F746C382F747C336
:101CDE0083F748C384F7F8EC02F0010E0701806F1A
:101CEE00800E816F050E826FE9EC03F00401E56B47
:101CFE00E66BE851E65D02E1E751E55DD8B0EED066
:101D0E00E9C4E9FFEAC4EAFFEECF01F00150E50AAB
:101D1E000AE0E9C4E9FFEAC4EAFFEECF01F0200EC3
:101D2E00015C01E3B3D0AFEC04F0005206E0100EFC
:101D3E000301626FFF0E006EE0D0E9C481F7EAC4C2
:101D4E0082F7DFC483F7E0C484F7200E0701856FA6
:101D5E00000E866F9CEC01F01A0E0401E925E16E6F
:101D6E00000EEA21E26EE3C4E9FFE4C4EAFFFF0ECF
:101D7E00EE14006E00C0E6FF1A0EE925006E000E8E
:101D8E00EA21016E010E0024E16E000E0120E26ECA
:101D9E00E3C4E9FFE4C4EAFFEECF03F0EECF04F0B4
:101DAE0004C000F0016A00C0E6FF0E0EE925E16EE8
:101DBE00000EEA21E26EBCC2E6FF0E0EE925006EB1
:101DCE00000EEA21016E010E0024E16E000E0120CC
:101DDE00E26EBDC2E6FF100EE925E16E000EEA21AD
:101DEE00E26E9EC2E6FF100EE925006E000EEA219D
:101DFE00016E010E0024E16E000E0120E26E9FC204
:101E0E00E6FF160EE925E16E000EEA21E26EBCC277
:101E1E00E6FF160EE925006E000EEA21016E010E98
:101E2E000024E16E000E0120E26EBDC2E6FF180E28
:101E3E00E925E16E000EEA21E26E9EC2E6FF180E63
:101E4E00E925006E000EEA21016E010E0024E16EFE
:101E5E00000E0120E26E9FC2E6FFEBC481F7ECC4D8
:101E6E0082F7EDC483F7EEC484F7800E0701856F09
:101E7E00050E866F0EEC02F0005206E0050E030111
:101E8E00626FFF0E006E39D0006A37D0200E04014B
:101E9E00E925016E000EEA21026E01C0E9F402C0CE
:101EAE00EAF402500201BB1902E1BA51011812E123
:101EBE00010E0401EB27000EEC23ED23EE23800E22
:101ECE00E96F050EEA6F800E0701816F050E826FB6
:101EDE00E9EC03F00401E54BE62B0BD7AFEC04F075
:101EEE00005206E0100E0301626FFF0E006E05D069
:0C1EFE000301060E626FFF0E006E120062
:101F0A00010E0701806F060E006E000E016EA0C260
:101F1A0004F0000E056EC4EC01F0A10E0026020EBC
:101F2A000122020E0024E96E000E0120EA6EEECFB5
:101F3A0081F7EECF82F7EECF83F7EECF84F7800EEC
:101F4A00856F050E866F25EC04F0005206E0100E30
:101F5A000301626FFF0E006EBAD08B0E0701816F0C
:101F6A00050E826F93EC06F000C049F301C04AF3F4
:101F7A008DC54BF3000E03014C6F8E0E0701816F66
:101F8A00050E826F93EC06F000C04DF301C04EF3CC
:101F9A0090C54FF3910E816F050E826F93EC06F098
:101FAA0000C050F301C051F3960E816F050E826F87
:101FBA0093EC06F000C052F301C053F3060E006E14
:101FCA00000E016EA0C204F0000E056EC4EC01F012
:101FDA00A10E0026020E0122020E0024E96E000E56
:101FEA000120EA6E03014D51EE24006E4E51EE209F
:101FFA00016E000EEE20026E000EEE20036E00C08F
:10200A0054F301C055F302C056F303C057F34FC34C
:10201A0000F0000E016E52C304F053C305F0C4EC85
:10202A0001F0000E026E036E545100265551012232
:10203A00565102225751032200C058F301C059F3E6
:10204A0002C05AF303C05BF3050E026E50C300F0E0
:10205A0051C301F0025005E0003600900136FF0F2F
:10206A00FAD749C304F04AC305F078EC06F0000E2B
:10207A00026E036E58510026595101225A5102220A
:10208A005B51032200C05CF301C05DF302C05EF342
:10209A0003C05FF349C360F34AC361F3613360333A
:1020AA00619F050E006E49C313F34AC314F300502F
:1020BA0005E014331333149FFF0FFAD758C345F3BF
:1020CA0059C346F35AC347F35BC348F3006A120085
:1020DA000B6A0A6A096A086A0E6A033408360450E7
:1020EA00085E0550D8A0053C095E0650D8A0063CFB
:1020FA000A5E0750D8A0073C0B5EE86AD8A0010E1A
:10210A000E5E0336070E0C6E0334083609360A369D
:10211A000B360E36045003A012D0085E0550D8A024
:10212A00053C095E0650D8A0063C0A5E0750D8A0B6
:10213A00073C0B5EE86AD8A0010E0E5E11D0082695
:10214A000550D8B0053C09260650D8B0063C0A26E8
:10215A000750D8B0073C0B26E86AD8B0010E0E2605
:10216A0003360C2ED1D70234083609360A360B3616
:10217A000E36045003A012D0085E0550D8A0053CC4
:10218A00095E0650D8A0063C0A5E0750D8A0073C54
:10219A000B5EE86AD8A0010E0E5E11D00826055023
:1021AA00D8B0053C09260650D8B0063C0A26075086
:1021BA00D8B0073C0B26E86AD8B0010E0E260236C4
:1021CA00070E0C6E0234083609360A360B360E36FE
:1021DA00045002A012D0085E0550D8A0053C095E42
:1021EA000650D8A0063C0A5E0750D8A0073C0B5EF2
:1021FA00E86AD8A0010E0E5E11D008260550D8B0A4
:10220A00053C09260650D8B0063C0A260750D8B025
:10221A00073C0B26E86AD8B0010E0E2602360C2EB1
:10222A00D1D70134083609360A360B360E36045031
:10223A0002A012D0085E0550D8A0053C095E0650DF
:10224A00D8A0063C0A5E0750D8A0073C0B5EE86A95
:10225A00D8A0010E0E5E11D008260550D8B0053C54
:10226A0009260650D8B0063C0A260750D8B0073CC3
:10227A000B26E86AD8B0010E0E260136070E0C6E40
:10228A000134083609360A360B360E36045001A0D8
:10229A0012D0085E0550D8A0053C095E0650D8A0A9
:1022AA00063C0A5E0750D8A0073C0B5EE86AD8A035
:1022BA00010E0E5E11D008260550D8B0053C09263D
:1022CA000650D8B0063C0A260750D8B0073C0B2661
:1022DA00E86AD8B0010E0E2601360C2ED1D700348A
:1022EA00083609360A360B360E36045001A012D0CB
:1022FA00085E0550D8A0053C095E0650D8A0063CE9
:10230A000A5E0750D8A0073C0B5EE86AD8A0010E07
:10231A000E5E11D008260550D8B0053C0926065095
:10232A00D8B0063C0A260750D8B0073C0B26E86A04
:10233A00D8B0010E0E260036070E0C6E0034083691
:10234A0009360A360B360E36045000A012D0085E43
:10235A000550D8A0053C095E0650D8A0063C0A5E86
:10236A000750D8A0073C0B5EE86AD8A0010E0E5EA3
:10237A0011D008260550D8B0053C09260650D8B019
:10238A00063C0A260750D8B0073C0B26E86AD8B0A4
:10239A00010E0E2600360C2ED1D700B00ED00450F6
:1023AA0008260550D8B0053C09260650D8B0063C88
:0C23BA000A260750D8B0073C0B26120082
:1023C6000401E06BE16B270EE15D02E1100EE05DBA
:1023D600D8B0B3D0000E000A02E1000EDF191AE1F0
:1023E600E6EC00F0010E07018F6F906B916B926B1C
:1023F600936BFF0E946F7DEC00F000C0E2F470EC7E
:1024060000F00401E251000A04E10101926B006A46
:1024160096D08FD0E6EC00F0370E07018F6F906BE9
:10242600916B926B936BFF0E946F7DEC00F000C086
:10243600E2F470EC00F00401E251010AD8A478D06D
:10244600E6EC00F0290E07018F6F000E906F000E6C
:10245600916F000E926F400E936FFF0E946F7DEC9E
:1024660000F000C0E2F470EC00F00401E251000A52
:102476005EE1000E000A02E1020EDF1953E1E6EC0E
:1024860000F03A0E07018F6F906B916B926B936B16
:10249600FF0E946F7DEC00F000C0E2F41CC3E1FF78
:1024A6001DC3E2FFFF0EE66E1AC300F01BC301F068
:1024B60064EC00F000C0E3F41CC3E1FF1DC3E2FFBF
:1024C600FF0EE66E1AC300F01BC301F064EC00F0C9
:1024D6001CC3E1FF1DC3E2FFFF0EE66E1AC300F048
:1024E6001BC301F064EC00F01CC3E1FF1DC3E2FF57
:1024F600FF0EE66E1AC300F01BC301F064EC00F099
:1025060070EC00F00401E251000A0BE1E3AD04D0E7
:10251600040E0101926F03D00101030E926F006A4F
:102526000ED005D00101010E926F006A08D001D0CD
:1025360004D00401E04BE12B46D7010E006E1200D9
:102546009CC702F09DC703F09FC700F0A0C701F02B
:10255600010E07019F5F000EA05B0050011009E00D
:1025660002C0E1FF03C0E2FF9EC7E6FF024A032A5C
:04257600EBD712008D
:10257A000ED016EC0CF03DD03CD047EC0CF039D024
:10258A0038D037D036D035D0000033D032D0000E14
:10259A0007019D1902E1010E9C19EBE0000E9D193D
:1025AA0002E1020E9C19E8E0000E9D1902E1030EF9
:1025BA009C19E3E09D51000A02E1730E9C19E0E0C8
:1025CA009D51000A02E1750E9C19DBE09D51000A3B
:1025DA0002E1740E9C19D6E09D513F0A02E1FF0EFA
:1025EA009C19D1E09D51000A02E1720E9C19CCE0BF
:0825FA00CDD7010E006E1200A6
:102602000401E36B0D0EE35D18E2E351DF25E46F95
:10261200000EE021E56FE351E125E96E000EE221B3
:10262200EA6EEECFEFF45FEC08F0E4C4E1FFE5C43C
:0C263200E2FF00C0E6FFE32BE5D712003A
:10263E00DFC4EFF4E0C4F0F4B8EC06F000C0E1F44F
:10264E000050000A03E1FF0E006E5BD0E1510C0852
:10265E0003E2FE0E006E55D0DFC4D9FFE0C4DAFFF0
:10266E002E0EDE1803E1FD0E006E4BD0E36BDFC4C1
:10267E00E4F4E0C4E5F4E1C4E2F4E251000820E23F
:10268E00E251DF25D96E000EE021DA6E2E0EDE1835
:10269E0015E1010EE36FE251080803E2FC0E006E35
:1026AE0030D0E251010F006E016A000E012200507F
:1026BE00DF25E46F0150E021E56F02D0E207DDD7A0
:1026CE00010EE31906E0E151080803E2FB0E006E6D
:1026DE0018D0010EE31914E1E4C4EFF4E5C4F0F4EC
:1026EE00B8EC06F000C0E1F40050000A03E1F50E6C
:1026FE00006E07D0E151030803E2F40E006E01D024
:04270E00006A12004B
:102712007CC404F07DC405F004C002F005C003F0DF
:10272200044A052A7EC400F07FC401F004017E4BF6
:102732007F2B00C0E9FF01C0EAFF02C0E1FF03C036
:10274200E2FFEECFE6FF02C0E9FF03C0EAFFEE526E
:0E27520001E0E2D77CC400F07DC401F012006B
:1027600003014351441109E1070E626FFF0E006E31
:10277000FF0E016E026E036EEED0010E0701806F38
:1027800004017F510301425D0EE104017E5103010A
:10279000415D09E104017D510301405D04E1040153
:1027A0007C5103013F5D09E23FC331F340C332F383
:1027B00041C333F342C334F308D07CC431F37DC446
:1027C00032F37EC433F37FC434F349C304F04AC305
:1027D00005F0000E066E076E31C300F032C301F043
:1027E00033C302F034C303F078DC4BC304F04CC3B2
:1027F00005F0000E066E076E70DC00C080F401C0AC
:1028000081F42FC335F330C336F3000E006E04019C
:102810008151005C02E18051000826E235C3DFF4FB
:1028200036C3E0F45BEC0DF000C035F301C036F3C5
:102830000150FF0A02E1FF0E001810E13FC331F31F
:1028400040C332F341C333F342C334F30A0E0301EE
:10285000626F006A016A026A036A7DD0010E040198
:10286000805F000E815BD1D749C304F04AC305F0F5
:10287000000E066E076E31C300F032C301F033C3A1
:1028800002F034C303F029DC4BC304F04CC305F061
:10289000000E066E076E21DC08C000F009C001F0D2
:1028A0000AC002F00BC003F000C03BF301C03CF3D0
:1028B00035C300F036C301F0000E026E036E020E47
:1028C000005E000E015A025A035A4BC304F04CC377
:1028D00005F0000E066E076E6AEC08F003015C510D
:1028E00000265D5101225E5102225F5103223B51BD
:1028F00000263C510122000E0222032200C037F3C1
:1029000001C038F302C039F303C03AF349C304F0FD
:102910004AC305F0000E066E076E31C300F032C3E5
:1029200001F033C302F034C303F06DEC10F008C0C3
:1029300000F009C001F00AC002F00BC003F000C0B3
:102940003DF301C03EF331C300F032C301F033C3A5
:0829500002F034C303F0120091
:1029580010D0800E04017C6F1AD0C00E7C6F17D087
:10296800940E7C6F14D0D40E7C6F11D0800E7C6FC7
:102978000ED004017C51010AECE07C51020AEDE022
:102988007C51030AEDE07C51040AEDE0EFD77D05A8
:10299800006E7C51002600C07CF400C0EFF4EAEC25
:1029A8000AF02291FF6BFF5104017E25E96E000EAB
:1029B8007F21EA6EEE520EE00301FF5104017E25ED
:1029C800E96E000E7F21EA6EEECFDFF447EC0DF0E2
:0A29D800FF2BE9D703012281120052
:1029E2000301FF6B030EFF5D0CE2FF5104017D2525
:1029F200E16E000E7E21E26E200EE66E0301FF2BD9
:102A0200F1D7FF5104017D25E16E000E7E21E26EB9
:102A1200E66A0301FF07FF5104017D257F6F000E67
:102A22007E21806F0A0E046E7CC400F04DEC0CF027
:102A320008C000F0300E00267FC4E1FF80C4E2FF30
:102A420000C0E6FF0A0E046E7CC400F04DEC0CF0F0
:102A520000C07CF40050000A01E103D00301FF072B
:042A6200DAD71200AD
:102A66000301FF6B010E0701806F816B826B836B25
:102A7600846B800E856F050E866F25EC04F0005280
:102A860006E0100E0301626FFF0E006EA1D1800EEC
:102A960004017E6F050E7F6FFE0E7E25E96E010E28
:102AA6007F21EA6EEE50550A03E0010E006E90D1CA
:102AB600FF0E7E25E96E010E7F21EA6EEE50AA0A10
:102AC60003E0010E006E84D10301FF6B7EC4E9FFB3
:102AD6007FC4EAFFEE50E90A02E1010EFF6F7EC4F1
:102AE600E9FF7FC4EAFFEE50EB0A0DE1020E040196
:102AF6007E25E96E000E7F21EA6EEE50900A03E114
:102B0600010E0301FF6F0301FF53D8B4BED00401C9
:102B1600826B836B846B856BA10E7C6F020E7D6F5F
:102B26007CC4E1FF7DC4E2FF800EE66E020E7C25CA
:102B3600E16E000E7D21E26EE66AE66AE66AE66A04
:102B460085EC0FF0800E0018016E800E000A015C05
:102B560003E2010E006E3CD152515311D8B488D015
:102B6600050194519311006E1FE094C582F4000E86
:102B76000401836F846F856F84C485F483C484F4F1
:102B860082C483F4826B0501935104018227000EEF
:102B9600832384238523010E7C25E16E000E7D218F
:102BA600E26E040EE66E11D00401A0C582F4A1C542
:102BB60083F4A2C584F4A3C585F4010E7C25E16ED9
:102BC600000E7D21E26E060EE66E82C400F083C41E
:102BD60001F084C402F085C403F003015C51005E79
:102BE6005D51015A5E51025A5F51035A4BC304F0BC
:102BF6004CC305F0000E066E076E6DEC10F000C0BB
:102C060082F401C083F402C084F403C085F4000E8C
:102C1600035C08E1000E025C05E10F0E015C02E1B7
:102C2600F50E005C0CE2010E04017C25E16E000E3F
:102C36007D21E26E010EE66E010E006EC9D0040122
:102C46008551000808E18451000805E18351FF0819
:102C560002E18251F5080BE2010E7C25E16E000EC1
:102C66007D21E26E0B0EE66E010E006EB1D00CD029
:102C76000401010E7C25E16E000E7D21E26E0B0E35
:102C8600E66E010E006EA4D0A2D004013E0E7E6F49
:102C9600070E7F6F806B816B000E815D02E1040E73
:102CA600805D58E2060E006E000E016E80C404F0D0
:102CB60081C405F0C4EC01F0A10E0026020E01222B
:102CC60000C07CF401C07DF47EC4E9FF7FC4EAFF46
:102CD60000C0E1FF01C0E2FFEECFE6FF040E7E2555
:102CE600006E000E7F21016E00C07EF401C07FF4ED
:102CF600010E7C25E16E000E7D21E26E00C0E9FF2B
:102D060001C0EAFFEECFE6FF040E7E25006E000E40
:102D16007F21016E00C07EF401C07FF4020E7C2587
:102D2600866F000E7D21876F00C081F701C082F794
:102D36005CEC03F086C4E1FF87C4E2FF00C0E6FF57
:102D460001C0E6FF02C0E6FF03C0E6FF0401804BB8
:102D5600812BA2D7060E006E000E016EA0C204F0F3
:102D6600000E056EC4EC01F0A10E0026020E012233
:102D7600010E0024E96E000E0120EA6EEE50040AF0
:102D86001AE0060E006E000E016EA0C204F0000EE0
:102D9600056EC4EC01F0A10E0026020E0122010E02
:102DA6000024E96E000E0120EA6EEE50060A03E0EA
:102DB600010E006E0DD085EC0FF0800E0018016E2E
:102DC600800E000A015C03E2010E006E01D0006A6B
:022DD6001200E9
:0A2DD800C582C5A201D0FDD712008C
:102DE2009E96C5869EB601D0FDD7C9CF01F00301DC
:102DF200FF51000A02E1C58A01D0C59A9E96C58894
:0C2E02009EB601D0FDD701C000F0120008
:042E0E00C584120065
:102E12007CC4DFF47DC4E0F411DC005206E0120E43
:102E22000301626FFF0E006E0DD2910E0401DF6F7F
:102E3200020EE06F7CC4E1F47DC4E2F401EC13F015
:102E420003014351441123E01C0E006E000E016E7B
:102E5200B9C204F0000E0201B9BFFF0E056EC4EC48
:102E620001F0BE0E0024E16E020E0120E26E1C0E85
:102E7200006E290EE96E030EEA6EEECFE6FF000643
:102E8200FCE10301436B446BFF0E0201B96FCA0EF2
:102E92000701816F040E826F910E836F020E846FA1
:102EA2000D0E856F000E866F9CEC01F0910E0401F1
:102EB200DF6F020EE06FA40EE16F040EE26F5CECB6
:102EC2000CF0800E0018016E800E000A015C69E2AF
:102ED20004017FAF60D0D76BD86BD96BDA6BDB6B39
:102EE200DC6B580E7F15006E06E0080E0301626F60
:102EF200FF0E006EA7D1800E0701816F040E826F54
:102F0200836B200E846F000E856FDAEC02F07F0E69
:102F120004017F15006E00C08BF4800E0701816FE3
:102F2200040E826F910E836F020E846F0B0E856FFB
:102F3200000E866F9CEC01F0800E0401DF6F040E20
:102F4200E06FD90EE16F040EE26FD70EE36F040E4D
:102F5200E46FC7EC0DF0800E0018016E800E000ABF
:102F6200015C03E2FF0E006E6DD1CA0E0401DF6F39
:102F7200040EE06FA40EE16F040EE26F5CEC0CF045
:102F8200800E0018016E800E000A015C03E2FF0E43
:102F9200006E58D106D00D0E0301626FFF0E006E57
:102FA20051D1580E0401B115006E06E0080E03015E
:102FB200626FFF0E006E46D10401A06BA16B000E82
:102FC200A15D02E1020EA05D4BE21C0E006E000E3E
:102FD200016EA0C404F0A1C405F0C4EC01F0BE0E61
:102FE2000026020E012200C0A2F401C0A3F41A0EB0
:102FF2000024E96E000E0120EA6EEE50EE102DE084
:10300200060EA225D96E000EA321DA6EDECF01F0E4
:10301200DECF02F0C351021802E10150C2191DE1D4
:103022001A0EA225E16E000EA321E26E7EC4E6FF17
:10303200000EE66E1C0E006E290EE16E030EE26EAD
:10304200A2C4E9FFA3C4EAFFEECFE6FF0006FCE15B
:10305200A0C4B9F2A0C400F0F5D0A04BA12BAFD709
:10306200A06BA16B000EA15D02E1020EA05DD8B0C3
:10307200E4D01C0E006E000E016EA0C404F0A1C4C8
:1030820005F0C4EC01F0BE0E0026020E01221A0E5B
:103092000024E96E000E0120EA6EEECF00F0EECFC2
:1030A20001F000500110D8A4C4D01C0E006E000E16
:1030B200016EA0C404F0A1C405F0C4EC01F0BE0E80
:1030C2000026020E012200C0A2F401C0A3F400C037
:1030D20081F701C082F70701836B1C0E846F000E1B
:1030E200856FDAEC02F0060E0401A225026E000ED4
:1030F200A321036E0C0EA225006E000EA321016E09
:1031020000C0E1FF01C0E2FFC2C4E6FFC3C4E6FFA4
:1031120000C0E9FF01C0EAFF02C0E1FF03C0E2FF15
:10312200EECFE6FFEECFE6FF1A0EA225E16E000E0D
:10313200A321E26E7EC4E6FF000EE66EA2C4E1FFAA
:10314200A3C4E2FFC4C4E6FFC5C4E6FFC6C4E6FFEB
:10315200C7C4E6FF040EA225E16E000EA321E26EB3
:10316200050E026EC8C400F0C9C401F0025005E0A9
:10317200003600900136FF0FFAD700C0E6FF01C00B
:10318200E6FF160EA225E16E000EA321E26EBEC47A
:10319200E6FFBFC4E6FFC0C4E6FFC1C4E6FF0E0EF1
:1031A200A225DD6F000EA321DE6F0C0EA225E96EB3
:1031B200000EA321EA6EEECF00F0EECF01F0000E7A
:1031C200026E036E020E005E000E015A025A035A8C
:1031D2004BC304F04CC305F0000E066E076E6AEC9A
:1031E20008F003015C5100265D5101225E5102226A
:1031F2005F510322DDC4E1FFDEC4E2FF00C0E6FF4F
:1032020001C0E6FF02C0E6FF03C0E6FF1C0E006E2F
:10321200290EE16E030EE26EA2C4E9FFA3C4EAFF27
:10322200EECFE6FF0006FCE1A0C4B9F2A0C400F0B4
:1032320009D00401A04BA12B15D7090E0301626F1F
:06324200FE0E006E1200FA
:1032480002017F8F710E07019C6F0F0E9D6F9E6BA1
:10325800010E9F6F000EA06FA3EC12F07A0E9C6F08
:10326800030E9D6F9E6B010E9F6F000EA06FA3EC67
:1032780012F022C46AF303016A51000A03E1100E36
:10328800006F11D0200E006F010E07019C6F000E19
:103298009D6F6A0E9E6F030E9F6F010EA06F000E4A
:0832A800A16FBDEC12F0120051
:1032B00004012251010A13E120C401F01F0E01167E
:1032C0000150000A0CE102017F8F04012151030A21
:1032D00004E1010E03017C6F02D003017C6B040149
:1032E0002251000AD8A48DD020C401F01F0E01166F
:1032F0000150020AD8A485D024C401F00F0E011693
:103300000150000AD8B47DD002017F8F040124BF90
:1033100016D024C403F00F0E031603C000F0000EF5
:10332000016E0036009001368C0E0024E96E020E0C
:103330000120EA6EEECF04F0EECF05F015D024C4E4
:1033400003F00F0E031603C000F0000E016E0036EE
:10335000009001361E0E0024E96E030E0120EA6E75
:10336000EECF04F0EECF05F02151030A07E104C0CF
:10337000E1FF05C0E2FF840EE66E43D024C400F0F6
:103380000F0E0016700E026E0F0E036E0050022616
:10339000D8B0032A02C0E9FF03C0EAFFFE0EEE1414
:1033A000006EEECF01F0FF0E011602C0E1FF03C078
:1033B000E2FF00C0E6FF01C0E6FF24AF11D004C069
:1033C000E1FF05C0E2FFE66A040E0418006E00C0CB
:1033D00004F004C0E1FF05C0E2FF400EE66E11D02C
:1033E00004C0E1FF05C0E2FF880EE66E040E04187B
:1033F000006E00C004F004C0E1FF05C0E2FFC80E8B
:04340000E66E120062
:1034040004012051800AD8A47BD0C00E02017F6F32
:103414006CD002017F0E006E780E016E000E026EFB
:1034240000C07CF201C07DF202C07EF2120E806FF9
:10343400000E816F65D00201030E006E000E016E56
:1034440022C404F0000E056EC4EC01F06E0E0024DC
:10345400E96E030E0120EA6EEECF7CF2EECF7DF230
:10346400EECF7EF2020E7C25F66E000E7D21F76E05
:10347400000E7E21F86E0900F5CF00F00900F5CFAB
:1034840001F000C080F201C081F23AD0030E0401C1
:10349400225D25E2030E006E000E016E22C404F0CC
:1034A400000E056EC4EC01F0710E0024E96E030EEB
:1034B4000120EA6EEECF7CF2EECF7DF2EECF7EF20B
:1034C4007CC2F6FF7DC2F7FF7EC2F8FF0900F5CF8C
:1034D40000F000C080F2000E0201816F02D00201F0
:1034E4007F6B0ED002017F6B0BD004012351010AC4
:1034F40090E02351020A9FE02351030AC7E0F2D768
:023504001200B3
:10350600000E0201815D02E1080E805D11E280C2BB
:1035160003F081C204F003016351000A03E1010EC6
:10352600636F05D06351010A02E1020E636F04D096
:10353600080E036E000E046E03011EC3E1FF1FC3D7
:10354600E2FFE6921EC3E1FF1FC3E2FFE6901EC341
:10355600E9FF1FC3EAFFEECF00F01EC3E1FF1FC362
:10356600E2FF04500010E66E010E1E25E16E000E0D
:103576001F21E26E03C0E6FF03500201805D006E6C
:1035860004508159016E00C080F201C081F2280EFC
:1035960003017D6F040E7E6F02017FB131D00350AF
:1035A60004102DE07CC2F6FF7DC2F7FF7EC2F8FF55
:1035B6000900F5CF00F07DC3E1FF7EC3E2FF00C046
:1035C600E6FF03017D4B7E2B010E02017C25006E7A
:1035D600000E7D21016E000E7E21026E00C07CF27F
:1035E60001C07DF202C07EF2010E035C006E000E89
:1035F6000458016E00C003F001C004F0D0D726D0F5
:103606000350041023E07CC2E9FF7DC2EAFF7DC3BC
:10361600E1FF7EC3E2FFEECFE6FF03017D4B7E2B8B
:10362600010E02017C25006E000E7D21016E00C098
:103636007CF201C07DF2010E035C006E000E0458A0
:0E364600016E00C003F001C004F0DAD71200DC
:10365400050E0101926F929A70EC00F004017C6BEC
:103664007D6B000E7D5D02E10A0E7C5D10E21CC3E1
:10367400E1FF1DC3E2FFFF0EE66E1AC300F01BC399
:1036840001F064EC00F004017C4B7D2BEAD7E6ECFE
:1036940000F007018F6B906B916B926B936B950E9F
:1036A400946F7DEC00F000C0FFF370EC00F00301B8
:1036B400FF51010A03E0010E006E86D0E6EC00F033
:1036C400080E07018F6FAA0E906F010E916F000E06
:1036D400926F936F870E946F7DEC00F000C0FFF340
:1036E4001CC3E1FF1DC3E2FFFF0EE66E1AC300F028
:1036F4001BC301F064EC00F01CC3E1FF1DC3E2FF37
:10370400FF0EE66E1AC300F01BC301F064EC00F078
:103714001CC3E1FF1DC3E2FFFF0EE66E1AC300F0F7
:103724001BC301F064EC00F01CC3E1FF1DC3E2FF06
:10373400FF0EE66E1AC300F01BC301F064EC00F048
:1037440070EC00F00301FF51010A0CE0010E0401CA
:10375400DF6FE3EC11F0005204E00401DF6BE3ECF3
:1037640011F005D0020E0401DF6FE3EC11F0000E3E
:10377400000A03E1050E0101921903E1020E006E35
:1037840023D0000E000A03E10101040E92191BE08C
:10379400E6EC00F0100E07018F6F000E906F020E22
:1037A400916F000E926F936FFF0E946F7DEC00F09B
:1037B40000C0FFF370EC00F00301FF51000A03E0C6
:0A37C400030E006E01D0006A12002F
:1037CE00010E0701806F800E816F050E826F836B75
:1037DE00000E846F020E856FDAEC02F00301FF6BB0
:1037EE00020EFF5D1BE21C0E006E000E016EFFC38B
:1037FE0004F0000E056EC4EC01F0BE0E00240701AD
:10380E00816F020E0120826F836B1C0E846F000E7F
:10381E00856FDAEC02F00301FF2BE2D7290E0701C8
:10382E00816F030E826F836B1C0E846F000E856F8B
:10383E00DAEC02F00301FF6B040EFF5D1BE2060ED5
:10384E00006E000E016EFFC304F0000E056EC4EC98
:10385E0001F0A10E00240701816F020E0120826F7C
:10386E00836B060E846F000E856FDAEC02F0030197
:10387E00FF2BE2D7490E0701816F030E826F836B18
:10388E00170E846F000E856FDAEC02F0800E0201C7
:10389E00BA6F070EBB6FA06B0301456B466B476B90
:1038AE00486B626B0201F66BF76B03010D6B0E6BCF
:1038BE000F6B106BFF0E0201B96F910E0701816F36
:1038CE00020E826F836B0D0E846F000E856FDAEC25
:0E38DE0002F00201BC6BBD6B9E6B9F6B120073
:1038EC000401286B296B4AD002017F8F04012881C7
:1038FC0003017C51010A02E10401288354D0020126
:10390C007F8F51D002017F8F040124BF16D024C4B5
:10391C0003F00F0E031603C000F0000E016E00360C
:10392C00009001368C0E0024E96E020E0120EA6E26
:10393C00EECF04F0EECF05F015D024C403F00F0E3B
:10394C00031603C000F0000E016E00360090013625
:10395C001E0E0024E96E030E0120EA6EEECF04F079
:10396C00EECF05F004C0E9FF05C0EAFFEECF01F091
:10397C0001A403D00401010E286F15D020C401F05E
:10398C001F0E01160150000AAFE020C401F01F0EFB
:10399C0001160150010AB3E020C401F01F0E0116FC
:1039AC000150020AAFE002017FAF07D0280E7C6FF6
:0C39BC00040E7D6F7F81020E806F1200F0
:1039C8000301FF51390806E3300EFF5D03E3010EE2
:0839D800006E01D0006A12002C
:1039E00004017C6B7D6B7D51120802E17C518E08D5
:1039F00009E34EEC0DF0005201E004D004017C4BD1
:103A00007D2BF1D70401120E7D5D02E18F0E7C5DEE
:103A100003E37B0E006E05D0C580C5A001D0FDD7A5
:043A2000006A120026
:103A24009E96FFC3C9FFC7A401D0FDD79EB601D09F
:103A3400FDD7C5BC02D0006A03D0C584020E006E57
:023A440012006E
:103A4600010E0401EF6FEAEC0AF00F0E0401EF6FAE
:103A5600EAEC0AF0010E04017C6F010E7D6FF5C3DE
:0C3A66007EF4F6C37FF4ACEC14F0120008
:103A72000301F56BEEDD0301F52B005204E0320E7B
:103A8200F55D01E2F7D7320EF55D03E3FF0E006E3E
:0A3A920003D09CDE33EC15F01200A7
:103A9C00F5C3E9FFF6C3EAFFEECFF7F3000E03011F
:103AAC00F86F000EF86F000EF81902E1200EF719EE
:103ABC0007E0000EF81902E1090EF71901E003D036
:103ACC00F54BF62BE5D7F96BFA6BFB6BFC6B000E29
:103ADC00F81902E12D0EF71905E1FB4BFC2BF54B08
:103AEC00F62B08D0000EF81902E12B0EF71902E1A3
:103AFC00F54BF62BF5C3E9FFF6C3EAFFEECFF7F370
:103B0C00000EF86F000EF86FF7C3FFF357DF00528B
:103B1C0019E0F9C300F0FAC301F00A0E046E000EAE
:103B2C00056EC4EC01F0300EF75D026E000EF85914
:103B3C00036E02500024F96F03500120FA6FF54B0D
:103B4C00F62BD8D7FB51FC1108E0F9510008006E98
:103B5C00FAC301F0000E015604D0F9C300F0FAC309
:043B6C0001F0120052
:103B7000060E03014315006E44C301F0000E01164A
:103B80000050011003E1070E626F23D2F751F811C4
:103B900001E11FD2010E0701806F03013E51020AAD
:103BA00002E1000E3D1922E0000E3E1902E1000E76
:103BB0003D1907E14A51F85D02E14951F75D01E322
:103BC00015D037C381F738C382F739C383F73AC3B7
:103BD00084F7800E0701856F050E866F25EC04F0D3
:103BE000005204E0100E0301626FF3D10301F96B80
:103BF000FA6BF851FA5D02E1F751F95DD8B015D1D1
:103C00003E51020A02E1000E3D19D8A4F2D0F9514A
:103C1000FA1129E037C381F738C382F739C383F734
:103C20003AC384F7800E0701856F050E866F0EEC90
:103C300002F0005218E00301F9513125006EFA51EB
:103C40003221016E000E3321026E000E3421036E0C
:103C500000C031F301C032F302C033F303C034F3C8
:103C6000050E626FB6D103013D6B3E6B010E372529
:103C7000006E000E3821016E000E3921026E000E1A
:103C80003A21036E00C037F301C038F302C039F3A4
:103C900003C03AF3010E3B25006E000E3C21016E7D
:103CA00000C03BF301C03CF33C514C1902E14B51C5
:103CB0003B196AE135C3DFF436C3E0F45BEC0DF089
:103CC00000C0FBF301C0FCF30150FF0A02E1FF0E4C
:103CD00000182DE1ADEC07F000C0FBF301C0FCF3D0
:103CE0000150FF0A02E1FF0E00180CE13FC331F35F
:103CF00040C332F341C333F342C334F30A0E03012A
:103D0000626F67D135C3EFF436C3F0F4FBC3F1F44F
:103D1000FCC3F2F4D5EC06F0FBC3EFF4FCC3F0F403
:103D2000FF0E0401F16FFF0EF26FD5EC06F0FBC33E
:103D300035F3FCC336F303013B6B3C6B35C300F03A
:103D400036C301F0000E026E036E020E005E000E1E
:103D5000015A025A035A4BC304F04CC305F0000E3B
:103D6000066E076E6AEC08F05C5100265D51012278
:103D70005E5102225F51032200C037F301C038F3C5
:103D800002C039F303C03AF3F951F75D016EFA51FD
:103D9000F859026E020E025C02E1000E015C29E29B
:103DA00037C381F738C382F739C383F73AC384F73F
:103DB000800E0701856F050E866F25EC04F000521A
:103DC00018E00301F9513125006EFA513221016EDC
:103DD000000E3321026E000E3421036E00C031F359
:103DE00001C032F302C033F303C034F3100E626F2C
:103DF000F0D00301800E3D25E16E050E3E21E26EFE
:103E0000F951F525E96EFA51F621EA6EEECFE6FF9B
:103E1000010E3D25006E000E3E21016E00C03DF3F7
:103E200001C03EF3F94BFA2BE4D63D513E1115E0AB
:103E300037C381F738C382F739C383F73AC384F7AE
:103E4000800E0701856F050E866F0EEC02F00052A2
:103E500004E0050E0301626FBCD00301F751312568
:103E6000016EF8513221026E000E3321036E000EF6
:103E70003421046E01C031F302C032F303C033F3C6
:103E800004C034F30450425D08E10350415D05E194
:103E90000250405D02E101503F5D08E231C33FF353
:103EA00032C340F333C341F334C342F329C381F730
:103EB0002AC382F72BC383F72CC384F7800E070134
:103EC000856F050E866F25EC04F0005204E0100E9D
:103ED0000301626F7ED00301800E2D25006E050E5A
:103EE0002E21016E00C0FDF301C0FEF31C0E002464
:103EF000E16E000E0120E26E3FC3E6FF1C0EFD25C1
:103F0000006E000EFE21016E010E0024E16E000E17
:103F10000120E26E40C3E6FF1C0EFD25006E000E80
:103F2000FE21016E020E0024E16E000E0120E26E01
:103F300041C3E6FF1C0EFD25006E000EFE21016E42
:103F4000030E0024E16E000E0120E26E42C3E6FF84
:103F5000160EFD25E16E000EFE21E26EBCC2E6FFEC
:103F6000160EFD25006E000EFE21016E010E0024CE
:103F7000E16E000E0120E26EBDC2E6FF180EFD25C7
:103F8000E16E000EFE21E26E9EC2E6FF180EFD25D8
:103F9000006E000EFE21016E010E0024E16E000E87
:103FA0000120E26E9FC2E6FF29C381F72AC382F790
:103FB0002BC383F72CC384F7800E0701856F050E92
:103FC000866F0EEC02F0005204E0050E0301626FF2
:043FD00000D012000B
:0A3FD400D08EA28AA08AF28E12009D
:103FDE00F5C304F0F6C305F004C0E9FF05C0EAFF1F
:103FEE00EE5203E0044A052AF7D704C002F005C0DA
:103FFE0003F0044A052AF7C300F0F8C301F00301E9
:10400E00F74BF82B00C0E9FF01C0EAFF02C0E1FF49
:10401E0003C0E2FFEECFE6FF02C0E9FF03C0EAFFF6
:10402E00EE5201E0E2D7F5C300F0F6C301F0120044
:10403E0020C401F0600E0116050E006E005004E063
:10404E000132019EFF0FFBD70150000A01E06DD037
:10405E0049D002017F8F080E0301006F66D002EC7B
:10406E001AF063D024EC19F060D06A0E02017C6F56
:10407E00030E7D6F7F81010E806F7F8F56D02FDCF8
:10408E0054D058EC19F051D07A0E006E030E016E1A
:10409E00040124510026D8B0012A00C07CF201C0D0
:1040AE007DF202017F81010E806F7F8F3ED0020173
:1040BE007F8F7A0EE16E030EE26E04012451E1262B
:1040CE00D8B0E22A22C4E6FF30D0020E07019C6F60
:1040DE00000E9D6F9E6B9F6BA06BA16BBDEC12F0E3
:1040EE0024D023D004012151050AB3E02151060A40
:1040FE00B6E02151090AB6E02151080AB6E0215175
:10410E00000ABDE02151010ABCE02151030AB9E0C9
:10411E0021510A0AB9E021510B0AC9E02151070ABF
:0C412E00D4E021510C0ADDE0DCD71200C7
:10413A00010E03016625E96E000E6721EA6EEECFD5
:10414A0000F000C002F0000E0201865D02E102509A
:10415A00855D03E285C202F00AD00250855D006ED9
:10416A00000E8659016E00C085F201C086F2036A0C
:10417A000250035C1CE2280EE96E040EEA6E03503C
:10418A00E926D8B0EA2AEECF00F082C2E1FF83C264
:10419A00E2FF00C0E6FF010E8225006E000E8321B9
:1041AA00016E00C082F201C083F2032AE1D7000E39
:1041BA00006E8651005C02E18551000829E2010E79
:1041CA0003016C25E16E000E6D21E26E080EE66EAB
:1041DA00020E6C25E16E000E6D21E26E280EE66E6F
:1041EA00040EE66E66C3E9FF67C3EAFFEECF00F08E
:1041FA0000BC07D06CC3E1FF6DC3E2FFC80EE66ED8
:10420A0006D06CC3E1FF6DC3E2FF880EE66E1BD0D9
:10421A000301010E6C25E16E000E6D21E26E080E9F
:10422A00E66E020E6C25E16E000E6D21E26E200E26
:10423A00E66E040EE66E6CC3E1FF6DC3E2FF840E08
:08424A00E66E0201849F1200E0
:104252006D9802017FBF4BD084AF29D0020E0301BB
:10426200696F010E1E25E16E000E1F21E26EE66AE5
:104272001EC3E1FF1FC3E2FFC80EE66E010E6C25EE
:10428200E16E000E6D21E26E080EE66E020E6C25E6
:10429200E16E000E6D21E26E280EE66E040EE66EF1
:1042A2006CC3E1FF6DC3E2FFC80EE66E1FD00301CF
:1042B200010E6C25E16E000E6D21E26E080EE66EB7
:1042C200020E6C25E16E000E6D21E26E200EE66E8E
:1042D200040EE66E6CC3E1FF6DC3E2FF8C0EE66E68
:1042E2001EC3E1FF1FC3E2FF840EE66E85D002010A
:1042F20084BF82D0040120AF57D002018151040152
:10430200275D04E1020180510401265D04E226C416
:1043120080F227C481F283EC1AF0010E0301696F67
:10432200010E6C25E16E000E6D21E26E080EE66E46
:10433200020E6C25E16E000E6D21E26E200EE66E1D
:10434200040EE66E6CC3E1FF6DC3E2FF800EE66E03
:10435200646B010E6625E16E000E6721E26E080EA7
:10436200E66E020E6625E16E000E6721E26E200EF9
:10437200E66E040EE66E66C3E1FF67C3E2FF840EDB
:10438200E66E010E646F020E1E25E16E000E1F2105
:10439200E26E280EE66E040EE66E1EC3E1FF1FC338
:1043A200E2FFC80EE66E28D00301020E696F010E0D
:1043B2001E25E16E000E1F21E26EE66A1EC3E1FFBA
:1043C2001FC3E2FFC80EE66E010E6C25E16E000E01
:1043D2006D21E26E080EE66E020E6C25E16E000E95
:1043E2006D21E26E280EE66E040EE66E6CC3E1FFEE
:0A43F2006DC3E2FFC80EE66E120074
:1043FC00F0EC1CF0D00E0301FF6F12EC1DF003016A
:10440C00FF6B12EC1DF0ECEC16F0D10E0301FF6FFC
:10441C0012EC1DF0010E0301FF6FF1EC16F06EC4EF
:10442C00E1FF6FC4E2FF00C0E6FF010E0301FF6F66
:10443C00F1EC16F070C4E1FF71C4E2FF00C0E6FFBE
:10444C00010E0301FF6FF1EC16F072C4E1FF73C4AF
:10445C00E2FF00C0E6FF010E0301FF6FF1EC16F066
:10446C0074C4E1FF75C4E2FF00C0E6FF010E030156
:10447C00FF6FF1EC16F076C4E1FF77C4E2FF00C0E9
:10448C00E6FF010E0301FF6FF1EC16F078C4E1FFBB
:10449C0079C4E2FF00C0E6FF0301FF6BF1EC16F0FC
:1044AC007AC4E1FF7BC4E2FF00C0E6FF07EC17F023
:0244BC001200EC
:1044BE000301FA6BFB6BF5C3FCF3000EF5BFFF0EA9
:1044CE00FD6F800EF519006E800E000A005C0AE288
:1044DE00FA4BFB2BF5510008FC6FFD6B000EF5BF80
:1044EE00FF0EFD5BFCC37CF4F6C37DF4F7C37EF4D4
:1044FE00F1EC14F0040E0301F86F000EF96F000ECC
:10450E00006EF951005C02E1F851000819E2F85111
:10451E00F625E16EF951F721E26E010EF85D006E9F
:10452E00000EF959016E0050F625E96E0150F72183
:10453E00EA6EEECFE6FF010EF85F000EF95BDFD7F5
:10454E00F6C3E1FFF7C3E2FF200EE66EFA51FB1150
:10455E001AE0F86BF96BF851F625E96EF951F7216F
:10456E00EA6EEE50200A03E1F84BF92BF4D7010E58
:10457E00F85F000EF95BF851F625E16EF951F7215F
:08458E00E26E2D0EE66E120034
:104596000301696B1EC3E1FF1FC3E2FFE66A040E57
:1045A6001E19E16E1FC3E2FF000EE21AE66A02015F
:0845B60084AF01D0849F1200C4
:1045BE00F5C302F0F6C303F0F8C300F0F9C301F03F
:1045CE00010E0301F85F000EF95B0050011009E0C7
:1045DE0002C0E1FF03C0E2FFF7C3E6FF024A032A6F
:0445EE00EBD71200F5
:1045F200B9C2F8F362C3FAF3F5C37CF4F6C37DF4EF
:10460200070E04017E6FF7C37FF409EC17F000C0B8
:10461200F9F3800E0018016E800E000A015C39E287
:104622000301F951FE0A33E1FAC362F31C0E006E74
:10463200000E016EF8C304F0000EF8BFFF0E056E07
:10464200C4EC01F0BE0E0026020E01221A0E002456
:10465200E16E000E0120E26EE66AE66AF5C37CF4C2
:10466200F6C37DF4070E04017E6FF7C37FF409ECF5
:1046720017F000C0F9F3800E0018016E800E000AD8
:10468200015C02E2006A07D0020E006E04D0006AEA
:0846920002D0010E006E1200BF
:10469A00120E03016E6F780E6F6F000E706FB50EFB
:1046AA00716F780E726F000E736F340E746F770E1F
:1046BA00756F000E766FE80E776F770E786F000EC3
:0446CA00796F1200F2
:1046CE006E0E04017C6F040E7D6FF5C37EF4F6C38F
:1046DE007FF489EC13F070C46EF471C46FF4706BD8
:1046EE00F5C37CF4F6C37DF46E0E7E6F040E7F6F01
:0646FE0089EC13F012002C
:10470400070E0301F65D02E1BC0EF55D04E3BC0E89
:10471400F55F070EF65B7F0EF517000EF6170F0E0A
:10472400F715016E01C0F7F301500C0802E20C0EFC
:10473400F76F010EF75D02E2010EF76FF8511F08E3
:1047440002E21F0EF86F010EF85D02E2010EF86F2F
:10475400F9511708D8A0F96BFA513B08D8A0FA6BA5
:10476400FB513B08D8A0FB6B090E006EF5C39EF20B
:10477400F6C39FF2005006E002019E379E919F37D8
:10478400FF0FF9D7F7C303F0000E046E050E026E97
:1047940003C000F004C001F0025005E000360090B0
:1047A4000136FF0FFAD7020100509E1301509F13E8
:1047B4000301F85102019E13000E9F13F9C3BCF2CA
:1047C400000EBD6F0B0E006E005005E0BC37BC91AF
:1047D400BD37FF0FFAD7FAC303F0000E046E050EBF
:1047E400026E03C000F004C001F0025005E0003680
:1047F40000900136FF0FFAD702010050BC1301509C
:10480400BD13FBC300F00032009E0050BC13000E29
:04481400BD131200BE
:10481800F6C300F00032009E0032009E0032009E77
:104828000032009E910E0024F66E780EF76E000E90
:10483800F722000EF86E000EF8220900F5CF00F0FE
:10484800F7C3E1FFF8C3E2FF00C0E6FF010E030172
:10485800F725E16E000EF821E26E0F0EF615006ED8
:10486800910E0024F66E780EF76E000EF722000EF9
:10487800F86E000EF8220900F5CF00F000C0E6FF40
:10488800020EF725E16E000EF821E26EF5C300F086
:104898000032009E0032009E0032009E0032009ED0
:1048A800910E0024F66E780EF76E000EF722000EB9
:1048B800F86E000EF8220900F5CF00F000C0E6FF00
:1048C800030EF725E16E000EF821E26E0F0EF515C6
:1048D800006E910E0024F66E780EF76E000EF72229
:1048E800000EF86E000EF8220900F5CF00F000C0A7
:1048F800E6FF040EF725E16E000EF821E26EE66A87
:0249080012009B
:10490A000301F651000A12E0F5C300F0000E016E31
:10491A000036009001361E0E0024E96E030E0120B7
:10492A00EA6EEECF04F0EECF05F011D0F5C300F039
:10493A00000E016E0036009001368C0E0024E96EDE
:10494A00020E0120EA6EEECF04F0EECF05F0020E61
:10495A000424E16E000E0520E26EF7C3E6FFF8C3F9
:10496A00E6FF010E0424E16E000E0520E26EF9C393
:10497A00E6FF04C0E9FF05C0EAFFEECF00F004C07D
:10498A00E1FF05C0E2FF400E0014E66E04C0E9FF35
:10499A0005C0EAFFEECF00F004C0E1FF05C0E2FF68
:1049AA00880E0010E66EF651000A1BE0F5C300F00F
:1049BA00000E016E0036009001361E0E0024026EB3
:1049CA00030E0120036E02C0E9FF03C0EAFF040ED2
:1049DA00EE18006E02C0E1FF03C0E2FF00C0E6FF6E
:1049EA001AD0F5C300F0000E016E003600900136B1
:1049FA008C0E0024026E020E0120036E02C0E9FF33
:104A0A0003C0EAFF040EEE18006E02C0E1FF03C005
:104A1A00E2FF00C0E6FF04C000F005C001F012008A
:104A2A00060E03014315006E44C301F0000E011681
:104A3A000050011003E1070E626F07D004017C6B7E
:0C4A4A007D6B7E6B7F6BB0EC13F01200F4
:104A56000301F76BF751F525E96E000EF621EA6EB4
:104A6600EE520CE0F751F525E96E000EF621EA6EDE
:0E4A7600EECFDFF447EC0DF0F72BECD712007B
:104A84000900F5CFE6FF0006FBE10106F9E112009B
:0E4A9400160E6F6E9F0E6B6E7B0E696E12001B
:104AA200000E0301F61902E1000EF51902E1016A96
:104AB20009D0F5C3E9FFF6C3EAFFEECF00F0016AC1
:0A4AC20000BE012A01C000F012003E
:104ACC00B60E03011A6F000E1B6F980E1C6F070EAB
:104ADC001D6FFF0E096FFF0E0A6FFF0E0B6FFF0E9F
:104AEC000C6F949EC951040A02E1938201D09392F7
:104AFC009380C66AC951C612CB51C612CA51C7128D
:104B0C00CB5305E0CC51000AD8B4C78C03D0CC539E
:084B1C00D8A4C78CC68A120060
:104B2400410E02014B6FDA0E0301F56F070EF66FAB
:104B3400040EF76F130EF86F090EF96FFA6BFB6B27
:104B4400DFDD440E0301F56F020EF66FA00EF76F62
:104B54004EDD69DF010E656F6551630823E30A0EBC
:104B6400046E65C300F04DEC0CF0300E002402011D
:104B7400196F0A0E046E65C300F04DEC0CF008C00A
:104B840000F0300E00241A6F190E0301F56F020EA7
:104B9400F66F2A0EF76F000EF86FB8EC1DF00301E4
:064BA400652BDAD71200B8
:104BAA000301C96BCB6BCC6B100ECD6F040ECC5DC1
:104BBA001FE2F00E836ECD1D956EECEC01F0ECEC6D
:104BCA0001F00F0E8314006E00C0CAF300520AE00F
:104BDA00CBC3C9F3CA5304E0CA33CA9FC92BFAD755
:104BEA00040ECC6FCD37CD91040ECB27CC2BDED75C
:064BFA00C9C300F0120027
:104C000039EC1DF00050000A03E1006A016A0BD084
:104C1000980E0301F56F010EF66F23EC1DF0FF0EE9
:084C2000006EFF0E016E120090
:104C28001EC3E9FF1FC3EAFFEECF00F0000E00BC71
:104C3800010E07019B6F040E03011E19006E00C0D0
:104C48001EF30051080A0AE122C46EFF6E500008E4
:104C580003E2100E006F02D0040E006F6951010AC2
:104C68002DE1020E1E25E16E000E1F21E26E280EB8
:104C7800006E040E016E00C0E6FF01C0E6FF83EC83
:104C88001AF003016351020A07E11EC3E1FF1FC3C3
:104C9800E2FF840EE66E11D007019B51000A07E17E
:104CA8001EC3E1FF1FC3E2FFC80EE66E06D01EC397
:104CB800E1FF1FC3E2FF880EE66E01D068DC120038
:104CC8001EC3E9FF1FC3EAFFEECF00F000AE05D018
:104CD8001EC3E1FF1FC3E2FFE66A0301636B696B52
:104CE8000201806B816B7F6B1FEC20F0030E0701C4
:104CF8009C6F000E9D6F9E6B9F6BA06BA16BBDECB4
:084D080012F029EC21F0120069
:104D1000200E0301005D03E36DB201D002D0006AF2
:104D200033D023C3F5F324C3F6F3BBDE00522BE1EB
:104D3000CCC3F5F3010EF66FC9C3F7F3CAC3F8F39A
:104D4000CBC3F9F3E2DD00C023F301C024F3256BEC
:104D5000266B276B286B23C3F5F324C3F6F3A1DE80
:104D6000005208E0255126112711281102E0006A9F
:104D70000BD0F1D7010E2325E96E000E2421EA6E37
:0A4D8000EECF00F001D0006A12002F
:104D8A0003016951020A03E19DEC20F020D0CBEC2B
:104D9A0022F003016451000A19E1010E6C25E16E4B
:104DAA00000E6D21E26E080EE66E020E6C25E16EB3
:104DBA00000E6D21E26E200EE66E040EE66E6CC3E6
:104DCA00E1FF6DC3E2FF8C0EE66E01D0646B120048
:104DDA00AA0EF66E770EF76E000EF86E300EE16EC2
:104DEA00040EE26E3E0E006E010E016E46DEC9C36F
:104DFA00E9FFCAC3EAFFEECFF5F3300E0301F66FFF
:104E0A00040EF76F5FEC22F0CBC3E9FFCCC3EAFFD5
:104E1A00EECFF5F3350EF66F040EF76F5FEC22F066
:104E2A00CDC3E9FFCEC3EAFFEECFF5F33A0EF66F34
:104E3A00040EF76F5FEC22F0CFC3E9FFD0C3EAFF9D
:104E4A00EECFF5F33F0EF66F040EF76F5FEC22F02C
:104E5A00D1C3E9FFD2C3EAFFEECFF5F3440EF66FF2
:104E6A00040EF76F5FEC22F0D3C3E9FFD4C3EAFF65
:104E7A00EECFF5F3490EF66F040EF76F5FEC22F0F2
:104E8A00300EF56F040EF66F1DDC350E0301F56F5B
:104E9A00040EF66F17DC3A0E0301F56F040EF66F77
:104EAA0011DC3F0E0301F56F040EF66F0BDC440EA6
:104EBA000301F56F040EF66F05DC490E0301F56F69
:104ECA00040EF66F67EC23F04E0E0301F56F040E25
:104EDA00F66F6E0EF76F020EF86FEFEC1FF04E0EC4
:104EEA00F56F040EF66F440EF76F040EF86FEFECD1
:104EFA001FF04E0EF56F040EF66F5B0EF76F020E83
:104F0A00F86FEFEC1FF04E0EF56F040EF66F3F0EC2
:104F1A00F76F040EF86FEFEC1FF04E0EF56F040EEC
:104F2A00F66F5D0EF76F020EF86FEFEC1FF04E0E84
:104F3A00F56F040EF66F490EF76F040EF86FEFEC7B
:104F4A001FF05E0EF56F040EF66F540EF76F020E29
:104F5A00F86FEFEC1FF05E0EF56F040EF66F3A0E67
:104F6A00F76F040EF86FEFEC1FF05E0EF56F040E8C
:104F7A00F66F5F0EF76F020EF86FEFEC1FF05E0E22
:104F8A00F56F040EF66F350EF76F040EF86FEFEC3F
:104F9A001FF05E0EF56F040EF66F520EF76F020EDB
:104FAA00F86FEFEC1FF05E0EF56F040EF66F300E21
:104FBA00F76F040EF86FEFEC1FF0010E0401EF6FAC
:104FCA00EAEC0AF0010E04017C6F010E7D6F4E0EB1
:104FDA007E6F040E7F6FACEC14F0020E04017C6F3E
:104FEA00010E7D6F5E0E7E6F040E7F6FACEC14F0C7
:024FFA001200A3
:0A4FFC006D6A696A0301006B120080
:10500600CBC3F6FFCCC3F7FFCDC3F8FF0900F5CF3E
:1050160000F0C9C3E1FFCAC3E2FF00C0E6FFCBC38D
:10502600F6FFCCC3F7FFCDC3F8FF0900F5CF01F0BB
:105036000150000A01E109D0010E0301CB27000E41
:10504600CC23CD23C94BCA2BDBD7C9C300F0CAC3B7
:0450560001F0120053
:10505A00E6EC00F0090E07018F6F906B916B926B73
:10506A00936BFF0E946F7DEC00F0005205E070EC3C
:10507A0000F0010E006E4BD01CC3E1FF1DC3E2FF1E
:10508A00FF0EE66E1AC300F01BC301F064EC00F0D9
:10509A000050FE0A01E0F0D70301CB6B100ECB5D86
:1050AA001BE2CB51C925CC6F000ECA21CD6F1CC3A0
:1050BA00E1FF1DC3E2FFFF0EE66E1AC300F01BC339
:1050CA0001F064EC00F0CCC3E1FFCDC3E2FF00C005
:1050DA00E6FF0301CB2BE2D71CC3E1FF1DC3E2FFAE
:1050EA00FF0EE66E1AC300F01BC301F064EC00F079
:1050FA001CC3E1FF1DC3E2FFFF0EE66E1AC300F0F8
:10510A001BC301F064EC00F070EC00F0006A1200BE
:10511A0003010051000A0BE16D6A696AB6DCEAEC28
:10512A001FF06DB602D06D86FCD7010E006F12001B
:10513A00010E0401EF6FEAEC0AF00F0E0401EF6FA3
:10514A00EAEC0AF0800E0401EF6FEAEC0AF0C9C338
:0A515A00F5F3CAC3F6F37ADC120085
:10516400939093928A908A9293809382C79EC79CCD
:06517400380EC66E1200A9
:10517A00200E0301005D03E36DB201D002D0006A84
:10518A0024D018C3F5F319C3F6F386DC00521CE1E8
:10519A00010E1825E96E000E1921EA6EEECF00F015
:1051AA0000C0CDF3CCC3F5F3F66BC9C3F7F3CAC39A
:1051BA00F8F3CBC3F9F385EC24F000C018F301C06F
:0C51CA0019F3CDC300F001D0006A120000
:1051D6004DEC23F0186B196B236B246B6A6A686AB3
:1051E60056DC6D8C6E6A710EF56F0F0EF66FF76BEF
:1051F600010EF86F000EF96FDFEC22F06D9CC96BA3
:10520600080EC95D16E2C9C300F0000E016E003635
:1052160000900136003600900136000E0024E16E43
:10522600040E0120E26EE66AE66AE66AE66AC92BC1
:10523600E7D7160E706E68A603D0F70E6816FBD772
:1052460002017F6B846B856B866B6D98080E03017C
:0C5256001E6F040E1F6F6A6B006B1200CD
:105262000301CB6BCC6BCD6BCE6BCF6BD06BD16BA9
:10527200D26BD36BD46BD56BD66BD76BD86BD96B28
:10528200DA6BDB6BDC6BDD6BDE6BDF6BE06BE16BD8
:10529200E26BE36BE46BE56BE66BE76BE86BE96B88
:1052A200EA6BEB6BEC6BED6BEE0E04016E6F030EB3
:1052B2006F6FEF0E706F030E716FF00E726F030E51
:1052C200736FF10E746F030E756FF20E766F030E2D
:1052D200776FF30E786F030E796FF40E7A6F030E09
:1052E2007B6FFEEC21F0EEC3F5F3000E0301F66FC7
:1052F200CB0EF76F030EF86F0CEC24F0EFC3F5F34F
:10530200000EF66FD00EF76F030EF86F0CEC24F060
:10531200F0C3F5F3000EF66FD50EF76F030EF86FBC
:105322000CEC24F0F2C3F5F3000EF66FDA0EF76F11
:10533200030EF86F0CEC24F0F3C3F5F3000EF66FD6
:10534200DF0EF76F030EF86F0CEC24F0F4C3F5F3E5
:10535200000EF66FE40EF76F030EF86F0CEC24F0FC
:10536200F1C3F5F3000EF66FE90EF76F030EF86F57
:105372000CEC24F0CB0EF56F030EF66F67EC23F006
:10538200D00E0301F56F030EF66F67EC23F0D50E16
:105392000301F56F030EF66F67EC23F0DA0E0301DB
:1053A200F56F030EF66F67EC23F0DF0E0301F56F66
:1053B200030EF66F67EC23F0E40E0301F56F030EA4
:1053C200F66F67EC23F0E90E0301F56F030EF66F3B
:1053D20067EC23F0CB0E0301F56F030EF66F4EEC74
:1053E2001DF000C0EEF3D00EF56F030EF66F4EEC1B
:1053F2001DF000C0EFF3D50EF56F030EF66F4EEC05
:105402001DF000C0F0F3DA0EF56F030EF66F4EECEE
:105412001DF000C0F2F3DF0EF56F030EF66F4EECD7
:105422001DF000C0F3F3E40EF56F030EF66F4EECC1
:105432001DF000C0F4F3E90EF56F030EF66F4EECAB
:105442001DF000C0F1F3C9C3E1FFCAC3E2FFEEC31E
:10545200E6FF010EC925E16E000ECA21E26EEFC31E
:10546200E6FF020EC925E16E000ECA21E26EF0C30C
:10547200E6FF030EC925E16E000ECA21E26EF2C3F9
:10548200E6FF050EC925E16E000ECA21E26EF3C3E6
:10549200E6FF060EC925E16E000ECA21E26EF4C3D4
:1054A200E6FF000EE66E040EC925E16E000ECA216B
:0854B200E26EF1C3E6FF1200F7
:0E54BA00270E0D6E0D2EFED700000000120012
:1054C80010D0800E0301C96F1AD0C00EC96F17D053
:1054D800940EC96F14D0D40EC96F11D0800EC96F45
:1054E8000ED00301C951010AECE0C951020AEDE0EE
:1054F800C951030AEDE0C951040AEDE0EFD7CA0526
:10550800006EC951002600C0C9F3228100C0EFF423
:10551800EAEC0AF02291CBC3EFF4EAEC0AF022811C
:0255280012006F
:10552A006984EF0E68166D82750E07019C6F000E76
:10553A009D6F9E6B9F6BA06BA16BBDEC12F012006E
:10554A004DEC23F0186B196B236B246B6A6A686A3B
:10555A004AEC25F06D8C6E6A710E07019C6F0F0E76
:10556A009D6F9E6B010E9F6F000EA06FA3EC12F051
:10557A006D9C9A6B080E9A5D16E29AC700F0000EAF
:10558A00016E003600900136003600900136000E9A
:10559A000024E16E040E0120E26EE66AE66AE66A1B
:1055AA00E66A9A2BE7D7160E706E68A603D0F70E36
:1055BA006816FBD702017F6B846B856B866B6D98CF
:1055CA00080E03011E6F040E1F6F6A6B006B120038
:1055DA00FD0E03017B15016E026AFF0E0216000E14
:1055EA00021802E1000E01186EE17E0E7B15016EB3
:1055FA0001C003F00332039E03C000F0000E016EE7
:10560A00003600900136003600900136000E002464
:10561A00026E040E0120036E02C066F303C067F334
:10562A0002C06CF303C06DF3040E6C19006E00C067
:10563A006CF302C0E9FF03C0EAFFEECF00F000C03E
:10564A0001F03C0E01160132019E0132019E015009
:10565A000D0A36E1020E6625E96E000E6721EA6E32
:10566A00EECF01F0EECF02F00250040A02E1280E5A
:10567A00011823E1020E6625E16E000E6721E26E33
:10568A00200EE66E040EE66E07019A6B080E9A5D0E
:10569A0014E2200EE16E040EE26E9A51E126D8B0B1
:1056AA00E22A280EE96E040EEA6E9A51E926D8B06B
:1056BA00EA2AEECFE6FF9A2BE9D764EC26F002D06D
:1056CA00C5EC26F00FD0FD0E03017B15016E026AB0
:1056DA00FF0E0216000E021802E1040E011802E182
:0656EA0014EC26F0120092
:1056F00070A019D066C3E9FF67C3EAFFEECF01F0DF
:105700000150800A0FE11EC3E9FF1FC3EAFFEECF7D
:1057100001F00150840A06E166C3E1FF67C3E2FFBE
:0C5720008C0EE66E7090DF0E6816120012
:10572C000F0EC16E070EB46E800EF16E896A8B6A15
:10573C008C6A8D6A926A946A956A966A806A826AA1
:0E574C00836A846A030E926E030E896E120049
:10575A00070E0B6E170E0C6E6A0E0D6E0D2EFED70F
:0C576A000C2EFCD70B2EFAD7000012000A
:10577600939493969398939A939C939E81948196EF
:10578600819E819C819A8198F3EC01F0F3EC01F003
:10579600F3EC01F0818A81888184ECEC01F081943C
:1057A600F3EC01F08184ECEC01F08194F3EC01F070
:1057B6008184ECEC01F08194F3EC01F08198818412
:1057C600ECEC01F08194F3EC01F08184ECEC01F057
:1057D6008194819A818E8184ECEC01F08194F3ECC2
:1057E60001F0819E81888184ECEC01F0819481989E
:1057F6008184ECEC01F08194F3EC01F08184ECEC13
:1058060001F0819481888184ECEC01F08194F3ECC1
:1058160001F081988184ECEC01F08194818E818C79
:10582600818A81888184ECEC01F08194F3EC01F0AB
:06583600030122811200B3
:10583C00D5EC25F000C097F30F0E8314006E02E038
:0A584C0036DEFAD797C300F0120011
:10585600F0EC1CF0D00E0301FF6F12EC1DF00301FB
:10586600FF6B12EC1DF0800E0301FF6F12EC1DF0B2
:10587600060E0301FF6F12EC1DF0040E0301FF6F0D
:1058860012EC1DF0050E0301FF6F12EC1DF0180E51
:105896000301FF6F12EC1DF0100E0301FF6F12ECF7
:1058A6001DF0120E0301FF6F12EC1DF007EC17F04E
:1058B600F0EC1CF0D00E0301FF6F12EC1DF003019B
:1058C600FF6B12EC1DF00301FF6B12EC1DF007ECF1
:0458D60017F01200B5
:1058DA00FF0E0201FC6FFF0EFD6FFF0EFE6FFF0E43
:1058EA00FF6FFF0EF86FFF0EF96F000EFA6F000ED2
:1058FA00FB6FFF0E0301056FFF0E066F000E076FA9
:10590A00000E086FFF0E016FFF0E026F000E036F8D
:10591A00000E046FAC8A900EAB6E948E949C9EAA75
:0A592A0003D0AECF00F0FBD712004F
:10593400970E0301C96F030ECA6F91DC0501406B1A
:10594400416B97C342F598C343F599C344F59AC391
:1059540045F59BC346F59CC347F59DC348F5120026
:1059640097C3C9F398C3CAF399C3CBF3010E0301D8
:08597400CC6F88EC26F0120054
:10597C0039EC1DF000C0C0F3010E0701806F005020
:10598C00010AD8A434D20301996B9A6B020E9A5D6A
:10599C0002E1000E995D1DE2800E9925E16E050E67
:1059AC009A21E26E340E006E750E016E000E026EC0
:1059BC0099510024F66E9A510120F76E000E0220C8
:1059CC00F86E0900F5CF00F000C0E6FF994B9A2B5A
:1059DC00DDD79B0EC96F030ECA6F2DEC28F0C00EDD
