:040000001EEF17F0E8
:1000080000C01EF001C01DF002C01CF003C01BF0B0
:1000180004C01AF005C019F008C018F009C017F09C
:100028000AC016F00BC015F0E1CF27F0E2CF28F098
:10003800E9CF25F0EACF26F0F3CF23F0F4CF24F070
:10004800F5CF22F0F8CF1FF0F7CF20F0F6CF21F050
:1000580099EC13F022C0F5FF1FC0F8FF20C0F7FF8E
:1000680021C0F6FF23C0F3FF24C0F4FF1EC000F038
:100078001DC001F01CC002F01BC003F01AC004F040
:1000880019C005F018C008F017C009F016C00AF02A
:1000980015C00BF025C0E9FF26C0EAFF27C0E1FF25
:0600A80028C0E2FF110078
:1000AE0038C241F139C242F13AC245F13BC246F182
:1000BE00800E02013C11006E008000C044F112005F
:1000CE00000E056E040E066E38C203F0000E046EAE
:1000DE0003360436039003360436039039C200F01B
:1000EE00000E016E003601360090005003260150BE
:1000FE00042203C001F004C002F001360190023662
:10010E0001360190023601C003F002C004F0043241
:10011E000332049E04BC048E04320332049E04BCDB
:10012E00048E03C000F004C001F0003600900136CA
:10013E00003600900136055000260650012200C000
:10014E0005F001C006F000C0E1FF01C0E2FFE69E2F
:10015E0002013951000A12E138C200F0000E016EA0
:10016E000036009001365F0E0024E16E010E012074
:10017E00E26E05C0E6FF06C0E6FF11D038C200F001
:10018E00000E016E003600900136470E0024E16E1F
:10019E00010E0120E26E05C0E6FF06C0E6FF05C0B7
:1001AE00E1FF06C0E2FFE69C040E0524E16E000EA0
:0801BE000620E26EE68C12003F
:0E01C600800E02013811006E00C044F11200DC
:1001D40038C241F139C242F13AC243F13BC245F15E
:1001E4003CC246F1800E02013D11006E00C044F194
:0201F4001200F7
:1001F60020C401F01F0E01160150010A01E08DD046
:1002060004012451000A01E088D02151060A3AE18E
:100216002FD001015D51010A13E1C00E0201386FB2
:10022600300E396F000E3A6F120E3827000E392342
:100236003A23090E3B6F000E3C6F400E3D6FC7DF41
:1002460021D001015D51010A0EE10C0E0201386F49
:10025600310E396F000E3A6F210E3B6F000E3C6F68
:10026600400E3D6FB4DF0ED00201386BA9DF0AD015
:1002760004012351210ACDE02351220AE2E0235151
:10028600230AF2E020C401F0600E0116050E006E8E
:10029600005004E00132019EFF0FFBD70150010A16
:1002A60001E03BD027D039D038D05C0E0201386F40
:1002B600010E396F010E3A6F000E3B6F400E3C6F18
:1002C600F3DE2BD00201386B7BDF23C45CF125D033
:1002D60002013E0E386F010E396F010E3A6F000EA5
:1002E6003B6F3C6BE1DE19D00201386B69DF22C43B
:1002F6003EF113D004012151010AD5E02151090A2A
:10030600D3E02151020AD1E021510A0ADBE0215152
:0C031600030ADEE021510B0AE7E01200B0
:1003220002013451000A12E033C200F0000E016EE5
:10033200003600900136470E0024E96E010E0120BE
:10034200EA6EEECF04F0EECF05F011D033C200F02A
:10035200000E016E0036009001365F0E0024E96E39
:10036200010E0120EA6EEECF04F0EECF05F0020E90
:100372000424E16E000E0520E26E35C2E6FF36C2AD
:10038200E6FF010E0424E16E000E0520E26E37C284
:10039200E6FF04C0E9FF05C0EAFFEECF00F004C0AB
:1003A200E1FF05C0E2FF400E0014E66E04C0E9FF63
:1003B20005C0EAFFEECF00F004C0E1FF05C0E2FF96
:1003C200880E0010E66E3451000A1BE033C200F0C2
:1003D200000E016E003600900136470E0024026EB8
:1003E200010E0120036E02C0E9FF03C0EAFF040E02
:1003F200EE18006E02C0E1FF03C0E2FF00C0E6FF9C
:100402001AD033C200F0000E016E003600900136A1
:100412005F0E0024026E010E0120036E02C0E9FF8E
:1004220003C0EAFF040EEE18006E02C0E1FF03C033
:10043200E2FF00C0E6FF04C000F005C001F01200B8
:10044200700EE16E0F0EE26E02013351E126D8B05A
:10045200E22A34C2E6FF34A504D033C238F2396B43
:1004620035DE34A305D033C238F2010E396F2EDEE9
:02047200120076
:10047400560E0C6EB50E0D6E0D2EFED70C2EFCD73F
:0604840000000000120060
:0E048A00C70E0D6E0D2EFED7000000001200F2
:0E049800030E0D6E0D2EFED7000000001200A8
:0A04A6000101545301E0A4DE12002E
:1004B0000101545315E0010E0201336F1E0E346F1B
:1004C000C0DF010E336F346B56C135F257C136F2BF
:1004D000400E376F26DF00C058F101C059F114D02B
:1004E0000201010E336F1E0E346FABDF010E336F4E
:1004F000346B56C135F257C136F2400E376F11DFFB
:0A05000000C058F101C059F11200CB
:10050A00C7B409D01F0EC514016E0150000A03E1D9
:0A051A00010E006E01D0006A12000D
:10052400086A080E0C6E003408360450085ED8B011
:0E05340002D00826D89000360C2EF5D7120003
:10054200020129BF02D0819E01D0818E29BD02D035
:10055200819C01D0818C29BB02D0819A01D0818AF1
:1005620029B902D0819801D08188010155B102D008
:10057200818601D0819681848EDF8194020129B720
:1005820002D0819E01D0818E29B502D0819C01D0FA
:10059200818C29B302D0819A01D0818A29B102D0FB
:1005A200819801D08188010155B102D0818601D0A4
:1005B2008196818470DF819455A102D05ADF01D0E7
:0405C20063DF1200E1
:1005C6002DC202F02EC203F030C200F031C201F09B
:1005D600010E0201305F000E315B0050011009E090
:1005E60002C0E1FF03C0E2FF2FC2E6FF024A032A70
:0405F600EBD712002D
:1005FA000CD059DF3CD03BD051DF39D038D037D07E
:10060A0036D035D0000033D032D0000E02012E1978
:10061A0002E1010E2D19EDE0000E2E1902E1020E83
:10062A002D19E9E0000E2E1902E1030E2D19E4E05E
:10063A002E51000A02E1730E2D19E0E02E51000A34
:10064A0002E1750E2D19DBE02E51000A02E1740E4B
:10065A002D19D6E02E513F0A02E1FF0E2D19D1E0E5
:10066A002E51000A02E1720E2D19CCE0CDD7010EEF
:04067A00006E1200FC
:10067E000B6A0A6A096A00500402F4CF09F0F3CF3C
:10068E0008F001500502F4CF0BF0F3CF0AF0005042
:10069E000502F3500926F4500A22E86A0B22015093
:1006AE000402F3500926F4500A22E86A0B2208C00D
:1006BE0000F009C001F00AC002F00BC003F01200F6
:1006CE009E96C5869EB601D0FDD7C9CF01F0020118
:1006DE002351000A02E1C58A01D0C59A9E96C588AB
:0C06EE009EB601D0FDD701C000F0120044
:1006FA000201266B030E265D0AE226512425E16ECD
:10070A00000E2521E26E200EE66E262BF3D7265127
:10071A002425E16E000E2521E26EE66A260726519F
:10072A002425276F000E2521286F0A0E046E23C286
:10073A0000F0F3DE08C000F0300E002627C2E1FF09
:10074A0028C2E2FF00C0E6FF0A0E046E23C200F0D0
:10075A00E4DE00C023F20050000A01E102D02607BD
:04076A00DED71200C4
:10076E009E9623C2C9FFC7A401D0FDD79EB601D065
:10077E00FDD7C5BC02D0006A03D0C584020E006E40
:02078E00120057
:0A079000C582C5A201D0FDD71200FA
:0E079A000101559123C229F2CFDE55811200D4
:1007A8000201236B246B2451120802E123518E08A5
:1007B80008E3A7DE005201E004D00201234B242BFA
:1007C800F2D70201120E245D02E18F0E235D03E3CE
:1007D8007B0E006E05D0C580C5A001D0FDD7006A8C
:0207E8001200FD
:1007EA0002012351390806E3300E235D03E3010EAB
:0807FA00006E01D0006A12003C
:100802000101448F710E02012D6F0F0E2E6F2F6B9F
:10081200010E306F000E316FD5DE6F0E2D6F010E9F
:100822002E6F2F6B010E306F000E316FCBDE22C4A4
:100832005DF101015D51000A03E1100E5E6F10D0FF
:10084200200E5E6F010E02012D6F000E2E6F5D0EE7
:100852002F6F010E306F010E316F000E326FCCDE42
:02086200120082
:1008640004012251010A13E120C401F01F0E0116F4
:100874000150000A0CE10101448F04012151030AD3
:1008840004E1010E01016B6F02D001016B6B0401E5
:100894002251000AD8A48DD020C401F01F0E0116E5
:1008A4000150020AD8A485D024C401F00F0E011609
:1008B4000150000AD8B47DD00101448F040124BF43
:1008C40016D024C403F00F0E031603C000F0000E6C
:1008D400016E0036009001365F0E0024E96E010EB1
:1008E4000120EA6EEECF04F0EECF05F015D024C45B
:1008F40003F00F0E031603C000F0000E016E003665
:1009040000900136470E0024E96E010E0120EA6EC4
:10091400EECF04F0EECF05F02151030A07E104C045
:10092400E1FF05C0E2FF840EE66E43D024C400F06C
:100934000F0E0016700E026E0F0E036E005002268C
:10094400D8B0032A02C0E9FF03C0EAFFFE0EEE148A
:10095400006EEECF01F0FF0E011602C0E1FF03C0EE
:10096400E2FF00C0E6FF01C0E6FF24AF11D004C0DF
:10097400E1FF05C0E2FFE66A040E0418006E00C041
:1009840004F004C0E1FF05C0E2FF400EE66E11D0A2
:1009940004C0E1FF05C0E2FF880EE66E040E0418F1
:1009A400006E00C004F004C0E1FF05C0E2FFC80E01
:0409B400E66E1200D9
:1009B8000401286B296B4AD00101448F0401288166
:1009C80001016B51010A02E10401288354D001019D
:1009D800448F51D00101448F040124BF16D024C490
:1009E80003F00F0E031603C000F0000E016E003670
:1009F800009001365F0E0024E96E010E0120EA6EB8
:100A0800EECF04F0EECF05F015D024C403F00F0E9E
:100A1800031603C000F0000E016E00360090013688
:100A2800470E0024E96E010E0120EA6EEECF04F0B5
:100A3800EECF05F004C0E9FF05C0EAFFEECF01F0F4
:100A480001A403D00401010E286F15D020C401F0C1
:100A58001F0E01160150000AAFE020C401F01F0E5E
:100A680001160150010AB3E020C401F01F0E01165F
:100A78000150020AAFE0010144AF07D0280E416FD0
:0C0A8800040E426F4481020E456F120004
:100A9400000E0101465D02E1080E455D10E245C10C
:100AA40003F046C104F06D51000A03E1010E6D6FBD
:100AB40005D06D51010A02E1020E6D6F04D0080EDB
:100AC400036E000E046E47C1E1FF48C1E2FFE692E7
:100AD40047C1E1FF48C1E2FFE69047C1E9FF48C1D1
:100AE400EAFFEECF00F047C1E1FF48C1E2FF045046
:100AF4000010E66E010E4725E16E000E4821E26EFD
:100B040003C0E6FF0350455D006E04504659016E74
:100B140000C045F101C046F1280E696F040E6A6FEA
:100B240044B12FD0035004102BE041C1F6FF42C161
:100B3400F7FF43C1F8FF0900F5CF00F069C1E1FFF9
:100B44006AC1E2FF00C0E6FF694B6A2B010E412532
:100B5400006E000E4221016E000E4321026E00C0A1
:100B640041F101C042F102C043F1010E035C006E89
:100B7400000E0458016E00C003F001C004F0D2D787
:100B840024D00350041021E041C1E9FF42C1EAFF2F
:100B940069C1E1FF6AC1E2FFEECFE6FF694B6A2B50
:100BA400010E4125006E000E4221016E00C041F18C
:100BB40001C042F1010E035C006E000E0458016E88
:0C0BC40000C003F001C004F0DCD71200F8
:100BD00023C204F024C205F004C002F005C003F0F3
:100BE000044A052A25C200F026C201F00201254B65
:100BF000262B00C0E9FF01C0EAFF02C0E1FF03C0ED
:100C0000E2FFEECFE6FF02C0E9FF03C0EAFFEE52CB
:0E0C100001E0E2D723C200F024C201F012007E
:040C1E00C584120077
:100C220004012051800AD8A479D0C00E0101446F7A
:100C32006AD001012D0E006E310E016E000E026EA1
:100C420000C041F101C042F102C043F1120E456FF2
:100C5200000E466F63D00101030E006E000E016E9E
:100C620022C404F0000E056E09DD3B0E0024E96E7D
:100C7200010E0120EA6EEECF41F1EECF42F1EECF4E
:100C820043F1020E4125F66E000E4221F76E000E70
:100C92004321F86E0900F5CF00F00900F5CF01F00D
:100CA20000C045F101C046F139D0030E0401225DB6
:100CB20024E2030E006E000E016E22C404F0000E48
:100CC200056EDCDC320E0024E96E010E0120EA6EB4
:100CD200EECF41F1EECF42F1EECF43F141C1F6FF4B
:100CE20042C1F7FF43C1F8FF0900F5CF00F000C091
:100CF20045F1000E0101466F02D00101446B0ED096
:100D02000101446B0BD004012351010A92E02351EB
:0E0D1200020AA1E02351030AC8E0F2D7120042
:100D200043DDD00E0201236F22DD0201236B1FDDA4
:100D30002FDDD10E0201236F1ADD010E0201236F98
:100D4000C6DC15C2E1FF16C2E2FF00C0E6FF010EDD
:100D50000201236FBCDC17C2E1FF18C2E2FF00C032
:100D6000E6FF010E0201236FB2DC19C2E1FF1AC2D5
:100D7000E2FF00C0E6FF010E0201236FA8DC1BC2E8
:100D8000E1FF1CC2E2FF00C0E6FF010E0201236F7B
:100D90009EDC1DC2E1FF1EC2E2FF00C0E6FF010EA5
:100DA0000201236F94DC1FC2E1FF20C2E2FF00C0FA
:100DB000E6FF0201236B8BDC21C2E1FF22C2E2FFCE
:080DC00000C0E6FF2CDF120069
:100DC80015C204F016C205F004C0E9FF05C0EAFF29
:100DD800EE5203E0044A052AF7D704C002F005C022
:100DE80003F0044A052A17C200F018C201F00201F4
:100DF800174B182B00C0E9FF01C0EAFF02C0E1FF52
:100E080003C0E2FFEECFE6FF02C0E9FF03C0EAFF3E
:100E1800EE5201E0E2D715C200F016C201F012004E
:100E280015C202F016C203F018C200F019C201F090
:100E3800010E0201185F000E195B0050011009E055
:100E480002C0E1FF03C0E2FF17C2E6FF024A032A1D
:040E5800EBD71200C2
:100E5C0010D0800E0201156F1AD0C00E156F17D06E
:100E6C00940E156F14D0D40E156F11D0800E156F13
:100E7C000ED002011551010AECE01551020AEDE009
:100E8C001551030AEDE01551040AEDE0EFD71605F4
:100E9C00006E1551002600C015F200C029F2A1EC1D
:100EAC0002F055910201196B19511725E96E000ECC
:100EBC001821EA6EEE520CE019511725E96E000E5E
:100ECC001821EA6EEECF23F262DC0201192BECD76B
:060EDC0001015581120026
:100EE20016C200F00032009E0032009E0032009EC8
:100EF2000032009E3F0E0024F66E310EF76E000E99
:100F0200F722000EF86E000EF8220900F5CF00F06D
:100F120017C2E1FF18C2E2FF00C0E6FF010E0201A4
:100F22001725E16E000E1821E26E0F0E1615006EE7
:100F32003F0E0024F66E310EF76E000EF722000E01
:100F4200F86E000EF8220900F5CF00F000C0E6FFAF
:100F5200020E1725E16E000E1821E26E15C200F096
:100F62000032009E0032009E0032009E0032009E3F
:100F72003F0E0024F66E310EF76E000EF722000EC1
:100F8200F86E000EF8220900F5CF00F000C0E6FF6F
:100F9200030E1725E16E000E1821E26E0F0E1515D5
:100FA200006E3F0E0024F66E310EF76E000EF72231
:100FB200000EF86E000EF8220900F5CF00F000C016
:100FC200E6FF040E1725E16E000E1821E26EE66AB6
:020FD20012000B
:100FD40020C401F0600E0116050E006E005004E0FE
:100FE4000132019EFF0FFBD70150000A01E06AD0D5
:100FF40046D00101448F080E5E6F64D010DE62D0CB
:1010040001EC04F05FD05D0E0101416F010E426FEF
:101014004481010E456F448F55D0CCDC53D020DC85
:1010240051D06F0E006E010E016E04012451002692
:10103400D8B0012A00C041F101C042F1010144814C
:10104400010E456F448F3ED00101448F6F0EE16E57
:10105400010EE26E04012451E126D8B0E22A22C432
:10106400E6FF30D0020E02012D6F000E2E6F2F6BA3
:10107400306B316B326BFDEC02F024D023D00401D1
:101084002151050AB6E02151060AB8E02151090AA6
:10109400B7E02151080AB7E02151000ABEE021510E
:1010A400010ABDE02151030ABAE021510A0AB9E05C
:1010B40021510B0AC9E02151070AD4E021510C0A3D
:0610C400DDE0DCD71200A4
:1010CA0001016E6B47C1E1FF48C1E2FFE66A040E07
:1010DA004719E16E48C1E2FF000EE21AE66A4DAF17
:0610EA0001D04D9F120031
:1010F0006D98010144BF49D04DAF28D0020E6E6FEC
:10110000010E4725E16E000E4821E26EE66A47C1F6
:10111000E1FF48C1E2FFC80EE66E010E6725E16EF1
:10112000000E6821E26E080EE66E020E6725E16E83
:10113000000E6821E26E280EE66E040EE66E67C1B0
:10114000E1FF68C1E2FFC80EE66E1ED0010E672502
:10115000E16E000E6821E26E080EE66E020E672553
:10116000E16E000E6821E26E200EE66E040EE66E61
:1011700067C1E1FF68C1E2FF8C0EE66E47C1E1FF87
:1011800048C1E2FF840EE66E82D04DBF80D00401DC
:1011900020AF55D0010146510401275D04E1010152
:1011A00045510401265D04E226C445F127C446F1F9
:1011B00071DC010E6E6F010E6725E16E000E682175
:1011C000E26E080EE66E020E6725E16E000E6821E3
:1011D000E26E200EE66E040EE66E67C1E1FF68C1A6
:1011E000E2FF800EE66E6C6B010E7125E16E000E63
:1011F0007221E26E080EE66E020E7125E16E000E9F
:101200007221E26E200EE66E040EE66E71C1E1FF01
:1012100072C1E2FF840EE66E010E6C6F020E47256E
:10122000E16E000E4821E26E280EE66E040EE66EB8
:1012300047C1E1FF48C1E2FFC80EE66E28D00101B8
:10124000020E6E6F010E4725E16E000E4821E26E20
:10125000E66A47C1E1FF48C1E2FFC80EE66E010E33
:101260006725E16E000E6821E26E080EE66E020E42
:101270006725E16E000E6821E26E280EE66E040E10
:10128000E66E67C1E1FF68C1E2FFC80EE66E1200BC
:10129000010E01017125E96E000E7221EA6EEECF9A
:1012A00000F000C002F0000E4F5D02E102504E5D02
:1012B00003E24EC102F00AD002504E5D006E000EF5
:1012C0004F59016E00C04EF101C04FF1036A025048
:1012D000035C1CE2280EE96E040EEA6E0350E92658
:1012E000D8B0EA2AEECF00F04BC1E1FF4CC1E2FFDB
:1012F00000C0E6FF010E4B25006E000E4C21016E72
:1013000000C04BF101C04CF1032AE1D7000E006E82
:101310004F51005C02E14E51000828E2010E6725A2
:10132000E16E000E6821E26E080EE66E020E672581
:10133000E16E000E6821E26E280EE66E040EE66E87
:1013400071C1E9FF72C1EAFFEECF00F000BC07D027
:1013500067C1E1FF68C1E2FFC80EE66E06D067C153
:10136000E1FF68C1E2FF880EE66E19D0010E672525
:10137000E16E000E6821E26E080EE66E020E672531
:10138000E16E000E6821E26E200EE66E040EE66E3F
:1013900067C1E1FF68C1E2FF840EE66E4D9F120057
:1013A00002011651000A12E015C200F0000E016E93
:1013B000003600900136470E0024E96E010E012030
:1013C000EA6EEECF04F0EECF05F011D015C200F0BA
:1013D000000E016E0036009001365F0E0024E96EAB
:1013E000010E0120EA6EEECF04F0EECF05F0020E02
:1013F0000424E16E000E0520E26E17C2E6FF18C25B
:10140000E6FF010E0424E16E000E0520E26E19C213
:10141000E6FF04C0E9FF05C0EAFFEECF00F004C01C
:10142000E1FF05C0E2FF400E0014E66E04C0E9FFD4
:1014300005C0EAFFEECF00F004C0E1FF05C0E2FF07
:10144000880E0010E66E1651000A1BE015C200F06F
:10145000000E016E003600900136470E0024026E29
:10146000010E0120036E02C0E9FF03C0EAFF040E73
:10147000EE18006E02C0E1FF03C0E2FF00C0E6FF0D
:101480001AD015C200F0000E016E00360090013631
:101490005F0E0024026E010E0120036E02C0E9FF00
:1014A00003C0EAFF040EEE18006E02C0E1FF03C0A5
:1014B000E2FF00C0E6FF04C000F005C001F012002A
:1014C00002011A6B1B6B15C21CF2000E15BFFF0E3A
:1014D0001D6F800E1519006E800E000A005C0AE276
:1014E0001A4B1B2B155100081C6F1D6B000E15BFEE
:1014F000FF0E1D5B1CC223F216C224F217C225F296
:101500007DEC03F0040E186F000E196F000E006ED4
:101510001951005C02E11851000819E21851162512
:10152000E16E19511721E26E010E185D006E000E7A
:101530001959016E00501625E96E01501721EA6E07
:10154000EECFE6FF010E185F000E195BDFD716C263
:10155000E1FF17C2E2FF200EE66E1A511B111AE0DE
:10156000186B196B18511625E96E19511721EA6E7F
:10157000EE50200A03E1184B192BF4D7010E185F27
:10158000000E195B18511625E16E19511721E26EF4
:061590002D0EE66E1200B4
:101596000900F5CFE6FF0006FBE10106F9E11200BE
:1015A600000E0201161902E1000E151902E1016A88
:1015B60009D015C2E9FF16C2EAFFEECF00F0016AB4
:0A15C60000BE012A01C000F012006F
:1015D000170E0201236F020E246F15C225F216C2E8
:1015E00026F2E8EC05F019C217F21AC218F2196BCC
:1015F00015C223F216C224F2170E256F020E266FB3
:06160000E8EC05F0120009
:1016060015C2E9FF16C2EAFFEECF17F2000E02017D
:10161600186F000E186F000E181902E1200E171928
:1016260007E0000E181902E1090E171901E003D0B0
:10163600154B162BE5D7196B1A6B1B6B1C6B000E23
:10164600181902E12D0E171905E11B4B1C2B154B22
:10165600162B08D0000E181902E12B0E171902E1FD
:10166600154B162B15C2E9FF16C2EAFFEECF17F28D
:10167600000E186F000E186F17C223F2F5EC03F078
:10168600005219E019C200F01AC201F00A0E046EE7
:10169600000E056E3FEC03F0300E175D026E000E75
:1016A6001859036E02500024196F035001201A6F57
:1016B600154B162BD7D71B511C1108E019510008E2
:1016C600006E1AC201F0000E015604D019C200F0D5
:0616D6001AC201F012002F
:0E16DC00160E6F6E9F0E6B6E7B0E696E120007
:1016EA00C00E01013B6F300E3C6F000E3D6F4F0E76
:1016FA00326F310E336F000E346FE20E356F2F0EDC
:10170A00366F000E376F960E386F300E396F000E37
:04171A003A6F120010
:0A171E00D08EA28AA08AF28E12007B
:101728000201176B17511525E96E000E1621EA6E96
:10173800EE520DE017511525E96E000E1621EA6EDE
:10174800EECF23F2CDEC03F00201172BEBD71200FA
:1017580047C1E9FF48C1EAFFEECF00F000AE05D06F
:1017680047C1E1FF48C1E2FFE66A01016D6B6E6B9C
:10177800456B466B446B2ADC030E02012D6F000E8D
:101788002E6F2F6B306B316B326BFDEC02F0ACDCE3
:0217980012003D
:10179A00D4EC03F0D00E0201236FB7EC03F0020180
:1017AA00236BB7EC03F0800E0201236FB7EC03F052
:1017BA00CBC123F2B7EC03F0CCC123F2B7EC03F0B0
:1017CA00CEC123F2B7EC03F0CDC123F2B7EC03F09C
:1017DA00CFC123F2B7EC03F0D0C123F2B7EC03F088
:1017EA000FEC06F0D4EC03F0D00E0201236FB7EC35
:1017FA0003F00201236BB7EC03F00201236BB7EC91
:08180A0003F00FEC06F01200E0
:1018120001016E51020A02E13ADD1ED055DC6C5123
:10182200000A19E1010E6725E16E000E6821E26EE1
:10183200080EE66E020E6725E16E000E6821E26E6A
:10184200200EE66E040EE66E67C1E1FF68C1E2FF9C
:0A1852008C0EE66E01D06C6B1200E4
:10185C0047C1E9FF48C1EAFFEECF00F0000E00BC23
:10186C00010E02012C6F040E01014719006E00C01D
:10187C0047F15E51080A0AE122C46EFF6E5000085F
:10188C0003E2100E5E6F02D0040E5E6F6E51010A01
:10189C002CE1020E4725E16E000E4821E26E280E67
:1018AC00006E040E016E00C0E6FF01C0E6FF4AECBC
:1018BC0005F06D51020A07E147C1E1FF48C1E2FFA3
:1018CC00840EE66E11D002012C51000A07E147C1CB
:1018DC00E1FF48C1E2FFC80EE66E06D047C1E1FF4A
:1018EC0048C1E2FF880EE66E02D065EC08F01200EB
:0A18FC006D6A696A01015E6B12005B
:10190600F1DE586B596B3F6B406B6A6A686AE3DEBF
:101916006D8C6E6A710E0201156F0F0E166F176BC6
:10192600010E186F000E196F14EC07F06D9C010183
:10193600CB6B080ECB5D16E2CBC100F0000E016E3C
:10194600003600900136003600900136000E002465
:10195600E16E040E0120E26EE66AE66AE66AE66A6F
:10196600CB2BE7D7160E706E68A603D0F70E681657
:10197600FBD7446B4D6B4E6B4F6B6D98080E476FE4
:0A198600040E486F5D6B5E6B1200EB
:10199000939093928A908A9293809382C79EC79CD9
:0619A000380EC66E1200B5
:1019A600010E0201296FA1EC02F00F0E0201296F50
:1019B600A1EC02F0800E0201296FA1EC02F0CBC16E
:0A19C60015F2CCC116F2ADDE1200DE
:1019D000200E01015E5D03E36DB201D002D0006A0A
:1019E00025D058C115F259C116F2DDDD00521DE1B6
:1019F000010E01015825E96E000E5921EA6EEECF65
:101A000000F000C0CFF1CEC115F20201166BCBC1C0
:101A100017F2CCC118F2CDC119F2C2DC00C058F1E6
:0E1A200001C059F1CFC100F001D0006A1200E0
:101A2E0001015E51000A0AE16D6A696A50DE70DEDC
:0E1A3E006DB602D06D86FCD7010E5E6F1200F1
:101A4C000101CD6BCE6BCF6BD06BD16BD26BD36BEB
:101A5C00D46BD56BD66BD76BD86BD96BDA6BDB6B66
:101A6C00DC6BDD6BDE6BDF6BE06BE16BE26BE36B16
:101A7C00E46BE56BE66BE76BE86BE96BEA6BEB6BC6
:101A8C00EC6BED6BEE6BEF6BF00E0201156F010E54
:101A9C00166FF10E176F010E186FF20E196F010E03
:101AAC001A6FF30E1B6F010E1C6FF40E1D6F010EDF
:101ABC001E6FF50E1F6F010E206FF60E216F010EBB
:101ACC00226F90EC06F0F0C115F2000E0201166FB9
:101ADC00CD0E176F010E186F71EC07F0F1C115F2F6
:101AEC00000E166FD20E176F010E186F71EC07F007
:101AFC00F2C115F2000E166FD70E176F010E186F8C
:101B0C0071EC07F0F4C115F2000E166FDC0E176FB6
:101B1C00010E186F71EC07F0F5C115F2000E166F7F
:101B2C00E10E176F010E186F71EC07F0F6C115F28C
:101B3C00000E166FE60E176F010E186F71EC07F0A2
:101B4C00F3C115F2000E166FEB0E176F010E186F26
:101B5C0071EC07F0CD0E156F010E166F33DDD20E42
:101B6C00156F010E166F2EDDD70E156F010E166F49
:101B7C0029DDDC0E156F010E166F24DDE10E156FDD
:101B8C00010E166F1FDDE60E156F010E166F1ADDB6
:101B9C00EB0E156F010E166F15DDCD0E156F010EC8
:101BAC00166F2BDD00C0F0F1D20E156F010E166F03
:101BBC0024DD00C0F1F1D70E156F010E166F1DDD7F
:101BCC0000C0F2F1DC0E156F010E166F16DD00C0B1
:101BDC00F4F1E10E156F010E166F0FDD00C0F5F17B
:101BEC00E60E156F010E166F08DD00C0F6F1EB0E58
:101BFC00156F010E166F01DD00C0F3F1CBC1E1FFD3
:101C0C00CCC1E2FFF0C1E6FF010E0101CB25E16E74
:101C1C00000ECC21E26EF1C1E6FF020ECB25E16E87
:101C2C00000ECC21E26EF2C1E6FF030ECB25E16E75
:101C3C00000ECC21E26EF4C1E6FF050ECB25E16E61
:101C4C00000ECC21E26EF5C1E6FF060ECB25E16E4F
:101C5C00000ECC21E26EF6C1E6FF000EE66E040E1D
:101C6C00CB25E16E000ECC21E26EF3C1E6FF120033
:101C7C00580EF66E300EF76E000EF86ED70EE16E43
:101C8C00010EE26E3E0E006E010E016E7EDCCBC1CB
:101C9C00E9FFCCC1EAFFEECF15F2D70E0201166FA9
:101CAC00010E176F07DCCDC1E9FFCEC1EAFFEECF05
:101CBC0015F2DC0E166F010E176F60EC0AF0CFC137
:101CCC00E9FFD0C1EAFFEECF15F2E10E166F010E5F
:101CDC00176F60EC0AF0D1C1E9FFD2C1EAFFEECF79
:101CEC0015F2E60E166F010E176F60EC0AF0D3C1F9
:101CFC00E9FFD4C1EAFFEECF15F2EB0E166F010E21
:101D0C00176F60EC0AF0D5C1E9FFD6C1EAFFEECF40
:101D1C0015F2F00E166F010E176F60EC0AF0D70E6D
:101D2C00156F010E166F4EDCDC0E156F010E166F63
:101D3C0049DCE10E156F010E166F44DCE60E156FD3
:101D4C00010E166F3FDCEB0E156F010E166F3ADCB1
:101D5C00F00E156F010E166F35DCF50E156F010EBA
:101D6C00166F2A0E176F010E186FE4EC06F0F50EC5
:101D7C00156F010E166FEB0E176F010E186FE4EC5A
:101D8C0006F0F50E156F010E166F1F0E176F010E74
:101D9C00186FE4EC06F0F50E156F010E166FE60EDB
:101DAC00176F010E186FE4EC06F0F50E156F010EAF
:101DBC00166F210E176F010E186FE4EC06F0F50E7E
:101DCC00156F010E166FF00E176F010E186FE4EC05
:101DDC0006F0050E156F020E166F230E176F010E0F
:101DEC00186FE4EC06F0050E156F020E166FE10E7F
:101DFC00176F010E186FE4EC06F0050E156F020E4E
:101E0C00166F1D0E176F010E186FE4EC06F0050E21
:101E1C00156F020E166FDC0E176F010E186FE4ECC7
:101E2C0006F0050E156F020E166FA10E176F000E41
:101E3C00186FE4EC06F0050E156F020E166FD70E38
:101E4C00176F010E186FE4EC06F0010E296FA1EC70
:101E5C0002F0010E0201156F010E166FF50E176FD1
:101E6C00010E186F2EEC07F0020E0201156F010E19
:101E7C00166F050E176F020E186F2EEC07F012007E
:101E8C00200E01015E5D03E36DB201D002D0006A49
:101E9C0039D03FC115F240C116F2D3EC0AF0005212
:101EAC0030E1CEC115F2010E166FCBC117F2CCC1C9
:101EBC0018F2CDC119F2D0EC09F000C03FF101C00D
:101ECC0040F10101636B646B656B666B3FC115F28E
:101EDC0040C116F2D3EC0AF0005209E00101635143
:101EEC0064116511661102E0006A0CD0EFD7010194
:101EFC00010E3F25E96E000E4021EA6EEECF00F098
:061F0C0001D0006A120082
:101F120080A006D080B204D0320E0101316F07D00A
:101F220080B005D080A203D00101330E316F31C1E0
:041F320000F01200A9
:101F3600780EC86E2ADDD4EC03F099C123F2B7EC13
:101F460003F09BC123F2B7EC03F0C8EC03F09AC18F
:101F560023F2B7EC03F00201236B67EC03F000C039
:101F66009CF10FEC06F09CC100F006D00D2EFED7BA
:0A1F76000C2EFCD70B2EFAD7120038
:101F80000101996B9A6B996B9A6B800E9A19006E8E
:101F9000800E005C02E1400E995D0AE2400E992538
:101FA000E16E050E9A21E26EE66A994B9A2BEDD707
:021FB00012001D
:101FB200010E0101546F99C156F19AC157F19BC1AB
:101FC2005AF19CC15BF19EDC010E016E0150010AC7
:061FD20001E12CDD12000C
:101FD8000F0EC16E070EB46E800EF16E896A8B6AA1
:101FE8008C6A8D6A926A946A956A966A806A826A2D
:0E1FF800836A846A030E926E030E896E1200D5
:10200600939493969398939A939C939E8194819696
:10201600819E819C819A81983AEC02F03AEC02F01A
:102026003AEC02F0818A818881844CEC02F081943A
:102036003AEC02F081844CEC02F081943AEC02F026
:1020460081844CEC02F081943AEC02F08198818410
:102056004CEC02F081943AEC02F081844CEC02F0F4
:102066008194819A818E81844CEC02F081943AECC1
:1020760002F0819E818881844CEC02F081948198E3
:1020860081844CEC02F081943AEC02F081844CECB1
:1020960002F08194818881844CEC02F081943AECC0
:1020A60002F0819881844CEC02F08194818E818CBF
:1020B600818A818881844CEC02F081943AEC02F0AA
:0620C6000101558112002A
:1020CC0099C1CBF19AC1CCF1010E01019925CD6FCB
:1020DC00000E9A21CE6F020E9925CF6F000E9A2119
:1020EC00D06F030E9925D16F000E9A21D26F050E79
:1020FC009925D36F000E9A21D46F060E9925D56FB2
:0A210C00000E9A21D66FB4DD120018
:1021160000C515F2BB0E0201166F010E176F60ECBB
:102126000AF001C515F29B0E166F010E176F60ECD3
:102136000AF002C515F2AB0E166F010E176F60ECB2
:102146000AF099C123F29AC124F2A30E256F000E5C
:10215600266FE8EC05F099C115F29AC116F2BB0E8E
:10216600176F010E186FE4EC06F099C115F29AC1CB
:1021760016F29B0E176F010E186FE4EC06F099C16C
:1021860015F29AC116F2AB0E176F010E186FE4EC3A
:0421960006F012003D
:10219A0099C1CBF19AC1CCF101DCC00E296FA1EC37
:1021AA0002F09BC115F29CC116F294EC0BF01200DE
:1021BA0099C1CBF19AC1CCF19BC1CDF1010E0101BC
:0621CA00CE6F5FDE120083
:0621D0007EEC0CF0120091
:1021D60056C1CBF157C1CCF1400E0101CD6F010EB6
:0821E600CE6FE8EC0CF01200D2
:1021EE00A69C99C1A9FFA69EA680A8CF00F01200BA
:0421FE00A19A120090
:10220200780EC86EC8EC0CF0D4EC03F099C123F23E
:10221200B7EC03F09AC123F2B7EC03F09BC123F2AF
:10222200B7EC03F00FEC06F0020E0B6E380E0C6EDC
:10223200AD0E0D6E0D2EFED70C2EFCD70B2EFAD73F
:02224200120088
:10224400A6A202D00000FCD7A69C99C1A9FF9AC1FE
:10225400A8FFA69EA684F2CF00F0F29E550EA76EAC
:10226400AA0EA76EA68200BE02D0F29E01D0F28E04
:04227400A69412001A
:1022780001C5CBF102C5CCF103C5CDF104C5CEF142
:1022880005C5CFF106C5D0F1CDEC0BF0990E0101D3
:10229800CB6F010ECC6F26EC0DF00501406B416B46
:1022A80099C142F59AC143F59BC144F59CC145F5D6
:0E22B8009DC146F59EC147F59FC148F5120035
:1022C6006984EF0E68166D82750E02012D6F000E81
:1022D6002E6F2F6B306B316B326BFDEC02F0120000
:1022E60070A019D071C1E9FF72C1EAFFEECF01F00B
:1022F6000150800A0FE147C1E9FF48C1EAFFEECF6E
:1023060001F00150840A06E171C1E1FF72C1E2FFEA
:0C2316008C0EE66E7090DF0E6816120050
:10232200FD0E01017015016E026AFF0E0216000E0B
:10233200021802E1000E01186EE17E0E7015016EA8
:1023420001C003F00332039E03C000F0000E016ED1
:10235200003600900136003600900136000E00244F
:10236200026E040E0120036E02C071F103C072F10D
:1023720002C067F103C068F1040E6719006E00C065
:1023820067F102C0E9FF03C0EAFFEECF00F000C030
:1023920001F03C0E01160132019E0132019E0150F4
:1023A2000D0A36E1020E7125E96E000E7221EA6E07
:1023B200EECF01F0EECF02F00250040A02E1280E45
:1023C200011823E1020E7125E16E000E7221E26E08
:1023D200200EE66E040EE66E02012B6B080E2B5DDC
:1023E20014E2200EE16E040EE26E2B51E126D8B00B
:1023F200E22A280EE96E040EEA6E2B51E926D8B0C5
:10240200EA2AEECFE6FF2B2BE9D7ACEC0BF002D099
:1024120009EC0CF00ED0FD0E7015016E026AFF0E73
:102422000216000E021802E1040E011802E12EEC5F
:042432000CF0120098
:10243600740E02012D6F000E2E6F2F6B306B316BF9
:10244600326BFDEC02F06D92699468A403D0FB0E2A
:062456006816FBD712001E
:10245C0075EC0BF0586B596B3F6B406B6A6A686A92
:10246C006EEC0BF06D8C6E6A710E02012D6F0F0EFF
:10247C002E6F2F6B010E306F000E316FE3EC02F0FC
:10248C006D9C2B6B080E2B5D16E22BC200F0000E20
:10249C00016E003600900136003600900136000EB9
:1024AC000024E16E040E0120E26EE66AE66AE66A3A
:1024BC00E66A2B2BE7D7160E706E68A603D0F70EC4
:1024CC006816FBD70101446B4D6B4E6B4F6B6D98CF
:0E24DC00080E476F040E486F5D6B5E6B1200BA
:1024EA000101966B74DD780EC86EC8EC0CF00CDD39
:1024FA00000E00BEFF0E016E000E011802E1330E3F
:10250A000018D8A4B5D00101996B6CDE00C07BF12C
:10251A00020E0B6E380E0C6EAD0E0D6E0D2EFED722
:10252A000C2EFCD70B2EFAD77C6B080E7C5DD8B02C
:10253A009DD07B51965D01E399D07F6B7D6B0C0E2C
:10254A007D5DD8B091D07B51965D01E38DD07E6BD5
:10255A00150E7E5D29E2800E976F010E986F7E51EF
:10256A009727D8B0982B290EE96E000EEA6E7C5197
:10257A00E926D8B0EA2AEECF99F1310EE96E000EBB
:10258A00EA6E7C51E926D8B0EA2AEECF9AF17FC1E9
:10259A009BF1CCDC97C1E1FF98C1E2FF00C0E6FFE6
:1025AA0001017F2B7E2BD4D7730ECB6F010ECC6F1C
:1025BA0026EC0DF0730E996F010E9A6F82DD1F0ED5
:1025CA000B6E710E0C6E1E0E0D6E0D2EFED70C2E9E
:1025DA00FCD70B2EFAD70000956B8351741904E0CF
:1025EA008351FF0A01E003D0010E956F01D03CD060
:1025FA008651751904E08651FF0A01E003D0010EE5
:10260A00956F01D031D09551010A2BE111D08C8000
:10261A0028D08C8226D08C8424D08C8622D08C8898
:10262A0020D08C8A1ED08C8C1CD08C8E1AD019D0BB
:10263A008151000AECE08151010AEBE08151020A62
:10264A00EAE08151030AE9E08151040AE8E0815194
:10265A00050AE7E08151060AE6E08151070AE5E04A
:10266A00E6D7962B7D2B6BD77C2B5FD7966B3FD704
:10267A000101C70ECB6F000ECC6FD3EC0CF07A0EB3
:10268A000B6EC10E0C6E810E0D6E0D2EFED70C2E2A
:0C269A00FCD70B2EFAD700000000120045
:1026A60098DCAEDC010E0201296FA1EC02F00C0EE3
:1026B6000201296FA1EC02F0010E0201156F010E55
:1026C600166F0F0E176F010E186F2EEC07F0FF0E28
:1026D6008C6E0D0E0B6E2D0E0C6ED70E0D6E0D2E16
:1026E600FED70C2EFCD70B2EFAD7000000008C6A02
:1026F600070E0B6E170E0C6E6A0E0D6E0D2EFED7A4
:102706000C2EFCD70B2EFAD70000FF0E8C6E070E90
:102716000B6E170E0C6E6A0E0D6E0D2EFED70C2E5E
:0C272600FCD70B2EFAD700008C6A1200C2
:1027320001015E51010A07E16DBA05D0686A69803C
:102742006988020E5E6F68A405D069A403D0FB0EEF
:10275200681670DE6DA202D051DD7AD068A018D062
:1027620069A016D07ADE040E5E6F200E0401026F9D
:10277200040E036F080E016F000E0015006E00C0FC
:1027820000F48C0E0011006E00C000F4FE0E6816FC
:1027920068A805D069A803D095DDEF0E681668AC6D
:1027A20011D069AC0FD0730E02012D6F000E2E6F87
:1027B2002F6B306B010E316F000E326FFDEC02F0A9
:1027C200BF0E681668AA03D069AA01D08BDD68A281
:1027D20010D069A20ED0FF0E02012D6F3F0E2E6F98
:1027E2002F6B306B010E316F000E326FFDEC02F079
:1027F2006A6A040E01015E5D02E200DD29D069A66B
:1028020026D002012A6B040E2A5D21E268A61BD0A3
:102812006CCF70F1F70E6816780E01017015016E1B
:102822000150000A02E17CDD0DD0720E02012D6F13
:10283200000E2E6F700E2F6F010E306F316B326BE8
:10284200FDEC02F001D003D002012A2BDCD7D6DC4A
:02285200120072
:102854000101836B846B856B866B876B886B896BDB
:10286400ECEC0FF0780EC86EC8EC0CF0C0EC0FF076
:10287400000E996F050E9A6F400E9B6F050E9C6FAC
:10288400D9EC0FF089EC0FF0000E00BEFF0E016EC4
:10289400000E011802E1320E0018D8A4B6D2430E7D
:1028A4000101CB6F000ECC6FD3EC0CF092DC005224
:1028B4000DE189EC0FF0000E00BEFF0E016E000E5C
:1028C400011802E1320E001801E1F0D700C501F051
:1028D400000E026E000E021802E1000E011842E121
:1028E4004C0E0101CB6F000ECC6FD3EC0CF01F0E1D
:1028F4000B6E710E0C6E1E0E0D6E0D2EFED70C2E71
:10290400FCD70B2EFAD70000B5DC400E0101996FFD
:10291400050E9A6F400E9B6F4EDC00520DE189EC60
:102924000FF0000E00BEFF0E016E000E011802E152
:10293400320E001801E1E9D7390E0101CB6F000E08
:10294400CC6FD3EC0CF03D0E0B6EE10E0C6E3F0E13
:102954000D6E0D2EFED70C2EFCD70B2EFAD70000D1
:10296400000052D200C501F0000E026E000E0218E3
:1029740002E1010E0118D8A4E2D00101846B080E13
:10298400845DD8B08FD08851010A02E1886B8AD067
:10299400856B876B0C0E875DD8B081D00501406BC9
:1029A400020E416F84C142F50101866B150E865DEE
:1029B4002EE2030E8625006E016A000E0122400EEF
:1029C40000248A6F050E01208B6F290EE96E000E1C
:1029D400EA6E8451E926D8B0EA2AEECF99F1310E95
:1029E400E96E000EEA6E8451E926D8B0EA2AEECFE9
:1029F4009AF185C19BF19BEC0FF08AC1E1FF8BC179
:102A0400E2FF00C0E6FF0101852B862BCFD7010131
:102A1400400E996F050E9A6F400E9B6FDDEC10F01F
:102A240000520DE189EC0FF0000E00BEFF0E016EA6
:102A3400000E011802E1320E001801E1E8D7EBECB8
:102A440010F000520DE189EC0FF0000E00BEFF0EF5
:102A5400016E000E011802E1320E001801E1EFD7F9
:102A640005010051020A18E0010E0101886F800E71
:102A7400CB6F000ECC6FD3EC0CF03D0E0B6EE10E61
:102A84000C6E3F0E0D6E0D2EFED70C2EFCD70B2EAA
:102A9400FAD70000000003D00101872B7BD7010186
:102AA400842B6DD70501406B030E416F400E01016D
:102AB400996F050E9A6F400E9B6FDDEC10F000527B
:102AC4000DE189EC0FF0000E00BEFF0E016E000E4A
:102AD400011802E1320E001801E1E8D70101885122
:102AE400000A15E18B0ECB6F000ECC6FD3EC0CF00B
:102AF4003D0E0B6EE10E0C6E3F0E0D6E0D2EFED7CD
:102B04000C2EFCD70B2EFAD70000000017D0750E40
:102B14000101CB6F000ECC6FD3EC0CF03D0E0B6EAD
:102B2400E10E0C6E3F0E0D6E0D2EFED70C2EFCD753
:102B34000B2EFAD7000000000101886B65D100C597
:102B440001F0000E026E000E021802E1070E0118D9
:102B5400D8A43AD10101996B05010151010F01017A
:102B64009A6F22EC11F00101846B080E845DD8B0D9
:102B7400C2D08951010A02E1896BBDD0856B876B94
:102B84000C0E875DD8B0B0D00501406B060E416FC6
:102B940084C142F50101866B150E865D4BE2290E58
:102BA400E96E000EEA6E8451E926D8B0EA2AEECF27
:102BB40099F185C19AF1020E8625006E016A000E14
:102BC4000122000E0024E96E050E0120EA6EEECF0C
:102BD4009BF101EC11F0030E01018625006E016AE0
:102BE400000E0122400E00248A6F050E01208B6F17
:102BF400290EE96E000EEA6E8451E926D8B0EA2A5D
:102C0400EECF99F1310EE96E000EEA6E8451E92699
:102C1400D8B0EA2AEECF9AF185C19BF19BEC0FF074
:102C24008AC1E1FF8BC1E2FF00C0E6FF0101852BF1
:102C3400862BB2D702C501F0000E026E800E006E24
:102C4400800E0218005C02E10150000846E2010116
:102C5400400E996F050E9A6F400E9B6FDDEC10F0DD
:102C640000520DE189EC0FF0000E00BEFF0E016E64
:102C7400000E011802E1320E001801E1E8D7EBEC76
:102C840010F000520DE189EC0FF0000E00BEFF0EB3
:102C9400016E000E011802E1320E001801E1EFD7B7
:102CA40005010051040A18E0010E0101896F590E53
:102CB400CB6F000ECC6FD3EC0CF03D0E0B6EE10E1F
:102CC4000C6E3F0E0D6E0D2EFED70C2EFCD70B2E68
:102CD400FAD70000000008D004D0010E0101836F70
:102CE40003D00101872B4CD701018351010A01E173
:102CF40002D0842B3AD70501406B050E416F89C180
:102D040042F5400E0101996F050E9A6F400E9B6FBC
:102D1400DDEC10F000520DE189EC0FF0000E00BE66
:102D2400FF0E016E000E011802E1320E001801E1DF
:102D3400E8D701018951000A15E1650ECB6F000E39
:102D4400CC6FD3EC0CF03D0E0B6EE10E0C6E3F0E0F
:102D54000D6E0D2EFED70C2EFCD70B2EFAD70000CD
:102D6400000017D0F50E0101CB6F000ECC6FD3EC31
:102D74000CF03D0E0B6EE10E0C6E3F0E0D6E0D2E23
:102D8400FED70C2EFCD70B2EFAD700000000010151
:102D9400896B01018351010A16E1010ECB6F010E0B
:102DA400CC6FD3EC0CF03D0E0B6EE10E0C6E3F0EAF
:102DB4000D6E0D2EFED70C2EFCD70B2EFAD700006D
:102DC40000000101896B20D00101730E996F010E7F
:102DD4009A6F8BEC10F0E80E0101996F000E9A6F58
:102DE400730E9B6F010E9C6FCDEC10F03D0E0B6EBD
:102DF400E10E0C6E3F0E0D6E0D2EFED70C2EFCD781
:102E04000B2EFAD7000000003DD5E8EC10F0D80EE8
:102E1400CB6F000ECC6FD3EC0CF03D0E0B6EE10EBD
:102E24000C6E3F0E0D6E0D2EFED70C2EFCD70B2E06
:082E3400FAD7000000001200B3
:102E3C00AAEC18F032DC89EC0FF03FD0980E0101AF
:102E4C00CB6F000ECC6FD3EC0CF0FEDC3ED0AC0E96
:102E5C000101CB6F000ECC6FD3EC0CF00C0E296F74
:102E6C00A1EC02F00D0E0B6E2D0E0C6ED70E0D6E2E
:102E7C000D2EFED70C2EFCD70B2EFAD7000000001F
:102E8C0075EC12F022D0B90E0101996F000E9A6FF9
:102E9C00A40E9B6F000E9C6FCDEC10F03D0E0B6ED4
:102EAC00E10E0C6E3F0E0D6E0D2EFED70C2EFCD7C8
:102EBC000B2EFAD70000000008D001013151320A64
:0E2ECC00BDE03151330AC3E0DED7B5D7FFD7E2
:1031540010EE29F0080E006E020E016EDA0EF66E05
:0E3164002E0EF76E000EF86ECBEC0AF0120085
:082EDA00A0A2A4A6A8AAACAEB8
:082EE200A1A3A5A7A9ABADAFA8
:0A2EEA0054696D652053656E740095
:092EF400555342204D4F444500A6
:0D2EFD0053656E64696E672054696D650051
:0C2F0A005772697465204572726F720086
:102F1600456E7472696573205772697474656E00C4
:0B2F260052656164204572726F7200FA
:0B2F310052656164204572726F7200EF
:0D2F3C00456E74726965732053656E7400F4
:092F4900555342204D6F646500F0
:022F52003A0043
:012F5400007C
:082F5500416C6C6F77656400AC
:0D2F5D0049324320525443204D6F646500FB
:0E2F6A004F7065726174696F6E204E6F740057
:102F780054494D45204D4F444520455849544544F2
:012F88000048
:102F8900555342204D4F4445204558495445440026
:0D2F99004E6F204F7065726174696F6E009D
:0C2FA6005772697465204572726F7200EA
:0E2FB200456E64206F66205369676E616C0087
:0E2FC00048617264776172652043726F6E0023
:022FCE003A00C7
:022FD0002F00D0
:022FD2002F00CE
:072FD40054494D453A20006D
:072FDB00444154453A200077
:102FE20076034D0069006E00640061006E006100AE
:102FF2006F0020005300740061007400650020001F
:1030020055006E0069007600650072007300690069
:103012007400790020002D00200049006C00690036
:10302200670061006E00200049006E0073007400AA
:103032006900740075007400650020006F0066006E
:10304200200054006500630068006E006F006C0091
:063052006F006700790029
:05305800000000000073
:05305D0000000000006E
:05306200000000000069
:05306700000000000064
:05306C0000000000005F
:0530710000000000005A
:10307600000000000000000000000000000000004A
:10308600000000000000000000000000000000003A
:103096002A03480061007200640077006100720034
:1030A60065002000430072006F006E00200044009F
:0A30B6006500760069006300650004
:1030C0000902290001010080320904000002030006
:1030D00000000921010100012221000705810340B0
:0930E00000010705010340000195
:0530E9000000000000E2
:0530EE000000000000DD
:0530F3000000000000D8
:0530F8000000000000D3
:0530FD000000000000CE
:053102000000000000C8
:053107000000000000C3
:10310C000600FF0901A10119012940150026FF0045
:10311C007508954081021901294075089540910266
:01312C00C0E2
:10312D00120100020000000801000100010001026F
:02313D0000018F
:10313F0030313233343536373839414243444546DE
:04314F000403090468
:020000040030CA
:0E000000210E3F1EFF8381FF0FC00FE00F4057
:00000001FF
